:020000040801F1
:10000000B0BE0220C101010843630108C702010814
:100010003F6301088D090108957B0108000000007D
:100020000000000000000000000000005374010800
:10003000E70A0108000000001302010855740108D6
:10004000DB010108DB010108DB010108DB0101081C
:10005000DB010108DB010108DB010108DB0101080C
:10006000DB010108DB010108DB010108DB010108FC
:10007000DB010108DB010108DB010108DB010108EC
:10008000DB010108DB010108DB010108DB010108DC
:10009000DB010108DB010108DB010108DB010108CC
:1000A000DB010108DB010108DB010108DB010108BC
:1000B000DB010108DB010108D9750108DB0101083A
:1000C000DB010108DB010108DB010108DB0101089C
:1000D000DB0101082D7B0108DB010108DB010108C0
:1000E000E90A0108DB010108DB010108DB01010865
:1000F000DB010108DB010108DB010108DB0101086C
:10010000DB010108D1630108DB010108DB01010803
:10011000DB010108DB010108DB010108DB0101084B
:10012000DB010108DB010108DB010108BD09010851
:10013000DB010108DB010108DB010108DB0101082B
:10014000DB010108DB010108DB010108DB0101081B
:10015000DB010108CD090108DB010108457B01082D
:10016000DB010108DB010108DB010108DB010108FB
:10017000DB010108DB010108DB01010800000000D0
:10018000DB010108DB010108DB010108DB010108DB
:10019000DB010108DB010108DB010108DB010108CB
:1001A000DB010108DB01010891090108DFF80CD02F
:1001B00000F084F90048004737050108B0BE02206E
:1001C0000648804706480047FEE7FEE7FEE7FEE7F1
:1001D000FEE7FEE7FEE7FEE7FEE7FEE775750108CE
:1001E000AD010108EFF3108072B6704780F31088FC
:1001F0007047434A1368012B04D04FF0010313608A
:10020000404A1060404A116040484FF08051016000
:100210007047EFF3108272B63948016851B34FF05E
:10022000000101603748016891B1EFF309811EF0C8
:10023000100F08BF21ED108B21E9F00F4FF00004E3
:100240001EF0100F08BF012441F8044D0068016042
:100250002D490968096808C9B1E8F00F002B18BFDB
:10026000B1EC108B81F309884EF0100E002B18BFF3
:100270002EF0100E82F310884EF0040E70472249C3
:100280000860EFF3148222F0040282F314881D49FF
:100290004FF0000008601A494FF0010008601C4848
:1002A0004FF47F01D0F8002041EA020101601748B5
:1002B0004FF08051016017480068006880F308889B
:1002C00061B662B670471EF0040F0CBFEFF30880F2
:1002D000EFF3098020E9F00F40F804ED40F804ED59
:1002E0001EF0040F0CBF80F3088880F3098800B566
:1002F0002AF056FA5DF804EB4EF0040E7047000049
:10030000C4060020BC060020C006002004ED00E06A
:1003100020ED00E008ED00E02DE9F05F054600204B
:1003200092469B4688460646814640241BE0284666
:1003300041464746224600F0B0F853465A46C01A96
:10034000914110D311461846224600F097F82D1A15
:1003500067EB01084F4622460120002100F08EF88D
:1003600017EB00094E41201EA4F10104DFDC4846D2
:1003700031462A464346BDE8F09F10B540EA0104E5
:100380000346A40703D009E010C9121F10C3042AB2
:10039000FAD203E011F8014B03F8014B521EF9D2D7
:1003A00010BDD2B201E000F8012B491EFBD270470C
:1003B0000022F6E710B513460A4604461946FFF731
:1003C000F0FF204610BD421E12F8013F002BFBD16A
:1003D00011F8013B02F8013B002BF9D1704710B531
:1003E000044604E00B7800F8013B03B1491C521E9F
:1003F000F8D2204610BD421C10F8011B0029FBD189
:10040000801A704710B5002200E0521C835C8C5C9F
:10041000A34201D1002BF8D1D8B2E1B2401A10BDED
:10042000034611F8012B00F8012B002AF9D11846D8
:10043000704730B505460020034600E05B1C934240
:1004400005D2EC5CC85C201A01D1002CF6D130BD7D
:1004500030B50B46014600202022012409E021FA94
:1004600002F59D4205D303FA02F5491B04FA02F591
:100470002844151EA2F10102F1DC30BD202A04DB64
:10048000203A00FA02F1002070479140C2F12003A7
:1004900020FA03F3194390407047202A04DB203AE6
:1004A00021FA02F00021704721FA02F3D040C2F194
:1004B000200291400843194670470000064C074D42
:1004C00006E0E06840F0010394E807009847103424
:1004D000AC42F6D3FFF76EFE782204089822040897
:1004E00070B58C1810F8015B15F0070301D110F8F6
:1004F000013B2A1106D110F8012B03E010F8016B23
:1005000001F8016B5B1EF9D12B0705D40023521EA5
:100510000DD401F8013BFAE710F8013BCB1A921C0D
:1005200003E013F8015B01F8015B521EF9D5A1420B
:10053000D8D3002070BD10B5FFF754FE2BF04DFE50
:10054000002010BD54494A6822F440324A604A688B
:1005500043681A434A600268526822F48072036852
:100560005A6002685368026943EA022203685A60CB
:100570000268526822F0407203685A60026852684A
:1005800083681A4303685A600268926822F4006222
:1005900003689A6002689268C3681A4303689A60A5
:1005A0003E4B826A9A4218D00268926822F07062CA
:1005B00003689A6002689268836A1A4303689A60C3
:1005C0000268926822F0405203689A60026892685A
:1005D000C36A1A4303689A600BE00268926822F0CB
:1005E000706203689A600268926822F04052036861
:1005F0009A600268926822F0020203689A600268B8
:100600009368826943EA420203689A60026AA2B16F
:100610000268526842F4006203685A6002685268D5
:1006200022F4604203685A6002685368426A521EAC
:1006300043EA423203685A6005E00268526822F4D5
:10064000006203685A600268D26A22F4700203688A
:10065000DA620268D36A828B521E43EA025203684E
:10066000DA620268926822F4007203689A60026893
:100670009368026B43EA422203689A6002689268B8
:1006800022F4806203689A6002689368426943EAD0
:10069000822203689A607047002301400100000F26
:1006A0007047000010B504462146024802F063FF7F
:1006B00010BD0000ACD1002010B5044802F06EFF60
:1006C000042801D0012010BD0020FCE7ACD100209F
:1006D00010B51048104908600020486000210E48FD
:1006E0008160C160016141618161002400F016F800
:1006F000012801D0012010BD074803F063F804462B
:1007000034B94FF40061044802F0E8FD00B101245F
:100710002046F0E7002C0140ACD1002008B50120B4
:1007200000909DF8000008BD2DE9F04104460D46FB
:100730001646002733462A462146044803F084F92A
:1007400000B101273846BDE8F0810000ACD100209F
:100750000120014908707047300000202DE9F04762
:100760000646894617464FF0010A394806F082FAD4
:10077000002802DA5046BDE8F08706F003000028A2
:1007800064D13A4649463046FFF7CEFF48BB0020C9
:100790003049087000F036FF044600BF2D4800784D
:1007A00028B900F02FFF001B29498842F6D32948B9
:1007B000007810B94FF0010A48E000202549087080
:1007C00000F020FF044605E0FFF776FF10B94FF078
:1007D000000A05E000F016FF001B1D498842F3D314
:1007E00034E04FF0000828E0494609F101090122F0
:1007F0001948FFF799FF0546E5B90020154908702B
:1008000000F000FF044600BF1248007828B900F04D
:10081000F9FE001B0E498842F6D30E48007800B955
:100820000DE04FF400720C493046FFF7A6FD06F5C7
:10083000007600E003E008F10108B845D4D300BF1A
:10084000B84502D10DB94FF0000A00BF504692E7FB
:1008500000E1F50530000020F0D200202DE9F04144
:1008600004460D461646002733462A4621460448CC
:1008700003F088F900B101273846BDE8F081000097
:10088000ACD1002001200149087070472F000020E2
:100890002DE9F0470746894690464FF0010A0020AF
:1008A00037490870374806F0E5F9002802DA504663
:1008B000BDE8F08707F0030000285ED142464946B4
:1008C0003846FFF7CBFF30BB00F09CFE044600BF6C
:1008D0002B48007828B900F095FE001B2949884272
:1008E000F6D32748007810B94FF0010A45E0002000
:1008F0002349087000F086FE044605E0FFF7DCFEA1
:1009000010B94FF0000A05E000F07CFE001B1D4905
:100910008842F3D331E0002627E000201849087010
:10092000494609F1010901221748FFF797FF0546DB
:10093000CDB900F067FE044600BF1148007828B921
:1009400000F060FE001B0F498842F6D30C48007887
:1009500000B90CE04FF400720B493846FFF70DFD6B
:1009600007F5007700E002E0761C4645D5D300BFCE
:10097000464502D10DB94FF0000A504698E70000F5
:100980002F00002000E1F505F0D2002000BFFEE7B7
:1009900010B50848406800F0020048B1054880687A
:1009A00040F00200034988600348006815F0C2FA6D
:1009B00010BD000000B002407C05002010B50248C8
:1009C00000F0F2FA10BD000030D2002010B502484D
:1009D00000F0EAFA10BD000090D20020014608782D
:1009E00010381823B0FBF3F20848805CC865032A6E
:1009F00005D908686FF30900001D886503E00868E1
:100A00006FF309008865886D70470000A41B040817
:100A1000014600208A6A8B69CBB932B1012A0DD018
:100A2000022A03D0032A10D10EE000BFCB6A03F0E4
:100A30008073B3F1807F00D1012007E0CB6AB3F16E
:100A4000C07F00D1012001E000E000BF34E08B69ED
:100A5000B3F5005F1AD132B1012A07D0022A03D0C0
:100A6000032A11D10AE000BF01200EE0CB6A03F097
:100A70008073B3F1807F00D1012006E0CB6AB3F12F
:100A8000C07F00D1012000E000BF15E032B1012A93
:100A900005D0022A04D0032A0CD103E000BF00BF16
:100AA000012008E0CB6A03F08073B3F1807F00D1AE
:100AB000012000E000BF00BF704730B50468246823
:100AC00024F4802405682C60046863608468402CEA
:100AD00004D10468A2600468E16003E00468A160D6
:100AE0000468E26030BD704710B54FF4806000F0DC
:100AF0005FFC10BD704730B504460D460022294604
:100B0000204600F001F830BDF0B503460125002471
:100B10001148807B02281CDA00200F4EB67B0E4F56
:100B2000B8553846867B001D40F82630001F867B6E
:100B30000C3082553E46B07B461CBE73044604F121
:100B4000300008703A2048702F2088700020C8704C
:100B500000252846F0BD0000C076022030B50246D0
:100B6000002300240868012816D013686FF30E03D1
:100B7000D1E901052843CD6828430D6928434D6913
:100B800028438D692843CD6928430D6A28434D6A5F
:100B900028430343136019E0136823F4F843D1E9B1
:100BA000070528434D6A2843034354686FF30E0436
:100BB000D1E901052843CD6828430D6928434D69D3
:100BC00028438D692843044313605460002030BDDE
:100BD0000246506940EA4100506100207047F8B574
:100BE00006460C461546002000900027D4E9000177
:100BF0000843A168491E40EA4110E16840EA4120EB
:100C000000900098306100F0FDFC074609E0681C88
:100C100038B125B100F0F6FCC01BA84201D9032071
:100C2000F8BDB06900F020000028F0D100BFF7E760
:100C300070B50346154600220024012D1FD09A6886
:100C400002F070420868401E4E68761E40EA0616A2
:100C50008868401E46EA0026C868401E46EA0036FC
:100C6000088A401E46EA0046888A401E46EA005628
:100C7000087E401E46EA006002439A6022E09A68BD
:100C800011480240C868401E0603888A401E46EA92
:100C900000500243DC6804F070440868401E4E684F
:100CA000761E40EA06168868401E46EA0026088A34
:100CB000401E46EA0046087E401E46EA00600443A5
:100CC0009A60DC60002070BDFF0F0FFF38B5024650
:100CD0000020009000BF92F83C00012801D10220C2
:100CE00038BD012082F83C0000BF0868092816D9E9
:100CF0001068C0680C780A3C04EB44050724AC403B
:100D0000A0431468E0600C780A3C04EB4404886853
:100D1000A0401468E46820431468E06013E01068A1
:100D200000690C7804EB44050724AC40A043146828
:100D300020610C7804EB44048868A040146824699E
:100D40002043146820614868072817D21068406B58
:100D50000C79641E04EB84051F24AC40A043146886
:100D60006063088880B20C79641E04EB8404A040A0
:100D70001468646B20431468606331E048680D2890
:100D800017D21068006B0C79E41F04EB84051F2454
:100D9000AC40A04314682063088880B20C79E41F3B
:100DA00004EB8404A0401468246B2043146820637F
:100DB00016E01068C06A0C790D3C04EB84051F2412
:100DC000AC40A0431468E062088880B20C790D3C06
:100DD00004EB8404A0401468E46A20431468E062D1
:100DE0001A4B1B4C1068A04206D10868122803D188
:100DF000586840F480005860154C1068A0421ED11D
:100E0000144C0868A04202D00868112817D158680D
:100E100040F4000058600F4C0868A0420FD10E4803
:100E200000680E4CB0FBF4F000EB80004000009036
:100E300002E00098401E009000980028F9D100BF01
:100E4000002082F83C0000BF00BF49E700230140BA
:100E500000200140120000103C00002040420F0022
:100E600070B5044600250CB9012070BD1549A06A73
:100E7000884200D000BF206C30B90020606484F844
:100E80003C00204600F020F8206C00F0100088B9EB
:100E9000206C20F4885040F0020020642046FFF7C8
:100EA00051FB00206064206C20F0020040F0010043
:100EB000206400E0012500BF002084F83C0000BF52
:100EC0002846D2E70100000F10B586B00446142171
:100ED00001A8FFF76DFA26492068884245D100BF76
:100EE000002000902348006840F480602149086099
:100EF0000846006800F48060009000BF00BF00BF9B
:100F0000002000901B481438006840F02000194968
:100F1000143908600846006800F02000009000BF07
:100F200000BF00BF002000900846006840F00400A9
:100F300008600846006800F00400009000BF00BF91
:100F40004FF440700190032002900020039001A90B
:100F5000094800F03BFA0220019003200290002093
:100F6000039001A9054800F031FA06B010BD000059
:100F700000220140443802400014024000080240B0
:100F8000014691F83500022803D0802048650120F1
:100F90007047052081F835000868006820F00100DE
:100FA0000A6810600020F3E7F8B5044600200090BE
:100FB0008C4800684FF41651B0FBF1F7A56D2E6810
:100FC00094F85C1008208840304098B12068006890
:100FD00000F0040070B12068006820F0040021686F
:100FE000086094F85C1008208840A860606D40F0AC
:100FF0000100606594F85C1001208840304068B1C1
:101000002068406900F0800040B194F85C10012035
:101010008840A860606D40F00200606594F85C1044
:1010200004208840304068B12068006800F0020069
:1010300040B194F85C1004208840A860606D40F0D6
:101040000400606594F85C1010208840304078B34C
:101050002068006800F0080050B394F85C1010207D
:101060008840A8602068006800F4802080B1206873
:10107000006800F4002028B9206CC8B12046216C1B
:10108000884715E0A06C98B12046A16C88470FE016
:101090002068006800F4807028B92068006820F09B
:1010A000080021680860206C10B12046216C884738
:1010B00094F85C10202088403040002865D02068DB
:1010C000006800F0100000285FD094F85C10202029
:1010D0008840A86094F83500052828D12068006869
:1010E00020F01600216808602068406920F0800028
:1010F00021684861206C08B9A06C28B1206800689C
:1011000020F008002168086094F85C103F208840B7
:10111000A86000BF002084F8340000BF012084F8DC
:101120003500206D10B12046216D8847F8BD20683C
:10113000006800F4802080B12068006800F400207E
:1011400028B9606C10B12046616C88471DE0E06BE7
:10115000D8B12046E16B884717E02068006800F4AA
:10116000807068B92068006820F01000216808606D
:1011700000BF002084F8340000BF012084F835004F
:10118000E06B10B12046E16B8847606D38B3606D4D
:1011900000F00100F0B1052084F8350020680068F7
:1011A00020F001002168086000BF0098401C0090FA
:1011B000B84200D905E02068006800F0010000286E
:1011C000F3D100BF00BF002084F8340000BF01202D
:1011D00084F83500E06C10B12046E16C884700BF10
:1011E000A4E700003C0000202DE9F0410446002562
:1011F00000F008FA074614B90120BDE8F081606AE2
:1012000000B100BF00BF002084F8340000BF0220FE
:1012100084F835002068006820F00100216808602B
:101220000AE000F0EFF9C01B052805D92020606511
:10123000032084F83500E0E72068006800F0010032
:101240000028EED12068056821480540D4E9010155
:101250000843E16808432169084361690843A169BB
:101260000843E1690843216A08430543606A04288A
:1012700003D1D4E90B0108430543206805602068C9
:10128000456925F00705606A0543606A04280DD1A9
:10129000A06A0543E06A48B12046FFF7B9FB28B1D0
:1012A00040206065012084F83500A6E7206845618C
:1012B0002046FFF793FB064694F85C103F208840D9
:1012C000B06000206065012084F83500002094E7BC
:1012D0003F8010F02DE9F04704460D4616461F46A4
:1012E0004FF00008D4F8589000BF94F8340001285B
:1012F00002D10220BDE8F087012084F8340000BF4D
:1013000094F8350001282BD1022084F83500002004
:1013100060653B46324629462046FFF7CEFB94F8EF
:101320005C103F208840C9F808002068006840F041
:101330001600216808602068406940F0800021683C
:101340004861206C28B12068006840F008002168DE
:1013500008602068006840F001002168086006E02D
:1013600000BF002084F8340000BF4FF00208404660
:10137000C0E7000070B5044600F044F90646254673
:10138000681C10B104480078054400BF00F03AF929
:10139000801BA842FAD370BD60070020B0F5806FB3
:1013A00002D10121014A11757047000040D100208F
:1013B00010B5044604480068204020B1024804608B
:1013C0002046FFF7EBFF10BD143C0140F8B5024684
:1013D0000B460025002400200021E6E0012606FA45
:1013E00001F51E6806EA0504AC4273D15E68022E60
:1013F00002D05E68122E13D1CF0802F1200656F8F3
:1014000027004E07F70E0F26BE40B0434F07FF0ED2
:101410001E69BE403043CF0802F1200646F827007F
:1014200010684F000326BE40B0431E7906F0030645
:101430004F00BE40304310605E68012E08D05E68E9
:10144000022E05D05E68112E02D05E68122E13D1D6
:1014500090684F000326BE40B0434F00DE68BE4098
:1014600030439060506801268E40B0431E79C6F329
:1014700000168E4030435060D0684F000326BE40B7
:10148000B0434F009E68BE403043D0605E6806F0B7
:101490008056B6F1805FA8D100BF00260096454E69
:1014A000366846F48046434F3E603E46366806F452
:1014B0008046009600BF00BF3F4E8F0856F82700B9
:1014C0008E07370F0F26BE40B0433C4EB24202D1CA
:1014D00000262EE068E03A4EB24201D1012628E013
:1014E000384EB24201D1022623E0374EB24201D13A
:1014F00003261EE0354EB24201D1042619E0344ED7
:10150000B24201D1052614E0324EB24201D1062684
:101510000FE0314EB24201D107260AE02F4EB2420F
:1015200001D1082605E02E4EB24201D1092600E085
:101530000A268F073F0FBE4030431F4E8F0846F8E4
:101540002700284E3068A0435E6806F48036B6F562
:10155000803F00D12043234E3060361D3068A043C9
:101560005E6806F40036B6F5003F00D120431D4EFC
:10157000361D3060361D3068A0435E6806F4801664
:10158000B6F5801F00D12043164E08363060361D58
:101590003068A0435E6806F40016B6F5001F00D15F
:1015A0002043104E0C363060491C1029FFF416AF52
:1015B000F8BD0000443802400838014000000240F5
:1015C0000004024000080240000C024000100240EB
:1015D0000014024000180240001C0240002002409B
:1015E00000240240003C0140024613690B400BB14D
:1015F000012000E0002070470AB1816101E00B0486
:101600008361704701480068704700005807002058
:10161000024692F83D0020281ED1242082F83D0089
:101620001068006820F00100136818601068406AB4
:1016300020F01000136858621068406A084313686D
:1016400058621068006840F001001368186020209C
:1016500082F83D00002070470220FCE710B50246EA
:101660000B46002192F83D0020281DD1242082F84D
:101670003D001068006820F00100146820601068C8
:10168000406A81B221F00F0141EA030081B2106883
:1016900041621068006840F001001468206020205A
:1016A00082F83D00002010BD0220FCE770B5044622
:1016B000002600250CB9012070BD94F83D0028B922
:1016C000002084F83C00204600F03AFD242084F8F5
:1016D0003D002068006820F001002168086001F0EA
:1016E00033FA05463948B5FBF0F6206846603849BC
:1016F0006068884201D8701C07E04FF49670704310
:101700004FF47A71B0FBF1F0401C21680862304957
:10171000606888420ED860684000B5FBF0F0C0F306
:101720000B00042801D204202DE060684000B5FBC6
:10173000F0F028E0A06828B9606800EB4000B5FB35
:10174000F0F008E0606800EBC00101EB0010B5FBB1
:10175000F0F040F48040C0F30B0008B9012012E023
:10176000A06828B9606800EB4000B5FBF0F008E025
:10177000606800EBC00101EB0010B5FBF0F040F435
:10178000804040F400402168C861D4E90701084363
:1017900021680860D4E90310084321688860D4E90F
:1017A000050108432168C8602068006840F0010016
:1017B0002168086000202064202084F83D0000207B
:1017C000206384F83E0000BF76E7000040420F002F
:1017D000A08601002DE9F84304468946174698463D
:1017E000089E0025FFF70EFF054694F83D002028CF
:1017F0007CD119230122BE492046009503F077F8D9
:1018000010B10220BDE8F88300BF94F83C00012825
:1018100001D10220F6E7012084F83C0000BF2068D7
:10182000006800F0010028B92068006840F001005D
:10183000216808602068006820F400602168086062
:10184000222084F83D00102084F83E00002020640F
:101850006762A4F82A80A748E062608D20852B4645
:1018600032464946204602F003FE80B1206C04282F
:1018700006D100BF002084F83C0000BF0120C1E772
:1018800000BF002084F83C0000BF0320BAE7208D91
:1018900088B900BF0020009020684069009020684F
:1018A0008069009000BF00BF2068006840F40070AD
:1018B0002168086046E0208D012818D12068006862
:1018C00020F480602168086000BF0020009020683C
:1018D0004069009020688069009000BF00BF2068C8
:1018E000006840F40070216808602BE0FEE0208D65
:1018F000022816D12068006820F480602168086002
:101900002068006840F400602168086000BF002083
:10191000009020684069009020688069009000BFB6
:1019200010E02068006840F480602168086000BF13
:101930000020009020684069009020688069009035
:1019400000BF00BFC3E0208D032872D8208D01287E
:101950001AD12A463146204603F05DF830B1206C9A
:10196000202801D103204DE701204BE720680069C2
:10197000C1B2626A501C60621170208D401E2085C9
:10198000608D401E6085A2E0208D02282AD133465A
:10199000002259492046009502F0A9FF08B1032012
:1019A00030E72068006840F4007021680860206813
:1019B0000069C1B2626A501C60621170208D401EC5
:1019C0002085608D401E608520680069C1B2626A12
:1019D000501C60621170208D401E2085608D401E5D
:1019E000608574E03346002243492046009502F0AA
:1019F0007EFF08B1032005E72068006820F48060BE
:101A00002168086020680069C1B2626A501C606287
:101A10001170208D401E2085608D401E60853346EC
:101A2000002235492046009502F061FF10B10320E5
:101A3000E8E620E02068006840F400702168086053
:101A400020680069C1B2626A501C60621170208D0A
:101A5000401E2085608D401E608520680069C1B2EF
:101A6000626A501C60621170208D401E2085608D5E
:101A7000401E60852BE02A463146204602F0CBFF0F
:101A800030B1206C202801D10320BBE60120B9E64B
:101A900020680069C1B2626A501C60621170208DBA
:101AA000401E2085608D401E608520684069C0F31F
:101AB000800060B120680069C1B2626A501C606237
:101AC0001170208D401E2085608D401E6085208D08
:101AD00000287FF438AF202084F83D00002084F8EF
:101AE0003E0000BF84F83C0000BF8BE6022089E680
:101AF000020010000000FFFF040001002DE9F84380
:101B00000446894616461F46DDF820800025FFF76B
:101B100079FD054694F83D0020287DD11923012246
:101B200059492046009502F0E2FE10B10220BDE8BE
:101B3000F88300BF94F83C00012801D10220F6E7A9
:101B4000012084F83C0000BF2068006800F001001C
:101B500028B92068006840F001002168086020680A
:101B6000006820F4006021680860212084F83D00AE
:101B7000102084F83E000020206466626785434898
:101B8000E062608D20852B4642464946204602F0A1
:101B900007FD80B1206C042806D100BF002084F826
:101BA0003C0000BF0120C2E700BF002084F83C00D9
:101BB00000BF0320BBE700BF002000902068406901
:101BC000009020688069009000BF00BF46E02A4670
:101BD0004146204602F056FF60B1206C042807D130
:101BE0002068006840F400702168086001209EE7CA
:101BF00003209CE7616A481C6062087821680861DC
:101C0000608D401E6085208D401E208520684069C3
:101C1000C0F3800078B100E034E0208D58B1616AF3
:101C2000481C6062087821680861608D401E6085EC
:101C3000208D401E20852A464146204602F02CFE7B
:101C400060B1206C042807D12068006840F400705F
:101C50002168086001206AE7032068E7208D0028DA
:101C6000B5D12068006840F4007021680860202029
:101C700084F83D00002084F83E0000BF84F83C005A
:101C800000BF54E7022052E7020010000000FFFFEF
:101C90002DE9FC5F04460F4690469946DDE90CAB02
:101CA0000E9E0025FFF7AEFC054694F83D00202867
:101CB0007ED119230122BD492046009502F017FE6E
:101CC00010B10220BDE8FC9F00BF94F83C00012841
:101CD00001D10220F6E7012084F83C0000BF206813
:101CE000006800F0010028B92068006840F0010099
:101CF000216808602068006820F40060216808609E
:101D0000222084F83D00402084F83E00002020641A
:101D1000C4F824A0A4F82AB0A548E062608D20850C
:101D20004B46424639462046CDE9006502F098FC14
:101D300080B1206C042806D100BF002084F83C004C
:101D400000BF0120BEE700BF002084F83C0000BFB8
:101D50000320B7E7208D88B900BF002001902068DC
:101D60004069019020688069019000BF00BF206831
:101D7000006840F400702168086041E0208D01286F
:101D800019D12068006820F480602168086000BFD5
:101D900000200190206840690190206880690190CE
:101DA00000BF00BF2068006840F40070216800E0B8
:101DB000FAE0086024E0208D022816D1206800682F
:101DC00020F48060216808602068006840F40060AA
:101DD0002168086000BF00200190206840690190E0
:101DE00020688069019000BF0AE000BF00200190D8
:101DF00020684069019020688069019000BF00BFA1
:101E0000C3E0208D032872D8208D01281AD12A46DC
:101E10003146204602F0FFFD30B1206C202801D170
:101E200003204FE701204DE720680069C1B2626AD4
:101E3000501C60621170208D401E2085608D401EF8
:101E40006085A2E0208D02282AD13346002259491C
:101E50002046009502F04BFD08B1032032E72068D0
:101E6000006840F400702168086020680069C1B211
:101E7000626A501C60621170208D401E2085608D4A
:101E8000401E608520680069C1B2626A501C6062B1
:101E90001170208D401E2085608D401E608574E08D
:101EA0003346002243492046009502F020FD08B148
:101EB000032007E72068006820F48060216808603C
:101EC00020680069C1B2626A501C60621170208D86
:101ED000401E2085608D401E6085334600223549B6
:101EE0002046009502F003FD10B10320EAE620E051
:101EF0002068006840F4007021680860206800696C
:101F0000C1B2626A501C60621170208D401E208533
:101F1000608D401E608520680069C1B2626A501CF5
:101F200060621170208D401E2085608D401E60858E
:101F30002BE02A463146204602F06DFD30B1206C80
:101F4000202801D10320BDE60120BBE620680069FE
:101F5000C1B2626A501C60621170208D401E2085E3
:101F6000608D401E608520684069C0F3800060B1CC
:101F700020680069C1B2626A501C60621170208DD5
:101F8000401E2085608D401E6085208D00287FF4D6
:101F900038AF202084F83D00002084F83E0000BFC8
:101FA00084F83C0000BF8DE602208BE602001000A2
:101FB0000000FFFF040001002DE9FC5F04460F460E
:101FC00090469946DDE90CAB0E9E0025FFF71AFB03
:101FD000054694F83D0020287ED119230122564958
:101FE0002046009502F083FC10B10220BDE8FC9F62
:101FF00000BF94F83C00012801D10220F6E701203F
:1020000084F83C0000BF2068006800F0010028B997
:102010002068006840F001002168086020680068BE
:1020200020F4006021680860212084F83D004020F1
:1020300084F83E0000202064C4F824A0A4F82AB04C
:102040003E48E062608D20854B4642463946204638
:10205000CDE9006502F0B0FB80B1206C042806D108
:1020600000BF002084F83C0000BF0120BEE700BF95
:10207000002084F83C0000BF0320B7E733E02A4685
:102080003146204602F0FEFC60B1206C042807D1E6
:102090002068006840F40070216808600120A5E70E
:1020A0000320A3E7616A481C606208782168086120
:1020B000208D401E2085608D401E6085206840690F
:1020C000C0F3800078B1208D68B1616A481C6062FD
:1020D00008782168086100E02CE0208D401E2085F2
:1020E000608D401E6085208D0028C8D12A4631466B
:1020F000204602F0D1FB60B1206C042807D1206893
:10210000006840F400702168086001206EE7032039
:102110006CE72068006840F40070216808602020A7
:1021200084F83D00002084F83E0000BF84F83C00A5
:1021300000BF5BE7022059E7020010000000FFFF2C
:1021400010B586B00446142101A8FEF731F91B49E9
:102150002068884230D100BF0020009018480068F5
:1021600040F08000164908600846006800F08000D2
:10217000009000BF00BF4FF4C07001901220029089
:1021800001200390032004900420059001A90D482C
:10219000FFF71CF900BF00200090094810300068CC
:1021A00040F400000649103108600846006800F459
:1021B0000000009000BF00BF06B010BD005C0040F2
:1021C00030380240001C0240034800680349097887
:1021D0000844014908607047580700206007002044
:1021E00010B50D48006840F400700B4908600846BF
:1021F000006840F4806008600846006840F4807021
:102200000860032000F014FA002000F007F800F046
:102210009FF9002010BD0000003C024070B504464C
:102220000E4800784FF47A71B1FBF0F00C49096860
:10223000B1FBF0F5284601F00CFF08B1012070BD9C
:10224000102C07D200222146501E00F0B2F905489A
:10225000046001E00120F2E70020F0E760070020C1
:102260003C0000205C07002070B504460E46154671
:1022700000BF94F8A000012801D1022070BD012008
:1022800084F8A00000BF022084F8A10005EB8501BE
:1022900001EBC50204F1380101EB82003422314622
:1022A000FEF76BF82A463146204603F03FFF012037
:1022B0002168486284F8A10000BF002084F8A000D3
:1022C00000BF00BFDAE7000070B504460025002615
:1022D0000CB9012070BD94F8A10028B9002084F841
:1022E000A000204600F07EF8022084F8A1002068BB
:1022F000806920F0704021688861D4E901010843B9
:10230000E168084321690843216889690843216815
:102310008861206880683249084021688860A08A06
:10232000050420688068A169294308432168886002
:102330002068C0682A4908402168C860A08B05044D
:102340002068C068216A294308432168C860206862
:1023500000692349084021680861A08C05042068B1
:102360000069A16A2943084321680861206840691F
:102370001B49084021684861A08D05042068406918
:10238000216B294308432168486194F83500050210
:1023900094F8360006042068C06A00F07F40216887
:1023A000C86246EA050094F8341008432168C96AF7
:1023B00008432168C8622068406B40F0060021682D
:1023C00048632068806940F001002168886100202E
:1023D000C4F8A400012084F8A10000207AE70000DE
:1023E00000F800F010B586B00446142101A8FDF7EE
:1023F000DFFF5149206888427ED100BF0020009055
:102400004E48006840F080604C490860084600680B
:1024100000F08060009000BF00BF00BF002000906F
:1024200046481438006840F40000444914390860F4
:102430000846006800F40000009000BF00BF00BF25
:10244000002000900846006840F48070086008464C
:10245000006800F48070009000BF00BF00BF002043
:1024600000900846006840F02000086008460068B8
:1024700000F02000009000BF00BF00BF00200090CF
:102480000846006840F0800008600846006800F0D8
:102490008000009000BF00BF00BF002000900846F1
:1024A000006840F0400008600846006800F0400006
:1024B000009000BF00BF40F2F76001900220029040
:1024C00000200390022004900E20059001A91C48D2
:1024D000FEF77CFF4FF48060019002200290002004
:1024E0000390022004900E20059001A91548FEF7E4
:1024F0006DFF4FF47E4000E01BE00190022002904F
:1025000000200390022004900E20059001A90E489F
:10251000FEF75CFF4FF40C60019002200290002057
:102520000390022004900E20059001A90748FEF7B1
:102530004DFF06B010BD0000006801404438024065
:102540000020024000140240001C0240001802401B
:1025500008B500BF002000900E48006840F480409D
:102560000C4908600846006800F48040009000BFF5
:1025700000BF00BF00200090081F006840F080509E
:10258000091F08600846006800F08050009000BFF6
:1025900000BF08BD4438024000BF00F01F02012107
:1025A00091404209920002F1E022C2F8001100BFFE
:1025B00070472DE9F05F80460D461646002703F070
:1025C000C1FE074639462A46334601F00700C0F1EE
:1025D000070ABAF1040F02D94FF0040A01E0C0F172
:1025E000070AD14600F1040ABAF1070F02D24FF0F0
:1025F000000A01E0A0F1030AD4464FF0010A0AFAEA
:1026000009FAAAF1010A0AEA020A0AFA0CFA4FF0D8
:10261000010B0BFA0CFBABF1010B0BEA030B4AEAC3
:102620000B042146404603F095FEBDE8F09F0000F4
:1026300000BF00F00702064B19684FF6FF03194070
:10264000044B0B4343EA0221014B196000BF704762
:102650000CED00E00000FA0538B5002400BF0020B2
:1026600000901D48006840F080501B4908600846F3
:10267000006800F08050009000BF00BF01201749A3
:102680000864FEF7BFFF044607E0FEF7BBFF001B30
:10269000B0F57A7F01D9032038BD1148406800F4B5
:1026A0008030B0F5803FF0D101200C494864FEF73E
:1026B000A9FF044607E0FEF7A5FF001BB0F57A7FEF
:1026C00001D90320E8E70648406800F40030B0F57F
:1026D000003FF0D10020DFE74038024000000E420A
:1026E00000700040F8B5044600250026207800F070
:1026F000010020B9207800F00200022852D1002009
:10270000A8498866FEF77EFF054606E0FEF77AFFD9
:10271000401B022801D90320F8BDA3480068C0F37C
:10272000C0600028F2D1207800F0010038B1606864
:102730008101207A41EA00709B4984310860207849
:1027400000F00200022819D1974884300068C0F3D5
:10275000027660688101207B41EA006040EA0670F1
:1027600091498431086090488C30006820F01F0047
:10277000E169491E08438C498C3108600120894970
:102780008866FEF73FFF054606E0FEF73BFF401B6D
:10279000022801D90320BFE783480068C0F3C06066
:1027A0000028F2D0207800F00400042804D020781B
:1027B00000F00800082863D100207A490867FEF776
:1027C00021FF054606E0FEF71DFF401B022801D948
:1027D0000320A1E774480068C0F340700028F2D1DC
:1027E000207800F00400042819D16F488830006870
:1027F000C0F3027620698101207D41EA006040EA51
:102800000670694988310860081D006820F4F85195
:10281000206A401E41EA002063498C31086020781C
:1028200000F00800082817D15F4888300068C0F31E
:1028300003662069800140EA0661207E41EA00705B
:10284000594988310860081D006820F44030616AE9
:10285000084355498C310860012052490867FEF74A
:10286000D1FE054606E0FEF7CDFE401B022801D949
:10287000032051E74C480068C0F340700028F2D0B4
:10288000207800F0200020287ED100BF002000909A
:1028900045484030006840F080504349403108606E
:1028A0000846006800F08050009000BF00BF3F481D
:1028B000006840F480703D490860FEF7A3FE0546BD
:1028C00006E0FEF79FFE401B022801D9032023E704
:1028D0003648006800F480700028F2D0324870302A
:1028E000006800F440764EB3208D00F44070B04292
:1028F00024D02D487030006820F4407601202C4907
:10290000086000200860284870300660006800F009
:10291000010098B1FEF776FE054608E0FEF772FE6C
:10292000401B41F28831884201D90320F4E61E4859
:1029300070300068C0F340000028EFD000BF208D49
:1029400000F44070B0F5407F0CD1174808300068A3
:1029500020F4F810174AA16A1140084312490831BF
:10296000086007E010480830006820F4F8100E49AD
:10297000083108600C4870300068218DC1F30B01EC
:1029800008430949703100E001E0086000BF207889
:1029900000F01000102803D194F82C0006490860BC
:1029A0000020B9E6000047420038024000700040B5
:1029B000400E4742FFFCFF0FE011474270B504464E
:1029C0000D460CB9012070BD5848006800F00F009A
:1029D000A84209D255490D700846006800F00F0062
:1029E000A84201D00120EEE7207800F00200022882
:1029F0001DD1207800F00400042805D14C4800685F
:102A000040F4E0504A490860207800F008000828A7
:102A100005D14748006840F4604045490860444893
:102A2000006820F0F000A168084341490860207860
:102A300000F00100A8B36068012807D13C480838BD
:102A40000068C0F34040B8B90120BCE760680228C4
:102A500002D06068032807D1354808380068C0F301
:102A6000406048B90120AEE7314808380068C0F33B
:102A7000400008B90120A6E72D48006820F00300B7
:102A8000616808432A490860FEF7BCFD064609E074
:102A9000FEF7B8FD801B41F28831884202D903203D
:102AA00091E707E02248006800F00C006168B0EB95
:102AB000810FEDD11D48006800F00F00A84209D930
:102AC0001A490D700846006800F00F00A84201D0B6
:102AD000012078E7207800F00400042807D114488A
:102AE000006820F4E050E16808431149086020784C
:102AF00000F00800082808D10D48006820F4604064
:102B0000216940EAC1000A49086000F03DF808491F
:102B10000968C1F30311074A515CC84006490860BF
:102B20000020FFF77BFB00204DE70000003C024047
:102B300008380240B2E803083C0000200148006861
:102B4000704700003C00002000B5FFF7F7FF044984
:102B50000968C1F38221034A515CC84000BD0000EE
:102B600008380240C2E8030800B5FFF7E7FF044950
:102B70000968C1F34231034A515CC84000BD0000FE
:102B800008380240C2E803082DE9F0470024002578
:102B90000026A1462548006800F00C0020B104285A
:102BA00005D008283AD105E0DFF8849039E0DFF855
:102BB000849036E01D48001F006800F03F041B4869
:102BC000001F006800F4800078B11A481749091FF7
:102BD0000968C1F38811A0FB017001462246002359
:102BE0003846FDF799FB05460EE011480F49091FCD
:102BF0000968C1F38811A0FB017001462246002339
:102C00003846FDF789FB05460848001F0068C0F3F9
:102C10000140401C4600B5FBF6F902E0DFF81090D9
:102C200000BF00BF4846BDE8F087000008380240FA
:102C30000024F40040787D01F8B504460CB9012069
:102C4000F8BD207800F00100002874D0F948006831
:102C500000F00C0004280DD0F648006800F00C00CD
:102C6000082813D1F348001F006800F48000B0F575
:102C7000800F0BD1EF4808380068C0F340400028AF
:102C800059D06068002856D10120D9E700BF60689C
:102C9000B0F5803F08D1E7480838006840F480303C
:102CA000E449083908601EE06068B0F5A02F0DD136
:102CB000E0480838006840F48020DE4908390860A0
:102CC0000846006840F4803008600CE0D9480838B5
:102CD000006820F48030D749083908600846006849
:102CE00020F48020086000BF606890B1FEF78AFC85
:102CF000054606E0FEF786FC401B642801D9032048
:102D00009EE7CC4808380068C0F340400028F1D066
:102D100011E0FEF777FC054606E0FEF773FC401B6A
:102D2000642801D903208BE7C24808380068C0F343
:102D300040400028F1D1207800F0020002285FD145
:102D4000BC48006800F00C0058B1BA48006800F0B8
:102D50000C0008281CD1B748001F006800F4800050
:102D6000B0B9B44808380068C0F3400020B1E0684A
:102D7000012801D0012063E7AE480838006820F040
:102D8000F800216940EAC100AA490839086037E023
:102D9000E06800B30120A8490860FEF733FC05464F
:102DA00006E0FEF72FFC401B022801D9032047E76D
:102DB000A04808380068C0F340000028F1D09D48C2
:102DC0000838006820F0F800216940EAC1009949FC
:102DD0000839086014E0002097490860FEF712FCEB
:102DE000054606E0FEF70EFC401B022801D9032031
:102DF00026E7904808380068C0F340000028F1D169
:102E0000207800F0080008282CD16069A8B10120C2
:102E10008A490860FEF7F6FB054606E0FEF7F2FB7E
:102E2000401B022801D903200AE782486C30006861
:102E3000C0F340000028F1D014E000207F49086072
:102E4000FEF7E0FB054606E0FEF7DCFB401B022830
:102E500001D90320F4E677486C300068C0F34000E5
:102E60000028F1D1207800F00400042870D1002659
:102E700070483830006800F0805090B900BF0020E2
:102E800000906C483830006840F080506949383113
:102E900008600846006800F08050009000BF00BF46
:102EA00001266748006800F48070B0B96448006883
:102EB00040F4807062490860FEF7A4FB054606E016
:102EC000FEF7A0FB401B022801D90320B8E65C48AE
:102ED000006800F480700028F2D000BFA0680128CC
:102EE00008D154486830006840F001005149683109
:102EF00008601DE0A06805280DD14E4868300068C4
:102F000040F004004B49683108600846006840F012
:102F1000010008600CE047486830006820F00100BC
:102F20004449683108600846006820F004000860E1
:102F300000BFA068A8B1FEF765FB054609E0FEF7F3
:102F400061FB401B41F28831884202D9032077E6B9
:102F500026E0384868300068C0F340000028EED012
:102F600013E0FEF74FFB054608E0FEF74BFB401B66
:102F700041F28831884201D9032061E62D4868304A
:102F80000068C0F340000028EFD1012E07D1294886
:102F90003830006820F0805026493831086000BF82
:102FA000A069B8B32348006800F00C0008285ED080
:102FB000A069022846D100201F490866FEF722FBBF
:102FC000054606E0FEF71EFB401B022801D9032040
:102FD00036E6184808380068C0F340600028F1D190
:102FE000D4E907010843616A40EA81110122A06A1D
:102FF000C2EB500041EA00412C20005D41EA006034
:103000000C49091F086001200B490866FEF7FAFA0F
:10301000054607E02DE0FEF7F5FA401B022801D92E
:1030200003200DE6034808380068C0F3406000281C
:10303000F1D01EE00838024000004742800E4742AF
:103040000070004000200C490866FEF7DBFA0546D8
:1030500006E0FEF7D7FA401B022801D90320EFE56E
:1030600006480068C0F340600028F2D101E001206A
:10307000E6E50020E4E50000000047420038024099
:1030800070B504460D460CB9012070BD94F82C00B3
:1030900028B9002084F82D00204600F011F8022005
:1030A00084F82C00211D2068FDF758FD2946D4E93D
:1030B0000002FDF7BDFD012084F82C000020E4E7AC
:1030C00010B586B0044600BF00200090624800683A
:1030D00040F00100604908600846006800F0010007
:1030E000009000BF00BF00BF002000905A48083881
:1030F000006840F004005849083908600846006834
:1031000000F00400009000BF00BF00BF002000904E
:103110000846006840F0200008600846006800F09B
:103120002000009000BF00BF00BF002000900846B4
:10313000006840F0800008600846006800F08000E9
:10314000009000BF00BF00BF00200090084600684C
:1031500040F0400008600846006800F04000009021
:1031600000BF00BF00BF002000900846006840F08C
:10317000100008600846006800F01000009000BFD2
:1031800000BF00BF002000900846006840F0080023
:1031900008600846006800F00800009000BF00BF0B
:1031A00000BF002000900846006840F00100086061
:1031B0000846006800F00100009000BF00BF4FF615
:1031C0003F00019002200290002003900320049011
:1031D0000C20059001A92148FEF7F8F80D20019078
:1031E0000220029000200390032004900C20059000
:1031F00001A91B48FEF7EAF848F2371001900220B7
:10320000029000200390032004900C20059001A957
:103210001448FEF7DBF84FF683700190022002900D
:1032200000200390032004900C20059001A90E4873
:10323000FEF7CCF84CF203700190022002900020BF
:103240000390032004900C20059001A90748FEF785
:10325000BDF806B010BD000038380240001402402E
:10326000000802400018024000100240000C02401A
:1032700070B504460D4694F82C00022800D170BDAC
:10328000022084F82C0029462068FDF7A1FC0120CB
:1032900084F82C000020F2E770B504460D4616466F
:1032A00094F82C00022800D170BD022084F82C0074
:1032B000324629462068FDF792FC2868022803D18F
:1032C000052084F82C0002E0012084F82C00002066
:1032D000EAE710B50446FDF7E3F910BD70B58AB012
:1032E00004460D460026032084F83400606C032851
:1032F00020D0B5F5805F04D1A06B40F08050A06372
:103300001CE0B5F5006F07D1204603F058FF0646D4
:10331000A06B3043A06311E03DB9204603F01AFFD3
:103320000646A06B3043A06308E0A06B40F000604D
:10333000A06303E0A06B40F08050A063A06B40B19D
:1033400040F2FF5021688863012084F834000AB0FD
:1033500070BD60680490A0680590E06806900795CD
:1033600060690890A069099007A807C88DE8070060
:10337000206804A90EC903F033F8012084F8340052
:103380000020E4E7704730B503460022586E020E75
:1033900090090870C2F38300487002F0030088703F
:1033A000586EC0F30742CA70B3F86400C0F3072236
:1033B0000A7193F864204A71986E020E4FF6FF70FE
:1033C00000EA0210C880986EC0F30742C88840EA3D
:1033D0001210C88002F00F0008726820C05AC0F3B3
:1033E0000722D0094872C2F380108872C2F34010DD
:1033F000C872C2F30010087300204873586C00288C
:103400003ED19007000D08616820C25C086940EA5F
:1034100082000861D86E020E086940EA92100861C5
:10342000C2F3C200087502F007004875D86EC0F3F9
:10343000074250098875C2F38200C8759007400F93
:1034400008766C20C05AC0F30722087E40EAD210EA
:1034500008760869401C58650C7E586DA41C01252F
:10346000A540684358650C7A0120A0409865D3E9CF
:103470001504640A6043D8654FF400741C6630E09C
:10348000586C012821D16820C25C9006800A08612E
:10349000D86E020E086940EA02200861D86EC0F3B7
:1034A00007420869104308616C20C05AC0F3072224
:1034B0000869441C4FF48060A4FB00045865D8657B
:1034C0004FF400749C651C660BE040F2FF501C68D2
:1034D000A063986B40F080509863012083F834001B
:1034E00030BDC2F3801001F8190F9006400E4870ED
:1034F0006C20C25C487840EAD210487002F07F002D
:103500008870186F020ED009C870C2F3411008719C
:10351000C2F3820048719007000F8871186FC0F3E2
:103520000742887940EA92108871C2F34010C8714E
:103530000020087202F0010048727020C05AC0F3E7
:103540000722D0098872C2F38010C872C2F34010FB
:103550000873C2F300104873C2F38100887302F04D
:103560000300C8737020C25C5008087401204874BE
:1035700019390020B4E70246506C0860906C48602E
:10358000D06C8860106DC860506D0861906D4861A6
:10359000D06D8861106EC86100207047F8B5044690
:1035A00004260025002000906946204603F0B9FD5E
:1035B000054615B1A06B2843A0630098C0F34326CD
:1035C0003046F8BD70B5044600252068406BC0F356
:1035D0000020002863D04FF4807021688863206841
:1035E000C06B40F23A3188432168C863206B00F019
:1035F000080048B3206B00F0020018B9206B00F0FF
:10360000200050B1206803F0B3F805462DB1A06B3F
:103610002843A0632046FFF7B5FE40F2FF50216823
:103620008863012084F83400206B00F0010018B991
:10363000206B00F0020018B1204600F099FABCE0BF
:10364000204600F09AFAB8E0206B00F080000028D5
:10365000F5D0206B00F0200050B1206803F088F80E
:1036600005462DB1A06B2843A0632046FFF78AFED4
:10367000206B00F001000028E1D1206B00F0020077
:103680000028DCD12068C06A20F008002168C862E8
:10369000012084F83400204600F06FFA8DE02068A5
:1036A000406BC0F3803038B14FF4804021688863AC
:1036B000204603F0B9FD80E02068406BC0F3C030C5
:1036C00038B14FF4004021688863204603F016FDAE
:1036D00073E02068406B40F23A21084008B10120B5
:1036E00000E00020002868D02068406BC0F3400054
:1036F00018B1A06B40F00200A0632068406BC0F3DB
:10370000C00018B1A06B40F00800A0632068406BB7
:10371000C0F3401018B1A06B40F02000A0632068F7
:10372000406BC0F3001018B1A06B40F01000A06314
:103730002068406BC0F3402018B1A06B40F0080037
:10374000A06340F2FF70216888632068C06B40F27C
:103750003A3188432168C863206B00F0800010B3C1
:10376000206C50B11548216C0865206CFDF708FCF1
:1037700010B1206C03F011FB1FE0E06B50B110485A
:10378000E16B0865E06BFDF7FBFBB0B1E06B03F0AC
:10379000D5FA12E00020A063012084F8340020460E
:1037A000FFF797FD09E0206B00F0080028B1012029
:1037B00084F834002046FFF7E5FD70BD9B6D0108DD
:1037C0003D6D010810B504460CB9012010BD94F8F8
:1037D000340020B900202077204600F051F8032063
:1037E00084F83400204600F009F80020A06320632C
:1037F000012084F834000020E8E7000030B589B0EB
:103800000446002500200390049005900690079040
:103810007620089006A807C88DE80700206803A94D
:103820000EC902F0DDFD002014490860206802F096
:10383000F1FD01201149A039C1F8A0000220FDF7D7
:1038400099FD204603F0E3FB054645B1012084F8CD
:103850003400A06B2843A063012009B030BD20468E
:1038600003F057FB05463DB1012084F83400A06BFE
:103870002843A0630120F0E70020EEE7A080254266
:1038800010B586B00446142101A8FCF791FD6749E4
:10389000206888427ED100BF002000906448006804
:1038A00040F40060624908600846006800F4006067
:1038B000009000BF00BF00BF002000905C4814389B
:1038C000006840F480005A491439086008460068CE
:1038D00000F48000009000BF00BF00BF00200090F7
:1038E0000846006840F0040008600846006800F0E0
:1038F0000400009000BF00BF00BF002000900846F9
:10390000006840F0080008600846006800F0080001
:10391000009000BF00BF4FF4F850019002200290C9
:1039200000200390032004900C20059001A9414839
:10393000FDF74CFD0420019002200290002003902E
:10394000032004900C20059001A93B48FDF73EFDA3
:103950003A483B4908604FF0006048600021384811
:103960008160C1604FF4806101618900416189001B
:1039700081612021C1610021016204214162032192
:1039800081624FF40001C16289100163FDF72CFCD4
:1039900018B100E048E0FDF7ADF800BF2848E0634B
:1039A000846300BF25484830264908604FF0006016
:1039B00048604021234881600021C1604FF480614C
:1039C000016189004161890081612021C16100217B
:1039D000016204214162032181624FF40001C1624E
:1039E00089100163FDF700FC08B1FDF783F800BF03
:1039F00014482064846300BF002206213120FEF7B2
:103A0000D8FD3120FEF7C8FD012206213B20FEF73C
:103A1000D0FD3B20FEF7C0FD012206214520FEF728
:103A2000C8FD4520FEF7B8FD06B010BD002C0140D2
:103A30004438024000080240000C02405864024032
:103A400030D2002090D200202DE9F04186B004460B
:103A5000884616461D460027B8F1000F07D1A06B17
:103A600040F00060A063012006B0BDE8F08194F84A
:103A70003400012873D10020A0637119E06D8142E8
:103A800005D9A06B40F00070A0630120ECE7032093
:103A900084F8340000202168C8622068C06B40F4BC
:103AA00095702168C8632F48E16BC8632E48E16BAD
:103AB000C8640020E16B08656A029308226802F17D
:103AC00080014246E06BFDF705FC012027490860B4
:103AD000606C012800D076024FF0FF300090680241
:103AE0000190902002900220039000200490012079
:103AF00005906946206802F041FC4FF4007120688F
:103B000002F0E6FC074657B140F2FF502168886397
:103B1000A06B3843A063012084F83400A4E7012D92
:103B200007D9822020633146206802F03DFD074618
:103B300006E0812020633146206802F052FD0746EE
:103B40005FB140F2FF5021688863A06B3843A063E7
:103B5000012084F8340087E701E0002084E7022098
:103B600082E70000F76C01089B6C01088C852542F8
:103B700000B50246FCF7ECFD00BD00B50246FCF7BF
:103B800081FE00BD2DE9F04186B004468846164608
:103B90001D460027B8F1000F07D1A06B40F0006070
:103BA000A063012006B0BDE8F08194F8340001283C
:103BB00072D10020A0637119E06D814205D9A06B1C
:103BC00040F00070A0630120ECE7032084F834008B
:103BD00000202168C8622068C06B40F01A0021688C
:103BE000C8632E48216CC8632D48216CC86400202E
:103BF000216C0865606C012800D076024FF40071DA
:103C0000206802F065FC074657B140F2FF5021687A
:103C10008863A06B3843A063012084F83400C1E7B7
:103C2000012D07D9A02020633146206802F0BEFD97
:103C3000074606E0902020633146206802F0D3FD5D
:103C4000074657B140F2FF5021688863A06B3843A4
:103C5000A063012084F83400A4E701201149086022
:103C600069028B08216801F180024146206CFDF752
:103C700031FB4FF0FF3000906802019090200290DD
:103C8000002003900490012005906946206802F00E
:103C900075FB002086E7FFE7022083E7896D0108B6
:103CA0009B6C01088C85254210B504460CB9012097
:103CB00010BD606A00B900BF0021A16294F85100F4
:103CC00028B9002084F85000204600F033F8022084
:103CD00084F851002068006820F0400021680860E6
:103CE000D4E901010843E168084321690843616997
:103CF0000843218B01F400710843E1690843216AFC
:103D00000843A16A0843216808600421A06901EA08
:103D10001040616A0843216848602068C06920F447
:103D200000602168C86100206065012084F85100AE
:103D30000020BDE710B586B00446142101A8FCF7A9
:103D400037FB37492068884230D100BF00200090FF
:103D50003448006840F400103249086008460068A2
:103D600000F40010009000BF00BF00BF00200090D2
:103D70002C481438006840F040002A491439086083
:103D80000846006800F04000009000BF00BF4FF4FC
:103D9000E040019002200290002003900320049054
:103DA0000520059001A92048FDF710FB1F49206858
:103DB000884232D100BF002000901A48001F0068DE
:103DC00040F480401749091F08600846006800F465
:103DD0008040009000BF00BF00BF0020009011484D
:103DE0001438006840F002000E4914390860084693
:103DF000006800F00200009000BF00BF4FF4604078
:103E000001900220029000200390032004900520DE
:103E1000059001A90648FDF7D9FA06B010BD0000CB
:103E2000005401404438024000180240003800406D
:103E3000000402402DE9FE4F04460D4616461F467B
:103E4000DDF830804FF0000A0020029081464FF0EC
:103E5000010B019000BF94F85000012802D102200C
:103E6000BDE8FE8F012084F8500000BFFDF7CAFBBB
:103E7000814694F851A060680290BAF1010F0BD00E
:103E80000298B0F5827F04D1A06810B9BAF1040F8E
:103E900002D002200190D2E00DB106B117B9012085
:103EA0000190CCE094F85100012802D1052084F85B
:103EB000510000206065A663E787A7872563E78632
:103EC000A786206460642068006800F040004028F5
:103ED00005D02068006840F0400021680860E06874
:103EE000B0F5006F43D1606810B1E08E012806D1B3
:103EF00028882168C860AD1CE08E401EE0862FE057
:103F0000BBF1000F10D0E08E70B12068806800F027
:103F10000200022808D128882168C860AD1CE08E04
:103F2000401EE0864FF0000BE08F68B1206880688B
:103F300000F0010040B12068C0683080B61CE08FFE
:103F4000401EE0874FF0010B08F1010040B1FDF782
:103F500059FBA0EB0900404502D3032001906EE01D
:103F6000E08E0028CCD1E08F0028C9D142E0606803
:103F700010B1E08E012806D12878216808736D1CE5
:103F8000E08E401EE0862FE0BBF1000F10D0E08EE7
:103F900070B12068806800F00200022808D115F88E
:103FA000010B21680873E08E401EE0864FF0000B85
:103FB000E08F68B12068806800F0010040B120689F
:103FC000C06806F8010BE08F401EE0874FF0010B40
:103FD00008F1010040B1FDF715FBA0EB09004045D9
:103FE00002D3032001902AE0E08E0028CCD1E08F9C
:103FF0000028C9D14346012202212046CDF8009075
:1040000003F0D2F910B10320019018E04A4641466E
:10401000204603F0B5F920B1012001902020606511
:104020000DE0A06850B900BF002000902068C06873
:10403000009020688068009000BF00BF00BF012092
:1040400084F8510000BF002084F8500000BF0198A0
:1040500006E770B504462546681EB0F1807F01D39F
:1040600001200FE0681E4FF0E02148610F214FF062
:10407000FF3002F06FF900204FF0E0218861072047
:104080000861002070BD70472DE9F04704462068A4
:1040900005682068C668206847694FF00008C14677
:1040A00005F00F08B8F1000F0AD105F0200038B173
:1040B00006F0200020B1204603F0CCFABDE8F087DE
:1040C000B8F1000F6DD007F0010018B906F4907038
:1040D000002866D005F0010030B106F4807018B1F8
:1040E000E06B40F00100E06305F0040030B107F040
:1040F000010018B1E06B40F00200E06305F002003F
:1041000030B107F0010018B1E06B40F00400E0634B
:1041100005F0080030B107F0010018B1E06B40F085
:104120000800E063E06B68B305F0200028B106F0FA
:10413000200010B1204603F08DFA20684069C0F3DA
:104140008019E06B00F0080010B9B9F1000F22D01F
:10415000204603F05FFA2068406900F04000B0B1EB
:104160002068406920F0400021684861606B50B1D0
:104170001748616B0865606BFCF702FF10B1606B5C
:10418000016D88470CE02046FFF77DFF08E02046E0
:10419000FFF779FF04E02046FFF775FF0020E0639A
:1041A0008CE705F0800030B106F0800018B12046A1
:1041B00003F052FC82E705F0400030B106F0400009
:1041C00018B1204603F036FA78E700BF76E7000022
:1041D0000176010810B504460CB9012010BDA06994
:1041E00000B100E000BF94F8390028B9002084F83D
:1041F0003800204600F028F8242084F83900206890
:10420000C06820F400502168C860204603F070FAAE
:104210002068006920F490402168086120684069A6
:1042200020F02A00216848612068C06840F40050EE
:104230002168C8600020E063202084F8390084F8F9
:104240003A000020CAE7000010B586B004461421E9
:1042500001A8FCF7ADF83D492068884231D100BF84
:10426000002000903A48006840F01000384908608B
:104270000846006800F01000009000BF00BF00BFBB
:104280000020009032481438006840F001003049A6
:10429000143908600846006800F00100009000BF73
:1042A00000BF4FF4C06001900220029001200390F3
:1042B000032004900720059001A92648FDF786F801
:1042C00041E02549206888423DD100BF0020009090
:1042D0001F48006840F020001D490860084600683B
:1042E00000F02000009000BF00BF00BF0020009041
:1042F00017481438006840F0040015491439086064
:104300000846006800F00400009000BF00BFC02015
:1043100001900220029001200390032004900820C5
:10432000059001A90D48FDF751F803220F21472000
:10433000FEF73FF94720FEF72FF92068C06840F0EC
:1043400020002168C86006B010BD000000100140C8
:1043500044380240000002400014014000080240BE
:1043600070472DE9F84304460D4616461F464FF0A8
:10437000000994F8390020285CD105B116B9012054
:10438000BDE8F88300BF94F83800012801D102206D
:10439000F6E7012084F8380000BF0020E063212008
:1043A00084F83900FDF72EF98146A684E6842BE0D7
:1043B000E08C401EE084A068B0F5805F16D14B46CB
:1043C000002280212046009703F07AFB08B10320E9
:1043D000D6E7A846B8F80000C0F308002168486096
:1043E000206908B9AD1C0FE06D1C0DE04B460022A2
:1043F00080212046009703F063FB08B10320BFE74C
:1044000015F8010B21684860E08C0028D0D14B469C
:10441000002240212046009703F052FB08B1032000
:10442000AEE7202084F8390000BF002084F838006F
:1044300000BFA5E70220A3E770470146086840696E
:10444000C0F3802088B16FF480600A685061042056
:10445000086400200863202081F83D0000BF002090
:1044600081F83C0000BF012070470020FCE70000FD
:104470002DE9F84304460D4690461E46E76A20683B
:10448000006840F4806021680860042F04D0012F88
:1044900002D017F5803F06D12068006840F4807094
:1044A0002168086008E0206B112805D120680068A9
:1044B00040F4807021680860434600224FF00111EB
:1044C0002046009600F013FA10B10320BDE8F883EF
:1044D0002069B0F5804F05D1E8B240F001002168B5
:1044E000086149E005F44070F02141EAE0102168DC
:1044F0000861334642462949204600F036FA30B179
:10450000206C042801D10120E0E70320DEE7E8B2B7
:1045100021680861334642462049891F204600F041
:1045200024FA30B1206C042801D10120CEE7032009
:10453000CCE700BF00200090206840690090206810
:104540008069009000BF00BF2068006840F4807060
:1045500021680860434600224FF001112046009672
:1045600000F0C5F908B10320B0E705F44070F1216F
:1045700041EAE01021680861334642460749891F35
:10458000204600F0F2F930B1206C042801D101205E
:104590009CE703209AE7002098E70000080001004C
:1045A0002DE9F84304460D4617469846E66A042E60
:1045B00004D0012E02D016F5803F06D12068006895
:1045C00040F480702168086008E0206B122805D153
:1045D0002068006840F48070216808603B46002233
:1045E0004FF001112046CDF8008000F080F910B1A5
:1045F0000320BDE8F8832069B0F5804F04D105F0B1
:10460000FE002168086117E005F44070F02141EADE
:10461000E0102168086143463A461049204600F000
:10462000A4F930B1206C042801D10120E1E7032076
:10463000DFE7E8B22168086143463A460749891F27
:10464000204600F092F930B1206C042801D10120FD
:10465000CFE70320CDE70020CBE7000008000100F2
:104660002DE9F84304460F4615469946DDE90886CC
:104670002068006840F48060216808602068006855
:1046800040F4807021680860434600224FF0011119
:104690002046009600F02BF910B10320BDE8F88306
:1046A00007F0FE0021680861334642464149204632
:1046B00000F05BF930B1206C042801D10120EDE756
:1046C0000320EBE700BF00200090206840690090C5
:1046D00020688069009000BF00BF324641462046F6
:1046E00000F0D0F960B1206C042807D12068006880
:1046F00040F40070216808600120CFE70320CDE777
:10470000B9F1010F03D1E8B22168086119E0C5F3DE
:1047100007202168086132464146204600F0B2F980
:1047200060B1206C042807D12068006840F4007054
:10473000216808600120B1E70320AFE7E8B22168F3
:10474000086132464146204600F09CF960B1206C79
:10475000042807D12068006840F4007021680860D0
:1047600001209BE7032099E72068006840F48070EF
:1047700021680860434600224FF001112046009650
:1047800000F0B5F808B1032088E7F8B240F0010066
:1047900021680861334642460649204600F0E5F8A4
:1047A00030B1206C042801D1012077E7032075E7A0
:1047B000002073E7020001002DE9F8430446884613
:1047C00015469946DDE908672068006840F4807066
:1047D00021680860334600224FF0011120460097FF
:1047E00000F085F810B10320BDE8F88308F0FE0062
:1047F000216808613B4632462649204600F0B5F85C
:1048000030B1206C042801D10120EDE70320EBE753
:1048100000BF0020009020684069009020688069F7
:10482000009000BF00BF3A463146204600F02AF90A
:1048300060B1206C042807D12068006840F4007043
:10484000216808600120CFE70320CDE7B9F1010F0F
:1048500003D1E8B22168086119E0C5F30720216897
:1048600008613A463146204600F00CF960B1206CF0
:10487000042807D12068006840F4007021680860AF
:104880000120B1E70320AFE7E8B22168086100200A
:10489000AAE700000200010070B504460D46164666
:1048A0001DE02046FFF7C9FD08B1012070BD681C5E
:1048B000A8B125B1FCF7A6FE801BA8420FD9206C39
:1048C00040F02000206400202063202084F83D0078
:1048D00000BF002084F83C0000BF0320E6E720680A
:1048E0004069C0F380000028DBD00020DEE72DE91E
:1048F000F04104460D4617461E46DDF8188017E0C5
:10490000701CA8B12EB1FCF77DFEA0EB0800B042F0
:104910000ED900202063202084F83D00002084F878
:104920003E0000BF84F83C0000BF0320BDE8F081DA
:10493000C5F3074001280AD120684069A9B20840A0
:10494000A9B2884201D101200BE0002009E02068D3
:104950008069A9B20840A9B2884201D1012000E0D3
:104960000020B842CCD00020E0E72DE9F041044619
:104970000D4616461F4631E020684069C0F380208E
:10498000C0B12068006840F40070216808606FF4CE
:10499000806021684861042020640020206320207A
:1049A00084F83D0000BF002084F83C0000BF0120D7
:1049B000BDE8F081701C88B126B1FCF723FEC01B56
:1049C000B0420BD900202063202084F83D0000BFB6
:1049D000002084F83C0000BF0320E9E7C5F307404E
:1049E00001280AD120684069A9B20840A9B28842CA
:1049F00001D101200BE0002009E020688069A9B204
:104A00000840A9B2884201D1012000E0002000281E
:104A1000B2D00020CCE770B504460D46164629E01A
:104A200020684069C0F3001080B16FF01000216869
:104A30004861002020642063202084F83D0000BFEE
:104A4000002084F83C0000BF012070BD25B1FCF7B8
:104A5000D9FD801BA8420DD9206C40F020002064B5
:104A6000202084F83D0000BF002084F83C0000BFF7
:104A70000320EAE720684069C0F380100028CFD007
:104A80000020E2E770B504460D4616461DE02046BC
:104A9000FFF7D3FC08B1012070BD681CA8B125B197
:104AA000FCF7B0FD801BA8420FD9206C40F020001D
:104AB000206400202063202084F83D0000BF0020F7
:104AC00084F83C0000BF0320E6E720684069C0F39B
:104AD000C0100028DBD00020DEE7000010B58021E8
:104AE0000348FCF781FD08B9002010BD0120FCE758
:104AF000000C02400120704710B504210348FCF768
:104B000073FD08B9002010BD0120FCE7001C024025
:104B100010B501210448FCF767FD012801D10020F0
:104B200010BD0120FCE700000000024000B587B086
:104B3000142102A8FBF73CFC00BF00200190FE48B6
:104B4000006840F00400FC4908600846006800F076
:104B50000400019000BF00BF00BF00200190084684
:104B6000006840F0010008600846006800F001009D
:104B7000019000BF00BF00BF002001900846006800
:104B800040F0020008600846006800F00200019052
:104B900000BF00BF802002900120039004900320FA
:104BA000059002A9E548FCF711FC3020029002A90B
:104BB000E348FCF70BFC0120029002A9E148FCF756
:104BC00005FC01228021DD48FCF716FD022005F0DE
:104BD00031F900228021D948FCF70EFD022005F0B2
:104BE00029F901228021D548FCF706FD142005F0A3
:104BF00021F94FF4704002F0CFFF552002F0E8FF9A
:104C00004FF2010002F0C8FFAA2002F0E1FF4FF2CC
:104C1000020002F0C1FF522002F0DAFF4FF203005F
:104C200002F0BAFF082002F0D3FF4FF2040002F0B6
:104C3000B3FF012002F0CCFF4FF4304002F0ACFF94
:104C40000D2002F0C5FF4BF2010002F0A5FF0D2080
:104C500002F0BEFF4BF2020002F09EFF0D2002F0B8
:104C6000B7FF4FF4364002F097FF342002F0B0FF58
:104C70004BF2016002F090FF342002F0A9FF4BF2EA
:104C8000026002F089FF342002F0A2FF4FF43140AD
:104C900002F082FF0D2002F09BFF4BF2011002F0A8
:104CA0007BFF0D2002F094FF4BF2021002F074FF24
:104CB0000D2002F08DFF4FF4374002F06DFF3420DD
:104CC00002F086FF4BF2017002F066FF342002F022
:104CD0007FFF4BF2027002F05FFF342002F078FF9A
:104CE0004FF4324002F058FF002002F071FF4BF207
:104CF000012002F051FF002002F06AFF4BF2022077
:104D000002F04AFF002002F063FF4FF4384002F047
:104D100043FF242002F05CFF4BF6010002F03CFF51
:104D2000242002F055FF4BF6020002F035FF24204C
:104D300002F04EFF4FF43F4002F02EFF012002F040
:104D400047FF4FF4334002F027FF0F2002F040FFEF
:104D50004BF2013002F020FF0F2002F039FF4BF23E
:104D6000023002F019FF0F2002F032FF4FF43940F9
:104D700002F012FF342002F02BFF4BF6011002F07C
:104D80000BFF342002F024FF4BF6021002F004FF68
:104D9000342002F01DFF4FF4354002F0FDFE0820E4
:104DA00002F016FF4BF2015002F0F6FE082002F06E
:104DB0000FFF4BF2025002F0EFFE082002F008FF56
:104DC0004FF4424002F0E8FE032002F001FF4FF4EE
:104DD0003A4002F0E1FE242002F0FAFE4BF60120F8
:104DE00002F0DAFE242002F0F3FE4BF6022002F07D
:104DF000D3FE242002F0ECFE4FF43C4002F0CCFE47
:104E0000002002F0E5FE4BF6014002F0C5FE7820DE
:104E100002F0DEFE4BF6024002F0BEFE002002F081
:104E2000D7FE4FF43D4002F0B7FE002002F0D0FE66
:104E30004BF6015002F0B0FE782002F0C9FE4BF6AE
:104E4000025002F0A9FE002002F0C2FE4FF43E40E4
:104E500002F0A2FE002002F0BBFE4BF6016002F061
:104E60009BFE642002F0B4FE4FF4514002F094FE29
:104E7000002002F0ADFE4DF2011002F08DFE332055
:104E800002F0A6FE4DF2021002F086FE002002F0B3
:104E90009FFE4DF2031002F07FFE342002F098FED8
:104EA0004DF2041002F078FE002002F091FE4DF267
:104EB000051002F071FE3A2002F08AFE4DF2061053
:104EC00002F06AFE002002F083FE4DF2071002F0AD
:104ED00063FE4A2002F07CFE4DF2081002F05CFEF8
:104EE000002002F075FE4DF2091002F055FE5C2024
:104EF00002F06EFE4DF20A1002F04EFE002002F0AB
:104F000067FE4DF20B1002F047FE812002F060FEBA
:104F10004DF20C1002F040FE002002F059FE4DF25E
:104F20000D1002F039FEA62002F052FE4DF20E10D6
:104F300002F032FE002007E030380240000002405C
:104F4000000802400004024002F042FE4DF20F1041
:104F500002F022FEE52002F03BFE4DF2101002F0BE
:104F60001BFE012002F034FE4DF2111002F014FE7F
:104F7000132002F02DFE4DF2121002F00DFE012062
:104F800002F026FE4DF2131002F006FE542002F04D
:104F90001FFE4DF2141002F0FFFD012002F018FE7A
:104FA0004DF2151002F0F8FD822002F011FE4DF2D4
:104FB000161002F0F1FD012002F00AFE4DF217106A
:104FC00002F0EAFDCA2002F003FE4DF2181002F0D2
:104FD000E3FD022002F0FCFD4DF2191002F0DCFDB1
:104FE000002002F0F5FD4DF21A1002F0D5FD02206E
:104FF00002F0EEFD4DF21B1002F0CEFD012002F09A
:10500000E7FD4DF21C1002F0C7FD022002F0E0FDAA
:105010004DF21D1002F0C0FD342002F0D9FD4DF21A
:105020001E1002F0B9FD022002F0D2FD4DF21F1059
:1050300002F0B2FD672002F0CBFD4DF2201002F02D
:10504000ABFD022002F0C4FD4DF2211002F0A4FDE0
:10505000842002F0BDFD4DF2221002F09DFD0220E1
:1050600002F0B6FD4DF2231002F096FDA42002F0EE
:10507000AFFD4DF2241002F08FFD022002F0A8FDDA
:105080004DF2251002F088FDB72002F0A1FD4DF28F
:10509000261002F081FD022002F09AFD4DF2271049
:1050A00002F07AFDCF2002F093FD4DF2281002F0BD
:1050B00073FD022002F08CFD4DF2291002F06CFD10
:1050C000DE2002F085FD4DF22A1002F065FD02207F
:1050D00002F07EFD4DF22B1002F05EFDF22002F098
:1050E00077FD4DF22C1002F057FD022002F070FD0A
:1050F0004DF22D1002F050FDFE2002F069FD4DF240
:105100002E1002F049FD032002F062FD4DF22F1037
:1051100002F042FD102002F05BFD4DF2301002F073
:105120003BFD032002F054FD4DF2311002F034FD3E
:10513000332002F04DFD4DF2321002F02DFD032020
:1051400002F046FD4DF2331002F026FD6D2002F014
:105150003FFD4FF4524002F01FFD002002F038FDE9
:105160004DF2012002F018FD332002F031FD4DF226
:10517000022002F011FD002002F02AFD4DF2032072
:1051800002F00AFD342002F023FD4DF2042002F06B
:1051900003FD002002F01CFD4DF2052002F0FCFC96
:1051A0003A2002F015FD4DF2062002F0F5FC002039
:1051B00002F00EFD4DF2072002F0EEFC4A2002F054
:1051C00007FD4DF2082002F0E7FC002002F000FD90
:1051D0004DF2092002F0E0FC5C2002F0F9FC4DF2F7
:1051E0000A2002F0D9FC002002F0F2FC4DF20B2064
:1051F00002F0D2FC812002F0EBFC4DF20C2002F018
:10520000CBFC002002F0E4FC4DF20D2002F0C4FCC7
:10521000A62002F0DDFC4DF20E2002F0BDFC0020C5
:1052200002F0D6FC4DF20F2002F0B6FCE52002F0B1
:10523000CFFC4DF2102002F0AFFC012002F0C8FCC0
:105240004DF2112002F0A8FC132002F0C1FC4DF237
:10525000122002F0A1FC012002F0BAFC4DF2132052
:1052600002F09AFC542002F0B3FC4DF2142002F03C
:1052700093FC012002F0ACFC4DF2152002F08CFCF6
:10528000822002F0A5FC4DF2162002F085FC0120E0
:1052900002F09EFC4DF2172002F07EFCCA2002F0C4
:1052A00097FC4DF2182002F077FC022002F090FCEF
:1052B0004DF2192002F070FC002002F089FC4DF242
:1052C0001A2002F069FC022002F082FC4DF21B2041
:1052D00002F062FC012002F07BFC4DF21C2002F087
:1052E0005BFC022002F074FC4DF21D2002F054FC25
:1052F000342002F06DFC4DF21E2002F04DFC022025
:1053000002F066FC4DF21F2002F046FC672002F01E
:105310005FFC4DF2202002F03FFC022002F058FC1E
:105320004DF2212002F038FC842002F051FC4DF2B5
:10533000222002F031FC022002F04AFC4DF2232030
:1053400002F02AFCA42002F043FC4DF2242002F0DB
:1053500023FC022002F03CFC4DF2252002F01CFC54
:10536000B72002F035FC4DF2262002F015FC022099
:1053700002F02EFC4DF2272002F00EFCCF2002F0AE
:1053800027FC4DF2282002F007FC022002F020FC4E
:105390004DF2292002F000FCDE2002F019FC4DF253
:1053A0002A2002F0F9FB022002F012FC4DF22B2021
:1053B00002F0F2FBF22002F00BFC4DF22C2002F086
:1053C000EBFB022002F004FC4DF22D2002F0E4FB86
:1053D000FE2002F0FDFB4DF22E2002F0DDFB03204B
:1053E00002F0F6FB4DF22F2002F0D6FB102002F067
:1053F000EFFB4DF2302002F0CFFB032002F0E8FB80
:105400004DF2312002F0C8FB332002F0E1FB4DF2F7
:10541000322002F0C1FB032002F0DAFB4DF2332010
:1054200002F0BAFB6D2002F0D3FB4FF4534002F0C0
:10543000B3FB002002F0CCFB4DF2013002F0ACFBDC
:10544000332002F0C5FB4DF2023002F0A5FB002034
:1054500002F0BEFB4DF2033002F09EFB342002F05E
:10546000B7FB4DF2043002F097FB002002F0B0FBD6
:105470004DF2053002F090FB3A2002F0A9FB4DF20C
:10548000063002F089FB002002F0A2FB4DF207304B
:1054900002F082FB4A2002F09BFB4DF2083002F042
:1054A0007BFB002002F094FB4DF2093002F074FB0C
:1054B0005C2002F08DFB4DF20A3002F06DFB002003
:1054C00002F086FB4DF20B3002F066FB812002F009
:1054D0007FFB4DF20C3002F05FFB002002F078FB06
:1054E0004DF20D3002F058FBA62002F071FB4DF298
:1054F0000E3002F051FB002002F06AFB4DF20F303B
:1055000002F04AFBE52002F063FB4DF2103002F09E
:1055100043FB012002F05CFB4DF2113002F03CFB3A
:10552000132002F055FB4DF2123002F035FB012042
:1055300002F04EFB4DF2133002F02EFB542002F02D
:1055400047FB4DF2143002F027FB012002F040FB34
:105550004DF2153002F020FB822002F039FB4DF2B3
:10556000163002F019FB012002F032FB4DF2173029
:1055700002F012FBCA2002F02BFB4DF2183002F0B1
:105580000BFB022002F024FB4DF2193002F004FB69
:10559000002002F01DFB4DF21A3002F0FDFA02204D
:1055A00002F016FB4DF21B3002F0F6FA012002F079
:1055B0000FFB4DF21C3002F0EFFA022002F008FB64
:1055C0004DF21D3002F0E8FA342002F001FB4DF2FA
:1055D0001E3002F0E1FA022002F0FAFA4DF21F301A
:1055E00002F0DAFA672002F0F3FA4DF2203002F00E
:1055F000D3FA022002F0ECFA4DF2213002F0CCFA9C
:10560000842002F0E5FA4DF2223002F0C5FA0220C1
:1056100002F0DEFA4DF2233002F0BEFAA42002F0CE
:10562000D7FA4DF2243002F0B7FA022002F0D0FA95
:105630004DF2253002F0B0FAB72002F0C9FA4DF26F
:10564000263002F0A9FA022002F0C2FA4DF2273009
:1056500002F0A2FACF2002F0BBFA4DF2283002F09D
:105660009BFA022002F0B4FA4DF2293002F094FACB
:10567000DE2002F0ADFA4DF22A3002F08DFA02205F
:1056800002F0A6FA4DF22B3002F086FAF22002F078
:105690009FFA4DF22C3002F07FFA022002F098FAC5
:1056A0004DF22D3002F078FAFE2002F091FA4DF220
:1056B0002E3002F071FA032002F08AFA4DF22F30F8
:1056C00002F06AFA102002F083FA4DF2303002F054
:1056D00063FA032002F07CFA4DF2313002F05CFAFA
:1056E000332002F075FA4DF2323002F055FA032001
:1056F00002F06EFA4DF2333002F04EFA6D2002F0F5
:1057000067FA4FF4544002F047FA002002F060FAC2
:105710004DF2014002F040FA332002F059FA4DF206
:10572000024002F039FA002002F052FA4DF2034032
:1057300002F032FA342002F04BFA4DF2044002F04B
:105740002BFA002002F044FA4DF2054002F024FA50
:105750003A2002F03DFA4DF2064002F01DFA002018
:1057600002F036FA4DF2074002F016FA4A2002F033
:105770002FFA4DF2084002F00FFA002002F028FA4A
:105780004DF2094002F008FA5C2002F021FA4DF2D5
:105790000A4002F001FA002002F01AFA4DF20B4022
:1057A00002F0FAF9812002F013FA4DF20C4002F0F7
:1057B000F3F9002002F00CFA4DF20D4002F0ECF982
:1057C000A62002F005FA4DF20E4002F0E5F90020A5
:1057D00002F0FEF94DF20F4002F0DEF9E52002F092
:1057E000F7F94DF2104002F0D7F9012002F0F0F97C
:1057F0004DF2114002F0D0F9132002F0E9F94DF218
:10580000124002F0C9F9012002F0E2F94DF2134012
:1058100002F0C2F9542002F0DBF94DF2144002F01C
:10582000BBF9012002F0D4F94DF2154002F0B4F9B1
:10583000822002F0CDF94DF2164002F0ADF90120C0
:1058400002F0C6F94DF2174002F0A6F9CA2002F0A4
:10585000BFF94DF2184002F09FF9022002F0B8F9AA
:105860004DF2194002F098F9002002F0B1F94DF222
:105870001A4002F091F9022002F0AAF94DF21B4001
:1058800002F08AF9012002F0A3F94DF21C4002F067
:1058900083F9022002F09CF94DF21D4002F07CF9E0
:1058A000342002F095F94DF21E4002F075F9022005
:1058B00002F08EF94DF21F4002F06EF9672002F0FF
:1058C00087F94DF2204002F067F9022002F080F9DA
:1058D0004DF2214002F060F9842002F079F94DF296
:1058E000224002F059F9022002F072F94DF22340F1
:1058F00002F052F9A42002F06BF94DF2244002F0BC
:105900004BF9022002F064F94DF2254002F044F90F
:10591000B72002F05DF94DF2264002F03DF9022079
:1059200002F056F94DF2274002F036F9CF2002F08E
:105930004FF94DF2284002F02FF9022002F048F909
:105940004DF2294002F028F9DE2002F041F94DF233
:105950002A4002F021F9022002F03AF94DF22B40E0
:1059600002F01AF9F22002F033F94DF22C4002F065
:1059700013F9022002F02CF94DF22D4002F00CF93F
:10598000FE2002F025F94DF22E4002F005F9032029
:1059900002F01EF94DF22F4002F0FEF8102002F046
:1059A00017F94DF2304002F0F7F8032002F010F939
:1059B0004DF2314002F0F0F8332002F009F94DF2D7
:1059C000324002F0E9F8032002F002F94DF23340D0
:1059D00002F0E2F86D2002F0FBF84FF4554002F0BF
:1059E000DBF8002002F0F4F84DF2015002F0D4F898
:1059F000332002F0EDF84DF2025002F0CDF8002015
:105A000002F0E6F84DF2035002F0C6F8332002F03F
:105A1000DFF84DF2045002F0BFF8002002F0D8F891
:105A20004DF2055002F0B8F83A2002F0D1F84DF2EC
:105A3000065002F0B1F8002002F0CAF84DF207500B
:105A400002F0AAF84A2002F0C3F84DF2085002F022
:105A5000A3F8002002F0BCF84DF2095002F09CF8C7
:105A60005C2002F0B5F84DF20A5002F095F80020E3
:105A700002F0AEF84DF20B5002F08EF8812002F0E9
:105A8000A7F84DF20C5002F087F8002002F0A0F8C1
:105A90004DF20D5002F080F8A62002F099F84DF278
:105AA0000E5002F079F8002002F092F84DF20F50FB
:105AB00002F072F8E52002F08BF84DF2105002F07F
:105AC0006BF8012002F084F84DF2115002F064F8F6
:105AD000132002F07DF84DF2125002F05DF8012023
:105AE00002F076F84DF2135002F056F8542002F00E
:105AF0006FF84DF2145002F04FF8012002F068F8F0
:105B00004DF2155002F048F8822002F061F84DF293
:105B1000165002F041F8012002F05AF84DF21750E9
:105B200002F03AF8CA2002F053F84DF2185002F091
:105B300033F8022002F04CF84DF2195002F02CF824
:105B4000002002F045F84DF21A5002F025F802202C
:105B500002F03EF84DF21B5002F01EF8012002F058
:105B600037F84DF21C5002F017F8022002F030F81E
:105B70004DF21D5002F010F8342002F029F84DF2D9
:105B80001E5002F009F8022002F022F84DF21F50D8
:105B900002F002F8672002F01BF84DF2205001F0ED
:105BA000FBFF022002F014F84DF2215001F0F4FF47
:105BB000842002F00DF84DF2225001F0EDFF02209A
:105BC00002F006F84DF2235001F0E6FFA42001F0A8
:105BD000FFFF4DF2245001F0DFFF022001F0F8FF3B
:105BE0004DF2255001F0D8FFB72001F0F1FF4DF242
:105BF000265001F0D1FF022001F0EAFF4DF22750BC
:105C000001F0CAFFCF2001F0E3FF4DF2285001F070
:105C1000C3FF022001F0DCFF4DF2295001F0BCFF70
:105C2000DE2001F0D5FF4DF22A5001F0B5FF022031
:105C300001F0CEFF4DF22B5001F0AEFFF22001F04B
:105C4000C7FF4DF22C5001F0A7FF022001F0C0FF6A
:105C50004DF22D5001F0A0FFFE2001F0B9FF4DF2F2
:105C60002E5001F099FF032001F0B2FF4DF22F50AA
:105C700001F092FF102001F0ABFF4DF2305001F027
:105C80008BFF032001F0A4FF4DF2315001F084FF9F
:105C9000332001F09DFF4DF2325001F07DFF0320D3
:105CA00001F096FF4DF2335001F076FF6D2001F0C8
:105CB0008FFF4FF4564001F06FFF002001F088FF86
:105CC0004DF2016001F068FF332001F081FF4DF2D9
:105CD000026001F061FF002001F07AFF4DF20360E5
:105CE00001F05AFF342001F073FF4DF2046001F01F
:105CF00053FF002001F06CFF4DF2056001F04CFFF6
:105D00003A2001F065FF4DF2066001F045FF0020EA
:105D100001F05EFF4DF2076001F03EFF4A2001F006
:105D200057FF4DF2086001F037FF002001F050FFEF
:105D30004DF2096001F030FF5C2001F049FF4DF2A7
:105D40000A6001F029FF002001F042FF4DF20B60D4
:105D500001F022FF812001F03BFF4DF20C6001F0C9
:105D60001BFF002001F034FF4DF20D6001F014FF25
:105D7000A62001F02DFF4DF20E6001F00DFF002076
:105D800001F026FF4DF20F6001F006FFE52001F063
:105D90001FFF4DF2106001F0FFFE012001F018FF1F
:105DA0004DF2116001F0F8FE132001F011FF4DF2E9
:105DB000126001F0F1FE012001F00AFF4DF21360C4
:105DC00001F0EAFE542001F003FF4DF2146001F0EF
:105DD000E3FE012001F0FCFE4DF2156001F0DCFE57
:105DE000822001F0F5FE4DF2166001F0D5FE012093
:105DF00001F0EEFE4DF2176001F0CEFECA2001F078
:105E0000E7FE4DF2186001F0C7FE022001F0E0FE4F
:105E10004DF2196001F0C0FE002001F0D9FE4DF2F4
:105E20001A6001F0B9FE022001F0D2FE4DF21B60B3
:105E300001F0B2FE012001F0CBFE4DF21C6001F03A
:105E4000ABFE022001F0C4FE4DF21D6001F0A4FE85
:105E5000342001F0BDFE4DF21E6001F09DFE0220D7
:105E600001F0B6FE4DF21F6001F096FE672001F0D2
:105E7000AFFE4DF2206001F08FFE022001F0A8FE7F
:105E80004DF2216001F088FE842001F0A1FE4DF268
:105E9000226001F081FE022001F09AFE4DF22360A3
:105EA00001F07AFEA42001F093FE4DF2246001F08F
:105EB00073FE022001F08CFE4DF2256001F06CFEB5
:105EC000B72001F085FE4DF2266001F065FE02204C
:105ED00001F07EFE4DF2276001F05EFECF2001F062
:105EE00077FE4DF2286001F057FE022001F070FEAF
:105EF0004DF2296001F050FEDE2001F069FE4DF206
:105F00002A6001F049FE022001F062FE4DF22B6092
:105F100001F042FEF22001F05BFE4DF22C6001F038
:105F20003BFE022001F054FE4DF22D6001F034FEE4
:105F3000FE2001F04DFE4DF22E6001F02DFE0320FB
:105F400001F046FE4DF22F6001F026FE102001F018
:105F50003FFE4DF2306001F01FFE032001F038FEDD
:105F60004DF2316001F018FE332001F031FE4DF2A8
:105F7000326001F011FE032001F02AFE4DF2336081
:105F800001F00AFE6D2001F023FE4FF4704001F095
:105F900003FE552001F01CFE4FF2010001F0FCFD54
:105FA000AA2001F015FE4FF2020001F0F5FD52208B
:105FB00001F00EFE4FF2030001F0EEFD082001F0AB
:105FC00007FE4FF2040001F0E7FD002001F000FEA3
:105FD0004FF4334001F0E0FD002001F0F9FD4FF4F3
:105FE000354001F0D9FD502001F0F2FD4FF4314071
:105FF00001F0D2FDCC2001F0EBFD4BF2011001F0DD
:10600000CBFD002001F0E4FD4FF4364001F0C4FD6B
:10601000052001F0DDFD4FF4374001F0BDFD70209B
:1060200001F0D6FD4BF2017001F0B6FD702001F0D9
:10603000CFFD4FF4384001F0AFFD012001F0C8FD65
:106040004BF6010001F0A8FD032001F0C1FD4BF665
:10605000020001F0A1FD032001F0BAFD4BF60300A0
:1060600001F09AFD032001F0B3FD4FF43C4001F034
:1060700093FD022001F0ACFD4BF6014001F08CFDD8
:10608000002001F0A5FD4BF6024001F085FD002047
:1060900001F09EFD4FF4494001F07EFDD02001F05B
:1060A00097FD4CF6011001F077FD022001F090FD04
:1060B0004CF6021001F070FD502001F089FD4CF605
:1060C000031001F069FD502001F082FD4CF6041030
:1060D00001F062FD502001F07BFD4FF4585001F0BB
:1060E0005BFD002001F074FD4FF4545001F054FDAD
:1060F000002001F06DFD4FF4685001F04DFD55207A
:1061000001F066FD4FF4885001F046FD782003F061
:1061100091FE4FF4245001F03FFD0A2003F08AFE67
:106120004FF4305001F038FD07B000BDF0B500234A
:10613000002400258E880768FF68C7F30B473E449C
:10614000330406688436802707FB0266766806F407
:106150007047066884364FF0800C0CFB026677604F
:106160000E680768FF68C7F30B473E44761C1E4362
:10617000076884370CFB02777E608E890768FF68AA
:10618000C7F30A073E44330406688436802707FBBA
:106190000266B66806F47047066884360CFB026631
:1061A000B7608E680768FF68C7F30A073E44761C2D
:1061B0001E43076884370CFB0277BE60066884368E
:1061C000802707FB0266366926F0070706688436D3
:1061D0000CFB026637610F69066884360CFB0266A9
:1061E00037613126765C33023226765C34040E7ECB
:1061F000350606688436802707FB0266B6690027E5
:10620000066884360CFB0266B76191F830601E4365
:1062100026432E43076884370CFB0277BE6106686D
:106220008436802707FB0266766926F0FF0706683A
:1062300084360CFB026677614F69066884360CFB76
:106240000266776106688436802707FB0266F76975
:1062500040F20776B743066884360CFB0266F761A6
:10626000D1E907673E43076884370CFB0277FE617C
:1062700006688436802707FB0266B66A0027066830
:1062800084360CFB0266B7624F6A066884360CFBE4
:106290000266B7620E690EB9042313E00E69012E7F
:1062A00001D103230EE00E69042E08D00E69022EE0
:1062B00005D00E69032E02D00E69072E01D10223EC
:1062C00000E0012306688436802707FB0266F66A31
:1062D00006F0E027066884364FF0800C0CFB02665F
:1062E000F762D1E90076F61B5E43F71C0E8D5E4324
:1062F00047EA0647066884360CFB0266F7620668C2
:106300008436802707FB0266366BF70AFF020668B1
:1063100084360CFB02663763CF6A066884360CFB52
:106320000266376306688436D701F65946F00107DE
:10633000066884364FEAC21C46F80C70F0BD00BFF8
:10634000FEE7704702480068C0F302207047000073
:106350000CED00E010B5002807DA0A07140E054A14
:1063600000F00F031B1FD45403E00A07130E024A68
:10637000135410BD18ED00E000E400E010B5024633
:1063800000230868506248689062D1E90204204303
:106390000C6920434C6920430343D06A20F0F70086
:1063A0001843D062002010BD01460869C0B2704792
:1063B0000146086800F00300704708B50246002057
:1063C000009002F11400084400900098006808BD95
:1063D00010B50248FDF7F6F810BD0000ACD1002062
:1063E0000FB410B504460021DDE903021043059AFD
:1063F0001043069A1043079A1043089A104301432A
:10640000606847F6FF62904308436060002010BC5C
:106410005DF814FB01460320086000207047014628
:10642000D1F88000704710B50246002308689060DC
:10643000D1E901042043CC6820430C692043034385
:10644000D0686FF30B001843D060002010BD0246E7
:106450000868C2F880000020704770B586B0054615
:106460000C46002601943720029040200390002023
:1064700004904FF48060059001A92846FFF7D3FFF0
:1064800041F288323721284600F0EAF906463046C4
:1064900006B070BD70B586B005460C4600260B48A8
:1064A0002043019029200290402003900020049076
:1064B0004FF48060059001A92846FFF7B4FF2846F5
:1064C00000F0CEFA0646304606B070BD00001080DF
:1064D00070B586B005460C46002601941020029047
:1064E00040200390002004904FF48060059001A9A3
:1064F0002846FFF798FF41F288321021284600F025
:10650000AFF90646304606B070BD70B586B0054698
:106510000C460026019406200290402003900020A3
:1065200004904FF48060059001A92846FFF77BFF97
:1065300041F288320621284600F092F9064630469C
:1065400006B070BD30B585B004460025002000902F
:106550000190029003904FF48060049069462046B9
:10656000FFF761FF204600F05BF90546284605B0BD
:1065700030BD30B585B0044600254FF4D57000908D
:106580000820019040200290002003904FF480608A
:10659000049069462046FFF746FF204600F0E0FAE7
:1065A0000546284605B030BD70B586B005460C4698
:1065B00000260194122002904020039000200490B5
:1065C0004FF48060059001A92846FFF72CFF41F2A7
:1065D00088321221284600F043F90646304606B0BC
:1065E00070BD70B586B005460C460026019411209A
:1065F000029040200390002004904FF480600590AA
:1066000001A92846FFF70FFF41F2883211212846E1
:1066100000F026F90646304606B070BDF0B585B0EC
:10662000064614461D46002700940720019040208E
:106630000290002003904FF4806004906946304639
:10664000FFF7F1FE41F288320721304600F008F9E9
:106650000746384605B0F0BD30B585B00446002584
:106660000020009002200190C020029000200390A2
:106670004FF48060049069462046FFF7D4FE204620
:1066800000F0C0F90546284605B030BD70B586B0AB
:1066900005460C460026019409200290C020039074
:1066A000002004904FF48060059001A92846FFF770
:1066B000BAFE284600F0A6F90646304606B070BD80
:1066C00030B585B0044600250020009033200190AD
:1066D00040200290002003904FF4806004906946AF
:1066E0002046FFF7A0FE41F288323321204600F019
:1066F000B7F80546284605B030BD70B586B00546EA
:106700000C46002601940D200290402003900020AA
:1067100004904FF48060059001A92846FFF783FE9E
:1067200041F288320D21284600F09AF8064630469C
:1067300006B070BD70B586B005460C460026002038
:1067400001900320029040200390002004904FF419
:106750008060059001A92846FFF765FE22460321C7
:10676000284600F0A5F90646304606B070BD000088
:1067700030B585B004460025002000900C20019023
:1067800040200290002003904FF4806004906946FE
:106790002046FFF748FE044A0C21204600F060F82E
:1067A0000546284605B030BD00E1F50570B586B058
:1067B00005460C46002601941920029040200390C3
:1067C000002004904FF48060059001A92846FFF74F
:1067D0002AFE41F288321921284600F041F8064687
:1067E000304606B070BD70B586B005460C46002632
:1067F00001941820029040200390002004904FF450
:106800008060059001A92846FFF70DFE41F288320D
:106810001821284600F024F80646304606B070BD20
:1068200001460E480068C0084FF47A73B0FBF3F0DD
:1068300041F2883300FB03F200BF101EA2F10102F7
:1068400002D14FF000407047486B00F080000028F4
:10685000F3D040F2FF5088630020F4E73C000020B2
:106860002DE9F04105460E46174664480068C00809
:106870004FF47A71B0FBF1F000FB07F800BFB8F1FC
:106880000000A8F1010803D14FF00040BDE8F081FD
:10689000686B00F045000028F1D0686B00F0040040
:1068A00010B10420A863F1E7686B00F0010010B19B
:1068B0000120A863EAE72846FFF776FDB04201D041
:1068C0000120E3E740F2FF50A86300212846FFF7CC
:1068D00074FD04464A48204008B90020D6E704F079
:1068E0000040B0F1004F02D14FF00070CEE704F04D
:1068F0008040B0F1804F01D14020C7E704F0005044
:10690000B0F1005F01D18020C0E704F08050B0F109
:10691000805F02D14FF48070B8E704F00060B0F1FE
:10692000006F02D14FF40070B0E704F08060B0F166
:10693000806F02D14FF48060A8E704F08070B0F15E
:10694000807F02D14FF40060A0E704F40000B0F5AE
:10695000000F02D14FF4805098E704F48000B0F5A6
:10696000800F02D14FF4005090E704F40010B0F50E
:10697000001F02D14FF4804088E704F48010B0F586
:10698000801F02D14FF4004080E704F48020B0F56E
:10699000802F02D14FF4003078E704F40030B0F5D6
:1069A000003F02D14FF4802070E704F48030B0F54E
:1069B000803F02D14FF4002068E704F40040B0F5B6
:1069C000004F02D14FF4801060E704F48040B0F52E
:1069D000804F02D14FF4001058E704F40050B0F596
:1069E000005F02D14FF4800050E704F0080008284F
:1069F00001D100054AE74FF4803047E73C00002012
:106A000008E0FFFD014615480068C0084FF47A739E
:106A1000B0FBF3F041F2883300FB03F200BF101E1D
:106A2000A2F1010202D14FF000407047486B00F024
:106A300045000028F3D0486B00F0040010B104209A
:106A40008863F2E7486B00F0010010B10120886311
:106A5000EBE740F2FF5088630020E6E73C000020AF
:106A6000014612480068C0084FF47A73B0FBF3F097
:106A700041F2883300FB03F200BF101EA2F10102B5
:106A800002D14FF000407047486B00F045000028ED
:106A9000F3D0486B00F0040010B104208863F2E7E3
:106AA00040F2FF5088630020EDE700003C0000202A
:106AB0002DE9F04104460E46174628480068C008F4
:106AC0004FF47A71B0FBF1F041F2883100FB01F82C
:106AD00000BFB8F10000A8F1010803D14FF0004059
:106AE000BDE8F081606B00F045000028F1D0606BDC
:106AF00000F0040010B10420A063F1E7606B00F027
:106B0000010010B10120A063EAE72046FFF74CFC2A
:106B1000B04201D00120E3E740F2FF50A063002122
:106B20002046FFF74AFC054605F4604018B9280CDA
:106B300038800020D4E705F48040B0F5804F02D1C2
:106B40004FF40050CCE705F40040B0F5004F02D1FF
:106B50004FF48050C4E74FF48030C1E73C00002080
:106B6000014614480068C0084FF47A73B0FBF3F094
:106B700041F2883300FB03F200BF101EA2F10102B4
:106B800002D14FF000407047486B00F045000028EC
:106B9000F3D0486B00F0040018B140208863042053
:106BA000F1E7486B00F0400008B140208863002006
:106BB000E9E700003C00002010B586B00446002044
:106BC00005900120019010200290012003900020E8
:106BD00004904FF4805201A92046FCF75DFB64202D
:106BE000FAF7C8FB022001901020029001200390C8
:106BF000002004904FF4805201A92046FCF74CFB82
:106C0000032001901020029008200390002004909F
:106C10004FF4805201A92046FCF73EFB40F23120A0
:106C20000590042001901020029001200390059807
:106C300004904FF4805201A92046FCF72DFB40F24E
:106C4000AB212046FCF714FB06B010BD10B504467E
:106C5000012007490870F9F72FFD28B9044800788A
:106C600020F00100024908700148007810BD0000C2
:106C70005407002070B50446FAF7C4FC054604E04A
:106C8000F9F71AFD08B9002070BDFAF7BBFC401BEC
:106C9000A042F5D34FF0FF30F6E770B50646B46B6F
:106CA000E06B406D012803D0206C406D01281ED19F
:106CB00040F2FF50216888632068C06B20F49D700B
:106CC0002168C863A06B40F08040A0632046FCF7B9
:106CD00065FC0546062D01D0052D05D12068FFF77E
:106CE00047FDA16B0843A063012084F834002046CF
:106CF000FCF748FB70BD70B50546AC6B0026206BF9
:106D000082280AD12068FFF733FD06462EB1A06B1A
:106D10003043A0632046FCF735FB2068C06A20F0B2
:106D200008002168C86240F2FF5021688863012092
:106D300084F834002046FCF71BFF70BD70B5064692
:106D4000B46BE06B08B10020E063206CD8B920463A
:106D5000FCF724FC05460020A063012084F83400E1
:106D6000062D01D0052D0ED12068FFF701FDA16B86
:106D70000843A063A06B18B12046FCF7AAFA02E012
:106D80002046FCF7FFFA70BD0146886B0268D26BA3
:106D900042F480720368DA63704770B50646B46BDC
:106DA000206C08B100202064E06BD8B92046FCF7C5
:106DB000F5FB05460020A063012084F83400062D71
:106DC00001D0052D0ED12068FFF7D2FCA16B08433E
:106DD000A063A06B18B12046FCF77BFA02E02046C6
:106DE000FCF7D0FA70BD2DE9F04188B004460E469C
:106DF0000025FAF707FC804600270020009001904C
:106E000008212068FFF764FB05461DB1284608B03D
:106E1000BDE8F0815022125B11042068FFF71DFBD2
:106E200005460DB12846F2E74FF0FF3002900820EA
:106E3000039030200490022005900020069001204D
:106E4000079002A92068FFF799FA2068FFF738FC3D
:106E500005460DB12846DAE713E02068406B00F4E0
:106E6000001028B12068FFF7DAFA4DF827007F1CE0
:106E7000FAF7C8FBA0EB0800401C10B94FF0004027
:106E8000C5E72068406B40F22A4108400028E4D062
:106E90002068406B00F0080018B108202168886362
:106EA000B5E72068406B00F0020018B102202168AD
:106EB0008863ACE72068406B00F0200018B1202008
:106EC00021688863A3E740F2FF5021688863009837
:106ED0000006009901F47F4140EA0120009901F485
:106EE0007F0140EA1120009940EA1160706001982A
:106EF0000006019901F47F4140EA0120019901F463
:106F00007F0140EA1120019940EA116030600020C1
:106F10007DE730B58FB0044600250120039020683E
:106F2000FFF746FA18B94FF080600FB030BD606CC3
:106F300003281BD02068FFF78FFB05460DB12846BC
:106F4000F3E700212068FFF738FA60670421206822
:106F5000FFF733FAA06708212068FFF72EFAE067F1
:106F60000C212068FFF729FA80210851606C032862
:106F700007D003A92068FFF7DDFB05460DB12846C1
:106F8000D3E7606C032820D0BDF80C102165502297
:106F9000125B11042068FFF779FB05460DB1284606
:106FA000C3E700212068FFF708FA60660421206823
:106FB000FFF703FAA06608212068FFF7FEF9E066F4
:106FC0000C212068FFF7F9F9206704212068FFF7FA
:106FD000F4F9010DE16404A92046FCF7D4F950202E
:106FE000005B01040A4600232068FFF717FB0546F3
:106FF0000DB1284699E7D4E90412A069CDE9001241
:10700000029094E80F00FFF7EBF900208DE7F8B548
:107010000446002000900026002700252068FFF786
:1070200091FA05460DB12846F8BD2068FFF7A1FA90
:1070300005466DB30021A16425E00098411C009134
:107040004FF6FF71884202D14FF08070ECE70021CB
:107050002068FFF702FA054615B14FF08050E3E7CC
:1070600000212068FFF716FA054615B14FF0805051
:10707000DAE700212068FFF7A0F90646012080EA40
:10708000D67080F00107002FD7D00020606433E075
:107090000121A16424E00098411C00914FF6FF718A
:1070A000884202D14FF08070BEE700212068FFF7D0
:1070B000D4F905460DB12846B6E74FF08041206867
:1070C000FFF7E8F905460DB12846ADE70021206835
:1070D000FFF773F90646012080EAD67080F00107B9
:1070E000002FD8D006F08040B0F1804F02D10120AF
:1070F000606401E000206064002095E770B50446FC
:107100000025A66A00BF05E02068FFF788F946F869
:1071100025006D1C082DF7D3A06A2030A062002046
:1071200070BD70B504460D46002615B94FF00060DD
:1071300070BD5022125B11042068FFF7DEFA06468C
:107140000EB13046F4E700212068FFF736F92860D9
:107150000020EDE77CB5044600200090019000255A
:1071600000212068FFF729F900F00070B0F1007FDE
:1071700002D14FF400607CBD69462046FFF733FE24
:1071800005460DB12846F6E7019800F4803098B125
:107190005022125B11042068FFF75FF905460DB11C
:1071A0002846E8E700212068FFF7AFF905460DB152
:1071B0002846E0E70020DEE74FF08060DBE77CB5A3
:1071C0000446002000900190002500212068FFF770
:1071D000F4F800F00070B0F1007F02D14FF40060CD
:1071E0007CBD69462046FFF7FEFD05460DB12846E9
:1071F000F6E7019800F4802098B15022125B110448
:107200002068FFF72AF905460DB12846E8E7022174
:107210002068FFF77AF905460DB12846E0E700201F
:10722000DEE74FF08060DBE770B504460025266A94
:1072300000BF05E006EB85012068FFF708F96D1C2B
:10724000082DF7D3206A20302062002070BD000096
:1072500010B50446F9F73CFA20B92046FFF7F6FCD2
:10726000024908700148007810BD00005407002052
:10727000F0B589B007460D46144601261648007839
:1072800000F0010010B1032009B0F0BD35B1012DAF
:1072900006D0022D0BD0032D18D10FE0002617E0E9
:1072A00001A8F9F7FFF907982060002610E001A86F
:1072B000F9F7F8F908982080002609E001A8F9F705
:1072C000F1F90898400A2060002601E0042600BF7A
:1072D00000BF3046D8E70000540700202DE9F041F8
:1072E00080460C4615461E46012732462946204652
:1072F000F9F734FA07463846BDE8F08110B5044680
:107300002046FFF7A3FC10BD2DE9F04180460C4656
:1073100015461E460127324629462046F9F7B8FA97
:1073200007463846BDE8F08170B5044600222021AA
:107330001148FAF761F900251BE004F0800028B13C
:10734000012211460D48FAF757F904E00022012105
:107350000A48FAF751F9002220210748FAF74CF9B8
:10736000012220210448FAF747F96006040E681C40
:10737000C5B2082DE1DB70BD0008024000040240E8
:10738000F8B504460D4616462B46002280212046BD
:10739000009600F009F828B1606D40F020006065AB
:1073A0000320F8BD0020FCE72DE9F04104460E461D
:1073B00017461D46DDF818803FE0681CE0B32DB18C
:1073C000FAF720F9A0EB0800A84236D320684068FD
:1073D00020F0E000216848606068B0F5827F0DD140
:1073E000A068B0F5004F03D0A068B0F5806F05D15C
:1073F0002068006820F0400021680860A06AB0F5AD
:10740000005F0ED100BF206800684DF6FF71084094
:10741000216808602068006840F400502168086016
:1074200000BF012084F8510000BF002084F8500004
:1074300000BF0320BDE8F081FFE72068806830408E
:10744000B04201D1012000E00020B842B5D10020B7
:10745000F0E7704710B523F075FBFAF7B5FE012091
:1074600020F04CFE24F0E4FB23F08AFB10BD00006A
:1074700000B5ABB030211FA8F8F79AFF14211AA865
:10748000F8F796FF30210EA8F8F792FF302102A8F6
:10749000F8F78EFF00BF002001903448006840F0EC
:1074A0008050324908600846006800F08050019022
:1074B00000BF00BF00BF002001902D48006840F4CD
:1074C00040402B4908600846006800F440400190A5
:1074D00000BF00BF09201F904FF480302090012092
:1074E00021900220259041051FA8C1610F21016252
:1074F0004FF490714162022181620A21C162FBF75F
:107500009BFB08B1F9F7F6FAFBF7A6F808B1F9F713
:10751000F1FA0F201A9002201B9000201C904FF4CB
:10752000A0501D904FF480501E9005211AA8FBF723
:1075300045FA08B1F9F7DEFA08200E904E201290B5
:1075400002211491002017900EA8FBF7CBF808B188
:10755000F9F7D0FA2020029000010C9002A8FBF766
:10756000C1F808B1F9F7C6FA2BB000BD40380240A7
:10757000007000401448006840F470001249086030
:107580001248006840F001001049086000200F49CF
:10759000083108600D4800680D4908400B49086033
:1075A0000C48091D0860081F006820F48020091F8E
:1075B0000860002005490C3108604FF00060024966
:1075C000803908607047000088ED00E00038024014
:1075D000FFFFF6FE1030002410B50848006800F0E8
:1075E000010020B106F06EF908B106F083F90348F6
:1075F000006820F001000149086010BD100800403B
:1076000070B50546AC6B0020E085E0842046FCF7B1
:107610003AFD70BD0168C96821F490710268D160BB
:107620000168496921F0010102685161202180F857
:107630003A10704710B504462068C06820F040003A
:107640002168C860202084F839002046FCF7F4FE49
:10765000002010BD70B5044694F83A00222844D1A9
:10766000A068B0F5805F13D1A56A206940B9206891
:107670004068C0F308002880A06A801CA06219E05E
:1076800020684068C0B22880A06A401CA06211E057
:10769000206938B920684068C1B2A26A501CA06253
:1076A000117007E02068406800F07F01A26A501C5A
:1076B000A0621170E08D401E80B2E08598B920680C
:1076C000C06820F490702168C8602068406920F08C
:1076D000010021684861202084F83A002046FCF728
:1076E0003FFE002070BD0020FCE70220FAE700000A
:1076F0002DE9F041044600252068056925F4405530
:10770000E0680543206805612068C56849F20C609F
:1077100085432169A068084361690843E16908431A
:1077200005432068C5602068456925F44075A06957
:10773000054320684561E069B0F5004F7ED1C4493A
:107740002068884203D0C349206888425DD1FBF796
:107750000BFA00EBC00101EB001061684900B0FBBF
:10776000F1F06421B0FBF1F00601FBF7FDF900EB4D
:10777000C00101EB001061684900B0FBF1F7FBF7B5
:10778000F3F900EBC00101EB001061684900B0FBA8
:10779000F1F06421B0FBF1F000EBC00101EB00104F
:1077A000A7EB8000322101EBC0006421B0FBF1F0B7
:1077B00000F0F80006EB4006FBF7D6F900EBC0013D
:1077C00001EB001061684900B0FBF1F7FBF7CCF961
:1077D00000EBC00101EB001061684900B0FBF1F063
:1077E0006421B0FBF1F000EBC00101EB0010A7EB4E
:1077F0008000322101EBC0006421B0FBF1F000F009
:10780000070030442168886020E1FBF79DF900EB18
:10781000C00101EB001061684900B0FBF1F0642188
:10782000B0FBF1F00601FBF78FF900EBC00101EBB3
:10783000001061684900B0FBF1F700E045E0FBF79C
:1078400083F900EBC00101EB001061684900B0FB57
:10785000F1F06421B0FBF1F000EBC00101EB00108E
:10786000A7EB8000322101EBC0006421B0FBF1F0F6
:1078700000F0F80006EB4006FBF766F900EBC001EC
:1078800001EB001061684900B0FBF1F7FBF75CF910
:1078900000EBC00101EB001061684900B0FBF1F0A2
:1078A0006421B0FBF1F000EBC00101EB0010A7EB8D
:1078B0008000322101EBC0006421B0FBF1F000F048
:1078C0000700304421688860C0E061492068884230
:1078D00003D06049206888425CD1FBF745F900EB92
:1078E000C00101EB001061688900B0FBF1F6FBF705
:1078F0003BF900EBC00101EB001061688900B0FBAF
:10790000F1F06421B0FBF1F000EBC00101EB0010DD
:10791000A6EB8000322101EB00106421B0FBF1F0F6
:1079200000F0F006FBF720F900EBC00101EB0010BE
:1079300061688900B0FBF1F06421B0FBF1F006EB67
:107940000016FBF711F900EBC00101EB00106168B4
:107950008900B0FBF1F7FBF707F900EBC00101EB81
:10796000001061688900B0FBF1F06421B0FBF1F018
:1079700000EBC00101EB0010A7EB8000322101EB0E
:1079800000106421B0FBF1F000F00F0030442168DA
:1079900088605BE0FBF7D8F800EBC00101EB00105A
:1079A00061688900B0FBF1F6FBF7CEF800EBC0018F
:1079B00001EB001061688900B0FBF1F06421B0FBBD
:1079C000F1F000EBC00101EB0010A6EB80003221CA
:1079D00001EB00106421B0FBF1F000F0F006FBF7C2
:1079E000B3F800EBC00101EB001061688900B0FB47
:1079F000F1F06421B0FBF1F006EB0016FBF7A4F800
:107A000000EBC00101EB001061688900B0FBF1F7E9
:107A1000FBF79AF800EBC00101EB001061688900E8
:107A2000B0FBF1F06421B0FBF1F000EBC00101EB21
:107A30000010A7EB8000322101EB00106421B0FBA5
:107A4000F1F000F00F00304421688860BDE8F0815B
:107A50000010014000140140014691F8390021282E
:107A60002CD18868B0F5805F0FD10A6A1088C0F306
:107A700008000B685860086918B9086A801C086219
:107A800009E0086A401C086205E00B6A581C08629D
:107A900018780B685860C88C401E80B2C88458B9EA
:107AA0000868C06820F080000B68D8600868C0686B
:107AB00040F040000B68D860002070470220FCE7CF
:107AC0002DE9F04104460D4617469846069E21E0F2
:107AD000701CF8B12EB1F9F795FDA0EB0800B0428B
:107AE00018D92068C06820F4D0702168C860206868
:107AF000406920F0010021684861202084F83900A5
:107B000084F83A0000BF002084F8380000BF03204A
:107B1000BDE8F081206800682840A84201D101201A
:107B200000E00020B842D3D00020F1E710B523F0E8
:107B300009F8034826F0E8FC23F022F810BD000005
:107B40006076022008B5114800680068C0F3401054
:107B500028B10F490968C8B226F0CEFD12E00B48E3
:107B600000680068C0F3001060B100BF0020009002
:107B7000064800680068009004480068406800906B
:107B800000BF00BF0148FCF77FFA08BDE4CF00202A
:107B90000414014000BFFEE710B504460022102186
:107BA0000A48F9F729FD2020FFF7BEFB2012FFF756
:107BB000BBFB0020FFF7B8FBE0B2FFF7B5FB0122EB
:107BC00010210248F9F718FD10BD0000000802401E
:107BD00010B50446002210210748F9F70DFD40209A
:107BE000FFF7A2FB2046FFF79FFB0122102102486E
:107BF000F9F702FD10BD0000000802400FB4054B6C
:107C000010B503A9044A029800F092F810BC5DF880
:107C100014FB00007DB6010864070020014609B985
:107C200000207047C8B220B1C8B20E4A105C401C98
:107C3000F7E701F47F4028B10A48C1F30722805CCE
:107C40000930EEE701F47F0028B10648C1F307428E
:107C5000805C1130E5E7034800EB116000781930D3
:107C6000DFE700009618040802E008C8121F08C1E8
:107C7000002AFAD170477047002001E001C1121FAD
:107C8000002AFBD17047000070B504460648006822
:107C9000FFF7C4FF451E054850F83500A0F1200647
:107CA0002560304670BD000098060020DC7402207C
:107CB00003490868884201D0012070470020FCE792
:107CC000A80600202DE9F04389B006468846914673
:107CD000002400E0641C305D202804D0305D0928B9
:107CE00001D04445F6D324B94FF0FF3009B0BDE8C8
:107CF000F0832146304621F003FB054615B94FF0CD
:107D0000FF30F3E7202101A8F8F752FB01AA414612
:107D1000304621F05FFB074617B94FF0FF30E5E72B
:107D200001A93846A847C9F800000020DEE7000096
:107D30002DE9FF4F8BB09A460F460546002606E018
:107D400025280BD052460D9990476D1C761C28783B
:107D50000028F5D10FB03046BDE8F08F0024A046D2
:107D60000122604900E0044315F8013F203B02FA7C
:107D700003F00842F7D128782E2817D115F8010F03
:107D800044F004042A280ED06FF02F022878A0F1C6
:107D9000300109290AD808EB880102EB410100EB08
:107DA00001086D1CF2E757F8048B6D1C28786928D0
:107DB0003ED006DC0028CDD063280BD0642804D147
:107DC00036E0732810D075284BD052460D99904755
:107DD000761C85E017F8040B8DF8000000208DF864
:107DE0000100E946012003E057F8049B4FF0FF3003
:107DF00061074FF0000401D40AE0641C44450DDA29
:107E00008442FADB19F804100029F6D106E0641C5C
:107E10008442FCDB19F804100029F8D1264404E060
:107E200019F8010B52460D999047641EF8D257E09D
:107E300001CF4FF00A0B002802DA40422D2102E068
:107E4000210504D52B218DF82410012103E0E10741
:107E500005D02021F7E70DF1200908910CE0002161
:107E6000F9E701CF4FF00A0BF9E75946F8F7F0FAB6
:107E700001F1300209F8012D0028F6D1ADEB09001F
:107E800000F1200B600701D44FF00108D84502DD56
:107E9000A8EB0B0000E000208046002406E009A8C3
:107EA0005246005D0D999047641C761C08988442E8
:107EB000F5DB04E0302052460D999047761CB8F16E
:107EC0000001A8F10108F5DC05E019F8010B5246A4
:107ED0000D999047761CBBF10001ABF1010BF4DC6E
:107EE0006D1C34E7092801002DE9FC5F04468B4630
:107EF00015461E46DDE90C9ADDE90E7804F12000F6
:107F00004060006000BF28346560A660C4F80C9033
:107F1000C4F810A02321D4E9030222F0EEFFD4E933
:107F2000033C63441A1F0F4BD4E9010122F0E2FD28
:107F30002060A77667760020E061C4F82880C4F846
:107F40002C8060612076A066E066283C0090234685
:107F5000054A2146019004F1580023F0EBFE002071
:107F6000BDE8FC9F55B90308F9BB03082DE9F047AC
:107F700004460E4617469846DDF8209084F8159082
:107F8000607D20F001006075A662E76200206063FA
:107F9000C4F83080002506E004F1200101EBC500A3
:107FA00022F080FE6D1C012DF6DBBDE8F08710B5D8
:107FB0000246002001460EE002F1200303EBC1005F
:107FC000D0E900436360D0E9003423604060006082
:107FD00000BF481C01460129EEDB10BD2DE9F0472A
:107FE00006460F461546A946B46D28E0F8F7FAF89C
:107FF0008246E088A188884205D1A06818B9504619
:10800000F8F7F4F81DE0E188206810F80180E088B6
:10801000401CE080E188706DC0F38F20814201DB5D
:108020000020E080A068012801D10020A060504617
:10803000F8F7DCF887F800807F1C6D1E00BF002D6C
:10804000D4D100BFA9EB0500BDE8F0871FB5002023
:1080500000900190029003901548164908604FF473
:10806000803048600021134881600161017680F80A
:108070002010C162104981620021C1600121C161EB
:10808000002180F8301001214161F8F7E9FE08B1C4
:10809000F8F730FD062000900120019003200290A7
:1080A00069460448F8F712FE08B1F8F723FD1FBD32
:1080B00000220140A0E700200100000F2DE9F0415F
:1080C00080460E460025002709E056F827001EA12D
:1080D000F8F798F908B1681C85B2781C87B256F891
:1080E0002700F8F788F90028EFD1404618F0BAFECB
:1080F0000446606820B1606817F0DCFF0020606013
:10810000A06820B1A06817F0D5FF0020A060E800AB
:1081100017F0AAFF6060606808B900BFFEE768005A
:1081200017F0A2FFA060A06808B900BFFEE7606872
:1081300008B1A06800B900256900A068F8F738F90F
:108140002584BDE8F08100000A00000010B58AB067
:10815000044694F82400C0F3400020B994F82400A9
:1081600000F0010070B194F82400C0F34000F0B9B1
:1081700094F8240000F00100C8B194F82400C0F382
:108180008000A0B1282221466846F8F7F6F821467B
:10819000194817F0F6F9204617F08CFF012017490F
:1081A0000870039810B16846039988471FE0E08B78
:1081B000404200B2608394F8240000F00100B0B1A6
:1081C00094F82410C1F3800119B9A18B494209B276
:1081D00061831034217D8908C943227D61F38202C5
:1081E00022752068616821606060103C00BF034810
:1081F00000780AB010BD000030EB0020C400002061
:108200002DE9F04107462F4817F0D4F8044608E05E
:10821000606A20F00800606221462A4817F0CFF813
:108220000446002CF4D1284800681FF049FF064698
:10823000244817F0BFF804463CE0002023490870AA
:1082400094F82400C0F3C00038BB606A20F0080036
:1082500008306062608B304400B26083B4F91A0069
:1082600000281ADBB4F91A00218B884202DD208B2A
:1082700000B260832046A16888470546606818B14F
:1082800029B2D4E900029047B4F91A00218B884240
:1082900002DB2046FFF75AFF00BF0C48007820B1F0
:1082A000084817F087F8044604E02146054817F00F
:1082B00086F80446002CC0D11FF010FF0249086068
:1082C000BDE8F08130EB0020C0000020C400002099
:1082D00030B50346022B04D10E48405C50430012D7
:1082E00030BD032B04D10C48405C50430012F7E72B
:1082F000042B04D10948405C50430012F0E7C1EB65
:10830000C105581EB5FBF0F0C4B20548005D5043EE
:10831000000AE5E736E9030838E903083BE9030802
:108320003FE9030808B5144914481CF03DFC082136
:108330001248C1865A224621114800880BF0F5FEEA
:1083400000900E48BDF800108186012180F8391098
:108350000221818140F255500BF0B9FE0090074890
:10836000BDF800104181032141838183C1820183D3
:108370000449086708BD000004ED002084F40020D3
:108380007405002054EB002000B585B03849394809
:108390001CF00AFC4C213748017247F61841C18095
:1083A0003548006804903348BDF8101041803248C9
:1083B000001D006803902F48BDF80C108180022139
:1083C00081812D480830006802902A48BDF80810C5
:1083D00041813321C1730021418381830A21C182FC
:1083E00001830021C183224924481CF0DDFB47F6AC
:1083F00018412248C180022181811F480C30006849
:1084000001901E48BDF804104181B221C1730021C2
:1084100041838183C1820183052141825A22142133
:10842000174800880BF081FE00901448BDF800103A
:10843000018250222821124800880BF076FE00901D
:108440000E48BDF800104180502228210C480088B9
:108450000BF06BFE00900948BDF8001081800548C4
:108460000849486505490748816505B000BD000019
:1084700004ED00205CEF00202818040898EF00208D
:108480007405002054EB002000B585B08C498D4860
:108490001CF08AFBFF218B4801720020894908707B
:1084A00040F222200BF013FE00908648BDF8001029
:1084B000418040F222200BF00AFE00908148BDF876
:1084C000001081800021C1800C2141838183C18201
:1084D0000183C1837C48006804907A48BDF810107D
:1084E000418101218181FF21C1737748001D00680E
:1084F00003907448BDF80C100182002141820121D3
:10850000017540F6DD500BF0E2FD00906D48BDF8BE
:10851000001001846D4801686A48416201210185AB
:108520000221418540F6DD500BF0D1FD00906548F9
:10853000BDF800100186002180F8321040F6DD50B1
:108540000BF0C5FD00905F48BDF800108186012149
:10855000C18601465E481CF027FB40F233300BF029
:10856000B6FD00905A48BDF80010418040F233300B
:108570000BF0ADFD00905648BDF80010818002213F
:10858000818140F266600BF0A2FD00905048BDF87A
:10859000001041814C480830006802904C48BDF8FA
:1085A0000810018201464B481CF0FEFA00214948A0
:1085B0000183C18241838183424947481CF0F4FA18
:1085C0000A214548C18040F266600BF080FD0090B2
:1085D0004148BDF80010418040F266600BF077FD25
:1085E00000903D48BDF80010818040F6CC400BF073
:1085F0006EFD00903848BDF8001041810221818154
:108600009921C17360220821344800880BF08DFD48
:1086100000903148BDF800100184602208212F48E5
:1086200000880BF082FD00902B48BDF800100186F9
:1086300046221421294800880BF077FD0090264837
:10864000BDF8001081861F4925481CF0ADFA7F2136
:108650002348017247F61841C1801B480C3000685E
:1086600001901F48BDF8041041816621C1730121AA
:1086700081815C222121194800880BF056FD009071
:108680001748BDF8001041805C2221211348008862
:108690000BF04BFD00901248BDF8001081800121C5
:1086A00041838183C18201830621C18308480D492A
:1086B0004860084808600848886005B000BD0000B0
:1086C000D8E8002004ED00201818040878050020E0
:1086D00040ED00207CED0020B8ED00207405002066
:1086E000F4ED002054EB002010B500F035F805F053
:1086F000F1FA26F017F805F065F801F0C7FB03F072
:108700005DFD03F083FBFCF711FA02F003FF07F0B5
:1087100053FC23F0D9FE23F0A3FD02F02BFAFFF760
:1087200095FC00214FF07F4007F0E8FB002206A1F6
:10873000064802F091F9002205A1064802F08CF9E2
:1087400021F006F810BD0000303A0000D07602207B
:10875000313A00003497022010B51B48006840F001
:1087600004001949086019480068400842F2107175
:10877000B0FBF1F0164908606320091D0860144839
:108780001438006840F00100114914390860081FCE
:10879000006820F00100091F0860081F006840F011
:1087A0000100091F08600A482838006840F00100ED
:1087B00007492839086000220F211E20F9F7F9FE29
:1087C0001E20F9F7E9FE10BD403802403C000020B1
:1087D0002808004008B5964996481CF0E5F90020A5
:1087E0009449087000219348017247F61841C180EE
:1087F000022181815A2246218F4800880BF095FC86
:1088000000908C48BDF800104181CC21C173192122
:10881000418381831021C18201830A21C1836022A7
:108820000821854800880BF080FC00908148BDF845
:1088300000100184814801687E484162602208215D
:108840007D4800880BF071FC00907A48BDF800105C
:10885000018601467A481CF0A7F9FF217848017289
:1088600032221146744800880BF05FFC0090744877
:10887000BDF800104180322211466F4800880BF08D
:1088800054FC00906E48BDF8001081809921C1739E
:108890006A4801686A48416264220A216648008881
:1088A0000BF043FC00906648BDF800100184642280
:1088B0000A21614800880BF038FC00906048BDF840
:1088C0000010018601465F481CF06EF9FF215D48EB
:1088D00001723C223221584800880BF026FC00909F
:1088E0005848BDF8001041803C223221524800888F
:1088F0000BF01BFC00905348BDF8001081809921BB
:10890000C1735A2250214C4800880BF00EFC009095
:108910004C48BDF80010418148480168494841620F
:1089200064220021444800880BF0FFFB009045487A
:10893000BDF800100184642200213F4800880BF03C
:10894000F4FB00903F48BDF80010018601463E4808
:108950001CF02AF9FF213C480172322211463648A8
:1089600000880BF0E2FB00903748BDF80010418012
:1089700032221146304800880BF0D7FB0090324875
:10898000BDF8001081809921C173462250212A48E8
:1089900000880BF0CAFB00902B48BDF80010418105
:1089A00026480168284841625A220A212248008844
:1089B0000BF0BBFB00902448BDF8001001845A2244
:1089C0000A211D4800880BF0B0FB00901E48BDF83E
:1089D0000010018617491D481CF0E6F899211B4834
:1089E000C17332220A21144800880BF09EFB0090CC
:1089F0001648BDF8001041811048016813484162D3
:108A00005A220A210C4800880BF08FFB00900F4877
:108A1000BDF80010018407480D49086108490C4859
:108A20004161084981610849C1610849016208BD85
:108A300004ED002030EE00207405002078050020B1
:108A40006CEE0020A8EE0020E4EE002020EF0020D5
:108A500054EB002008B5474947481CF0A5F8012110
:108A60004548818150223C21444800880BF05DFB41
:108A700000904148BDF800104181FF21C1730C21D5
:108A8000C1803F493F481CF08FF800213D480172EA
:108A90000C21C18050223C21384800880BF045FB56
:108AA00000903848BDF80010018437480168354807
:108AB0004162334935481CF077F8462228212F4877
:108AC00000880BF032FB00903048BDF80010418068
:108AD00046222821294800880BF027FB00902B48CC
:108AE000BDF8001081800C21C18028221146234846
:108AF00000880BF01AFB00902448BDF80010018498
:108B000021480168214841621E4921481CF04CF867
:108B100050221146194800880BF007FB00901C48B2
:108B2000BDF80010418103218181164919481CF0CC
:108B30003BF83C220A21114800880BF0F6FA00901D
:108B40001448BDF8001001840B481349C1F8C40053
:108B50000C491148C0F8C8100C49C0F8CC100C4999
:108B6000C0F8D0100949C0F8D4100A49C0F8D8108C
:108B700008BD00009CE80020C4F00020740500201F
:108B8000D8E8002000F10020780500203CF100200A
:108B900078F10020B4F1002054EB002010B520A0A3
:108BA00022F046F82148017821A022F041F81F4820
:108BB000007800F0010010B123A022F039F81B4822
:108BC000007800F0020010B122A022F031F817481E
:108BD000007800F0040010B121A022F029F8134819
:108BE000007800F0080010B121A022F021F80F4811
:108BF000007800F0100010B120A022F019F80B4806
:108C0000007800F0800030B108480F3001681DA0E6
:108C100022F00EF802E01FA022F00AF810BD0000BA
:108C2000627573206661756C743A0A0029ED00E084
:108C30005343425F434653525F424653523A307861
:108C400025303258200000004942555345525220E9
:108C50000000000050524543495345525220000045
:108C6000494D50524543495345525220000000009F
:108C7000554E53544B4552522000000053544B451F
:108C8000525220005343422D3E424641523A253033
:108C900038580A000A00000010B5002407E02046FA
:108CA00000F01BF808B160B210BD601CC4B2022C09
:108CB000F5DB4FF0FF30F7E70146C1F3C010704716
:108CC00070470146C1F3002070470146C1F3C00060
:108CD00070470146C1F340107047014600207047BD
:108CE0000146C1F3001070470146C1F38010704780
:108CF00070B506460C46FFF7CFFF0546002D04DB96
:108D00000120A07304490D7001E00020A073024807
:108D10000078A060002070BDA40500202DE9FF5F51
:108D200006460F4606F1100102A807F065FC002177
:108D3000304609F089FC8046BDF80810B8F81A00E2
:108D4000084400B2ADF80800BDF80C10B8F81C00DB
:108D5000081A00B2ADF80C00304602F0B7FE718A76
:108D60004418304602F0ACFD2118B8F81600081A75
:108D700000B2ADF80A00394602A807F059FD0028F4
:108D80007ED0BDF90C00BDF90810401A401C072127
:108D900090FBF1F000B20190BDF90E00BDF90A1090
:108DA000401A401C062190FBF1F000B200904FF0F9
:108DB0000009B7F90000BDF90810411A019891FBAC
:108DC000F0F000F0FF09B9F1060F01DD4FF00609E0
:108DD0004FF0000AB7F90200BDF90A10411A0098D5
:108DE00091FBF0F000F0FF0ABAF1050F01DD4FF042
:108DF000050A0025CAEBCA004844C5B2304618F03F
:108E000031F8044694F90610A088012202F06AFDA8
:108E1000A84224DDA188A079012800D100E000202B
:108E2000081AE081A079012801D10C2002E094F910
:108E30000600401E41B2217494F91010E08902F03E
:108E4000E8FE834694F90610A088012202F04AFD4C
:108E5000ABEB0000401C284441B2617446E094F939
:108E60000610A088012202F03DFD834694F9061009
:108E7000A08802F0CEFE5844A84210DDA08800E091
:108E800038E0E081A179217494F90610A0880122CC
:108E900002F028FD691C081A41B2617426E02A2DEF
:108EA00024DAA188A0790C2801D1012000E000205B
:108EB0000844E081A0790C2801D1012002E094F956
:108EC0000600401C41B2217494F90610A0880122CA
:108ED00002F008FD691CA1EB000B94F90610A088B4
:108EE00002F097FEABEB000041B26174012004B0C8
:108EF000BDE8F09F0020FAE708B5404940481BF064
:108F000053FE00213E48C18008214183818307210F
:108F1000C18201833C221E213A4800880BF005F9EA
:108F200000903748BDF80010418001464988818093
:108F30003548C17B3248C1733348818930488181CB
:108F4000502214212F4800880BF0EFF800902C4895
:108F5000BDF800104181642205212A4800880BF0E9
:108F6000E4F800902648BDF8001001840146274827
:108F70001BF01AFE46222821224800880BF0D5F863
:108F800000902248BDF80010418001464988818048
:108F90000021017219491E481BF006FE50221E21B5
:108FA000184800880BF0C1F800901948BDF800106F
:108FB0000184124917481BF0F7FD41220A2111488C
:108FC00000880BF0B2F800901248BDF80010018440
:108FD0000D481149C1F88C0009490F48C0F890109C
:108FE000C0F8A4100949C0F8A8100949C0F89810A1
:108FF000C0F89C100749C0F8A01008BD04ED00207F
:10900000C0F4002074050020B8ED002074F50020A5
:10901000FCF4002038F5002054EB002000B589B0A6
:10902000664967481BF0C0FD05216548C1800121E4
:1090300081816448006808906148BDF82010418132
:109040006048001D006807905D48BDF81C10418015
:109050005C480830006806905948BDF818108180B7
:10906000564959481BF0A0FD0021574801728181E3
:109070000C21C183002141838183C1820183534834
:109080000168514841624E4951481BF08DFD5A22FA
:109090000A21504800880BF048F800904C48BDF871
:1090A0000010418052220A214A4800880BF03DF806
:1090B00000904748BDF800104180414946481BF0E8
:1090C00073FD0421444881813E480C3000680590BE
:1090D0004148BDF8141041819921C17352223221B7
:1090E0003C4800880BF021F800903B48BDF8001088
:1090F00041803E223221374800880BF016F800905C
:109100003548BDF800108180014634481BF04CFD05
:109110002C481030006804903048BDF81010418190
:10912000B221C173482232212A4800880AF0FDFF8B
:1091300000902A48BDF80010418034223221254891
:1091400000880AF0F2FF00902448BDF800108180EA
:10915000214923481BF028FD01212148818119481C
:109160001430006803901E48BDF80C10418115486A
:109170001830006802901A48BDF808104180114864
:109180001C30006801901648BDF8041081800E481C
:109190001449C1F8AC000A491248C0F8B0100C4993
:1091A000C0F8B4100C49C0F8B8100C49C0F8BC1095
:1091B0000B49C0F8C01009B000BD000040ED002010
:1091C000ECF5002044180408B0F5002078050020D4
:1091D00028F600207405002064F60020A0F6002088
:1091E000DCF6002054EB0020F8B507460E46384662
:1091F00017F038FE0446E06B20B9B4F8400008B917
:109200000120F8BDB4F8400000280CDD38461CF001
:1092100069FE05460F4909688847B4F8401088423E
:1092200001D30020EDE7E06B90B10020009009E051
:109230006946094AE06B126890470546B54201D17C
:109240000120DEE7E06B0099405C0028F0D1D8E710
:109250000120D6E7C4010020B401002002480349E0
:10926000C1F8880070470000B8ED002054EB0020E2
:1092700070B504460D460020E070401E606329462C
:1092800020461FF09DFF08B1042070BD04F2362077
:1092900004F01AFD4AF65521884201D00320F4E774
:1092A00094F83800E92807D094F83800EB2817D153
:1092B0003A20005D902813D104F16E0004F0F8FC10
:1092C00020F07F400749884201D10020DDE704F10A
:1092D0008A0004F0EDFC0449884201D10020D4E763
:1092E0000220D2E7464154004641543370B504464B
:1092F0000D4606F07BF9002070BD70B504460D46A2
:1093000006F026FC002070BD0246002070470000D9
:1093100001480249C8607047B8ED002054EB0020B6
:109320002DE9F04F8FB006464FF00809304618F08F
:109330001AFD824649460BF0F2FE00BF1EF0A4FE65
:109340000446FE49FE481BF02FFC0A21FC48C1835D
:109350001921418381830A21C18201830021304682
:109360000BF006F90E90F6490E9818F0BEF80021A1
:109370000E9817F07FFF01210E980BF065FE032178
:109380000E980BF0CCFE00210E9807F071FE0746F8
:10939000B9464FF0010A514648460BF055FE00BF52
:1093A0000121384607F077FF0021384613F060FEB0
:1093B0000D90E4A10D9814F0CAFD39460E9807F0FF
:1093C00057FE0746384608F087F80021384613F064
:1093D0004FFE0D90DDA10D9814F0B9FD39460E98A1
:1093E00007F046FE07460421384607F017FF002124
:1093F000384613F03DFE0D90D6A10D9814F0A7FD50
:1094000000210E9813F034FE0C90D5A10C9814F0A6
:109410009EFDA16B0C9818F068F800210E9813F0CF
:1094200027FE0C90D0A10C9814F091FDE16B0C98E4
:1094300018F05BF800210E9813F01AFE0C90CDA1E5
:109440000C9814F084FD216C0C9818F04EF8002153
:109450000E9808F09BF80B9000200CF089FD8146D7
:10946000C01709EB90704FEAA00A422251460B98B0
:1094700017F0ECFFC1490B9808F0BCFB40210B989A
:1094800008F06AFB01210B9808F0CEFC00210E9831
:109490001DF0CEF90A9003210A981DF0F9FC042171
:1094A0000A981DF043FD212200210A981DF028FD95
:1094B000322201210A981DF023FD322202210A984E
:1094C0001DF01EFD0123002211460A981DF050FCDC
:1094D00001231A4600210A981DF04AFCA8A3002285
:1094E00011460A981DF081FC0123002211460A98BA
:1094F0001DF004FCA4A3002201210A981DF075FCB4
:10950000A2A3012211460A981DF06FFC022301223A
:1095100011460A981DF0F2FB9DA3022201210A9830
:109520001DF063FC9BA3002202210A981DF05DFC44
:1095300099A3012202210A981DF057FC022301225F
:1095400019460A981DF0DAFB91A3022211460A98E7
:109550001DF04BFC91A3002203210A981DF045FC4D
:109560008FA3012203210A981DF03FFC0223012250
:1095700003210A981DF0C2FB85A3022203210A9849
:109580001DF033FC30460E990AF0F2FF0E900021D8
:109590000E980AF0EDFF8046C146DFF8A0A15146C3
:1095A000484617F0A2FF00BFC3464FF000094FF036
:1095B000010A53464A4649465846CDF800A00BF0EA
:1095C00072FD00BF0CF0CEFC83460CF0D1FC81464E
:1095D000C01709EB90704FEAA00A5146404617F0B9
:1095E00098FF082140460BF09AFD002140461BF0F1
:1095F00091FD0990FA2109981BF041FE4046099916
:109600001BF088FD0990002109981BF026FE00211F
:109610000E9807F0A9F9089000224621089807F053
:109620004FFC00210E981AF077FD0790002246218A
:10963000079807F045FC00210E9814F099FE0546A6
:1096400000205849088048800CF092FC052190FBCE
:10965000F1F000B25349888000215248C1800222B3
:109660000146284615F03AF8D4F84C904946284669
:1096700017F03BFF00BF00210E9809F07DF906901E
:1096800006990E9809F078F906900221069807F0DD
:10969000C5FD00210E980BF0EDFD0590059817F023
:1096A000BBFC32300FFA80F9494605980CF0E2F91C
:1096B000012105980CF0BCF930460E990AF058FFCC
:1096C0000E9000210E9815F01BFA049000200CF06B
:1096D00098FC824600EBDA704FEA600B00200CF039
:1096E00047FC8146C01709EB907080105A4601462E
:1096F0000190049817F0AAFE2BA22CA1049815F053
:1097000087F803900121039807F0C5FD28A22AA13C
:10971000049815F07DF824A224A1049815F078F897
:1097200026A228A1049815F073F827A228A104986E
:1097300015F06EF827A229A1049851E024E8002032
:109740004C720220427574746F6E0000546F67672C
:109750006C656400496E61637469766500000000A1
:109760005072696D617279005365636F6E646172E6
:109770007900000048696E7400000000A805002010
:109780005461626C6500000031000000313300005C
:109790006D7300003200000034360000330000001A
:1097A00036310000C005002047505300EF84A4006C
:1097B0005769466900000000EF87AB004175646996
:1097C0006F000000EF808100566964656F00000043
:1097D000EF80880043616C6C00000000EF82950010
:1097E00015F016F817A219A1049815F011F818A28F
:1097F00019A1049815F00CF818A21AA1049815F0F4
:1098000007F819A219A1049815F002F818A21AA1D4
:10981000049814F0FDFF00210E981AF049F8029008
:10982000012216A102981AF0B7FA0022012102982B
:109830001AF004FB032102981AF029FB0FB0BDE8CF
:10984000F08F000042656C6C00000000EF83B300F5
:1098500046696C6500000000EF859B0045646974F3
:1098600000000000EF81800043757400EF838400E6
:10987000436F707900000000EF8385004D6F6E64C8
:1098800061790A547565736461790A5765646E6518
:10989000736461790A54687572736461790A4672F7
:1098A000696461790A53617475726461790A5375E8
:1098B0006E646179000000002DE9F04F87B0064624
:1098C00000BF304618F04FFA054617F0A5FB0446D6
:1098D0000021304609F060FA8046102140460AF027
:1098E00067FB00200CF08DFB032190FBF1F005B22B
:1098F00094FBF1F007B22A463946404617F0A6FD20
:109900000A221146404617F048FD5D48006806905F
:109910004046069909F0FAF905901E22404605993D
:109920000AF0E3FA1422404605990AF0DEFA0A2208
:10993000404605990AF0D9FA0C22404605990AF0EA
:10994000D4FA1422404605990AF0CFFA1B22404669
:1099500005990AF0CAFA2322404605990AF0C5FA89
:109960003722404605990AF0C0FA4622404605993A
:109970000AF0BBFA4B22404605990AF0B6FA0021DC
:10998000304611F027F8814628220021484611F080
:1099900081FB2546E01704EB907082102746E01704
:1099A00004EB90708110484617F050FD19200023F9
:1099B0000C2241460090484616F012FC0021304629
:1099C00006F062FC04900C2000230D224946009012
:1099D000049816F005FC002130461BF06FFF82460C
:1099E00000200CF00EFB0546C01705EB90708710A9
:1099F000032094FBF0F00FFA80FB3A46594650469C
:109A000017F024FD0A204342032200210090504613
:109A100016F0E6FB022150461CF0AEFC0021304659
:109A200013F09EF8039000200CF0EBFA032190FB5A
:109A3000F1F005B2600090FBF1F007B22A4639461A
:109A4000039817F003FD642000230E225146009076
:109A5000039816F0C5FB5146039813F080FA0021D5
:109A6000304619F033FA02906FF0630000231A4673
:109A700019460090029816F0B3FB07B0BDE8F08FCE
:109A8000941804082DE9F04F87B0044600212046C1
:109A90001EF070FF814678A148461EF02DFF06900B
:109AA0007649069817F014FC75A148461EF024FF6D
:109AB00000200CF0A6FA054600EBD57047100020F8
:109AC0000CF056FA064600EBD6704FEA60083A46AC
:109AD0004146484617F0BAFC05221146484617F0A1
:109AE0005CFC0121484617F00BFD0021484613F0AD
:109AF000BFFA824663A1504614F029FA0021484675
:109B000015F092FD8346322000230C22514600902E
:109B1000584616F065FB4621584615F05BFF0021BC
:109B2000484614F005FB05900020322313225946C5
:109B30000090059816F054FB059814F0CCFB00211A
:109B4000484614F0F5FA04900020322313220090C6
:109B5000DDE9040116F044FB049814F0B5FB002184
:109B6000204617F031FD039000200CF04AFA05461C
:109B700000EBD570461000200CF0FAF9032190FBA1
:109B8000F1F007B232463946039817F05FFC012125
:109B9000039817F0B5FC6420034603224946009061
:109BA000039816F01DFB0021039813F061FA82461A
:109BB0003949504614F0CBF90021204608F016FC34
:109BC0000290FA221146029817F040FC21206FF013
:109BD000310312220090DDE9020116F001FB0121A0
:109BE000029817F08DFC05202C49C870887040F24F
:109BF000E270088008212948C1710521817140F275
:109C0000E270264988800222029808F047FD234925
:109C1000029808F08EFD2149029808F04FFD0021BE
:109C2000204615F0B1FF01901DA1019816F0F4F83F
:109C30002B49019815F03CFF019816F065F8054690
:109C40000822002107F06DFF019816F05DF8054627
:109C50000722012107F096FF019816F055F80546F6
:109C60000822022107F05DFF0121019817F048FC4E
:109C700007B0BDE8F08F0000EF808D005989030820
:109C8000EF81B8004C6162656C20696E2074686574
:109C90002077696E646F7700F81D0408C8050020FE
:109CA000436C69636B206F6E207468652077696E02
:109CB000646F77206F72207468652070616765201B
:109CC000746F206272696E6720697420746F2074EB
:109CD000686520666F726567726F756E640000005C
:109CE000D00500202DE9FC4106460D46304617F010
:109CF000B9F804465820005DC0F30010A84240D0D7
:109D00000DB1012000E000205821095D60F304112D
:109D100058200155005D00F00F0090B35820005D01
:109D200000F0080068BB304617F056F8074604F10B
:109D30004E01684606F074FCBDF80000216B098AEC
:109D4000084400B2ADF80000BDF80210206B408A54
:109D5000084400B2ADF80200BDF80400216B098A86
:109D6000084400B2ADF80400BDF80610206B408A2C
:109D7000084400B2ADF806006946384612F080FE8D
:109D800000BFBDE8FC81000008B51B491B481AF064
:109D90000BFF0C2119484185102141838183C18229
:109DA0000183154916481AF0FFFE46222D21154859
:109DB00000880AF0BAF900901148BDF800104180FF
:109DC00046222D210F4800880AF0AFF900900C4878
:109DD000BDF800108180FF2101720021C180074879
:109DE0000949C1F84C0106490748C0F85011074914
:109DF000C0F8541108BD0000B8ED00204CF0002060
:109E000088F000207405002054EB0020F4ED0020C1
:109E100003468B4201DA934201DC012070470020A7
:109E2000FCE703468B4203DB934201DC01207047D1
:109E30000020FCE71349096849084FF4FA62B1FBB6
:109E4000F2F1491E104A91621146496941F001013F
:109E50005161002111614100D1621146096841F050
:109E6000080111601146096841F00101116000BF4D
:109E70000549096901F001010029F9D00021024AD0
:109E8000116170473C00002000100040034800684A
:109E900040F010000149086070470000403802405F
:109EA0002DE9F0470446201D15F084FA06462046A9
:109EB00016F0DBFF8046B8F1000F02D0204611F00B
:109EC00061FA08E03146201D15F079FA0746304660
:109ED000FFF7E6FF3E46002EF4D100221321204674
:109EE00010F092FB204610F07FFB0021204606F088
:109EF00033F9002012F052FC05461BE0A86BA0428B
:109F000002D0E86BA04202D1284612F03FFD286C37
:109F1000A04201D100212964A86D404506D112F06C
:109F20004BFCA04202D1284612F030FD284612F028
:109F300035FC0546002DE1D1204616F0F6FF81469E
:109F4000214609F1040015F01CFB002211462046B1
:109F5000E3699847606A10B1606A16F0ABF8204672
:109F600016F0A8F8BDE8F08770B50446002508484B
:109F7000005D58B901200649085501F10C02105D39
:109F80000A1D52F82420116888470546284670BDEE
:109F9000C07602202DE9F04104460D4616460649DA
:109FA000085D083951F8241032460B692946984754
:109FB00007463846BDE8F081CC7602202DE9F04115
:109FC00004460D4616461F460749085D083951F8F4
:109FD00024103B463246D1F808C02946E047804667
:109FE0004046BDE8F0810000CC76022070B5044602
:109FF000044A105D083A52F8242051688847054603
:10A00000284670BDCC7602202DE9F04104460D466D
:10A0100016461F460749085D083951F824103B468B
:10A020003246D1F80CC02946E04780464046BDE89C
:10A03000F0810000CC7602202DE9F04106460C4666
:10A040001546B4F90400B4F90010401A401CC0F5DC
:10A05000F07087B200201F4908600846C560B4F957
:10A06000000061884FF4F07212FB01011A48C06DC4
:10A07000022202FB01001749C8630020086108465C
:10A0800007640220C861A0882188411A491CB4F9DC
:10A090000600B4F90220801A401C61F31F400D49EC
:10A0A00048640846006840F00100086005E040464A
:10A0B00008F10108401C00B905E00648006800F0FE
:10A0C00001000028F3D100BF30460BF033FFBDE89C
:10A0D000F081000000B0024098D0002070472DE9C8
:10A0E000F04393B004460F460021204619F0A9FD25
:10A0F0000546204616F0BCFE06460FA82169016001
:10A100006169416000BFBDF83C00A18E401A00B2F9
:10A11000ADF83C00BDF84000A18E084400B2ADF897
:10A120004000BDF83E00A18E401A00B2ADF83E00DE
:10A13000304606EBD0714A10618A114409B2ADF87D
:10A1400042103A460FA911A806F0F7FA8046BDF86A
:10A150003C00A18E084400B2ADF83C00BDF84000C0
:10A16000A18E401A00B2ADF84000BDF83E00A18EAD
:10A17000084400B2ADF83E00BDF84210E88808443B
:10A1800000B2ADF84200B8F1000F09D0204616F039
:10A19000B8FE81464B462A4611A90FA80DF046FB92
:10A1A000BDF83C00A18E401A00B2ADF83C00BDF8ED
:10A1B0004000A18E084400B2ADF84000E08AA18EB4
:10A1C000084400B2ADF84200304606EBD0714A10A8
:10A1D000618A114409B2ADF83E1006F0010028B9B9
:10A1E000BDF83E00401C00B2ADF83E003A460FA953
:10A1F00011A806F0A2FA8046BDF83C00A18E0844E2
:10A2000000B2ADF83C00BDF84000A18E401A00B28B
:10A21000ADF84000BDF84200A18E401A00B2ADF882
:10A220004200BDF83E10E888081A00B2ADF83E00C2
:10A23000B8F1000F15D03C2229466846F6F79DF884
:10A24000A888ADF802006988ADF80410204616F021
:10A2500058FE81464B466A4611A90FA80DF0E6FA52
:10A2600000BF13B0BDE8F0832DE9F04F89B006467A
:10A270008846304616F0F6FD0446304616F041FE9C
:10A280000890606AB0F91A90304616F0C5FE014693
:10A29000606A408B091A606A808B081A07B207202F
:10A2A00097FBF0F00FFA80FA304601F00FFC718A4C
:10A2B0000144606AC08A084400B2ADF81A00616ABD
:10A2C000486A10F087FABDF81A10084400B2ADF8D9
:10A2D0001E00002527E007FB05F00721B0FBF1F089
:10A2E000318A0844484400B2ADF81800BDF818009F
:10A2F0005044401E00B2ADF81C00E9B2304601F0F7
:10A30000CBFA834600204FF6FF71CDE90201CDE97B
:10A3100004100420CDE900B0626A414606A8089BFB
:10A320000CF0D2FA6D1C072DD5D309B0BDE8F08F23
:10A330002DE9F34F93B08146484616F093FD04464D
:10A340000021484608F080F90546484616F0D9FD38
:10A350001090484601F0BAFBB9F812100144606A47
:10A36000C08A01EB0008616A486A10F033FA08EB12
:10A370000001606A008B084400B2ADF84600686ACC
:10A3800010F028FABDF84610084400B2ADF84A00B3
:10A39000484616F041FE0146688B091AA88B081A38
:10A3A00000B20F90B9F81600BDF84610411A288B7C
:10A3B000081A00B20E9007210F9890FBF1F000B23E
:10A3C0000D90686A10F006FA06220E9902FB101032
:10A3D000052190FBF1F000B20C9094F90610A088D2
:10A3E000012201F07FFA0B900B9818B90127012682
:10A3F0000A950DE0002694F90620511EA08801F070
:10A4000008FC07460B98401E381AC7B2E06A0A904B
:10A4100000200990A0882188884207D194F906007D
:10A4200094F90210884201D1012009900020079080
:10A4300083462EE10998002847D0012E08D194F9CF
:10A440000300B84204DB94F90310F81D81420ADBD3
:10A45000D6BB94F903100B98C0F10700814234DC9D
:10A46000BBF1000F31D111A905A806F0C5F8B9F864
:10A470001010688B0144206B408B081A00B2ADF8B5
:10A480001400B9F81410A88B091A206B808B0844AB
:10A4900000B2ADF81800BDF81610206BC08A081A7B
:10A4A00000B2ADF81600BDF81A10206B008B0844FE
:10A4B00000B2ADF81A00226B05A8109B14990DF09C
:10A4C000B5F90120079002E0FFE7002007904FF068
:10A4D000000AC2E02EB90B98824502D1012601275D
:10A4E0000A95012E0AD194F90610A08801F091FB7B
:10A4F000B84203DA02260127E06A0A900F9800FBAF
:10A500000AF00721B0FBF1F0B9F810100144688B94
:10A51000084400B2ADF84400BDF844100D9808445A
:10A52000401E00B2ADF84800012E28D1099830B382
:10A5300094F90300B84222D111A905A806F05CF8ED
:10A54000BDF84400ADF81400BDF84800ADF818009F
:10A55000BDF84610606BC08A081A00B2ADF816004C
:10A56000BDF84A10606B008B084400B2ADF81A00C9
:10A57000626B05A8109B14990DF058F900BFBEB985
:10A58000A388A079012800D100E00020191AA07941
:10A59000012801D10C2002E094F90600401E024679
:10A5A0003B46484603F022F810B1D4F828803BE03F
:10A5B000012E0AD194F90620A1883B46484603F0B3
:10A5C00015F810B1D4F828802EE0022E18D1A388F7
:10A5D000A0790C2801D1012000E000201918A079F1
:10A5E0000C2801D1012002E094F90600401C02462B
:10A5F0003B46484602F0FAFF10B1D4F8288013E039
:10A60000099840B194F90300B84204D1012E02D157
:10A61000D4F8348008E0079820B1012E02D1D4F894
:10A62000308001E0DDF8288008A938461EF024F9C2
:10A6300000204FF6FF71CDE90201CDE9041004209E
:10A6400008A9CDE90010424611A8109B14990CF0FE
:10A650003BF9781CC7B20AF1010ABAF1070FFFF4FF
:10A6600039AF686A10F0B6F80C990844BDF8461086
:10A67000084400B2ADF84600686A10F0ABF80C99D7
:10A680000844BDF84A10084400B2ADF84A000BF186
:10A69000010BBBF1060FFFF4CDAE15B0BDE8F08F96
:10A6A0002DE9F04399B005460F46284616F0DAFB2F
:10A6B0000446284616F025FC8046288AADF85C0042
:10A6C000A88AADF86000688AADF85E00284601F0FF
:10A6D000FDF9698A084400B2ADF862004346394684
:10A6E00017A8E2690DF0A2F8A08807A91EF0C4F827
:10A6F00020208DF8200000208DF8210094F906100C
:10A70000284601F0A7FA814649460DF12100F5F7E8
:10A7100087FEBDF85E10E069C08A084400B2ADF85B
:10A720005E0000204FF6FF71CDE90201CDE9041073
:10A73000042007A9CDE900104346394617A8E2696D
:10A740000CF0C2F894F90D00002801DA206A00E04C
:10A75000E0690646BDF85C10E069408B084400B231
:10A76000ADF85C0000204FF6FF71CDE90201CDE9A4
:10A7700004101BA143463246CDE90010394617A804
:10A780000CF0A2F894F90D00002801DD206A00E029
:10A79000E069064600200090B6F92A30032111A096
:10A7A000726A1DF00BFE0146BDF86020E069808BE7
:10A7B000101A401A00B2ADF85C0000204FF6FF718D
:10A7C000CDE90201CDE9041006A143463246CDE9A8
:10A7D0000010394617A80CF077F819B0BDE8F083DF
:10A7E000EF819300EF81940070B505460C46284632
:10A7F00016F038FB06463484284616F03DFC70BD42
:10A8000070B50546286816F02DFB04462820005D2B
:10A8100020F0020128200155005D20F004012820CD
:10A820000155005D20F0100128200155005D20F049
:10A83000080128200155286816F01EFC70BD7CB563
:10A8400004460D4616464FF47A702B4601222146E7
:10A85000CDE90060A02001F015FD0520FFF7EAFA20
:10A860007CBD7CB504460D4616464FF47A702B46E7
:10A8700001222146CDE90060A02001F0EFFC7CBD63
:10A880002DE9F04705460F4614464FF00008C14633
:10A89000C24600262846E91705EB5171C910A5EB01
:10A8A000C10101F0FF0ACAF10800C6B22046E11753
:10A8B00004EB5171C1F3C708E11704EB5171C910E2
:10A8C000A4EBC10101F0FF09BAF1000F22D1B8F1E8
:10A8D000000F05D14A4639462846FFF7B0FF54E03D
:10A8E00008E0082239462846FFF7A9FF05F10800CD
:10A8F000C5B20837B8F10000A8F1010101F0FF0866
:10A90000EFD1B9F1000F40D04A4639462846FFF74B
:10A9100096FF3AE0B8F1000F05D14A46394628467D
:10A92000FFF78DFF31E0A01B84B22046E11704EB56
:10A930005171C1F3C708E11704EB5171C910A4EBC1
:10A94000C10101F0FF093EB1324639462846FFF702
:10A9500076FFA819C5B2374408E0082239462846D0
:10A96000FFF76DFF05F10800C5B20837B8F1000028
:10A97000A8F1010101F0FF08EFD1B9F1000F04D0F7
:10A980004A4639462846FFF75AFFBDE8F087704728
:10A9900002460448008800B2888103480078887322
:10A9A00000207047940500209805002070B50446EB
:10A9B0000D460026207800F0010068B92068B5EB4C
:10A9C000500F09D82946204600F020F8206820F0D2
:10A9D0000100401C2060261D304670BD10B50146A8
:10A9E000002011B9084A10680CE00A1D0B6802EB40
:10A9F0005300031D044C246804F52004A34200D333
:10AA0000002000BF10BD00008C01002030B501F017
:10AA1000030212B121F00301091D0A1D0368B2EB04
:10AA2000530F01D1026851080268B1EB520F0ED0EA
:10AA3000031D5A18146824F0010414600468C1EB63
:10AA40005404241F156864F35F05156000BF026895
:10AA500061F35F02026030BDF7B582B0164603981D
:10AA6000019001A801F0B0F80546002D02DA0B2094
:10AA700005B0F0BD0E4850F825400CB10020207004
:10AA8000029810B10020029908700949029841F813
:10AA90002500029808B1012E01D00020E8E700222D
:10AAA00002A903A800F080F807463846E0E7000056
:10AAB00028070020F0B506460D460024002E02DAD5
:10AAC000601CC4B276423746002D02DAA01CC4B224
:10AAD0006D42AC46674509D9CCEB0C1000EB400049
:10AAE000B0FBF7F304F11000C4B205E0C7EB0710A8
:10AAF00000EB4000B0FBFCF30022D9B2162910DDB8
:10AB00002C2901DC501CC2B2292901DC501CC2B224
:10AB1000252901DC501CC2B2202912DC501CC2B213
:10AB20000FE0022901DB501CC2B2062901DB501CD8
:10AB3000C2B20A2901DB501CC2B20F2901DB501C32
:10AB4000C2B2134404F0100008B1C3F15A0304F078
:10AB5000020038B104F0010008B1B43307E0C3F1DA
:10AB6000B40304E004F0010008B1C3F5B47398B273
:10AB7000F0BD000010B506490648F5F7BCFF0649D0
:10AB8000087006490648F5F7B6FF0649087010BD7B
:10AB900033070020901B04083207002038070020EC
:10ABA00040070020370700202DE9F74F8AB0002129
:10ABB0000B9801600A9801F007F80890089800289F
:10ABC00003DA0B200DB0BDE8F08FC549089851F8A5
:10ABD00020400CB90C20F5E70B9804600C9800F0AD
:10ABE000FE000C90207878B16078FFF7FFF981467D
:10ABF00009F0010040B90C9820B109F0040008B137
:10AC00000A20DFE70020DDE7002020700898607050
:10AC10006078FFF7A9F9814609F0010008B1032027
:10AC2000D0E70C9820B109F0040008B10A20C9E768
:10AC3000607804F10C020221FFF7ACF908B10120A1
:10AC4000C0E7A089B0F5805F07DCA089B0F5007F80
:10AC500003DBA089411E084008B10120B2E70027AC
:10AC600039462046FEF704FB0546022D01D02EDAB8
:10AC70002DE0002614E04FF4DF7000EB061104F124
:10AC80003800084409900998007920B109980830E3
:10AC900003F00EF800E0002002A941F82600761C1F
:10ACA000042EE8D3002606B1761E00BF02A850F895
:10ACB000267027B139462046FEF7DAFA00E0032075
:10ACC0000546022D03DB701C06460428EED3042D36
:10ACD00001D1012076E7022D01DB0D2072E704F19E
:10ACE000430002F0F1FFA189884201D00D2069E7FD
:10ACF00004F14E0002F0E8FF8046B8F1000F04D1E5
:10AD000004F15C0002F0D4FF8046C4F820804820A3
:10AD1000005DA070A078012804D0A078022801D09E
:10AD20000D204FE7A07808FB00F84520005D60810A
:10AD3000608918B16089411E084008B10D2041E7C3
:10AD400004F1490002F0C0FF2081A089C11700EB87
:10AD5000D1614911228992FBF1F301FB132109B161
:10AD60000D202FE704F14B0002F0AEFF8246BAF14E
:10AD7000000F04D104F1580002F09AFF824604F15A
:10AD8000460002F0A1FF0190019808B90D2019E7D3
:10AD9000A089C11700EBD1614911228992FBF1F220
:10ADA000019941441144079107998A4501D20D2028
:10ADB00008E70798AAEB00006189B0FBF1FBBBF143
:10ADC000000F01D10D20FDE603254FF6F5708345F8
:10ADD00000D8022540F6F570834500D801250BF117
:10ADE0000200E061676201983844A0620798384425
:10ADF0002063032D13D104F1620002F065FF08B156
:10AE00000D20DFE6208908B10D20DBE604F16400A7
:10AE100002F04EFFE062E0698000069014E02089B5
:10AE200008B90D20CEE6A06A4044E062022D02D1AE
:10AE3000E069400007E0207F00F00100E16901EBDC
:10AE4000410100EB51000690A089401E069908447C
:10AE5000A189B0FBF1F0216A884201D90D20B1E649
:10AE60004FF0FF30A061606180202071032D2CD154
:10AE700004F1680002F028FF012826D1791C204641
:10AE80001EF09EF908BB0020207104F2362002F06B
:10AE90001BFF4AF65521884217D104F1380002F011
:10AEA00007FF1049884210D104F5077002F000FF37
:10AEB0000D49884209D104F5087002F0F9FEA0613D
:10AEC00004F5097002F0F4FE6061257007480088FF
:10AED000401C80B205490880E080002072E6000036
:10AEE00028070020525261417272416130070020F0
:10AEF00010B51448006890F82D00C0F3400020B948
:10AF0000002011490870084610BD1048006838B18B
:10AF100080220E4801680C48F5F761FA0A48F3E709
:10AF20001EF056FA20B10AA10748F5F779FA03E0B6
:10AF300009A10548F5F774FA09A10348F5F743FAA2
:10AF40000148E1E7CC060020DC750220D006002095
:10AF50006D7368200000000066696E736820000051
:10AF60003E00000008B50020009005E04FF0FF31E2
:10AF70000848006820F070F90649096801236A460C
:10AF8000D1F88000991E1FF0B3FA0128EED19DF888
:10AF9000000008BDCC06002070B504460D460348ED
:10AFA000006820F03CF9002070BD0000CC060020B5
:10AFB00070B50546002428461FF012FA044624B94D
:10AFC00029461EA01FF034FE70BD24480068D0F84A
:10AFD0008000A04200D1F7E740F2431120461FF065
:10AFE00029FA40BB1D480068D0F8800060B11B49B9
:10AFF0000968D1F880001FF0D5F918490968D1F81F
:10B00000800000211FF0AFFA5021144800682E3054
:10B01000F5F7CEF900201149096881F87E000F4943
:10B02000096881F87F000D480068C0F880400C492D
:10B0300020461FF098FA00BFC6E7000066696E73ED
:10B04000683A2063616E206E6F742066696E6420BA
:10B050006465766963653A2025730A00CC06002092
:10B0600099AF01080549096891F82D1060F3410175
:10B07000024A126882F82D1070470000CC060020AA
:10B08000024A1060024A116070470000D406002096
:10B09000D80600207CB5002517491848FFF7F0FFB7
:10B0A000842101201FF0BEF8154908600846006899
:10B0B00020B914A01FF0BCFD681E7CBD0A2015211C
:10B0C0004FF400730022CDE90010144914A020F0C1
:10B0D00012FC044600231A4613A10948006820F018
:10B0E0008BF80120FFF7BEFF1CB115B9204620F0F8
:10B0F00049FD0020E1E7000078220408A0210408AF
:10B10000CC0600206E6F206D656D6F727920666FC2
:10B1100072207368656C6C0A0000000031B1010890
:10B12000747368656C6C00007368727800000000CE
:10B13000F048006890F82D0020F00100401CED4917
:10B14000096881F82D00EB480068D0F8800038B914
:10B150001FF008F9054615B12846FFF729FF00BF83
:10B16000FFF7C6FE05461FF063FDC2E1FFF7FAFEDA
:10B170000446002C00DABCE11B2C05D10120DD497E
:10B18000096881F82C00B4E1DA48006890F82C00D6
:10B1900001280DD15B2C05D10220D649096881F820
:10B1A0002C00A6E10020D349096881F82C0045E075
:10B1B000D048006890F82C0002283FD10020CD49EB
:10B1C000096881F82C00412C00D192E1422C00D179
:10B1D0008FE1442C11D1C748006890F87F0058B126
:10B1E000C5A01FF025FDC348006890F87F00401EF1
:10B1F000C049096881F87F007BE1432C1ED1BD481E
:10B20000006890F87F00BB49096891F87E10884279
:10B2100013DAB848006890F87F20B64800682E30EE
:10B22000815CB6A01FF004FDB248006890F87F0072
:10B23000401CB049096881F87F005AE10CB1FF2C2D
:10B2400000D156E1092C1FD1002503E0AAA01FF070
:10B25000EFFC6D1CA748006890F87F00A842F5DC61
:10B26000A44800682E3021F05FFAA24800682E3012
:10B27000F5F7C1F8C0B29F49096881F87E009D4981
:10B28000096881F87F0034E17F2C01D0082C6FD150
:10B290009848006890F87F0000B92AE19548006856
:10B2A00090F87E00401E9349096881F87E0091481D
:10B2B000006890F87F00401E8E49096881F87F0081
:10B2C0008C48006890F87E008A49096891F87F10E0
:10B2D00088423FDD874B1B6893F87E30854E366889
:10B2E00096F87F609A1B834B1B6893F87F305B1C3A
:10B2F000804E36682E3699197E4B1B6893F87F6016
:10B300007C4B1B682E33F0181FF0D6FD00217948C6
:10B31000006890F87E20774800682E308154754888
:10B32000006890F87F20734800682E30111874A0D0
:10B330001FF07EFC6F48006890F87F5003E06EA01D
:10B340001FF076FC6D1C6B48006890F87E00A842E8
:10B35000F5DA0BE06CA01FF06BFC0021654800687B
:10B3600090F87E20634800682E308154C1E0FFE7EA
:10B370000D2C01D00A2C2BD11EF02AF8012812D155
:10B380005C48006890F82D0000F0010010B15FA04B
:10B390001FF04EFC5748006890F87E105548006832
:10B3A0002E301DF077FFFFF7A3FD05461FF040FC90
:10B3B0005021504800682E30F4F7FAFF00204D4924
:10B3C000096881F87E004B49096881F87F0090E0A8
:10B3D0004848006890F87E00502804DB002045496A
:10B3E000096881F87E004348006890F87F00414971
:10B3F000096891F87E10884245DA3E4B1B6893F845
:10B400007E303C4E366896F87F609A1B394B1B683D
:10B4100093F87F60374B1B682E33F118354B1B6850
:10B4200093F87F305B1C334E36682E3698191FF028
:10B4300043FD3048006890F87F202E4800682E3089
:10B4400084542C48006890F82D0000F0010050B1A1
:10B450002848006890F87F20264800682E30111890
:10B460002BA01FF0E5FB2348006890F87F5003E015
:10B4700021A01FF0DDFB6D1C1E48006890F87E00C7
:10B48000A842F5DC12E01B48006890F87E201948BD
:10B4900000682E3084541748006890F82D0000F0A2
:10B4A000010018B1214615A01FF0C2FB002411486D
:10B4B000006890F87E00401C0E49096881F87E0003
:10B4C0000C48006890F87F00401C0A49096881F820
:10B4D0007F000848006890F87E00502808DB0020B4
:10B4E0000449096881F87E000249096881F87F00F3
:10B4F00000BF3BE6CC0600200800000025630000EA
:10B500000825732020080000082008000A00000019
:10B510002573000000B587B018481949086000205D
:10B5200048600121164881600821C1601021016135
:10B53000402141614FF4C07181610021C1614FF42C
:10B54000006101624900416249008162022000906D
:10B55000082001900620029003900220049005909C
:10B56000069069460648F7F78BFD08B1F5F7C2FA71
:10B570000348FBF721FB07B000BD0000400100A01D
:10B5800064D000202DE9F84F04468846914694F88F
:10B590005C0000F0010008B1BDE8F88FE568002606
:10B5A0004FF0010A4FF0010B00BF8DB994F85C0019
:10B5B000C0F3001000B956B9BBF1000F00D1EBE7A2
:10B5C0002046C04705464FF0000AD34600E0E3E7B7
:10B5D00016B92E4606B9DFE7BAF1000F06D02946A4
:10B5E0002046C8470546B54200D1D5E74FF0010ACD
:10B5F00005B9DAE7286815F052FC00B900E0D4E795
:10B6000000BFE068A84200D1C6E7E068A8B1E168E1
:10B61000086800221021C3699847E1680022086881
:10B620000D210EF0F1FF00900098012800D0B3E743
:10B63000E168086815F020FD00BFE560E168086872
:10B6400000220F21C3699847E168002208680C2195
:10B650000EF0DAFF0746012F00D09DE7E168086889
:10B660001DF0AEFFE168086815F006FDA06910B195
:10B670002046A169884700BF8EE7000013B50C463D
:10B680004FF6FF73012269460248F8F76AFE0098F8
:10B690001CBD0000A4CF002010B5002821D0114B04
:10B6A0000022001F196803E0814203D80A46496856
:10B6B0000029F9D152B11368841A9C4204D1006860
:10B6C00018441060104602E0506000E0186039B184
:10B6D00002680B1A934203D10B681A44026049684E
:10B6E000416010BD6807002008B52149214819F0C4
:10B6F0005BFA46220A212048008808F016FD0090D7
:10B700001C48BDF80010418001464988818006210F
:10B71000418381830A21C18201830821C18340F2D0
:10B72000777008F0D4FC00901248BDF800104181F9
:10B730004B2250211048008808F0F7FC00900D487B
:10B74000BDF8001081860221C1865A220A210A48CA
:10B75000008808F0EAFC00900648BDF8001001845B
:10B7600006480168034841620549C86608BD0000F3
:10B7700004ED002048F40020740500207805002026
:10B7800054EB00202DE9FF4106460F46304615F0E8
:10B7900069FB054602A9304615F011FB00242DE097
:10B7A000686800EBC401684604F021FFBDF80000A2
:10B7B000BDF80810084400B2ADF80000BDF8020062
:10B7C000BDF80A10084400B2ADF80200BDF804004C
:10B7D000BDF80810084400B2ADF80400BDF806003A
:10B7E000BDF80A10084400B2ADF8060039466846B4
:10B7F00005F01EF800B104E0601C84B2288CA04261
:10B80000CEDC00BF288CA04201D14FF6FF74204649
:10B8100004B0BDE8F081014601F007020AB110460C
:10B8200070470120FCE7F8B506460C46304615F097
:10B8300019FB0546286B15F08BFB0746686C20B199
:10B840002046696C19F0B0F924E03946204619F019
:10B85000ABF9206A009060882084BDF80000608009
:10B86000A01CBDF80010A180BDF800106181FF216F
:10B87000E1730121A18100216182E180FF21217218
:10B8800000216183A183E18221830121E186FF21DF
:10B89000217200BFF8BD000070B506460C46304668
:10B8A00015F0E0FA0546686918B1686950F8240097
:10B8B00070BD024850F82400FAE700000C02002096
:10B8C00070B50546284615F0CDFA0446616A486A07
:10B8D0000EF080FF616AC98A0144606A008B0844E7
:10B8E00000B270BDF0B504460B46032B01D2012017
:10B8F00000E000200546611B981E0C2707FB050091
:10B90000C0EB4010B0FBF7F01044084400EB91008E
:10B910006427B1FBF7F7C01B4FF4C877B1FBF7F70B
:10B9200038440727B0FBF7FC07FB1C06F0B2F0BD5C
:10B930002DE9FC4780460E4616B90020BDE8FC877D
:10B94000D8F80C406069B04201D1A069F6E7002543
:10B95000AEE005EB8501A06850F82100301A019097
:10B9600005EB8501A06800EB810080880199884281
:10B9700000D29BE0002705EB8501A06800EB810069
:10B98000807C00F0030040B905EB8501A06800EB66
:10B990008100C0880199471884E005EB8501A06803
:10B9A00000EB8100807C00F0030001280FD105EB43
:10B9B0008502A16801EB8201C86805EB8502A168D8
:10B9C00001EB8201C988019A825C8F186AE005EB5D
:10B9D0008501A06800EB8100807C00F00300022854
:10B9E00027D13948009005EB8503A06800EB830060
:10B9F000028A05EB8503A06800EB830002238168BF
:10BA000001A81CF00FFF8146B9F1000F10D005EB23
:10BA10008502A16801EB82018968A9EB0100400859
:10BA200005EB8502A16801EB8201C9880F1800BFF0
:10BA300038E005EB8501A06800EB8100807C00F018
:10BA4000030003282ED12048009005EB8503A06851
:10BA500000EB8300028A05EB8503A06800EB8300FE
:10BA60000223816801A81CF0DDFE8146B9F1000FB8
:10BA700017D005EB8503A26802EB83029268A9EB5D
:10BA80000200400805EB8503A26802EB8302D1683F
:10BA900005EB8503A26802EB8302D2880B5CD71802
:10BAA00000BF00BF6661A761384647E7681C85B2E2
:10BAB000608AC0F30900A8423FF74BAF66610020DF
:10BAC000A06100BF3AE7000035E5030870B5054600
:10BAD000284615F0C7F90446E169486A0EF07AFE77
:10BAE000E169C98A0144E069008B084400B270BD75
:10BAF0002DE9FC5F80460D461646D8F80C704FF0D5
:10BB0000000A788AC0F34030002841D1FC68A06860
:10BB1000C0F30160D8B9D4F8009005EB062080B2DC
:10BB2000019027480090A06820F07F4202234946F8
:10BB300001A81CF077FE8346BBF1000F06D0ABEBEB
:10BB400009004008616811F900A000BF1FE0A0686B
:10BB5000C0F3016001281AD1D4F8009005EB06204B
:10BB6000019018480090A06820F07F4204234946C5
:10BB700001A81CF057FE8346BBF1000F06D0ABEBCB
:10BB800009000009616811F900A000BF00BF13E0BF
:10BB9000F8684368595D43689A5D00290BDD002A07
:10BBA00009DD531E4C1E90F80DC004FB0C330468D5
:10BBB000E35C4FFA83FA00BF5046BDE8FC9F0000EB
:10BBC000D9D60108B9D6010870B502464FF0FF304A
:10BBD0001568E5B1116800E0491C0D78202D02D3ED
:10BBE0000D783A2DF8D10D783A2D0FD1146814F84C
:10BBF000015BA5F130030A2B07D28C4205D1022B41
:10BC000003D218464D1C2946156070BD002000BFA8
:10BC1000FBE770B505460C46641E002C01DA6D1E6C
:10BC20000C340C2C01DB6D1C0C3C012C04D128467F
:10BC300001F00AFD1C300BE0072094FBF0F100FB43
:10BC4000114606EBD6704010A6EB4000C0F11F0075
:10BC5000C0B270BD70B506460C46641E002C00DAFA
:10BC60000C34304615F0FEF80546A86918B1A869ED
:10BC700050F8240070BD024850F82400FAE7000094
:10BC8000280200202DE9F34F87B08B46079815F066
:10BC9000E9F80546288800FB0BF080B20590A968FA
:10BCA000486A017AA868C08A0144A868008B0844E1
:10BCB0000FFA80FA059E4FF0000897E0686850F888
:10BCC000260000287DD005F1180030F918900027D3
:10BCD00000BF1FE0F119686850F82100B8B1F119F0
:10BCE000686850F82100007803909DF80C00C0F3BC
:10BCF000800050B108EB0700401C05F1180131F835
:10BD0000100048440FFA80F900E009E000E007E085
:10BD1000781C87B207EB08012888401E8142D9DBD6
:10BD200000BF686850F82600007804909DF8100065
:10BD3000C0F3C10105F1080050F821409DF8100042
:10BD4000C0F34010B0B1606A017AB4F91600014442
:10BD5000B4F918000844504508DD606A017AB4F966
:10BD600016000144B4F91800084400E050460FFAE8
:10BD700080FA34E0618BA08B0844A9EB00000FFA35
:10BD800080F90021B4F92A00CDE90191009068689A
:10BD900050F82600411CB4F9283006A8626A1CF04D
:10BDA000A7FABDF91A10B4F916000144B4F9180045
:10BDB000084450450ADDBDF91A10B4F916000144D3
:10BDC00000E00DE0B4F91800084400E050460FFA16
:10BDD00080FAF01986B208EB07001FFA80F800BF5E
:10BDE000701C86B208F101001FFA80F829880598B6
:10BDF0000844B0423FF762AF504609B0BDE8F08F4B
:10BE0000002001490875704740D1002000B589B075
:10BE100000200790142102A8F4F7CAFA00BF0020FE
:10BE200001903848006840F0020036490860084632
:10BE3000006800F00200019000BF00BFC81402902B
:10BE40000120039004900220059002A92E48F5F7E6
:10BE5000BDFA4FF48060029000200390022004900D
:10BE600002A92948F5F7B2FA00224FF400612648EA
:10BE7000F5F7C2FB1420FDF7DDFF0122D1022248B5
:10BE8000F5F7BAFB3220FDF7D5FF042208A948F2E6
:10BE9000401000F043F802208DF82000012208A98C
:10BEA00048F2400000F0BCF8012208A948F247001F
:10BEB00000F034F80A20FDF7BDFF00208DF82000C7
:10BEC000012208A948F2400000F0AAF8012207A9BF
:10BED00048F24E1000F0A4F84FF4806002900B4836
:10BEE00003900020049002A90748F5F76FFA00229A
:10BEF00002212820F6F75DFB2820F6F74DFB09B05C
:10BF000000BD000030380240000402400000111063
:10BF10000148007D7047000040D10020F8B504467C
:10BF20000D461646200A8DF80000E0B28DF801009B
:10BF30004FF47A7302226946BB2000F07DF908B104
:10BF40000120F8BD4FF47A7332462946BB2000F039
:10BF500061F9F6E7FEB50546002002900190002445
:10BF600000900026012202A948F24E10FFF7D6FFEA
:10BF70009DF8080000F0800058B19DF8080000F01E
:10BF80000F00062805DA012201A948F24E1000F040
:10BF900047F89DF8080000F00F00D0B39DF80800A6
:10BFA00000F00F00062834DA002429E01A4931F89D
:10BFB000140004226946FFF7B1FF9DF800009DF8C8
:10BFC000011000EB0120154921F814009DF8020032
:10BFD0009DF8031000EB012081B210480A3020F8D0
:10BFE00014100A3830F8140025F814000B480A30F1
:10BFF00030F8141005F10A0020F81410601CC4B2C7
:10C000009DF8080000F00F00A042CFDC01260120BF
:10C0100028753046FEBD0000A8E8030840D1002086
:10C020002DE9F84F04460F461646200A8DF8000009
:10C03000E0B28DF80100B01C00F0FF08C146484690
:10C040001CF06CFF0546200A28706C7003E017F89E
:10C05000011BB01C2954301EA6F10101CEB2F6D14D
:10C060004FF47A7342462946BB2000F0E5F8824639
:10C070002846FFF711FB5046BDE8F88F10F0D2FCC0
:10C0800016F066FE16F0A4FE04F0F5F804E01BF0CE
:10C090004FFE05201FF057FCF9E7000010B51448CB
:10C0A000006800F0020010B112A01EF0C1FD10489F
:10C0B000006800F0804088B10D48C01E007808B1CB
:10C0C000FCF76CFD0A48001F007808B11CF0ECFF7B
:10C0D0000748801E008808B122F09AFA04480068D8
:10C0E00000F0004010B109A01EF0A2FD10BD00003C
:10C0F0002CED00E06661696C656420766563746FA1
:10C10000722066657463680A0000000064656275E9
:10C1100067206576656E740A0000000010B502A005
:10C120001EF086FD002010BD48656C6C6F205254D7
:10C130002D546872656164210A00000001460020E8
:10C14000302905DB392903DCA1F13002D0B21CE033
:10C15000612902DBA1F12002D1B2A1F14102062A3C
:10C1600010D2DFE802F0030507090B0D0A200BE0EF
:10C170000B2009E00C2007E00D2005E00E2003E075
:10C180000F2001E0002000BF00BF70472DE9FE43F3
:10C1900004460D4616461F46DDF82C80E01903B212
:10C1A0002A46214601A8009504F091FB43463146FA
:10C1B00001A80A9A0AF0ACFABDE8FE8310B512484D
:10C1C0001249086012484860002110488160C1602F
:10C1D0004FF480410161002141618161C1610162CF
:10C1E000F5F764FA08B1F4F785FC00210748F5F784
:10C1F0000FFA08B1F4F77EFC00210448F5F72EFA97
:10C2000008B1F4F777FC10BD005C004058D1002065
:10C21000A0860100F8B504460D4616461F464FF4A9
:10C220007A7033462A46214600900248F5F7D2FA42
:10C23000F8BD000058D10020F8B504460D4616465A
:10C240001F464FF47A7033462A4621460090024832
:10C25000F5F754FCF8BD000058D100202DE9FE434D
:10C2600004460D4616461F46DDE90A8933462A462E
:10C27000214603488DE88003F5F70AFDBDE8FE83FB
:10C2800058D100202DE9FE4304460D4616461F46B0
:10C29000DDE90A8933462A46214603488DE88003B2
:10C2A000F5F78AFEBDE8FE8358D1002003E04FF485
:10C2B000FA701FF048FBFAE708B51549154818F061
:10C2C00073FC55220F211448008807F02EFF0090C0
:10C2D0001048BDF800100186CC2180F832100C49BE
:10C2E0000E4818F061FC412255210B48008807F0E8
:10C2F0001CFF00900748BDF800100186CC2180F893
:10C3000032100749486405490548816408BD0000AA
:10C3100004ED0020A4F2002074050020E0F20020CB
:10C3200054EB002070B504460D46E06DA96830F866
:10C330002110A184E06DA96800EB81004188E184AF
:10C34000B4F92810B4F9240081420DD1B4F92A10AF
:10C35000B4F92600814207D1A87B012804D104F159
:10C36000200000F059FD03E004F1200000F004FF7C
:10C37000A18C2185E18C618570BD00002DE9F04F15
:10C3800087B00446A569002703E0284614F0CDFDD8
:10C390000546284614F05AFD08B1002DF5D115B90F
:10C3A00007B0BDE8F08F284614F044FD00B9F7E768
:10C3B000284614F045FD0646218AA089084401B2AA
:10C3C0002182618AE089084401B2618294F82400E4
:10C3D00000F0010058BB06F0010070B1B4F9100084
:10C3E000002802DDB4F9100002E0B4F91000404268
:10C3F00067490968097E884211DA06F00200B0B187
:10C40000B4F91200002802DDB4F9120002E0B4F918
:10C41000120040425E490968097E884207DB94F8B1
:10C42000240020F00100401C84F82400012794F827
:10C43000240000F0010000287ED0A08910B9E08916
:10C440000028F9D052490968086909F0A5FD82461B
:10C45000B5F910B0B5F912000690284614F065FD44
:10C46000039014F0D9FD0590284614F05EFD03906A
:10C4700014F0FEFC0490284614F0E6FD80462846A1
:10C4800014F0EEFD8146032E12D13FB1208A4044C4
:10C490000FFA80F8608A48440FFA80F9E08948442E
:10C4A00002B2A089404401B2284614F076FF1CE095
:10C4B00006F0010058B11FB1208A40440FFA80F8FD
:10C4C000A089404401B2284615F030F80DE006F08E
:10C4D000020050B11FB1608A48440FFA80F9E08928
:10C4E000484401B2284615F02EF8B5F91000584519
:10C4F0002DD1B5F912100698814228D1284614F0A2
:10C5000014FD019014F088FD0390284614F00DFDF1
:10C51000019014F0ADFC029005990398884215D162
:10C5200004990298884211D119490968086909F0EB
:10C5300033FD0190019A00E027E0A2EB0A0291B2DC
:10C54000134A1268106909F098FD00BF1CE094F8C6
:10C55000240020F00200801C84F82400A7B10C48BD
:10C56000EB690D21026828469847204600F064FFD9
:10C5700000B115E70022082128460EF045F82046B4
:10C5800000F05AFF00B10BE700BF00BF08E7000052
:10C59000400000202DE9FF41044694F82400C0F338
:10C5A000400008B9BDE8FF81E56903E0284614F0C2
:10C5B000BCFC0546284614F049FC08B1002DF5D115
:10C5C00005B9EFE7284614F047FCD8B994F82400E1
:10C5D00020F0020184F824105948EB690E2102680A
:10C5E000284698470022092128460EF00DF82046DB
:10C5F00000F022FF00B1D5E70022092128460EF005
:10C6000003F8CFE7284614F01BFC0646A08A4C49E5
:10C610000968497EC1F1640110FB01F0642190FBBF
:10C62000F1F001B2A182E08A45490968497EC1F171
:10C63000640110FB01F0642190FBF1F001B2E18292
:10C64000A08A10B9E08A00285DD002A9284614F01B
:10C65000B6FB284614F0F8FCA18A08440FFA80F8CB
:10C66000284614F0FDFC0146E08A084407B2032E78
:10C6700005D13A464146284614F08FFE0EE006F0FA
:10C68000010020B14146284614F050FF06E006F0B4
:10C69000020018B13946284614F055FF694628466D
:10C6A00014F08DFBBDF90800BDF90010884201D0DF
:10C6B000A08A38BBBDF90A00BDF90210884201D03A
:10C6C000E08AF8B994F8240020F0020184F82410DC
:10C6D0000021A181E181A182E1821948EB690E214B
:10C6E000026828469847204600F0A6FE00B159E7A8
:10C6F0000022092128460DF087FF204600F09CFE0D
:10C7000000B14FE71AE094F8240020F0020184F809
:10C7100024100B48EB690E210268284698472046F2
:10C7200000F08AFE00B13DE70022092128460DF005
:10C730006BFF204600F080FE00B133E700BF31E719
:10C74000400000202DE9F84304460D46A87B01284F
:10C7500006D194F85000C0F3C00008B1BDE8F883DA
:10C7600094F85000C0F3C00080B194F8500020F05D
:10C77000080184F850100021A16494F8500020F0C2
:10C78000010184F8501000212420015594F82480E0
:10C79000A97B242001556968A162A76D07B9DDE76F
:10C7A00038460EF099FDC54908600846006800B992
:10C7B000D4E7A87B002843D138460EF084FD00B3AF
:10C7C000B5F90C0000280CDA002604E014213846E4
:10C7D0000EF03CFE761CB5F90C004042B042F5DC90
:10C7E0000EE0B5F90C0000280ADD002604E0132154
:10C7F00038460EF02BFE761CB5F90C00B042F6DC84
:10C800001EE0B5F90C0000280BDA002603E03846DC
:10C810000EF044FD761CB5F90C004042B042F6DC47
:10C820000DE0B5F90C00002809DD002603E03846CC
:10C830000EF0CAFC761CB5F90C00B042F7DC00BF64
:10C8400038460EF049FD9D4908600846006800B969
:10C8500084E7A87B012831D1B8F1000F2ED1002048
:10C860000090964800686A461221C36993480068A0
:10C8700098471BF033FCA06438460EF024FD10B935
:10C880009DF80000C8B98D48006800220721C369DF
:10C890008A480068984704F1200000F0CDFD00B1FF
:10C8A0005CE700221146854800680DF0ADFE04F1FA
:10C8B000200000F0C1FD00B150E7F9E0A87B01289D
:10C8C0004BD1B8F1010F48D194F8500000F00100AD
:10C8D0000028F2D1A06C1BF0F3FB618B8842ECD9ED
:10C8E00000200090754800686A461221C3697348A9
:10C8F000006898479DF8000068B1384612F000FEC5
:10C9000018BB38460EF0DFFC80F001063146384691
:10C910000EF0BBFD19E06948006800220B21C369D5
:10C9200066480068984704F1200000F085FD00B1DA
:10C9300014E700220421614800680DF065FE04F14F
:10C94000200000F079FD00B108E794F8500020F0D5
:10C950000100401C84F85000AAE0A87B0028ACD15C
:10C96000B8F1010FA9D10090544800686A4612211D
:10C97000C3695248006898479DF80000B0BB4F4813
:10C98000006800220A21C3694C480068984704F1F6
:10C99000200000F051FD00B1E0E694F8500000F0F6
:10C9A000010028B900220321444800680DF02CFE44
:10C9B00004F1200000F040FD00B1CFE60022062186
:10C9C0003E4800680DF020FE04F1200000F034FD28
:10C9D00000B1C3E600220721384800680DF014FEBC
:10C9E00004F1200000F028FDA8B3B7E6FFE797F8B0
:10C9F0005C00C0F3400078B394F8500000F00100F0
:10CA000018B1384612F07CFD28B32C48006800228B
:10CA10000A21C36929480068984704F1200000F002
:10CA20000BFD00B19AE600220321244800680DF0B6
:10CA3000EBFD04F1200000F0FFFC00B18EE60022C7
:10CA400006211E4800680DF0DFFD04F1200000F013
:10CA5000F3FC10B182E622E010E000220721174823
:10CA600000680DF0D1FD04F1200000F0E5FC00B1FC
:10CA700074E60A2138460EF0E9FC10E09DF800004B
:10CA800068B197F85C00C0F3400040B994F85000DA
:10CA900000F0010018B9012138460EF0F6FC002123
:10CAA000A16494F8500020F0010184F8501000BFF8
:10CAB00000200249086000BF50E60000440000204A
:10CAC0002DE9F04104460D46A87B012806D194F8D3
:10CAD0005000C0F3C00008B1BDE8F08194F85000E8
:10CAE000C0F3C00080B194F8500020F0080184F831
:10CAF00050100021A16494F8500020F0010184F846
:10CB00005010002124200155A76D07B9E4E73846ED
:10CB10000EF0E2FBA84908600846006800B9DBE7B0
:10CB2000D4F828806968A1622420065DA97B01559C
:10CB3000A87B012861D1002E5FD11BF0CFFAA06441
:10CB400068680A281ED10A2138460EF07FFC9A48F0
:10CB5000006800220721C36997480068984704F1DC
:10CB6000200000F069FC00B1B6E7002211469248AF
:10CB700000680DF049FD04F1200000F05DFC002884
:10CB80003AD0A9E768681B2810D11B2138460EF05F
:10CB90005DFC00221221884800680DF035FD04F18B
:10CBA000200000F049FC0028EAD095E768680928D1
:10CBB0000DD1002138460EF068FC38460EF004FB1B
:10CBC00004F1200000F038FC0028D9D084E7686820
:10CBD0000B280DD1002138460EF057FC38460EF0D8
:10CBE0005DFB04F1200000F027FC0028C8D073E7AB
:10CBF000384669680EF02AFCD9E0A87B012872D17A
:10CC0000012EFCD194F8500000F0010068BBA06C2C
:10CC10001BF056FA618B884227D994F8500020F017
:10CC20000100401C84F8500068680A28E4D11BF019
:10CC300055FAE0646048006800220B21C3695E4831
:10CC40000068984704F1200000F0F6FB00B143E7CC
:10CC500000220421584800680DF0D6FC04F12000A1
:10CC600000F0EAFB0028C7D036E794F8500000F047
:10CC700001000028C0D0E06C1BF022FAA18B884292
:10CC8000BAD91BF02BFAE06468680A281AD14A481E
:10CC9000006800220C21C36947480068984704F1E6
:10CCA000200000F0C9FB00B116E700220521424830
:10CCB00000680DF0A9FC04F1200000F0BDFB002885
:10CCC00075D009E7686809280ED1002138460EF0B2
:10CCD000DCFB38460EF078FA04F1200000F0ACFBE3
:10CCE000002864D0F8E619E068680B280CD1002110
:10CCF00038460EF0CAFB38460EF0D0FA04F1200098
:10CD000000F09AFB90B3E7E6384669680EF09EFBA8
:10CD100004F1200000F090FB40B3DDE6A87B28BBC7
:10CD2000012E44D1C5F8048068680A2837D122480A
:10CD3000006800220A21C3691F480068984704F16F
:10CD4000200000F079FB00B1C6E694F8500000F036
:10CD5000010060B900220321174800680DF054FC5F
:10CD600004F1200000F068FB08B1B5E61FE00022E6
:10CD70000621114800680DF047FC04F1200000F086
:10CD80005BFB00B1A8E6002207210B4800680DF00C
:10CD90003BFC04F1200000F04FFB00B19CE60021B9
:10CDA000A16494F8500020F0010184F85010002094
:10CDB0000149086000BF8FE64400002070B50446BA
:10CDC0000D46606D90B1B4F92800B5F900108842A5
:10CDD00005D1B4F92A00B5F90210884206D0B5F998
:10CDE0000220B5F90010606D14F0D7FA2988A184EB
:10CDF0006988E18494F82000012804D104F120001E
:10CE000000F00AF803E004F1200000F0B5F9A18C6D
:10CE10002185E18C618570BD2DE9F0410446D4493E
:10CE2000A069086094F83000C0F3C00008B1BDE804
:10CE3000F081D04800680669CD48006820BB3046C4
:10CE400009F0B0F805462946204600F005FBC84920
:10CE500008600846006848B9304609F0AEF8054653
:10CE60002946204600F0F8FAC1490860C048006829
:10CE7000C8BB304609F0BAF805462946204600F0FE
:10CE8000EBFABB4908602EE094F82400C0F34000A0
:10CE900048BB1021B648006814F062F918BB304650
:10CEA00009F080F805462946204600F0D5FAB04939
:10CEB00008600846006848B9304609F07EF8054623
:10CEC0002946204600F0C8FAA9490860A848006829
:10CED00048B9304609F08AF805462946204600F050
:10CEE000BBFAA3490860A249A069096888426CD0CE
:10CEF000A1882181E1886181A069B0B1A5699D48BF
:10CF0000EB690921026828469847204600F094FA08
:10CF100000B18CE70022022128460DF075FB204667
:10CF200000F08AFA00B182E700BF91480168A16170
:10CF30000168E1610068002847D01BF0CFF8A062CB
:10CF400094F8300020F0010084F8300094F82400B8
:10CF500020F0010184F8241094F8240020F002014C
:10CF600084F82410002121826182A181E18180481E
:10CF70000568002709E095F83000C0F3401000B1C3
:10CF80002F46284613F0D1FF0546002DF3D117B1E7
:10CF9000384614F0EEF876480068C36975480721F2
:10CFA0000268734800689847204600F045FA00B1CF
:10CFB0003DE7002211466E4800680DF025FB204633
:10CFC00000F03AFA00B132E700BFA1882089081AC0
:10CFD00001B2A181E1886089081A01B2E181B4F946
:10CFE000140000EB8000C010A082B4F9160000EB22
:10CFF0008000C110E182B4F91400002804DAA08A8C
:10D00000401C01B2A18207E0B4F91400002803DD3E
:10D01000A08A401E01B2A182B4F91600002804DAE9
:10D02000E08A401C01B2E18207E0B4F91600002852
:10D0300003DDE08A401E01B2E182A18AB4F90C004E
:10D04000800001EBE00001B2A182E18AB4F90E0098
:10D05000800001EBE00001B2E18245480068002851
:10D0600075D043480068C3694248082102684048B7
:10D0700000689847204600F0DFF900B1D7E60022AB
:10D0800001213B4800680DF0BFFA204600F0D4F9BA
:10D0900000B1CCE62046FFF771F9204600F0CCF94C
:10D0A00000B1C4E694F82400C0F3400078BB94F8C3
:10D0B000300000F0010050BBA06A1BF001F82D49C0
:10D0C0000968498B884222D929480068C3692948E0
:10D0D0000B210268264800689847204600F0ACF90A
:10D0E00000B1A4E600220421214800680DF08CFA6A
:10D0F000204600F0A1F900B199E694F8300020F044
:10D100000100401C84F830001AF0E8FFE06294F857
:10D110002400C0F34000D0B994F8300000F00100C2
:10D12000A8B1E06A1AF0CCFF12490968898B8842DD
:10D130001CD90F480068C3690E480C2102680C48CE
:10D1400000689847204600F077F908B16FE60DE0D7
:10D1500000220521064800680DF056FA204600F02E
:10D160006BF900B163E61AF0B9FFE06200BF5EE65A
:10D1700044000020400000202DE9F041044694F8CE
:10D180003000C0F3C00058B10021A161E16100206E
:10D19000A062E06294F8300020F0080084F83000CB
:10D1A0008C49A069086008460068002874D01021E6
:10D1B0008848006813F0D4FF00283AD085480068FA
:10D1C000C36985480A21026882480068984720465A
:10D1D00000F032F908B1BDE8F08194F82400C0F302
:10D1E0004000D0B994F8300000F0010050B900229E
:10D1F0000321784800680DF007FA204600F01CF97A
:10D2000000B1E8E700220621724800680DF0FCF941
:10D21000204600F011F900B1DDE7002207216D483A
:10D2200000680DF0F1F9204600F006F900283FD023
:10D23000D1E768480068C36967480A210268654801
:10D2400000689847204600F0F7F800B1C3E794F86B
:10D25000300000F0010078B994F82400C0F34000D9
:10D2600050B9002203215B4800680DF0CDF920463B
:10D2700000F0E2F800B1AEE794F82400C0F34000FB
:10D2800058B900220621534800680DF0BDF9204628
:10D2900000F0D2F808B19EE78AE0002207214D484D
:10D2A00000680DF0B1F9204600F0C6F800B192E731
:10D2B000204600F0C1F800B18DE74FF00008454866
:10D2C000006813F0D2FD054620214248006813F0A3
:10D2D00047FF10BB3F48076810E0384613F025FEB3
:10D2E000074607B90CE02021384613F039FF08B192
:10D2F000002705E0384613F0B8FD0546002DECD0B8
:10D3000000BF4DB147B128460DF0D4FF20B14FF01A
:10D31000010838460DF064FF00BF2E49206A0968F5
:10D32000884219D0B8F1000F16D100220D21206AD1
:10D330000DF06AF9204600F07FF800B14BE70022BB
:10D340000C21A0690DF060F9204600F075F800B1DD
:10D3500041E7204801682162204600F06DF800B1E5
:10D3600039E71C48066803E0304613F0DEFD064648
:10D37000304613F06BFD08B1002EF5D196B1304662
:10D3800013F06AFD70B194F82400C0F3400048B176
:10D3900000220A2130460DF037F9204600F04CF803
:10D3A00000B118E70021A1610020A062E06200BF87
:10D3B000E06960B194F83000C0F3400038B920460D
:10D3C000FFF7E8F8204600F037F800B103E700BFA8
:10D3D00001E70000440000204000002090F85010B9
:10D3E000C1F3400129B300228263C263026490F852
:10D3F000441021F0010280F8442090F8441021F0FC
:10D40000020280F8442090F8501021F0010280F8C8
:10D41000502000228264C264028642868286C286CE
:10D4200090F8501021F0020280F850200021014AAB
:10D430001160704744000020014691F83000C0F3AD
:10D44000400010B10020034A106091F83000C0F392
:10D4500040007047440000202DE9F04107460C468B
:10D460000025391D04F1100003F0E2F900282BD04B
:10D47000201D11F09FFF80460BE041463846FFF724
:10D48000EBFF054605B107E04146201D11F097FF6F
:10D490008046B8F1000FF0D100BFA5B9204613F0C7
:10D4A00088FC80B1264608E0304613F0F8FC00B155
:10D4B00005E0304613F039FD0646002EF4D100BFDA
:10D4C00006B9254600BF00BF2846BDE8F0812DE91A
:10D4D000FE4F05462E46304613F027FD0290029877
:10D4E00013F0C0FC044694F8440000F0010000284A
:10D4F00039D0208F072190FBF1F087B2608F90FB2D
:10D50000F7F107FB11006087608F032101FB070023
:10D510006087206B13F01CFD8046D8F824A050468D
:10D520000DF061F98146029813F0A2FC8346206B4E
:10D53000B0F91210628FB8F92A00484402FB0011BA
:10D54000708A081A00B20190ABEB090000EBD071B1
:10D550004A1001994942114409B20091304600999C
:10D5600013F0F1FF00BFBDE8FE8F2DE9FF41064635
:10D570000C464FF6FF70844201D1BDE8FF81304672
:10D5800013F070FC0546686800EBC40102A803F0C4
:10D590002EF86946304613F012FCBDF80800BDF8BD
:10D5A0000010084400B2ADF80800BDF80A00BDF84C
:10D5B0000210084400B2ADF80A00BDF80C00BDF836
:10D5C0000010084400B2ADF80C00BDF80E00BDF824
:10D5D0000210084400B2ADF80E00304613F0FCFB18
:10D5E000074602A90FF04CFA00BFC6E72DE9F04745
:10D5F00081460E4617469846484613F033FC0446CB
:10D60000A06808B1207B10B90020BDE8F087002594
:10D6100015E0A06830F82500B0420FD1A06800EBFB
:10D62000850090F90200B84208D1A06800EB85009F
:10D6300090F90300404501D10120E6E76D1C207BF5
:10D64000A842E6D80020E0E7014601F0030070B9E7
:10D650006420B1FBF0F200FB121030B94FF4C87037
:10D66000B1FBF0F200FB121008B901207047002056
:10D67000FCE700000A480B49C1F8DC000A490948E8
:10D68000C0F8E0100949C0F8E4100949C0F8E810F2
:10D690000649C0F8EC100749C0F8F01070470000C8
:10D6A000C4F0002054EB002000F100203CF10020E9
:10D6B00078F10020B4F1002030B5024614460B4644
:10D6C00020881D88A84203D020881D88401B30BDBB
:10D6D00060885D88401BFAE730B5024614460B4669
:10D6E00020781D78A84203D020781D78401B30BDDB
:10D6F00060785D78401BFAE770B50546304800EB6E
:10D7000005142068804700283ED12079052802DAD8
:10D710000520207153E020790A2803DA2079401C83
:10D7200020714CE0A07A38B90120A07205EB4501C8
:10D73000491CC8B200F0CCF8208900283FDDE08801
:10D74000218988420DDAE088401CE080E088218948
:10D75000884234DB05EB4501C91CC8B200F0B8F8BB
:10D760002DE0E07A00282ADD207B401C2073207BFE
:10D77000E17A884223DB0020207305EB4501491C38
:10D78000C8B200F0A5F81AE02079052802DD0520CE
:10D79000207111E02079002803DD2079401E2071DE
:10D7A0000AE0A07A012807D10020A07205EB45010C
:10D7B000891CC8B200F08CF80020E080207370BD96
:10D7C00024D0002010B500F023F800F023F9012048
:10D7D0000149087010BD00002E0000200B480079A0
:10D7E0000A4A5279904201D10020704707480279D5
:10D7F0000079401C054B18711846815C007904289B
:10D8000002DB00201A4610710846EEE728000020CF
:10D8100000B587B0142102A8F2F7CAFD00BF0020AE
:10D8200001902448006840F0010022490860084641
:10D83000006800F00100019000BF00BF00BF0020A1
:10D8400001900846006840F008000860084600683B
:10D8500000F00800019000BF00BF00BF0020019051
:10D860000846006840F0800008600846006800F044
:10D870008000019000BF00BF802002900020039034
:10D88000049002A90C48F3F7A1FD042002900020A7
:10D890000390049002A90948F3F798FD0120029033
:10D8A00000200390049002A90548F3F78FFD07B00C
:10D8B00000BD000030380240000C0240001C024055
:10D8C0000000024001480078704700002E00002050
:10D8D00007494A794979491C054B597119468854B9
:10D8E0004979042902DB00211A4651717047000072
:10D8F0002800002010B5002400BF04E02046FFF7F8
:10D90000FBFE601CC4B2042CF8DB10BD34E0FFF752
:10D9100065FF04460A2C2AD2DFE804F02905090D28
:10D920001115191D212515A01DF082F920E017A061
:10D930001DF07EF91CE019A01DF07AF918E01BA07B
:10D940001DF076F914E01DA01DF072F910E01FA083
:10D950001DF06EF90CE021A01DF06AF908E024A08A
:10D960001DF066F904E026A01DF062F900E000BF9A
:10D9700000BF0A201DF0E7FFC9E700004B45595FD3
:10D980004C4546545F444F574E0D0A004B45595F76
:10D990004C4546545F55500D0A0000004B45595FF9
:10D9A0004C4546545F4C4F4E470D0A004B45595F5E
:10D9B000574B55505F444F574E0D0A004B45595F2A
:10D9C000574B55505F55500D0A0000004B45595FAD
:10D9D000574B55505F4C4F4E470D0A004B45595F12
:10D9E00052494748545F444F574E0D0A000000000B
:10D9F0004B45595F52494748545F55500D0A000046
:10DA00004B45595F52494748545F4C4F4E470D0AAA
:10DA10000000000000200021144A1171517100BF64
:10DA200018E06421124A02EB001211810221104A0F
:10DA300002EB0012117100210D4A02EB00129172EB
:10DA40000B4A02EB0012D172094A02EB0012117369
:10DA5000411CC8B20428E4DB0649054A11600649A6
:10DA600011610649116206491163704728000020C0
:10DA700024D00020DD4A0108114B0108F94A0108B1
:10DA8000F54A0108002070477047000070B506464F
:10DA90000C46A11C20461BF07BFBFFF7F3FF05465D
:10DAA000B5B10120A073062D0ED2DFE805F00D03FD
:10DAB0000507090B092507E00B2505E0142503E000
:10DAC000132501E00A2500BF00BF0548056001E0FD
:10DAD0000020A073024800686060002070BD000054
:10DAE000A005002008B51D491D4817F05DF81D4828
:10DAF00001681B484162602250211B48008806F0E3
:10DB000014FB00901648BDF8001001840146174828
:10DB100017F04AF8552228211348008806F005FB23
:10DB200000901248BDF8001001840D49104817F00C
:10DB30003BF8462214210C48008806F0F6FA0090C3
:10DB40000B48BDF80010018405480A49886307495D
:10DB50000848C1630649016408BD000004ED0020C7
:10DB6000F0F1002078050020740500202CF2002040
:10DB700068F2002054EB002040B94FF08041096862
:10DB800021F001014FF0804211607047052800DC50
:10DB9000052000EE900AF8EE600A9FED0E1AC0EE26
:10DBA000811AB0EE610A60EE000AB0EE600A4FF032
:10DBB0008041C96A00EE901AF8EE600A60EE800AB1
:10DBC000FCEEE00A10EE901A4FF08042916300BF25
:10DBD000DBE700000000C84200B587B0142102A8AE
:10DBE000F2F7E6FB00BF002001902D48006840F0EE
:10DBF00001002B4908600846006800F00100019010
:10DC000000BF00BF02200290039000200490022079
:10DC100005900120069002A92248F3F7D7FB20487F
:10DC20001030006840F001001D49103108601E48A6
:10DC3000006840081D49B0FBF1F0401E49068862AB
:10DC40004FF4FA70C8620007406940F00100486173
:10DC50000846006920F0010008610846806940F428
:10DC6000C04088610846806940F4006088610846C9
:10DC7000006A40F0100008620846006A20F02000A8
:10DC80000862002088630846006840F08000086051
:10DC90000846006840F00100086007B000BD0000C1
:10DCA00030380240000002403C00002020A1070064
:10DCB0000146C8788A7842EA00204A7842EA002081
:10DCC0000A7842EA00207047014648780A7842EA1A
:10DCD0000020704700B587B0142102A8F2F768FB56
:10DCE00000BF002001902F48006840F001002D493E
:10DCF00008600846006800F00100019000BF00BF06
:10DD000000BF002001900846006840F0080008604D
:10DD10000846006800F00800019000BF00BF00BF87
:10DD2000002001900846006840F00800086008469E
:10DD3000006800F00800019000BF00BF4FF40040F1
:10DD400002900120039004900220059002A9164839
:10DD5000F3F73CFB0820029001200390049002207E
:10DD6000059002A91148F3F731FB10200290012021
:10DD7000039004900220059002A90C48F3F726FBBB
:10DD80000122D1030848F3F737FC01220821074894
:10DD9000F3F732FC012210210448F3F72DFC07B001
:10DDA00000BD00003038024000000240000C02407C
:10DDB00008B51E491E4816F0F7FE0A211C4841828C
:10DDC00047F61841C180032181814C21C17364222F
:10DDD00011461848008806F0A8F900901448BDF8CC
:10DDE00000104180282264211248008806F09DF925
:10DDF00000900F48BDF8001081803C2211460D486C
:10DE0000008806F092F900900948BDF800104181A1
:10DE1000642211460748008806F087F900900448FC
:10DE2000BDF8001001820449086508BD8CE9002096
:10DE300058F300207405002054EB00202DE9F04F2A
:10DE400085B00446894615461E46E88E401E07B238
:10DE50004FEA670807F0010AFF2E02D13820405D23
:10DE600003E03820405D7043001283462088ADF8FF
:10DE70000C00A088ADF810006088A0EB0800A0EBB3
:10DE80000A0000B2ADF80E00E088404400B2ADF8E0
:10DE90001200BDF90C00BDF91010884202DABDF97C
:10DEA0000C0001E0BDF91000ADF80400BDF90C0054
:10DEB000BDF91010884202DDBDF90C0001E0BDF98A
:10DEC0001000ADF80800BDF90E00BDF9121088422F
:10DED00002DABDF90E0001E0BDF91200ADF806004E
:10DEE000BDF90E00BDF91210884202DDBDF90E0029
:10DEF00001E0BDF91200ADF80A00A88E5B460246AB
:10DF00004946009001A808F003FC05B0BDE8F08F79
:10DF10000FB59DB02298FF2803D1209890F83800C3
:10DF200005E0209890F838002299484300121C9090
:10DF300015F022FB0A9008F004F81B901D988188C8
:10DF40000088081A00B2ADF868001D98C1884088A2
:10DF5000081A00B2ADF86A001D98007EF0B11D9855
:10DF6000B0F90210B0F906201E98104481420ADA76
:10DF7000BDF86A00404200B2ADF86400BDF8680028
:10DF8000ADF8660028E0BDF86A00ADF86400BDF8A1
:10DF90006800404200B2ADF866001DE01D98B0F97F
:10DFA0000010B0F904201E98104481420ADABDF82E
:10DFB0006A00ADF86400BDF86800404200B2ADF8F8
:10DFC000660009E0BDF86A00404200B2ADF86400A6
:10DFD000BDF86800ADF86600BDF86400000100B24D
:10DFE000ADF86400BDF86600000100B2ADF866004F
:10DFF0002098B0F9360018901898400000B2179099
:10E00000179880000A9008F0E5FB16900020159004
:10E01000189800283DD00020039019AA03A904A84D
:10E0200000F0F2FE1898404302900020159029E07D
:10E03000BDF81820DDE9151020F82120BDF81A20C0
:10E04000DDE9151000EB81004280BDF8180010FBDF
:10E0500000F1BDF81A2012FB02100190DDE9010168
:10E06000884208D3159818901B9818B11898401E2C
:10E0700000B218900BE004A800F04EFF1598401C69
:10E0800000B215901798401E15998842D0DC00BF49
:10E0900000BF189813901B9828B1189808B9012050
:10E0A0001390002014900020129011901898B0B195
:10E0B0001898401E169931F920000A9000EBD07094
:10E0C000401012901898401E169901EB8000B0F98C
:10E0D00002000A9000EBD0704010119023E01D98D0
:10E0E000007E70B11D98B0F90210B0F906201E989C
:10E0F0001044814205DB16984088401E01B21698F4
:10E1000041801D98007E70B91D98B0F90010B0F9DB
:10E1100004201E981044814205DB16980088401E9A
:10E1200001B2169801800020159077E1DDE9151005
:10E1300030F821101298081A02B2DDE9151020F803
:10E140002120DDE9151000EB810041881198081AA3
:10E1500002B2DDE9151000EB810042801B98002817
:10E160007ED015980028FBD01D98007E002878D01E
:10E170001598401E169931F920200846159930F956
:10E1800021008242ECD0DDE9151000EB81004288CD
:10E190001499169800EB81004088101A00B20A907A
:10E1A0001D98B0F91200002847DA1C9801902098B9
:10E1B000808EADF800001D9842881499169800EBE7
:10E1C0008100408811180A980844401C00B2099048
:10E1D0001D9802881499169830F821001044401EAA
:10E1E00000B208901F9BDDE9091208F051F81C9855
:10E1F00001902098808EADF800001D98C288149977
:10E20000169800EB8100408811180A980844401CB9
:10E2100000B209901D9882881499169830F8210050
:10E220001044401C00B208900A98404202B21F9B62
:10E23000DDE9080108F02CF841E01C9801902098D5
:10E24000808EADF800001D9842881499169800EB56
:10E2500081004088104400B209901D98028801E0B6
:10E26000BDE02FE0169830F821001044401E00B2A7
:10E2700008901F9BDDE9091208F00AF81C9801902C
:10E280002098808EADF800001D98C28814991698C9
:10E2900000EB81004088104400B209901D988288EC
:10E2A000169830F821001044401C00B208900A98DB
:10E2B000404202B21F9BDDE9080107F0E9FF159813
:10E2C0001490A7E01598401E169901EB8000B0F954
:10E2D00002200846159900EB8100B0F90200824245
:10E2E0007DD0DDE9151030F82120149930F8210097
:10E2F000101A00B20A901D98B0F90E00002845DAF5
:10E300001C9801902098808EADF800001D984288DE
:10E310001499169800EB810040881044401E00B20A
:10E3200009901D980288169830F8210011180A9853
:10E330000844401C00B208901F9BDDE9091207F059
:10E3400079FF1C9801902098808EADF800001D98F0
:10E35000C2881499169800EB810040881044401C34
:10E3600000B209901D988288169830F82100111883
:10E370000A980844401C00B208900A98404202B231
:10E380001F9BDDE9080107F055FF40E01C98019054
:10E390002098808EADF800001D9842881499169838
:10E3A00000EB810040881044401E00B209901D9887
:10E3B0000288169830F82100104400B208901F9B84
:10E3C000DDE9091207F036FF1C9801902098808E35
:10E3D000ADF800001D98C2881499169800E019E065
:10E3E00000EB810040881044401C00B209901D9849
:10E3F0008288169830F82100104400B208900A98DC
:10E40000404202B21F9BDDE9080107F013FF159897
:10E41000149000BF1598401C00B2159018991598DB
:10E420008842FFF683AE189800287DD01B980028FC
:10E43000FBD01D98007E002877D01398401E1699B7
:10E4400001EB800042880846149900EB8100408867
:10E45000101A00B20A901D98B0F91200002851DA83
:10E460001C9801902098808EADF800001D9842887D
:10E470001499169800EB8100408811180A980844F6
:10E4800000B208901D9802881499169830F821005F
:10E490001044401E00B207901D98418A0A98084413
:10E4A00000B2099002461F9BDDE9070107F0F0FE6C
:10E4B0001C9801902098808EADF800001D98C288AD
:10E4C0001499169800EB8100408811180A980844A6
:10E4D00000B208901D9882881499169830F821008F
:10E4E0001044401C00B207901D98418A0A980844C5
:10E4F000404200B2099002461F9BDDE9070107F088
:10E50000C7FE4DE01C9801902098808EADF8000069
:10E510001D9842881499169800EB81004088104499
:10E5200000B208901D9801E0E8E03AE002881698F1
:10E5300030F821001044401E00B207901D98418A17
:10E540000A98084400B2099002461F9BDDE90701C2
:10E5500007F09EFE1C9801902098808EADF8000078
:10E560001D98C2881499169800EB810040881044C9
:10E5700000B208901D988288169830F82100104447
:10E58000401C00B207901D98418A0A9808444042F6
:10E5900000B2099002461F9BDDE9070107F078FEF3
:10E5A000ACE01398401E169931F8202008461499C3
:10E5B00030F82100101A00B20A901D98B0F90E0030
:10E5C00000284FDA1C9801902098808EADF800004A
:10E5D0001D9842881499169800EB810040881044D9
:10E5E000401E00B208901D980288169830F821004D
:10E5F00011180A98084400B207901D98C1890A981A
:10E60000084400B2099002461F9BDDE9070107F0AC
:10E6100011FE1C9801902098808EADF800001D9886
:10E62000C2881499169800EB810040881044401C61
:10E6300000B208901D988288169830F821001118B1
:10E640000A98084400B207901D98C1890A980844A6
:10E65000404200B2099002461F9BDDE9070107F026
:10E66000E9FD4AE01C9801902098808EADF80000EA
:10E670001D9842881499169800EB81004088104438
:10E68000401E00B208901D980288169830F82100AC
:10E69000104400B207901D98C1890A98084400B23E
:10E6A000099002461F9BDDE9070107F0C3FD1C9896
:10E6B00001902098808EADF800001D98C2881499B2
:10E6C000169800EB810040881044401C00B208906E
:10E6D0001D988288169830F82100104400B20790E7
:10E6E0001D98C1890A980844404200B20990024628
:10E6F0001F9BDDE9070107F09DFD00BF0020109082
:10E700000F901B9840B31D98007EB8B91D98B0F9C2
:10E710000E00002809DA4FF0FF301090189808B961
:10E72000002000E010980F901FE001200F90189833
:10E7300008B9002000E00F98109016E01D98B0F97D
:10E740001200002809DA4FF0FF301090189808B92D
:10E75000002000E010980F9007E001200F9018981B
:10E7600008B9002000E00F9810901D980088ADF8BF
:10E7700038001D984088ADF83A0001200B901D9894
:10E78000007E00287ED0B5E00020159053E0BDF853
:10E790003820DDE9151030F82100104400B2ADF842
:10E7A0003000BDF83A20DDE9151000EB810040880B
:10E7B000104400B2ADF83200BDF830101D98008949
:10E7C0000844BDF83810401A401E00B2ADF83400BD
:10E7D000BDF83200ADF836002098808E0A900246CF
:10E7E0000CA81C9B1F9907F093FF1598F8B1DDE961
:10E7F000151030F92120481E169931F92000824267
:10E8000015D00B9898B91C980090BDF832101D983F
:10E81000408A081A00B209902098808E0A90BDF9AB
:10E8200030000890DDE909131F9A08F094FF15984D
:10E83000401C00B21590189915988842A7DB1B98C8
:10E84000F0B31C9801902098808EADF80000BDF8C0
:10E8500038101D980089081A00B20A90BDF83A10C5
:10E860001698408801441098081A00B20990BDF823
:10E87000381016980088084400B208901F9BDDE904
:10E88000091200E0E7E007F0D5FC1C980190209801
:10E89000808EADF800001D980189BDF83800081A77
:10E8A00000B20A90BDF83A201398401E169901EB69
:10E8B0008000408811180F98084400B2099000E0C9
:10E8C0000EE0BDF838201398401E169931F820004C
:10E8D000104400B208901F9BDDE9091207F0AAFC62
:10E8E00000200B901D980089ADF838001D984089D4
:10E8F000ADF83A001D9800F054FB00287FF444AFB7
:10E90000159052E0BDF83820DDE9151030F82100EF
:10E91000104400B2ADF83000BDF83A20DDE9151022
:10E9200000EB81004088104400B2ADF83200BDF821
:10E9300030101D9800890844BDF83810401A00B204
:10E94000ADF83400BDF83200ADF836002098808E66
:10E950000A9002460CA81C9B1F9907F0D9FE159837
:10E96000F8B1DDE9151030F92120481E169931F96A
:10E970002000824215D00B9898B91C980090BDF8E1
:10E9800032101D98408A081A00B209902098808E93
:10E990000A90BDF930000890DDE909131F9A08F0CC
:10E9A000DAFE1598401C00B2159018991598884207
:10E9B000A8DB1B9800284DD01C9801902098808ED1
:10E9C000ADF800001D980089BDF83810401A401CB1
:10E9D000404200B20A90BDF83A10169840880144AF
:10E9E0001098081A00B20990BDF8381016980088DF
:10E9F000084400B208901F9BDDE9091207F01AFCD9
:10EA00001C9801902098808EADF800001D98008918
:10EA1000BDF83810401A401C00B20A90BDF83A20E8
:10EA20001398401E169901EB8000408811180F982A
:10EA3000084400B20990BDF838201398401E16997A
:10EA400031F82000104400B208901F9BDDE9091244
:10EA500007F0F0FB6DE1B7E00020159058E0BDF83D
:10EA60003820DDE9151030F82100104400B2ADF86F
:10EA70003000BDF83A20DDE9151000EB8100408838
:10EA8000104400B2ADF83200BDF83000ADF83400EB
:10EA9000BDF832101D9840890844BDF83A10401A5C
:10EAA000401E00B2ADF836002098808E0A900246D3
:10EAB0000CA81C9B1F9907F02BFE159820B3DDE9CD
:10EAC000151000EB8100B0F90220481E169901EBE9
:10EAD0008000B0F90200824216D00B98A0B91C98B1
:10EAE0000090BDF830101D98C089081A00B2089037
:10EAF0002098808E0A90BDF93200099001460A9B49
:10EB00001F9A089808F027FE1598401C00B215902F
:10EB1000189915988842A2DB1B98E8B31C980190BD
:10EB20002098808EADF80000BDF83A101D984089FD
:10EB3000081A00B20A90BDF83A10169840880844A6
:10EB400000B20990BDF8381016980088014410985A
:10EB5000081A00B208901F9BDDE9091207F098FB24
:10EB60001C9801902098808EADF800001D98408977
:10EB7000BDF83A10401A00B20A90BDF83A20139836
:10EB8000401E169901EB80004088104400B20990A5
:10EB9000BDF83820139800E00CE0401E31F820004A
:10EBA00011180F98084400B208901F9BDDE9091264
:10EBB00007F06EFB00200B901D980089ADF838001F
:10EBC0001D984089ADF83A001D9800F0D9F9002849
:10EBD0007FF442AF159057E0BDF83820DDE91510FD
:10EBE00030F82100104400B2ADF83000BDF83A20F2
:10EBF000DDE9151000EB81004088104400B2ADF84B
:10EC00003200BDF83000ADF83400BDF832101D9868
:10EC100040890844BDF83A10401A00B2ADF83600F9
:10EC20002098808E0A9002460CA81C9B1F9907F022
:10EC30006FFD159820B3DDE9151000EB8100B0F9E8
:10EC40000220481E169901EB8000B0F902008242B2
:10EC500016D00B98A0B91C980090BDF830101D98E4
:10EC6000C089081A00B208902098808E0A90BDF9D9
:10EC70003200099001460A9B1F9A089808F06BFD24
:10EC80001598401C00B21590189915988842A3DB7E
:10EC90001B98E8B31C9801902098808EADF8000076
:10ECA0001D984089BDF83A10401A401C404200B2FD
:10ECB0000A90BDF83A1016984088084400B20990AE
:10ECC000BDF838101698008801441098081A00B250
:10ECD00008901F9BDDE9091207F0DAFA1C980190F1
:10ECE0002098808EADF800001D984089BDF83A103C
:10ECF000401A401C00B20A90BDF83A201398401EFA
:10ED0000169901EB80004088104400B2099000E0A1
:10ED10000FE0BDF838201398401E31F8200011187C
:10ED20000F98084400B208901F9BDDE9091207F014
:10ED3000AFFA21B000BD2DE9F04F85B004468946F9
:10ED400015461E46E88E401E07B24FEA670807F0D8
:10ED5000010AFF2E02D13820405D03E03820405DDB
:10ED60007043001283462088A0EB080000B2ADF883
:10ED70000C00A0884044504400B2ADF810006088F8
:10ED8000ADF80E00E088ADF81200BDF90C00BDF939
:10ED90001010884202DABDF90C0001E0BDF9100044
:10EDA000ADF80400BDF90C00BDF91010884202DD79
:10EDB000BDF90C0001E0BDF91000ADF80800BDF987
:10EDC0000E00BDF91210884202DABDF90E0001E012
:10EDD000BDF91200ADF80600BDF90E00BDF9121024
:10EDE000884202DDBDF90E0001E0BDF91200ADF868
:10EDF0000A00A88E5B4602464946009001A807F02B
:10EE000087FC05B0BDE8F08F30B50B8803804B88D8
:10EE10004380138883805488C480B0F90430B0F9EB
:10EE200000401B1B002B05DDB0F90430B0F9004099
:10EE30001B1B04E0B0F90030B0F904401B1B1BB2EF
:10EE40008381B0F90030B0F90440A34201DA012314
:10EE500001E04FF0FF33C381B0F90630B0F9024052
:10EE60001B1B002B05DDB0F90630B0F902401B1B5F
:10EE700004E0B0F90240B0F90630E31A1BB2038295
:10EE8000B0F90240B0F906309C4201DA012301E0FA
:10EE90004FF0FF334382B0F90C40B0F91050AC4250
:10EEA00002DDB0F90C4002E0B0F9104064422346A4
:10EEB00004EBD374641024B284820023C382B0F9BB
:10EEC0000C30B0F91040A34201DD012300E0002323
:10EED0000376038803814488448130BD08B50A491C
:10EEE0000A4815F061FE322211460948008805F0F3
:10EEF0001CF900900548BDF8001081860121C186EB
:10EF00000449C86408BD000004ED00201CF3002083
:10EF10007405002054EB00200146B1F90800B1F956
:10EF20000420904207D1B1F90A20B1F906008242CB
:10EF300001D100207047888AC882B1F91600B1F962
:10EF40000C205242904209DD888A0A8A801A00B257
:10EF500088820889CA89104400B20881B1F9160074
:10EF6000B1F91020904209DA888A8A89104400B2E7
:10EF7000888248894A8A104402B24A810120D9E72E
:10EF800070B50446B4F9085000BF2046FFF7C4FF2F
:10EF900008B9002070BDB4F90800A842F5D00120DE
:10EFA000F8E770B50446B4F90A5000BF2046FFF7F1
:10EFB000B3FF08B9002070BDB4F90A00A842F5D02B
:10EFC0000120F8E710B50CA01BF032FE0F480468D2
:10EFD0000CE002220EA12068F1F72BFA00B904E040
:10EFE0000CA021681BF024FE00BF08340A4800680A
:10EFF0008442EED3002010BD2D2D46756E637469DA
:10F000006F6E204C6973743A0A000000D406002029
:10F010005F5F000025730A00D80600202DE9F04745
:10F0200090B000270FF2A809082303AA09210BA812
:10F0300000F026F94FF014084A46414626A01BF07E
:10F04000F7FD40461AF0D2FA2DA01BF0F1FD00BFEB
:10F050000BA9384600F029F9074600262EE003A840
:10F0600050F82600A0F11805F1F7BCF88246287D7B
:10F0700020F080009DF83410884203D05046F1F70C
:10F08000B5F81AE05046F1F7B1F82C4694F826107E
:10F0900094F82000132805DC94F82000214A52F847
:10F0A000200001E01F48C06C23461422CDE9000176
:10F0B00041461DA01BF0BCFD00BF761C0F98B0425E
:10F0C000CDDC002FC4D1002010B0BDE8F0870000D7
:10F0D0006465766963650000252D2A2E7320202043
:10F0E00020202020202074797065202020202020DE
:10F0F00020202072656620636F756E740A00000020
:10F10000202D2D2D2D2D2D2D2D2D2D2D2D2D2D2D3C
:10F110002D2D2D2D2D202D2D2D2D2D2D2D2D2D2D2C
:10F120000A000000CC1A0408252D2A2E2A73202557
:10F130002D32307320252D38640A00002DE9F04F60
:10F140008FB000270FF2C009082302AA04210AA8E1
:10F1500000F096F84FF014084A4641462CA01BF0E8
:10F1600067FD40461AF042FA32A01BF061FD00BF75
:10F170000AA9384600F099F8074600253BE002A8A6
:10F1800050F82500A0F11806F1F72CF88346307DE1
:10F1900020F080009DF83010884203D05846F1F7E7
:10F1A00025F827E05846F1F721F8344604F120000D
:10F1B0001BF0A7FDA8B904F120001BF0AAFD8246B0
:10F1C000A06A234614224146CDE9000A21A01BF083
:10F1D0002FFD04F120001DF0C3FA15A01BF028FD3F
:10F1E00007E0A06A23461422414600901FA01BF0AE
:10F1F0001FFD00BF6D1C0E98A842C0DC002FB7D1C8
:10F2000000200FB0BDE8F08F6576656E74000000D9
:10F21000252D2A2E73202020202020736574202085
:10F22000202073757370656E642074687265616404
:10F230000A00000020202D2D2D2D2D2D2D2D2D2DC2
:10F24000202D2D2D2D2D2D2D2D2D2D2D2D2D2D0A1E
:10F2500000000000252D2A2E2A732020307825302A
:10F26000387820253033643A00000000252D2A2EFE
:10F270002A73202030782530387820300A000000AA
:10F280002DE9F04704460D4616461F4628461BF05A
:10F29000A3FE814609F10408C4F800802572666067
:10F2A000E76000202061BDE8F0872DE9F84F0746B0
:10F2B0000C464FF0000A00202061E06808B1207A77
:10F2C00010B90020BDE8F88FD4F800801FB945467A
:10F2D0004FF0010A00E03D46F0F784FF0090BAF1DC
:10F2E000000F0ED1A5F1180B9BF8140020F0800040
:10F2F000217A884204D00098F0F778FF0020E1E7F7
:10F3000000BF0026D4F804900BE02D68454501D1DC
:10F31000002507E0761C49F8045BE068B04200D1A4
:10F3200000E0F2E700BF0098F0F760FF2661284692
:10F33000C8E7000008B54A494A4815F035FC0021E5
:10F3400048480172012181815522322146480088B6
:10F3500004F0EBFE00904348BDF800104181FF210E
:10F36000C1735E220A214048008804F0DEFE00904E
:10F370003C48BDF8001001843C48016839484162AE
:10F380005E220A213848008804F0CFFE00903548FC
:10F39000BDF8001001860146354815F005FCFF2137
:10F3A00033480172292222212F48008804F0BDFE33
:10F3B00000902F48BDF800104180292222212A48C0
:10F3C000008804F0B2FE00902948BDF8001081804A
:10F3D000602207212448008804F0A7FE00902448FA
:10F3E000BDF800100184602207211F48008804F046
:10F3F0009CFE00901E48BDF80010018619491D486A
:10F4000015F0D2FB1A491C4815F0CEFB14491B48D5
:10F4100015F0CAFB13491A4815F0C6FB002118481D
:10F4200041838183C182018316491748C0F8341192
:10F4300013481549C1F82C0114491348C0F830117C
:10F440000849C0F838110A49C0F83C110949C0F808
:10F4500040110949C0F844110849C0F8481108BDD5
:10F4600004ED002090F700207405002078050020AE
:10F47000CCF7002008F8002044F8002080F8002095
:10F4800054F70020F4ED002054EB00209CE800200D
:10F490002DE9F04F91B000270FF2D409082304AAF8
:10F4A00005210CA8FFF7ECFE4FF014084A46414630
:10F4B00031A01BF0BDFB40461AF098F837A01BF0B6
:10F4C000B7FB00BF0CA93846FFF7EFFE0746002543
:10F4D00045E004A850F82500A0F11806F0F782FED8
:10F4E0008346307D20F080009DF83810884203D09C
:10F4F0005846F0F77BFE31E05846F0F777FE344689
:10F5000004F120001BF0FDFBB8B904F120001BF052
:10F5100000FC8246A08DE18D23461422CDE9010A2C
:10F520000091414624A01BF083FB04F120001DF054
:10F5300017F927A01BF07CFB0FE004F120001BF063
:10F54000E8FB8246A08DE18D23461422CDE9010A15
:10F55000009141461FA01BF06BFB00BF6D1C109873
:10F56000A842B6DC002FADD1002011B0BDE8F08F6D
:10F570006D61696C626F7800252D2A2E7320656E8F
:10F580007472792073697A652073757370656E641F
:10F59000207468726561640A00000000202D2D2D22
:10F5A0002D20202D2D2D2D202D2D2D2D2D2D2D2DB2
:10F5B0002D2D2D2D2D2D0A00252D2A2E2A732025A7
:10F5C0003034642020253034642025643A00000063
:10F5D0000A000000252D2A2E2A73202530346420AD
:10F5E00020253034642025640A00000010B5084846
:10F5F000016808A01BF01CFB0B4801680BA01BF066
:10F6000017FB0F4801680FA01BF012FB10BD000094
:10F61000FC050020746F74616C206D656D6F7279EC
:10F620003A2025640A000000000600207573656416
:10F63000206D656D6F7279203A2025640A00000004
:10F64000040600206D6178696D756D20616C6C6FCA
:10F650006361746564206D656D6F72793A2025640D
:10F660000A0000002DE9F04792B000270FF2C80908
:10F67000082305AA19460DA8FFF702FE4FF014084B
:10F680004A4641462EA01BF0D3FA404619F0AEFF81
:10F6900035A01BF0CDFA00BF0DA93846FFF705FED7
:10F6A000074600253EE005A850F82500A0F1180601
:10F6B000F0F798FD8246307D20F080009DF83C10E8
:10F6C000884203D05046F0F791FD2AE05046F0F70B
:10F6D0008DFD3446206CA8B1D4E90C31A26A206CAF
:10F6E000CDE90023CDE9021023461422414627A08C
:10F6F0001BF09EFA04F138001DF032F822A01BF036
:10F7000097FA0DE0D4E90C30226CA16ACDE9001320
:10F71000CDE9020223461422414623A01BF088FAB9
:10F7200000BF6D1C1198A842BDDC002FB4D1002091
:10F7300012B0BDE8F08700006D656D706F6F6C00F2
:10F74000252D2A2E7320626C6F636B20746F746199
:10F750006C20667265652073757370656E642074C5
:10F7600068726561640A0000202D2D2D2D20202D4A
:10F770002D2D2D20202D2D2D2D202D2D2D2D2D2DE0
:10F780002D2D2D2D2D2D2D2D0A000000252D2A2E5D
:10F790002A7320253034642020253034642020252D
:10F7A0003034642025643A00252D2A2E2A73202522
:10F7B0003034642020253034642020253034642007
:10F7C00025640A002DE9F04F8FB000270FF2CC0915
:10F7D000082302AA06210AA8FFF752FD4FF01408D9
:10F7E0004A46414630A01BF023FA404619F0FEFE7F
:10F7F00034A01BF01DFA00BF0AA93846FFF755FDDB
:10F800000746002541E002A850F82500A0F118069F
:10F81000F0F7E8FC8346307D20F080009DF8301042
:10F82000884203D05846F0F7E1FC2DE05846F0F747
:10F83000DDFC344604F120001BF063FAA8B904F1A2
:10F8400020001BF066FA8246208E23461422414691
:10F85000CDE9000A21A01BF0EBF904F120001CF017
:10F860007FFF23A01BF0E4F90DE004F120001BF062
:10F8700050FA8246208E234614224146CDE9000AE2
:10F880001CA01BF0D5F900BF6D1C0E98A842BADC75
:10F89000002FB1D100200FB0BDE8F08F6D736771FC
:10F8A0007565756500000000252D2A2E7320656E94
:10F8B0007472792073757370656E642074687265F4
:10F8C00061640A00202D2D2D2D20202D2D2D2D2D74
:10F8D0002D2D2D2D2D2D2D2D2D0A0000252D2A2EDF
:10F8E0002A732025303464202025643A000000006B
:10F8F0000A000000252D2A2E2A732025303464208A
:10F900002025640A000000002DE9F04F91B0002787
:10F910000FF2A009082304AA03210CA8FFF7B0FCEA
:10F920004FF014084A46414624A01BF081F9404696
:10F9300019F05CFE2AA01BF07BF900BF0CA9384629
:10F94000FFF7B3FC074600262AE004A850F826007B
:10F95000A0F11804F0F746FC8346207D20F08000DB
:10F960009DF83810884203D05846F0F73FFC16E067
:10F970005846F0F73BFC254605F120001BF0C9F97D
:10F98000824695F82B001422E96A2B46CDE9020A3B
:10F99000CDE9002141461AA01BF04AF900BF761CB0
:10F9A0001098B042D1DC002FC8D1002011B0BDE8C2
:10F9B000F08F00006D75746578000000252D2A2EEB
:10F9C000732020206F776E65722020686F6C642032
:10F9D00073757370656E64207468726561640A0083
:10F9E000202D2D2D2D2D2D2D2D202D2D2D2D202D6E
:10F9F0002D2D2D2D2D2D2D2D2D2D2D2D2D0A0000B4
:10FA0000252D2A2E2A7320252D382E2A73202530C5
:10FA100034642025640A00002DE9F04F8FB00027E0
:10FA20000FF2CC09082302AA02210AA8FFF728FC3A
:10FA30004FF014084A46414630A01BF0F9F8404602
:10FA400019F0D4FD34A01BF0F3F800BF0AA9384622
:10FA5000FFF72BFC0746002541E002A850F82500DF
:10FA6000A0F11806F0F7BEFB8346307D20F0800041
:10FA70009DF83010884203D05846F0F7B7FB2DE0D0
:10FA80005846F0F7B3FB344604F120001BF039F977
:10FA9000A8B904F120001BF03CF98246208D2346D2
:10FAA00014224146CDE9000A21A01BF0C1F804F15F
:10FAB00020001CF055FE17A01BF0BAF80DE004F171
:10FAC00020001BF026F98246208D23461422414651
:10FAD000CDE9000A1AA01BF0ABF800BF6D1C0E9810
:10FAE000A842BADC002FB1D100200FB0BDE8F08FE2
:10FAF00073656D6170686F7265000000252D2A2E98
:10FB000073207620202073757370656E642074688E
:10FB1000726561640A000000202D2D2D202D2D2DF1
:10FB20002D2D2D2D2D2D2D2D2D2D2D0A00000000DC
:10FB3000252D2A2E2A7320253033642025643A008F
:10FB4000252D2A2E2A7320253033642025640A00AF
:10FB50002DE9F04FB7B04FF000090FF21C1B08233E
:10FB600029AA012131A8FFF78BFB4FF0140A5A464E
:10FB7000514643481BF05CF8504619F037FD41A050
:10FB80001BF056F800BF31A94846FFF78EFB8146AF
:10FB90004FF0000865E029A850F82800A0F11805EA
:10FBA000F0F720FB3690287D20F080009DF8CC10E7
:10FBB000884203D03698F0F719FB50E09822294686
:10FBC00003A8F0F7DAFB3698F0F710FB2C4694F810
:10FBD000410023461422514600903AA01BF028F819
:10FBE00094F8400000F00F06012E03D138A01BF05E
:10FBF0001FF815E0022E03D138A01BF019F80FE012
:10FC00001EB939A01BF014F80AE0042E03D139A064
:10FC10001BF00EF804E0032E02D139A01BF008F807
:10FC2000676B00E07F1C38782328FBD0D4E90D10E7
:10FC3000791A401A64214843A16BB0FBF1F002909D
:10FC4000E16B606DCDE90001A36A606BC01AA36B24
:10FC5000C1181A462DA0029B1AF0EAFF00BF08F156
:10FC600001083598404596DCB9F1000F8BD1002092
:10FC700037B0BDE8F08F0000746872656164000001
:10FC800008200408202D2D2D20202D2D2D2D2D2D4B
:10FC90002D202D2D2D2D2D2D2D2D2D2D202D2D2DAE
:10FCA0002D2D2D2D2D2D2D20202D2D2D2D2D2D20AB
:10FCB000202D2D2D2D2D2D2D2D2D2D202D2D2D0AB1
:10FCC00000000000252D2A2E2A73202533642000F1
:10FCD0002072656164792020000000002073757334
:10FCE00070656E640000000020696E697420202039
:10FCF0000000000020636C6F73652020000000008E
:10FD00002072756E6E696E670000000020307825E5
:10FD10003038782030782530387820202020253061
:10FD20003264252520202030782530387820253071
:10FD300033640A002DE9F04790B000270FF2B409B0
:10FD4000082303AA0A210BA8FFF79AFA4FF0140818
:10FD50004A46414629A01AF06BFF404619F046FC7E
:10FD600030A01AF065FF00BF0BA93846FFF79DFAD7
:10FD7000074600262DE003A850F82600A0F118043D
:10FD8000F0F730FA8246207D20F080009DF8341094
:10FD9000884203D05046F0F729FA19E05046F0F7B0
:10FDA00025FA2546D5E90C012B461422CDE90001A0
:10FDB000414625A01AF03CFF687D00F0010018B113
:10FDC00027A01AF035FF02E028A01AF031FF00BF8B
:10FDD000761C0F98B042CEDC002FC5D11BF022FF5D
:10FDE0000446214625A01AF023FF002010B0BDE8EC
:10FDF000F087000074696D6572000000252D2A2EC1
:10FE0000732020706572696F6469632020207469B3
:10FE10006D656F757420202020202020666C61673E
:10FE20000A000000202D2D2D2D2D2D2D2D2D2D20C6
:10FE30002D2D2D2D2D2D2D2D2D2D202D2D2D2D2DFF
:10FE40002D2D2D2D2D2D0A00252D2A2E2A73203003
:10FE50007825303878203078253038782000000038
:10FE60006163746976617465640A00006465616346
:10FE7000746976617465640A0000000063757272CB
:10FE8000656E74207469636B3A3078253038780A6F
:10FE90000000000008B51549154814F085FE4622FB
:10FEA0000A211448008804F040F900901048BDF879
:10FEB00000104180502211460E48008804F035F9A8
:10FEC00000900B48BDF8001081800C214183818394
:10FED00040F2222004F0FBF800900548BDF8001025
:10FEE00081860221C1860449886608BD04ED002090
:10FEF00010F000207405002054EB002038B50022DB
:10FF000000BF00230093294B1B6843F40003274CD8
:10FF1000236023461B6803F40003009300BF00BF67
:10FF2000234B1B6823F00103214C23604FF4403323
:10FF30002360022363630023236401EB810303EB4B
:10FF4000C1041C4B03EB84035B6A194CE36301EBB4
:10FF5000810303EBC104174B03EB8403DC6A01EB61
:10FF6000810303EBC105134B03EB85031B8D44EAAF
:10FF700003430F4C6364234698631B6843F00103FB
:10FF8000236004E0521CB2F5001F00D305E0084BCB
:10FF90005B6803F00203002BF4D000BF044B9B68A6
:10FFA00043F00203024CA36038BD00003038024029
:10FFB00000B00240D0D0002000B58DB0342168469A
:10FFC000F0F7F6F9404841490860002048600021F8
:10FFD0003E488160C16001610921416181611D214B
:10FFE000C1611321016240F2FD11416240F23331DF
:10FFF000816240F22521C16240F242310163002159
:020000040802F0
:1000000080F8341080F8351080F83610F2F75CF97B
:1000100008B1F0F76FFD002000904FF4F0700190F0
:10002000002002904FF44870039002200490FF20BB
:100030000590002006904FF4C060079007200890BC
:10004000800709904FF4F0700A904FF448700B90BD
:1000500000208DF8300000218DF831108DF832101D
:10006000002269461948F2F7FFF808B1F0F742FD9F
:10007000282000904FF4DC7001904FF491700290B2
:100080004FF4FF70039002200490FF2005900020A1
:1000900006904FF4C0600790072008900C48099024
:1000A0004FF4C8700A90DC200B9000208DF83000CF
:1000B00000218DF831108DF83210FDF78DFD642090
:1000C000FDF75AFD0DB000BD0068014098D000203A
:1000D000000010C010B5282106480FF08AF917F06B
:1000E000FDFF05490860002303221E21034817F085
:1000F00067FD10BD30EB0020C00000200182010828
:1001000070B50546686818B1D5E9000100F024F81B
:100110000F480FF079F904460CB900BFFEE704B9A7
:1001200070BD95F8240020F0040085F824002822F2
:1001300029462046F0F721F9606820B1238A19B2D8
:10014000D4E90002904701200249087000BFE7E7A8
:1001500030EB0020C40000202DE9F04107460D4699
:100160004FF0000810480FF025F9044617E021462B
:100170000D480FF024F906462068B8420ED1606899
:10018000A84200D055B9214607480FF0FAF9204699
:100190000FF090FF01200549087080463446002C7E
:1001A000E5D14046BDE8F08130EB0020C4000020DE
:1001B000F8B50446208BB4F91A10884202D14FF4E6
:1001C000806505E0B4F91A008002218BB0FBF1F5DF
:1001D0004FF480604FF4677364220021009028463A
:1001E00000F016FF0746D4E90410401A00FB07F69A
:1001F000B6122069064430B2F8BD10B50146088B2E
:10020000B1F91A40A04202D14FF4806205E0B1F981
:100210001A0080020C8B90FBF4F2D1E90440001B21
:1002200000FB02F39B120869034418B210BD01469B
:10023000B1F91A000A8B904202DB888A00B270473B
:10024000088A00B2FBE730B504460B46981A00282E
:1002500001DD981A00E0D01A05464FF47A70684321
:1002600090FBF4F1B1F5803F01D34FF6FF7101B976
:10027000491C88B230BD10B50021D22017F09CFE79
:10028000044617F04FFE10BD2DE9F04180460D46A3
:100290002946404610F00CFB06460EB900BFFEE7AB
:1002A00016B90020BDE8F0810421304610F0EDFAC7
:1002B00004460CB900BFFEE70CB90020F2E71E4867
:1002C000006820B9304610F040FE1B4908601B480A
:1002D000006820B9304610F07BFD184908602D20D9
:1002E000208040F23B1060801549304611F0ACF898
:1002F0001449304610F0C7FF7DB917F0C5FE074618
:100300002FB1002130463A6F00F029F904E00E4A7F
:100310000021304600F023F90BE0284610F0A2FD42
:1003200007463888208078886080304610F06CFF5F
:1003300000BF3046B6E70000C8010020CC01002015
:10034000790502084D03020814E900202DE9F74F52
:1003500092B01498022803D1002015B0BDE8F08FA8
:10036000149800287ED1129810F07CFD05460021DB
:10037000129800F0C9F88146129810F04DFE82469E
:10038000129810F075FD824503DA129810F044FEC1
:1003900002E0129810F06CFD044600EBD47040109F
:1003A00006B2129810F038FE044600EBD4704110EB
:1003B0001298008A084407B2129810F059FD0446BA
:1003C00000EBD47041101298408A08440FFA80F86C
:1003D000129810F096FD1190698889B22A8892B21D
:1003E0001198CDE9011900920390B2B24146384606
:1003F000139B05F07BFF392010F8090000F0010085
:1004000000287AD0B9F9360000EBD0714C10B5F95C
:10041000000017F081FE311B4843C0130FFA80FA29
:1004200029885A3108B217F077FE311B4843C013B0
:100430000FFA80FB334902A814F0B6FB02A8B9F802
:100440003410ADF80C10BDF80C00ADF80A0047F6FA
:100450001841ADF80E100AEB0700001B00B2ADF812
:10046000000000E04AE00BEB0800001B00B2ADF812
:1004700002000AEB0700204400B2ADF804000BEBC9
:100480000800204400B2ADF8060002AA6846119B9D
:10049000139907F0CBF9B5F9020017F03DFE311BB7
:1004A0004843C0130FFA80FA69885A3108B217F02E
:1004B00033FE311B4843C0130FFA80FB0AEB0700E1
:1004C000001B00B2ADF800000BEB0800001B00B2EF
:1004D000ADF802000AEB0700204400B2ADF80400BA
:1004E0000BEB0800204400B2ADF8060002AA6846F3
:1004F000119B139907F09AF900BF00E000BF01209B
:100500002BE70000D8E8002070B505460C46002611
:1005100024B9284610F01CFD064601E0002600BF65
:1005200000BF304670BD2DE9F04107460C46154628
:10053000384610F097FC0646B4F5B47F01DD4FF461
:10054000B474B5F5B47F01DD4FF4B47520B23080DA
:1005500028B27080384610F08FFDBDE8F08170B58C
:1005600006460C46154624B92946304610F0BDFF14
:1005700000BF00BF70BD00002DE9F04107460C46EA
:1005800015462A46214638460E4B1B6898470646B4
:10059000012E02D03046BDE8F0818CB1062C0FD17F
:1005A0002946002005E051F8202002B903E0421C52
:1005B000D0B20728F7DB00BF03A241F8202000BF1C
:1005C0003046E8E7C80100206C765F617263000086
:1005D0000A6802604A68426070470A6802604A68B6
:1005E000426070470A6802604A68426070470A6861
:1005F00002604A68426070470A6802604A68426066
:1006000070470A6802604A68426070470A68026080
:100610004A68426070470A6802604A6842607047F0
:100620000A6802604A68426070470146C8884A8882
:10063000801A401C00B270470146C8884A88801A58
:10064000401C00B270470146C8884A88801A401C86
:1006500000B270470146C8884A88801A401C00B220
:1006600070470146C8884A88801A401C00B270470B
:100670000146C8884A88801A401C00B2704710B5ED
:100680000146B1F90420B1F90030D21A521CB1F977
:100690000630B1F902401B1B5B1C02FB03F010BDCE
:1006A000014688880A88801A401C00B270470146BB
:1006B00088880A88801A401C00B2704701468888E2
:1006C0000A88801A401C00B27047014688880A8850
:1006D000801A401C00B27047014688880A88801A38
:1006E000401C00B27047014688880A88801A401C66
:1006F00000B27047014688880A88801A401C00B200
:100700007047014688880A88801A401C00B27047EA
:10071000014688880A88801A401C00B2704701464A
:1007200088880A88801A401C00B270470146888871
:100730000A88801A401C00B2704730B50346B1F9F0
:100740000040B2F90050AC4202DDB1F9004001E0D6
:10075000B2F900401C80B1F90240B2F90250AC423B
:1007600002DDB1F9024001E0B2F902405C80B1F96A
:100770000440B2F90450AC4202DAB1F9044001E09D
:10078000B2F904409C80B1F90640B2F90650AC427F
:1007900002DAB1F9064001E0B2F90640DC8001203E
:1007A000B3F90040B3F90450AC4205DCB3F90240A0
:1007B000B3F90650AC4200DD002030BD10B5024652
:1007C0000020B2F90030B1F90040A34212DBB2F9C7
:1007D0000230B1F90240A3420CDBB2F90430B1F9A6
:1007E0000440A34206DCB2F90630B1F90640A34248
:1007F00000DC012010BD0246B2F90000B1F904305E
:10080000984213DCB2F90400B1F9003098420DDBD4
:10081000B2F90200B1F90630984207DCB2F90600DD
:10082000B1F90230984201DB012070470020FCE75B
:1008300010B502460020B1F90030B2F90040A342E1
:1008400012DBB1F90030B2F90440A3420CDCB1F97B
:100850000230B2F90240A34206DBB1F90230B2F92C
:100860000640A34200DC012010BD10B5B1F90030F4
:10087000B2F90040A34202DAB1F9003001E0B2F966
:1008800000300380B1F90230B2F90240A34202DA2B
:10089000B1F9023001E0B2F902304380B1F904301D
:1008A000B2F90440A34202DDB1F9043001E0B2F92B
:1008B00004308380B1F90630B2F90640A34202DD6C
:1008C000B1F9063001E0B2F90630C38010BD10B5B1
:1008D000029C018042808380C48010BD42880A440B
:1008E000521E12B2C2807047F0B503460C46154640
:1008F00000BF98881988401A401C00B2064600BF05
:10090000D8885988401A401C00B207461C805D8078
:100910003146184600F005F839461846FFF7DEFF65
:10092000F0BD02880A44521E12B28280704770B530
:1009300005460C46284610F095FA0646748128466E
:1009400010F09AFB70BD70B50446206810F08AFA6A
:1009500005464FF0FF306881B5F908100022206885
:1009600000F0AEFA70BD00002DE9F04180460E4661
:10097000314640460FF09CFF07460FB900BFFEE727
:1009800017B90020BDE8F0813948006820B9384621
:1009900010F0DBFA364908603648006820B938465E
:1009A00010F016FA33490860142138460FF06DFF35
:1009B00004460CB900BFFEE70CB90020E2E70020B6
:1009C00060806420A08000202080C820A0810020BA
:1009D000E0802081401E60810020A07326482061B5
:1009E0002649384610F030FD2549384610F04BFCBA
:1009F00016BB0021384610F03DFC2122C8213846A4
:100A000010F024FDB4F900100022384600F058FA26
:100A100017F03AFB054655B1002138466A6D00F0E3
:100A200035FA01213846AA6D00F030FA03E0154985
:100A3000384610F05AFD19E0304610F013FA05461A
:100A400068886080A888A080288820802869206124
:100A5000A87B00F00100A073384610F0D5FBB4F974
:100A600000100022384600F02BFA00BF384689E714
:100A7000D4010020D00100208CE90020990F020849
:100A8000890A020850E900202DE9F04F8FB0804616
:100A90008A469146B9F1020F08D14A46514640466E
:100AA000C34B1B6898470FB0BDE8F08FB9F1000F3A
:100AB0007ED1404610F025FA8346404610F043FBB5
:100AC00098B10021404600F087F90546294668465E
:100AD00014F06AF80021ADF80C105B466A465146E6
:100AE00008F1100006F0A2FE05E04A4651464046D5
:100AF000AF4B1B689847404610F0B4F90446B4F970
:100B00000010B4F90200814208D1A07B00F001007E
:100B100020B9B4F90600401C00287DD001214046D0
:100B200000F05AF905460DA8D8F810100160D8F861
:100B30001410416000BFBDF83410688B084400B247
:100B4000ADF83400BDF83810A88B081A00B2ADF823
:100B50003800BDF83610E88A084400B2ADF8360017
:100B6000BDF83A10288B081A00B2ADF83A0000BF61
:100B7000BDF83800BDF83410401A401C00B20646DB
:100B800000BFBDF83A00BDF83610401A401C00B254
:100B90000746BE4273DBB4F90A00401C48B3B4F9FF
:100BA0000620B4F90230D21A7243B4F9043000E0DE
:100BB000DBE0B4F902C0A3EB0C0392FBF3F210B23A
:100BC000B4F90820B4F90230D21A7243B4F90430EF
:100BD000B4F902C0A3EB0C0392FBF3F211B20A1AB0
:100BE000B4F90A305A4300EB222212B2ADF8382091
:100BF0000FE0B4F90000B4F90210401A7043B4F9E0
:100C00000410B4F90220891A90FBF1F000B2ADF89B
:100C10003800BDF8340000E0A6E0BDF83810084404
:100C2000401E00B2ADF83800A07B00F001000028A3
:100C300023D0B4F9020000281FDAB4F90400002818
:100C40001BDDB4F90410B4F902208A1AB4F90210B9
:100C50004942714391FBF2F1BDF83420114408B2CE
:100C6000BDF93810814202DDADF8340005E0BDF871
:100C70003810ADF83410ADF838006EE0FFE7B4F985
:100C80000A00401C38B3B4F90620B4F90230D21A75
:100C90007A43B4F90430B4F902C0A3EB0C0392FB1D
:100CA000F3F210B2B4F90820B4F90230D21A7A4340
:100CB000B4F90430B4F902C0A3EB0C0392FBF3F2D5
:100CC00011B20A1AB4F90A305A4300EB222212B2C6
:100CD000ADF836200FE0B4F90000B4F90210401A64
:100CE0007843B4F90410B4F90220891A90FBF1F0AA
:100CF00000B2ADF83600BDF83A00BDF83610401A23
:100D0000401C00B2ADF83600A07B00F0010020B31B
:100D1000B4F90200002820DAB4F9040000281CDD30
:100D2000B4F90410B4F902208A1AB4F90210494245
:100D3000794391FBF2F1BDF83A20511A08B2BDF99E
:100D40003610814202DAADF83A0005E0BDF83610FF
:100D5000ADF83A10ADF8360000BF5B462A46514662
:100D60000DA806F063FD00BF20E0B9F1010F1DD111
:100D7000404610F0E8F9C8B1404610F0C2F8044609
:100D80000021404600F028F805462946684613F041
:100D90000BFF00218DF80810ADF8121023466A46AB
:100DA000514608F1100006F041FD00BF01207AE62F
:100DB000D001002070B50446204610F053F80546D7
:100DC000B5F9040070BD70B50446204610F04AF82D
:100DD0000546B5F9020070BD2DE9F04105460C4607
:100DE0000026284610F03EF8074614B1012C07D122
:100DF00004E0284610F0ACF8064603E03E6901E046
:100E0000002600BF00BF3046BDE8F08170B5054642
:100E1000284610F027F80446B4F90A00401C10B127
:100E2000B4F9080070BDB4F90000FBE72DE9F0410A
:100E300007460D461646384610F014F80446B4F935
:100E40000200A84205D1B4F90400B04201D1BDE8C6
:100E5000F081A6806580B4F90000B04206DD2680EE
:100E6000B4F900100022384600F02AF8B4F9000066
:100E7000A84206DA2580B4F900100022384600F0B6
:100E80001FF8384610F0F8F800BFE0E72DE9F04110
:100E900006460D46144630460FF0E4FF074615B1EE
:100EA000012D0AD104E02146304610F01EFB04E07B
:100EB0003C61304610F09BF900BF00BFBDE8F081F7
:100EC0002DE9F0418AB007460E46904638460FF0AD
:100ED000C9FF0446B4F90000B04202D10AB0BDE82F
:100EE000F081B4F90400B04202DAB4F9040000E081
:100EF00030460546B4F90200A84202DDB4F902000A
:100F000000E028460546B4F90000A84200D1E5E714
:100F1000B8F1000F04D12580384610F0ADF833E069
:100F2000B4F90A00401C18B92088E080258102E04D
:100F30002089E08025810097002004904FF4807084
:100F40000590124801901248029012480390002028
:100F5000ADF81A00A08980B2ADF818009DF8240001
:100F600020F001008DF824000020ADF81C009DF851
:100F7000240020F002008DF824000020ADF81E00AF
:100F80006846FFF7BDF800BF00BFA7E72F090208BA
:100F9000FB010208470902082DE9F04104460D460D
:100FA0001646324629462046164B1B689847074688
:100FB000012F02D03846BDE8F081052D0ED1012168
:100FC0002046FFF709FF8046B8F91200B4F9341043
:100FD000884202DDB8F81200A08611E0062D0FD17C
:100FE0003146002005E051F8202002B903E0421C00
:100FF000D0B20728F7DB00BF03A241F8202000BFD2
:101000003846D8E7D40100206C765F626172000038
:101010002DE9F04F04460D46C4F5806101FB01F057
:10102000860A06FB01F04FEA902C04FB04F0870AC5
:1010300007FB04F04FEA90280CFB05F04FEA9029DB
:1010400006EB4600604350434FEA105A01EB410063
:10105000784358434FEA105B099808FB00F04FEAC9
:10106000902E09EB0A0058447044BDE8F08F000050
:101070002DE9F04780460F463946404603F078FA9E
:1010800006460EB900BFFEE716B90020BDE8F0879E
:101090004148006820B930460FF057FF3E490860CC
:1010A0003E48006820B930460FF092FE3B49086088
:1010B0001C2130460FF0E9FB04460CB900BFFEE7E7
:1010C0000CB90020E2E7207E20F0070020763448AB
:1010D00060603449A1603449E16034492161344998
:1010E0006161207E20F0080020763249304610F001
:1010F000ABF93149304610F0C6F88FBBB8F1000F9C
:1011000007D04FF001094946304604F008F800BF07
:1011100000BF0121304610F0ADF816F0B5FF0546CE
:10112000CDB1002130462A6900F08FF80121304608
:101130006A6900F08AF802213046AA6900F085F851
:1011400003213046EA6900F080F8042130462A6A1B
:1011500000F07BF803E03046616810F0C6F918E053
:10116000FFE738460FF07EFE0546287E217E60F3BD
:1011700002012176287EC108207E61F3C30020761B
:101180001422291D201DEFF7F8F8304610F03CF826
:1011900000BF30467AE70000D8010020DC010020C3
:1011A000C8E9002004EA002040EA00207CEA002090
:1011B000B8EA0020B1120208BD11020870B5054658
:1011C0000E461446022C01D1002070BD34B92246CF
:1011D00031462846064B1B68984707E0012C05D18D
:1011E000224631462846024B1B6898470120ECE70F
:1011F000DC01002070B5044620460FF033FE0546A2
:10120000287E00F0070070BD70B5044620460FF040
:1012100029FE0546287EC0F3C00070BD70B50646A5
:101220000C4630460FF01EFE0546287E00F00700F3
:10123000A04209D0287E64F302002876281D50F8C9
:101240002410304610F051F970BD2DE9F0410746E9
:101250000E46154638460FF005FE0446052E0ED202
:10126000DFE806F0030507090B00656007E0A560ED
:1012700005E0E56003E0256101E0656100BF00BFB6
:10128000207E00F00702201D50F82210384610F092
:101290002CF9BDE8F08170B506460C4630460FF0DB
:1012A000E1FD0546287E64F3C300287670BD00008A
:1012B0002DE9F84F82460D46904642462946504653
:1012C000824B1B6898470746012F02D03846BDE87D
:1012D000F88F50460FF0C6FD04465046FFF794FFC6
:1012E0000646072D12D1207E00F0070020B901210B
:1012F0005046FFF793FFE7E0207E00F0070002284A
:10130000F9D103215046FFF789FFDDE0092D13D104
:10131000207E00F00700012804D100215046FFF78D
:101320007DFFD1E0207E00F007000328E3D10221F9
:101330005046FFF773FFC7E0082D18D140460BF069
:1013400071FA0028D7D0207E00F00700012804D1D0
:1013500000215046FFF762FFB6E0207E00F0070054
:101360000328C8D102215046FFF758FFACE00A2DF0
:101370005CD140460BF056FAF0BB00200090207E76
:1013800000F00700012807D136B900215046FFF7C9
:1013900045FF0020009027E0207E00F00700032892
:1013A00007D136B902215046FFF738FF01200090DF
:1013B0001AE0207E00F00700012808D1012E06D196
:1013C00002215046FFF72AFF012000900CE0207E0A
:1013D00000F00700032807D1012E05D10021504657
:1013E000FFF71CFF002000905EB16A460E215046B8
:1013F00009F00AF9074600E004E0012F01D0384661
:1014000065E761E0207E00F00700012804D100219B
:101410005046FFF703FF57E0207E00F00700032847
:1014200052D102215046FFF7F9FE4DE0112D38D17F
:1014300098F80090B9F1130F02D0B9F1110F14D13F
:101440005046FFF7E1FE58B302215046FFF7E6FE93
:10145000012000906A460E21504609F0D5F8074653
:10146000012F01D0384632E71AE0B9F1140F02D04B
:10147000B9F1120F14D15046FFF7C6FE80B100211A
:101480005046FFF7CBFE002000906A460E215046E2
:1014900009F0BAF80746012F01D0384617E700BF18
:1014A00012E08DB1062D0FD14146002005E051F824
:1014B000202002B903E0421CD0B20728F7DB00BFAE
:1014C00003A241F8202000BF384600E7D8010020E1
:1014D0006C765F62746E000070B5044620460FF0B3
:1014E000C1FC0546287E00F0070030B1012809D074
:1014F00002280CD0032814D10EE002212046FFF769
:101500008DFE0FE003212046FFF788FE0AE0002150
:101510002046FFF783FE05E001212046FFF77EFE0F
:1015200000E000BF00BF70BD2DE9F04107460C464A
:10153000164638460FF096FC0546288CA04201DC82
:10154000BDE8F081A86830F81400B043A96821F81C
:10155000140021463846FCF708F800BFF0E72DE9F3
:10156000F04106460D4630460FF07CFC074600244D
:1015700006E02A4621463046FFF7D6FF601C84B2BB
:10158000388CA042F5DCBDE8F08100002DE9F04781
:1015900080460E46314640460FF08AF907460FB99D
:1015A00000BFFEE717B90020BDE8F0874948006892
:1015B00020B938460FF0C9FC464908602821384652
:1015C0000FF063F904460CB900BFFEE70CB9002028
:1015D000EAE7002020844FF6FF706084A08400209A
:1015E0006060A060206094F8260020F0010084F87C
:1015F000260094F8260020F0020084F826003648E1
:10160000E06036492161364961613649A161364958
:10161000E1613648006820B938460FF0D9FB3349FC
:101620000860334938460FF00FFF324938460FF053
:101630002AFE96BBC8224FF4967138460FF006FF7B
:101640002D49384600F0D6FA16F01EFD05462DB39A
:1016500000213846D5F8C42000F0F8FBC8204259D4
:101660000121384600F0F2FB02213846D5F8CC20A3
:1016700000F0ECFB03213846D5F8D02000F0E6FB63
:1016800004213846D5F8D42000F0E0FB0521384687
:10169000D5F8D82000F0DAFB04E004E0174938461A
:1016A0000FF023FF13E030460FF0DCFB0546142259
:1016B00005F10C0104F10C00EEF75FFE304600F07E
:1016C00003FA81464946384600F094FA00BF38468E
:1016D0006AE7000000020020C8E9002004EA0020B8
:1016E00040EA00207CEA0020B8EA0020FC0100204B
:1016F000B11E020801170208E001002050E9002095
:101700002DE9F74FA0B081469246BAF1020F08D1F9
:1017100052464846BB4B21991B68984723B0BDE809
:10172000F08FBAF1000F79D152464846B54B219956
:101730001B68984748460FF095FB044648460FF053
:1017400007FC834648460FF0DCFB1F901DA9484666
:101750000FF035FB002500260020099094F82600A4
:1017600000F0010008B101200990002542E101E0EC
:10177000701C86B2216851F82600A3A1EEF742FE44
:101780000028F5D0A16831F81500F7F79EFA00B1EE
:101790002CE1606800EBC5011BA8FEF728FFBDF82F
:1017A0006C00BDF87410084400B2ADF86C00BDF8D0
:1017B0006E00BDF87610084400B2ADF86E00BDF8BA
:1017C0007000BDF87410084400B2ADF87000BDF8A8
:1017D0007200BDF87610084400B2ADF872001BA884
:1017E000FEF781FF1A9000BFBDF87200BDF86E10C1
:1017F000401A401C00B21990A16831F81500F7F7A3
:101800005BFA8046A16831F81500F7F762FA30B14B
:101810000521484600F060F9074635E0EFE0608CAE
:10182000A84208D0B8F1000F05D10121484600F0C8
:1018300053F9074628E0608CA84208D1B8F1000FA0
:1018400005D10221484600F047F907461CE0608CAC
:10185000A84208D0B8F1010F05D10321484600F095
:101860003BF9074610E0608CA84208D1B8F1010F9F
:1018700005D10421484600F02FF9074604E0012174
:10188000484600F029F9074639460AA813F08CF9B2
:101890000AA8807B00F01000F0B3B9F91210BBF970
:1018A00016000844BDF96E10884205D10AA8807B55
:1018B00020F002010AA88173B9F91610BBF91800CB
:1018C000081ABDF97210884205D10AA8807B20F061
:1018D00001010AA8817336B90AA8807B20F00401AF
:1018E0000AA881730DE0711E226852F8210046A1FA
:1018F000EEF788FD28B90AA8807B20F004010AA829
:101900008173701C216851F82000007848B1711C67
:10191000226852F8210000E009E03BA1EEF772FDD9
:1019200028B90AA8807B20F008010AA881730AAAB6
:101930001BA81F9B219905F079FF387800F0010062
:1019400000B15F46786A08901DA8FEF7CCFE0690AD
:10195000B7F92A2006990998CDE90021029020685C
:1019600050F82610B7F9283007A8089A16F0C0FCDE
:10197000BDF91C201A99881A00EBD071BDF86C20B3
:1019800002EB610109B2ADF86C10BDF91E20199986
:10199000881A00EBD071BDF86E2002EB610109B22C
:1019A000ADF86E10BDF86C00BDF81C10084400B214
:1019B000ADF87000BDF86E00BDF81E10084400B20E
:1019C000ADF8720000204FF6FF71CDE90201CDE9BC
:1019D00004100998216851F82610CDE900103A4604
:1019E0001BA81F9B219904F06FFF00BF681C85B2E4
:1019F000701C86B2208CA8423FF7B9AE00BF012010
:101A00008CE60000FC0100200A00000070B50446CE
:101A100020460FF027FA0546A88C70BD70B5054624
:101A200028460FF01FFA0446A08C4FF6FF7188423B
:101A300004D0A18C284600F01BF870BD0020FCE704
:101A40002DE9F04107460C46154638460FF00AFAD4
:101A50000646308CA04202DC0020BDE8F081B06870
:101A600030F81400284008B10120F6E70020F4E720
:101A70002DE9F04180460F4640460FF0F3F9054648
:101A8000288CB84202DA0020BDE8F081002400264C
:101A90000CE0701C86B2601C84B2296851F82400E6
:101AA00008A1EEF7AFFC08B9601C84B2BE42F0D1C9
:101AB000288CB04201D10020E6E7286850F82400C5
:101AC000E2E700000A00000070B5044620460FF06F
:101AD000C9F90546286870BD2DE9F04106460D4656
:101AE000002730460FF0BEF90446062D13D2DFE87A
:101AF00005F003080A0C0E1030460FF029FA0746CD
:101B00000BE0E76809E0276907E0676905E0A76976
:101B100003E0E76901E0002700BF00BF3846BDE8E9
:101B2000F0812DE9F04107460C46164638460FF085
:101B300099F90546288CA04201DCBDE8F081A8682F
:101B400030F814003043A96821F8140021463846C3
:101B5000FBF70BFD00BFF0E72DE9F04106460D460F
:101B600030460FF07FF90746002406E02A4621465A
:101B70003046FFF7D6FF601C84B2388CA042F5DCFB
:101B8000BDE8F0812DE9F04107460C46164638467F
:101B90000FF068F90546288CA04201DCBDE8F08111
:101BA000A86830F8140020F00700A96821F8140094
:101BB000A86830F8140006F007010843A96821F866
:101BC00014003846296800F015F800BFE6E770B544
:101BD00005460E4628460FF045F90446218C4A007A
:101BE0003146A068EEF7C9FB2846216800F002F8EC
:101BF00070BD00002DE9F34F8DB08846B8F1000F9D
