:020000040801F1
:10000000A8AC0220C101010843630108C70201082E
:100010003F6301088D090108957B0108000000007D
:100020000000000000000000000000005374010800
:10003000E70A0108000000001302010855740108D6
:10004000DB010108DB010108DB010108DB0101081C
:10005000DB010108DB010108DB010108DB0101080C
:10006000DB010108DB010108DB010108DB010108FC
:10007000DB010108DB010108DB010108DB010108EC
:10008000DB010108DB010108DB010108DB010108DC
:10009000DB010108DB010108DB010108DB010108CC
:1000A000DB010108DB010108DB010108DB010108BC
:1000B000DB010108DB010108D9750108DB0101083A
:1000C000DB010108DB010108DB010108DB0101089C
:1000D000DB0101082D7B0108DB010108DB010108C0
:1000E000E90A0108DB010108DB010108DB01010865
:1000F000DB010108DB010108DB010108DB0101086C
:10010000DB010108D1630108DB010108DB01010803
:10011000DB010108DB010108DB010108DB0101084B
:10012000DB010108DB010108DB010108BD09010851
:10013000DB010108DB010108DB010108DB0101082B
:10014000DB010108DB010108DB010108DB0101081B
:10015000DB010108CD090108DB010108457B01082D
:10016000DB010108DB010108DB010108DB010108FB
:10017000DB010108DB010108DB01010800000000D0
:10018000DB010108DB010108DB010108DB010108DB
:10019000DB010108DB010108DB010108DB010108CB
:1001A000DB010108DB01010891090108DFF80CD02F
:1001B00000F084F90048004737050108A8AC022088
:1001C0000648804706480047FEE7FEE7FEE7FEE7F1
:1001D000FEE7FEE7FEE7FEE7FEE7FEE775750108CE
:1001E000AD010108EFF3108072B6704780F31088FC
:1001F0007047434A1368012B04D04FF0010313608A
:10020000404A1060404A116040484FF08051016000
:100210007047EFF3108272B63948016851B34FF05E
:10022000000101603748016891B1EFF309811EF0C8
:10023000100F08BF21ED108B21E9F00F4FF00004E3
:100240001EF0100F08BF012441F8044D0068016042
:100250002D490968096808C9B1E8F00F002B18BFDB
:10026000B1EC108B81F309884EF0100E002B18BFF3
:100270002EF0100E82F310884EF0040E70472249C3
:100280000860EFF3148222F0040282F314881D49FF
:100290004FF0000008601A494FF0010008601C4848
:1002A0004FF47F01D0F8002041EA020101601748B5
:1002B0004FF08051016017480068006880F308889B
:1002C00061B662B670471EF0040F0CBFEFF30880F2
:1002D000EFF3098020E9F00F40F804ED40F804ED59
:1002E0001EF0040F0CBF80F3088880F3098800B566
:1002F0001AF07CF95DF804EB4EF0040E7047000034
:10030000D8020020D0020020D402002004ED00E03A
:1003100020ED00E008ED00E02DE9F05F054600204B
:1003200092469B4688460646814640241BE0284666
:1003300041464746224600F0B0F853465A46C01A96
:10034000914110D311461846224600F097F82D1A15
:1003500067EB01084F4622460120002100F08EF88D
:1003600017EB00094E41201EA4F10104DFDC4846D2
:1003700031462A464346BDE8F09F10B540EA0104E5
:100380000346A40703D009E010C9121F10C3042AB2
:10039000FAD203E011F8014B03F8014B521EF9D2D7
:1003A00010BDD2B201E000F8012B491EFBD270470C
:1003B0000022F6E710B513460A4604461946FFF731
:1003C000F0FF204610BD421E12F8013F002BFBD16A
:1003D00011F8013B02F8013B002BF9D1704710B531
:1003E000044604E00B7800F8013B03B1491C521E9F
:1003F000F8D2204610BD421C10F8011B0029FBD189
:10040000801A704710B5002200E0521C835C8C5C9F
:10041000A34201D1002BF8D1D8B2E1B2401A10BDED
:10042000034611F8012B00F8012B002AF9D11846D8
:10043000704730B505460020034600E05B1C934240
:1004400005D2EC5CC85C201A01D1002CF6D130BD7D
:1004500030B50B46014600202022012409E021FA94
:1004600002F59D4205D303FA02F5491B04FA02F591
:100470002844151EA2F10102F1DC30BD202A04DB64
:10048000203A00FA02F1002070479140C2F12003A7
:1004900020FA03F3194390407047202A04DB203AE6
:1004A00021FA02F00021704721FA02F3D040C2F194
:1004B000200291400843194670470000064C074D42
:1004C00006E0E06840F0010394E807009847103424
:1004D000AC42F6D3FFF76EFE48AD050868AD0508DF
:1004E00070B58C1810F8015B15F0070301D110F8F6
:1004F000013B2A1106D110F8012B03E010F8016B23
:1005000001F8016B5B1EF9D12B0705D40023521EA5
:100510000DD401F8013BFAE710F8013BCB1A921C0D
:1005200003E013F8015B01F8015B521EF9D5A1420B
:10053000D8D3002070BD10B5FFF754FE1BF093FD1B
:10054000002010BD54494A6822F440324A604A688B
:1005500043681A434A600268526822F48072036852
:100560005A6002685368026943EA022203685A60CB
:100570000268526822F0407203685A60026852684A
:1005800083681A4303685A600268926822F4006222
:1005900003689A6002689268C3681A4303689A60A5
:1005A0003E4B826A9A4218D00268926822F07062CA
:1005B00003689A6002689268836A1A4303689A60C3
:1005C0000268926822F0405203689A60026892685A
:1005D000C36A1A4303689A600BE00268926822F0CB
:1005E000706203689A600268926822F04052036861
:1005F0009A600268926822F0020203689A600268B8
:100600009368826943EA420203689A60026AA2B16F
:100610000268526842F4006203685A6002685268D5
:1006200022F4604203685A6002685368426A521EAC
:1006300043EA423203685A6005E00268526822F4D5
:10064000006203685A600268D26A22F4700203688A
:10065000DA620268D36A828B521E43EA025203684E
:10066000DA620268926822F4007203689A60026893
:100670009368026B43EA422203689A6002689268B8
:1006800022F4806203689A6002689368426943EAD0
:10069000822203689A607047002301400100000F26
:1006A0007047000010B504462146024802F063FF7F
:1006B00010BD0000C0CD002010B5044802F06EFF50
:1006C000042801D0012010BD0020FCE7C0CD00208F
:1006D00010B51048104908600020486000210E48FD
:1006E0008160C160016141618161002400F016F800
:1006F000012801D0012010BD074803F063F804462B
:1007000034B94FF40061044802F0E8FD00B101245F
:100710002046F0E7002C0140C0CD002008B50120A4
:1007200000909DF8000008BD2DE9F04104460D46FB
:100730001646002733462A462146044803F084F92A
:1007400000B101273846BDE8F0810000C0CD00208F
:100750000120014908707047380000202DE9F0475A
:100760000646894617464FF0010A394806F082FAD4
:10077000002802DA5046BDE8F08706F003000028A2
:1007800064D13A4649463046FFF7CEFF48BB0020C9
:100790003049087000F036FF044600BF2D4800784D
:1007A00028B900F02FFF001B29498842F6D32948B9
:1007B000007810B94FF0010A48E000202549087080
:1007C00000F020FF044605E0FFF776FF10B94FF078
:1007D000000A05E000F016FF001B1D498842F3D314
:1007E00034E04FF0000828E0494609F101090122F0
:1007F0001948FFF799FF0546E5B90020154908702B
:1008000000F000FF044600BF1248007828B900F04D
:10081000F9FE001B0E498842F6D30E48007800B955
:100820000DE04FF400720C493046FFF7A6FD06F5C7
:10083000007600E003E008F10108B845D4D300BF1A
:10084000B84502D10DB94FF0000A00BF504692E7FB
:1008500000E1F5053800002004CF00202DE9F0412B
:1008600004460D461646002733462A4621460448CC
:1008700003F088F900B101273846BDE8F081000097
:10088000C0CD0020012001490870704737000020CA
:100890002DE9F0470746894690464FF0010A0020AF
:1008A00037490870374806F0E5F9002802DA504663
:1008B000BDE8F08707F0030000285ED142464946B4
:1008C0003846FFF7CBFF30BB00F09CFE044600BF6C
:1008D0002B48007828B900F095FE001B2949884272
:1008E000F6D32748007810B94FF0010A45E0002000
:1008F0002349087000F086FE044605E0FFF7DCFEA1
:1009000010B94FF0000A05E000F07CFE001B1D4905
:100910008842F3D331E0002627E000201849087010
:10092000494609F1010901221748FFF797FF0546DB
:10093000CDB900F067FE044600BF1148007828B921
:1009400000F060FE001B0F498842F6D30C48007887
:1009500000B90CE04FF400720B493846FFF70DFD6B
:1009600007F5007700E002E0761C4645D5D300BFCE
:10097000464502D10DB94FF0000A504698E70000F5
:100980003700002000E1F50504CF002000BFFEE79E
:1009900010B50848406800F0020048B1054880687A
:1009A00040F0020003498860034800680EF04EFDE5
:1009B00010BD000000B002403001002010B5024818
:1009C00000F0F2FA10BD000044CE002010B502483D
:1009D00000F0EAFA10BD0000A4CE0020014608781D
:1009E00010381823B0FBF3F20848805CC865032A6E
:1009F00005D908686FF30900001D886503E00868E1
:100A00006FF309008865886D70470000D0AA05085B
:100A1000014600208A6A8B69CBB932B1012A0DD018
:100A2000022A03D0032A10D10EE000BFCB6A03F0E4
:100A30008073B3F1807F00D1012007E0CB6AB3F16E
:100A4000C07F00D1012001E000E000BF34E08B69ED
:100A5000B3F5005F1AD132B1012A07D0022A03D0C0
:100A6000032A11D10AE000BF01200EE0CB6A03F097
:100A70008073B3F1807F00D1012006E0CB6AB3F12F
:100A8000C07F00D1012000E000BF15E032B1012A93
:100A900005D0022A04D0032A0CD103E000BF00BF16
:100AA000012008E0CB6A03F08073B3F1807F00D1AE
:100AB000012000E000BF00BF704730B50468246823
:100AC00024F4802405682C60046863608468402CEA
:100AD00004D10468A2600468E16003E00468A160D6
:100AE0000468E26030BD704710B54FF4806000F0DC
:100AF0005FFC10BD704730B504460D460022294604
:100B0000204600F001F830BDF0B503460125002471
:100B10001148807B02281CDA00200F4EB67B0E4F56
:100B2000B8553846867B001D40F82630001F867B6E
:100B30000C3082553E46B07B461CBE73044604F121
:100B4000300008703A2048702F2088700020C8704C
:100B500000252846F0BD0000B864022030B50246EA
:100B6000002300240868012816D013686FF30E03D1
:100B7000D1E901052843CD6828430D6928434D6913
:100B800028438D692843CD6928430D6A28434D6A5F
:100B900028430343136019E0136823F4F843D1E9B1
:100BA000070528434D6A2843034354686FF30E0436
:100BB000D1E901052843CD6828430D6928434D69D3
:100BC00028438D692843044313605460002030BDDE
:100BD0000246506940EA4100506100207047F8B574
:100BE00006460C461546002000900027D4E9000177
:100BF0000843A168491E40EA4110E16840EA4120EB
:100C000000900098306100F0FDFC074609E0681C88
:100C100038B125B100F0F6FCC01BA84201D9032071
:100C2000F8BDB06900F020000028F0D100BFF7E760
:100C300070B50346154600220024012D1FD09A6886
:100C400002F070420868401E4E68761E40EA0616A2
:100C50008868401E46EA0026C868401E46EA0036FC
:100C6000088A401E46EA0046888A401E46EA005628
:100C7000087E401E46EA006002439A6022E09A68BD
:100C800011480240C868401E0603888A401E46EA92
:100C900000500243DC6804F070440868401E4E684F
:100CA000761E40EA06168868401E46EA0026088A34
:100CB000401E46EA0046087E401E46EA00600443A5
:100CC0009A60DC60002070BDFF0F0FFF38B5024650
:100CD0000020009000BF92F83C00012801D10220C2
:100CE00038BD012082F83C0000BF0868092816D9E9
:100CF0001068C0680C780A3C04EB44050724AC403B
:100D0000A0431468E0600C780A3C04EB4404886853
:100D1000A0401468E46820431468E06013E01068A1
:100D200000690C7804EB44050724AC40A043146828
:100D300020610C7804EB44048868A040146824699E
:100D40002043146820614868072817D21068406B58
:100D50000C79641E04EB84051F24AC40A043146886
:100D60006063088880B20C79641E04EB8404A040A0
:100D70001468646B20431468606331E048680D2890
:100D800017D21068006B0C79E41F04EB84051F2454
:100D9000AC40A04314682063088880B20C79E41F3B
:100DA00004EB8404A0401468246B2043146820637F
:100DB00016E01068C06A0C790D3C04EB84051F2412
:100DC000AC40A0431468E062088880B20C790D3C06
:100DD00004EB8404A0401468E46A20431468E062D1
:100DE0001A4B1B4C1068A04206D10868122803D188
:100DF000586840F480005860154C1068A0421ED11D
:100E0000144C0868A04202D00868112817D158680D
:100E100040F4000058600F4C0868A0420FD10E4803
:100E200000680E4CB0FBF4F000EB80004000009036
:100E300002E00098401E009000980028F9D100BF01
:100E4000002082F83C0000BF00BF49E700230140BA
:100E500000200140120000104400002040420F001A
:100E600070B5044600250CB9012070BD1549A06A73
:100E7000884200D000BF206C30B90020606484F844
:100E80003C00204600F020F8206C00F0100088B9EB
:100E9000206C20F4885040F0020020642046FFF7C8
:100EA00051FB00206064206C20F0020040F0010043
:100EB000206400E0012500BF002084F83C0000BF52
:100EC0002846D2E70100000F10B586B00446142171
:100ED00001A8FFF76DFA26492068884245D100BF76
:100EE000002000902348006840F480602149086099
:100EF0000846006800F48060009000BF00BF00BF9B
:100F0000002000901B481438006840F02000194968
:100F1000143908600846006800F02000009000BF07
:100F200000BF00BF002000900846006840F00400A9
:100F300008600846006800F00400009000BF00BF91
:100F40004FF440700190032002900020039001A90B
:100F5000094800F03BFA0220019003200290002093
:100F6000039001A9054800F031FA06B010BD000059
:100F700000220140443802400014024000080240B0
:100F8000014691F83500022803D0802048650120F1
:100F90007047052081F835000868006820F00100DE
:100FA0000A6810600020F3E7F8B5044600200090BE
:100FB0008C4800684FF41651B0FBF1F7A56D2E6810
:100FC00094F85C1008208840304098B12068006890
:100FD00000F0040070B12068006820F0040021686F
:100FE000086094F85C1008208840A860606D40F0AC
:100FF0000100606594F85C1001208840304068B1C1
:101000002068406900F0800040B194F85C10012035
:101010008840A860606D40F00200606594F85C1044
:1010200004208840304068B12068006800F0020069
:1010300040B194F85C1004208840A860606D40F0D6
:101040000400606594F85C1010208840304078B34C
:101050002068006800F0080050B394F85C1010207D
:101060008840A8602068006800F4802080B1206873
:10107000006800F4002028B9206CC8B12046216C1B
:10108000884715E0A06C98B12046A16C88470FE016
:101090002068006800F4807028B92068006820F09B
:1010A000080021680860206C10B12046216C884738
:1010B00094F85C10202088403040002865D02068DB
:1010C000006800F0100000285FD094F85C10202029
:1010D0008840A86094F83500052828D12068006869
:1010E00020F01600216808602068406920F0800028
:1010F00021684861206C08B9A06C28B1206800689C
:1011000020F008002168086094F85C103F208840B7
:10111000A86000BF002084F8340000BF012084F8DC
:101120003500206D10B12046216D8847F8BD20683C
:10113000006800F4802080B12068006800F400207E
:1011400028B9606C10B12046616C88471DE0E06BE7
:10115000D8B12046E16B884717E02068006800F4AA
:10116000807068B92068006820F01000216808606D
:1011700000BF002084F8340000BF012084F835004F
:10118000E06B10B12046E16B8847606D38B3606D4D
:1011900000F00100F0B1052084F8350020680068F7
:1011A00020F001002168086000BF0098401C0090FA
:1011B000B84200D905E02068006800F0010000286E
:1011C000F3D100BF00BF002084F8340000BF01202D
:1011D00084F83500E06C10B12046E16C884700BF10
:1011E000A4E70000440000202DE9F041044600255A
:1011F00000F008FA074614B90120BDE8F081606AE2
:1012000000B100BF00BF002084F8340000BF0220FE
:1012100084F835002068006820F00100216808602B
:101220000AE000F0EFF9C01B052805D92020606511
:10123000032084F83500E0E72068006800F0010032
:101240000028EED12068056821480540D4E9010155
:101250000843E16808432169084361690843A169BB
:101260000843E1690843216A08430543606A04288A
:1012700003D1D4E90B0108430543206805602068C9
:10128000456925F00705606A0543606A04280DD1A9
:10129000A06A0543E06A48B12046FFF7B9FB28B1D0
:1012A00040206065012084F83500A6E7206845618C
:1012B0002046FFF793FB064694F85C103F208840D9
:1012C000B06000206065012084F83500002094E7BC
:1012D0003F8010F02DE9F04704460D4616461F46A4
:1012E0004FF00008D4F8589000BF94F8340001285B
:1012F00002D10220BDE8F087012084F8340000BF4D
:1013000094F8350001282BD1022084F83500002004
:1013100060653B46324629462046FFF7CEFB94F8EF
:101320005C103F208840C9F808002068006840F041
:101330001600216808602068406940F0800021683C
:101340004861206C28B12068006840F008002168DE
:1013500008602068006840F001002168086006E02D
:1013600000BF002084F8340000BF4FF00208404660
:10137000C0E7000070B5044600F044F90646254673
:10138000681C10B104480078054400BF00F03AF929
:10139000801BA842FAD370BD74030020B0F5806FA3
:1013A00002D10121014A11757047000054CD00207F
:1013B00010B5044604480068204020B1024804608B
:1013C0002046FFF7EBFF10BD143C0140F8B5024684
:1013D0000B460025002400200021E6E0012606FA45
:1013E00001F51E6806EA0504AC4273D15E68022E60
:1013F00002D05E68122E13D1CF0802F1200656F8F3
:1014000027004E07F70E0F26BE40B0434F07FF0ED2
:101410001E69BE403043CF0802F1200646F827007F
:1014200010684F000326BE40B0431E7906F0030645
:101430004F00BE40304310605E68012E08D05E68E9
:10144000022E05D05E68112E02D05E68122E13D1D6
:1014500090684F000326BE40B0434F00DE68BE4098
:1014600030439060506801268E40B0431E79C6F329
:1014700000168E4030435060D0684F000326BE40B7
:10148000B0434F009E68BE403043D0605E6806F0B7
:101490008056B6F1805FA8D100BF00260096454E69
:1014A000366846F48046434F3E603E46366806F452
:1014B0008046009600BF00BF3F4E8F0856F82700B9
:1014C0008E07370F0F26BE40B0433C4EB24202D1CA
:1014D00000262EE068E03A4EB24201D1012628E013
:1014E000384EB24201D1022623E0374EB24201D13A
:1014F00003261EE0354EB24201D1042619E0344ED7
:10150000B24201D1052614E0324EB24201D1062684
:101510000FE0314EB24201D107260AE02F4EB2420F
:1015200001D1082605E02E4EB24201D1092600E085
:101530000A268F073F0FBE4030431F4E8F0846F8E4
:101540002700284E3068A0435E6806F48036B6F562
:10155000803F00D12043234E3060361D3068A043C9
:101560005E6806F40036B6F5003F00D120431D4EFC
:10157000361D3060361D3068A0435E6806F4801664
:10158000B6F5801F00D12043164E08363060361D58
:101590003068A0435E6806F40016B6F5001F00D15F
:1015A0002043104E0C363060491C1029FFF416AF52
:1015B000F8BD0000443802400838014000000240F5
:1015C0000004024000080240000C024000100240EB
:1015D0000014024000180240001C0240002002409B
:1015E00000240240003C0140024613690B400BB14D
:1015F000012000E0002070470AB1816101E00B0486
:101600008361704701480068704700006C03002048
:10161000024692F83D0020281ED1242082F83D0089
:101620001068006820F00100136818601068406AB4
:1016300020F01000136858621068406A084313686D
:1016400058621068006840F001001368186020209C
:1016500082F83D00002070470220FCE710B50246EA
:101660000B46002192F83D0020281DD1242082F84D
:101670003D001068006820F00100146820601068C8
:10168000406A81B221F00F0141EA030081B2106883
:1016900041621068006840F001001468206020205A
:1016A00082F83D00002010BD0220FCE770B5044622
:1016B000002600250CB9012070BD94F83D0028B922
:1016C000002084F83C00204600F03AFD242084F8F5
:1016D0003D002068006820F001002168086001F0EA
:1016E00033FA05463948B5FBF0F6206846603849BC
:1016F0006068884201D8701C07E04FF49670704310
:101700004FF47A71B0FBF1F0401C21680862304957
:10171000606888420ED860684000B5FBF0F0C0F306
:101720000B00042801D204202DE060684000B5FBC6
:10173000F0F028E0A06828B9606800EB4000B5FB35
:10174000F0F008E0606800EBC00101EB0010B5FBB1
:10175000F0F040F48040C0F30B0008B9012012E023
:10176000A06828B9606800EB4000B5FBF0F008E025
:10177000606800EBC00101EB0010B5FBF0F040F435
:10178000804040F400402168C861D4E90701084363
:1017900021680860D4E90310084321688860D4E90F
:1017A000050108432168C8602068006840F0010016
:1017B0002168086000202064202084F83D0000207B
:1017C000206384F83E0000BF76E7000040420F002F
:1017D000A08601002DE9F84304468946174698463D
:1017E000089E0025FFF70EFF054694F83D002028CF
:1017F0007CD119230122BE492046009503F077F8D9
:1018000010B10220BDE8F88300BF94F83C00012825
:1018100001D10220F6E7012084F83C0000BF2068D7
:10182000006800F0010028B92068006840F001005D
:10183000216808602068006820F400602168086062
:10184000222084F83D00102084F83E00002020640F
:101850006762A4F82A80A748E062608D20852B4645
:1018600032464946204602F003FE80B1206C04282F
:1018700006D100BF002084F83C0000BF0120C1E772
:1018800000BF002084F83C0000BF0320BAE7208D91
:1018900088B900BF0020009020684069009020684F
:1018A0008069009000BF00BF2068006840F40070AD
:1018B0002168086046E0208D012818D12068006862
:1018C00020F480602168086000BF0020009020683C
:1018D0004069009020688069009000BF00BF2068C8
:1018E000006840F40070216808602BE0FEE0208D65
:1018F000022816D12068006820F480602168086002
:101900002068006840F400602168086000BF002083
:10191000009020684069009020688069009000BFB6
:1019200010E02068006840F480602168086000BF13
:101930000020009020684069009020688069009035
:1019400000BF00BFC3E0208D032872D8208D01287E
:101950001AD12A463146204603F05DF830B1206C9A
:10196000202801D103204DE701204BE720680069C2
:10197000C1B2626A501C60621170208D401E2085C9
:10198000608D401E6085A2E0208D02282AD133465A
:10199000002259492046009502F0A9FF08B1032012
:1019A00030E72068006840F4007021680860206813
:1019B0000069C1B2626A501C60621170208D401EC5
:1019C0002085608D401E608520680069C1B2626A12
:1019D000501C60621170208D401E2085608D401E5D
:1019E000608574E03346002243492046009502F0AA
:1019F0007EFF08B1032005E72068006820F48060BE
:101A00002168086020680069C1B2626A501C606287
:101A10001170208D401E2085608D401E60853346EC
:101A2000002235492046009502F061FF10B10320E5
:101A3000E8E620E02068006840F400702168086053
:101A400020680069C1B2626A501C60621170208D0A
:101A5000401E2085608D401E608520680069C1B2EF
:101A6000626A501C60621170208D401E2085608D5E
:101A7000401E60852BE02A463146204602F0CBFF0F
:101A800030B1206C202801D10320BBE60120B9E64B
:101A900020680069C1B2626A501C60621170208DBA
:101AA000401E2085608D401E608520684069C0F31F
:101AB000800060B120680069C1B2626A501C606237
:101AC0001170208D401E2085608D401E6085208D08
:101AD00000287FF438AF202084F83D00002084F8EF
:101AE0003E0000BF84F83C0000BF8BE6022089E680
:101AF000020010000000FFFF040001002DE9F84380
:101B00000446894616461F46DDF820800025FFF76B
:101B100079FD054694F83D0020287DD11923012246
:101B200059492046009502F0E2FE10B10220BDE8BE
:101B3000F88300BF94F83C00012801D10220F6E7A9
:101B4000012084F83C0000BF2068006800F001001C
:101B500028B92068006840F001002168086020680A
:101B6000006820F4006021680860212084F83D00AE
:101B7000102084F83E000020206466626785434898
:101B8000E062608D20852B4642464946204602F0A1
:101B900007FD80B1206C042806D100BF002084F826
:101BA0003C0000BF0120C2E700BF002084F83C00D9
:101BB00000BF0320BBE700BF002000902068406901
:101BC000009020688069009000BF00BF46E02A4670
:101BD0004146204602F056FF60B1206C042807D130
:101BE0002068006840F400702168086001209EE7CA
:101BF00003209CE7616A481C6062087821680861DC
:101C0000608D401E6085208D401E208520684069C3
:101C1000C0F3800078B100E034E0208D58B1616AF3
:101C2000481C6062087821680861608D401E6085EC
:101C3000208D401E20852A464146204602F02CFE7B
:101C400060B1206C042807D12068006840F400705F
:101C50002168086001206AE7032068E7208D0028DA
:101C6000B5D12068006840F4007021680860202029
:101C700084F83D00002084F83E0000BF84F83C005A
:101C800000BF54E7022052E7020010000000FFFFEF
:101C90002DE9FC5F04460F4690469946DDE90CAB02
:101CA0000E9E0025FFF7AEFC054694F83D00202867
:101CB0007ED119230122BD492046009502F017FE6E
:101CC00010B10220BDE8FC9F00BF94F83C00012841
:101CD00001D10220F6E7012084F83C0000BF206813
:101CE000006800F0010028B92068006840F0010099
:101CF000216808602068006820F40060216808609E
:101D0000222084F83D00402084F83E00002020641A
:101D1000C4F824A0A4F82AB0A548E062608D20850C
:101D20004B46424639462046CDE9006502F098FC14
:101D300080B1206C042806D100BF002084F83C004C
:101D400000BF0120BEE700BF002084F83C0000BFB8
:101D50000320B7E7208D88B900BF002001902068DC
:101D60004069019020688069019000BF00BF206831
:101D7000006840F400702168086041E0208D01286F
:101D800019D12068006820F480602168086000BFD5
:101D900000200190206840690190206880690190CE
:101DA00000BF00BF2068006840F40070216800E0B8
:101DB000FAE0086024E0208D022816D1206800682F
:101DC00020F48060216808602068006840F40060AA
:101DD0002168086000BF00200190206840690190E0
:101DE00020688069019000BF0AE000BF00200190D8
:101DF00020684069019020688069019000BF00BFA1
:101E0000C3E0208D032872D8208D01281AD12A46DC
:101E10003146204602F0FFFD30B1206C202801D170
:101E200003204FE701204DE720680069C1B2626AD4
:101E3000501C60621170208D401E2085608D401EF8
:101E40006085A2E0208D02282AD13346002259491C
:101E50002046009502F04BFD08B1032032E72068D0
:101E6000006840F400702168086020680069C1B211
:101E7000626A501C60621170208D401E2085608D4A
:101E8000401E608520680069C1B2626A501C6062B1
:101E90001170208D401E2085608D401E608574E08D
:101EA0003346002243492046009502F020FD08B148
:101EB000032007E72068006820F48060216808603C
:101EC00020680069C1B2626A501C60621170208D86
:101ED000401E2085608D401E6085334600223549B6
:101EE0002046009502F003FD10B10320EAE620E051
:101EF0002068006840F4007021680860206800696C
:101F0000C1B2626A501C60621170208D401E208533
:101F1000608D401E608520680069C1B2626A501CF5
:101F200060621170208D401E2085608D401E60858E
:101F30002BE02A463146204602F06DFD30B1206C80
:101F4000202801D10320BDE60120BBE620680069FE
:101F5000C1B2626A501C60621170208D401E2085E3
:101F6000608D401E608520684069C0F3800060B1CC
:101F700020680069C1B2626A501C60621170208DD5
:101F8000401E2085608D401E6085208D00287FF4D6
:101F900038AF202084F83D00002084F83E0000BFC8
:101FA00084F83C0000BF8DE602208BE602001000A2
:101FB0000000FFFF040001002DE9FC5F04460F460E
:101FC00090469946DDE90CAB0E9E0025FFF71AFB03
:101FD000054694F83D0020287ED119230122564958
:101FE0002046009502F083FC10B10220BDE8FC9F62
:101FF00000BF94F83C00012801D10220F6E701203F
:1020000084F83C0000BF2068006800F0010028B997
:102010002068006840F001002168086020680068BE
:1020200020F4006021680860212084F83D004020F1
:1020300084F83E0000202064C4F824A0A4F82AB04C
:102040003E48E062608D20854B4642463946204638
:10205000CDE9006502F0B0FB80B1206C042806D108
:1020600000BF002084F83C0000BF0120BEE700BF95
:10207000002084F83C0000BF0320B7E733E02A4685
:102080003146204602F0FEFC60B1206C042807D1E6
:102090002068006840F40070216808600120A5E70E
:1020A0000320A3E7616A481C606208782168086120
:1020B000208D401E2085608D401E6085206840690F
:1020C000C0F3800078B1208D68B1616A481C6062FD
:1020D00008782168086100E02CE0208D401E2085F2
:1020E000608D401E6085208D0028C8D12A4631466B
:1020F000204602F0D1FB60B1206C042807D1206893
:10210000006840F400702168086001206EE7032039
:102110006CE72068006840F40070216808602020A7
:1021200084F83D00002084F83E0000BF84F83C00A5
:1021300000BF5BE7022059E7020010000000FFFF2C
:1021400010B586B00446142101A8FEF731F91B49E9
:102150002068884230D100BF0020009018480068F5
:1021600040F08000164908600846006800F08000D2
:10217000009000BF00BF4FF4C07001901220029089
:1021800001200390032004900420059001A90D482C
:10219000FFF71CF900BF00200090094810300068CC
:1021A00040F400000649103108600846006800F459
:1021B0000000009000BF00BF06B010BD005C0040F2
:1021C00030380240001C0240034800680349097887
:1021D00008440149086070476C0300207403002024
:1021E00010B50D48006840F400700B4908600846BF
:1021F000006840F4806008600846006840F4807021
:102200000860032000F014FA002000F007F800F046
:102210009FF9002010BD0000003C024070B504464C
:102220000E4800784FF47A71B1FBF0F00C49096860
:10223000B1FBF0F5284601F00CFF08B1012070BD9C
:10224000102C07D200222146501E00F0B2F905489A
:10225000046001E00120F2E70020F0E774030020B1
:10226000440000207003002070B504460E46154659
:1022700000BF94F8A000012801D1022070BD012008
:1022800084F8A00000BF022084F8A10005EB8501BE
:1022900001EBC50204F1380101EB82003422314622
:1022A000FEF76BF82A463146204603F03FFF012037
:1022B0002168486284F8A10000BF002084F8A000D3
:1022C00000BF00BFDAE7000070B504460025002615
:1022D0000CB9012070BD94F8A10028B9002084F841
:1022E000A000204600F07EF8022084F8A1002068BB
:1022F000806920F0704021688861D4E901010843B9
:10230000E168084321690843216889690843216815
:102310008861206880683249084021688860A08A06
:10232000050420688068A169294308432168886002
:102330002068C0682A4908402168C860A08B05044D
:102340002068C068216A294308432168C860206862
:1023500000692349084021680861A08C05042068B1
:102360000069A16A2943084321680861206840691F
:102370001B49084021684861A08D05042068406918
:10238000216B294308432168486194F83500050210
:1023900094F8360006042068C06A00F07F40216887
:1023A000C86246EA050094F8341008432168C96AF7
:1023B00008432168C8622068406B40F0060021682D
:1023C00048632068806940F001002168886100202E
:1023D000C4F8A400012084F8A10000207AE70000DE
:1023E00000F800F010B586B00446142101A8FDF7EE
:1023F000DFFF5149206888427ED100BF0020009055
:102400004E48006840F080604C490860084600680B
:1024100000F08060009000BF00BF00BF002000906F
:1024200046481438006840F40000444914390860F4
:102430000846006800F40000009000BF00BF00BF25
:10244000002000900846006840F48070086008464C
:10245000006800F48070009000BF00BF00BF002043
:1024600000900846006840F02000086008460068B8
:1024700000F02000009000BF00BF00BF00200090CF
:102480000846006840F0800008600846006800F0D8
:102490008000009000BF00BF00BF002000900846F1
:1024A000006840F0400008600846006800F0400006
:1024B000009000BF00BF40F2F76001900220029040
:1024C00000200390022004900E20059001A91C48D2
:1024D000FEF77CFF4FF48060019002200290002004
:1024E0000390022004900E20059001A91548FEF7E4
:1024F0006DFF4FF47E4000E01BE00190022002904F
:1025000000200390022004900E20059001A90E489F
:10251000FEF75CFF4FF40C60019002200290002057
:102520000390022004900E20059001A90748FEF7B1
:102530004DFF06B010BD0000006801404438024065
:102540000020024000140240001C0240001802401B
:1025500008B500BF002000900E48006840F480409D
:102560000C4908600846006800F48040009000BFF5
:1025700000BF00BF00200090081F006840F080509E
:10258000091F08600846006800F08050009000BFF6
:1025900000BF08BD4438024000BF00F01F02012107
:1025A00091404209920002F1E022C2F8001100BFFE
:1025B00070472DE9F05F80460D461646002703F070
:1025C000C1FE074639462A46334601F00700C0F1EE
:1025D000070ABAF1040F02D94FF0040A01E0C0F172
:1025E000070AD14600F1040ABAF1070F02D24FF0F0
:1025F000000A01E0A0F1030AD4464FF0010A0AFAEA
:1026000009FAAAF1010A0AEA020A0AFA0CFA4FF0D8
:10261000010B0BFA0CFBABF1010B0BEA030B4AEAC3
:102620000B042146404603F095FEBDE8F09F0000F4
:1026300000BF00F00702064B19684FF6FF03194070
:10264000044B0B4343EA0221014B196000BF704762
:102650000CED00E00000FA0538B5002400BF0020B2
:1026600000901D48006840F080501B4908600846F3
:10267000006800F08050009000BF00BF01201749A3
:102680000864FEF7BFFF044607E0FEF7BBFF001B30
:10269000B0F57A7F01D9032038BD1148406800F4B5
:1026A0008030B0F5803FF0D101200C494864FEF73E
:1026B000A9FF044607E0FEF7A5FF001BB0F57A7FEF
:1026C00001D90320E8E70648406800F40030B0F57F
:1026D000003FF0D10020DFE74038024000000E420A
:1026E00000700040F8B5044600250026207800F070
:1026F000010020B9207800F00200022852D1002009
:10270000A8498866FEF77EFF054606E0FEF77AFFD9
:10271000401B022801D90320F8BDA3480068C0F37C
:10272000C0600028F2D1207800F0010038B1606864
:102730008101207A41EA00709B4984310860207849
:1027400000F00200022819D1974884300068C0F3D5
:10275000027660688101207B41EA006040EA0670F1
:1027600091498431086090488C30006820F01F0047
:10277000E169491E08438C498C3108600120894970
:102780008866FEF73FFF054606E0FEF73BFF401B6D
:10279000022801D90320BFE783480068C0F3C06066
:1027A0000028F2D0207800F00400042804D020781B
:1027B00000F00800082863D100207A490867FEF776
:1027C00021FF054606E0FEF71DFF401B022801D948
:1027D0000320A1E774480068C0F340700028F2D1DC
:1027E000207800F00400042819D16F488830006870
:1027F000C0F3027620698101207D41EA006040EA51
:102800000670694988310860081D006820F4F85195
:10281000206A401E41EA002063498C31086020781C
:1028200000F00800082817D15F4888300068C0F31E
:1028300003662069800140EA0661207E41EA00705B
:10284000594988310860081D006820F44030616AE9
:10285000084355498C310860012052490867FEF74A
:10286000D1FE054606E0FEF7CDFE401B022801D949
:10287000032051E74C480068C0F340700028F2D0B4
:10288000207800F0200020287ED100BF002000909A
:1028900045484030006840F080504349403108606E
:1028A0000846006800F08050009000BF00BF3F481D
:1028B000006840F480703D490860FEF7A3FE0546BD
:1028C00006E0FEF79FFE401B022801D9032023E704
:1028D0003648006800F480700028F2D0324870302A
:1028E000006800F440764EB3208D00F44070B04292
:1028F00024D02D487030006820F4407601202C4907
:10290000086000200860284870300660006800F009
:10291000010098B1FEF776FE054608E0FEF772FE6C
:10292000401B41F28831884201D90320F4E61E4859
:1029300070300068C0F340000028EFD000BF208D49
:1029400000F44070B0F5407F0CD1174808300068A3
:1029500020F4F810174AA16A1140084312490831BF
:10296000086007E010480830006820F4F8100E49AD
:10297000083108600C4870300068218DC1F30B01EC
:1029800008430949703100E001E0086000BF207889
:1029900000F01000102803D194F82C0006490860BC
:1029A0000020B9E6000047420038024000700040B5
:1029B000400E4742FFFCFF0FE011474270B504464E
:1029C0000D460CB9012070BD5848006800F00F009A
:1029D000A84209D255490D700846006800F00F0062
:1029E000A84201D00120EEE7207800F00200022882
:1029F0001DD1207800F00400042805D14C4800685F
:102A000040F4E0504A490860207800F008000828A7
:102A100005D14748006840F4604045490860444893
:102A2000006820F0F000A168084341490860207860
:102A300000F00100A8B36068012807D13C480838BD
:102A40000068C0F34040B8B90120BCE760680228C4
:102A500002D06068032807D1354808380068C0F301
:102A6000406048B90120AEE7314808380068C0F33B
:102A7000400008B90120A6E72D48006820F00300B7
:102A8000616808432A490860FEF7BCFD064609E074
:102A9000FEF7B8FD801B41F28831884202D903203D
:102AA00091E707E02248006800F00C006168B0EB95
:102AB000810FEDD11D48006800F00F00A84209D930
:102AC0001A490D700846006800F00F00A84201D0B6
:102AD000012078E7207800F00400042807D114488A
:102AE000006820F4E050E16808431149086020784C
:102AF00000F00800082808D10D48006820F4604064
:102B0000216940EAC1000A49086000F03DF808491F
:102B10000968C1F30311074A515CC84006490860BF
:102B20000020FFF77BFB00204DE70000003C024047
:102B30000838024094CD0208440000200148006893
:102B4000704700004400002000B5FFF7F7FF04497C
:102B50000968C1F38221034A515CC84000BD0000EE
:102B600008380240A4CD020800B5FFF7E7FF04498A
:102B70000968C1F34231034A515CC84000BD0000FE
:102B800008380240A4CD02082DE9F04700240025B2
:102B90000026A1462548006800F00C0020B104285A
:102BA00005D008283AD105E0DFF8849039E0DFF855
:102BB000849036E01D48001F006800F03F041B4869
:102BC000001F006800F4800078B11A481749091FF7
:102BD0000968C1F38811A0FB017001462246002359
:102BE0003846FDF799FB05460EE011480F49091FCD
:102BF0000968C1F38811A0FB017001462246002339
:102C00003846FDF789FB05460848001F0068C0F3F9
:102C10000140401C4600B5FBF6F902E0DFF81090D9
:102C200000BF00BF4846BDE8F087000008380240FA
:102C30000024F40040787D01F8B504460CB9012069
:102C4000F8BD207800F00100002874D0F948006831
:102C500000F00C0004280DD0F648006800F00C00CD
:102C6000082813D1F348001F006800F48000B0F575
:102C7000800F0BD1EF4808380068C0F340400028AF
:102C800059D06068002856D10120D9E700BF60689C
:102C9000B0F5803F08D1E7480838006840F480303C
:102CA000E449083908601EE06068B0F5A02F0DD136
:102CB000E0480838006840F48020DE4908390860A0
:102CC0000846006840F4803008600CE0D9480838B5
:102CD000006820F48030D749083908600846006849
:102CE00020F48020086000BF606890B1FEF78AFC85
:102CF000054606E0FEF786FC401B642801D9032048
:102D00009EE7CC4808380068C0F340400028F1D066
:102D100011E0FEF777FC054606E0FEF773FC401B6A
:102D2000642801D903208BE7C24808380068C0F343
:102D300040400028F1D1207800F0020002285FD145
:102D4000BC48006800F00C0058B1BA48006800F0B8
:102D50000C0008281CD1B748001F006800F4800050
:102D6000B0B9B44808380068C0F3400020B1E0684A
:102D7000012801D0012063E7AE480838006820F040
:102D8000F800216940EAC100AA490839086037E023
:102D9000E06800B30120A8490860FEF733FC05464F
:102DA00006E0FEF72FFC401B022801D9032047E76D
:102DB000A04808380068C0F340000028F1D09D48C2
:102DC0000838006820F0F800216940EAC1009949FC
:102DD0000839086014E0002097490860FEF712FCEB
:102DE000054606E0FEF70EFC401B022801D9032031
:102DF00026E7904808380068C0F340000028F1D169
:102E0000207800F0080008282CD16069A8B10120C2
:102E10008A490860FEF7F6FB054606E0FEF7F2FB7E
:102E2000401B022801D903200AE782486C30006861
:102E3000C0F340000028F1D014E000207F49086072
:102E4000FEF7E0FB054606E0FEF7DCFB401B022830
:102E500001D90320F4E677486C300068C0F34000E5
:102E60000028F1D1207800F00400042870D1002659
:102E700070483830006800F0805090B900BF0020E2
:102E800000906C483830006840F080506949383113
:102E900008600846006800F08050009000BF00BF46
:102EA00001266748006800F48070B0B96448006883
:102EB00040F4807062490860FEF7A4FB054606E016
:102EC000FEF7A0FB401B022801D90320B8E65C48AE
:102ED000006800F480700028F2D000BFA0680128CC
:102EE00008D154486830006840F001005149683109
:102EF00008601DE0A06805280DD14E4868300068C4
:102F000040F004004B49683108600846006840F012
:102F1000010008600CE047486830006820F00100BC
:102F20004449683108600846006820F004000860E1
:102F300000BFA068A8B1FEF765FB054609E0FEF7F3
:102F400061FB401B41F28831884202D9032077E6B9
:102F500026E0384868300068C0F340000028EED012
:102F600013E0FEF74FFB054608E0FEF74BFB401B66
:102F700041F28831884201D9032061E62D4868304A
:102F80000068C0F340000028EFD1012E07D1294886
:102F90003830006820F0805026493831086000BF82
:102FA000A069B8B32348006800F00C0008285ED080
:102FB000A069022846D100201F490866FEF722FBBF
:102FC000054606E0FEF71EFB401B022801D9032040
:102FD00036E6184808380068C0F340600028F1D190
:102FE000D4E907010843616A40EA81110122A06A1D
:102FF000C2EB500041EA00412C20005D41EA006034
:103000000C49091F086001200B490866FEF7FAFA0F
:10301000054607E02DE0FEF7F5FA401B022801D92E
:1030200003200DE6034808380068C0F3406000281C
:10303000F1D01EE00838024000004742800E4742AF
:103040000070004000200C490866FEF7DBFA0546D8
:1030500006E0FEF7D7FA401B022801D90320EFE56E
:1030600006480068C0F340600028F2D101E001206A
:10307000E6E50020E4E50000000047420038024099
:1030800070B504460D460CB9012070BD94F82C00B3
:1030900028B9002084F82D00204600F011F8022005
:1030A00084F82C00211D2068FDF758FD2946D4E93D
:1030B0000002FDF7BDFD012084F82C000020E4E7AC
:1030C00010B586B0044600BF00200090624800683A
:1030D00040F00100604908600846006800F0010007
:1030E000009000BF00BF00BF002000905A48083881
:1030F000006840F004005849083908600846006834
:1031000000F00400009000BF00BF00BF002000904E
:103110000846006840F0200008600846006800F09B
:103120002000009000BF00BF00BF002000900846B4
:10313000006840F0800008600846006800F08000E9
:10314000009000BF00BF00BF00200090084600684C
:1031500040F0400008600846006800F04000009021
:1031600000BF00BF00BF002000900846006840F08C
:10317000100008600846006800F01000009000BFD2
:1031800000BF00BF002000900846006840F0080023
:1031900008600846006800F00800009000BF00BF0B
:1031A00000BF002000900846006840F00100086061
:1031B0000846006800F00100009000BF00BF4FF615
:1031C0003F00019002200290002003900320049011
:1031D0000C20059001A92148FEF7F8F80D20019078
:1031E0000220029000200390032004900C20059000
:1031F00001A91B48FEF7EAF848F2371001900220B7
:10320000029000200390032004900C20059001A957
:103210001448FEF7DBF84FF683700190022002900D
:1032200000200390032004900C20059001A90E4873
:10323000FEF7CCF84CF203700190022002900020BF
:103240000390032004900C20059001A90748FEF785
:10325000BDF806B010BD000038380240001402402E
:10326000000802400018024000100240000C02401A
:1032700070B504460D4694F82C00022800D170BDAC
:10328000022084F82C0029462068FDF7A1FC0120CB
:1032900084F82C000020F2E770B504460D4616466F
:1032A00094F82C00022800D170BD022084F82C0074
:1032B000324629462068FDF792FC2868022803D18F
:1032C000052084F82C0002E0012084F82C00002066
:1032D000EAE710B50446FDF7E3F910BD70B58AB012
:1032E00004460D460026032084F83400606C032851
:1032F00020D0B5F5805F04D1A06B40F08050A06372
:103300001CE0B5F5006F07D1204603F058FF0646D4
:10331000A06B3043A06311E03DB9204603F01AFFD3
:103320000646A06B3043A06308E0A06B40F000604D
:10333000A06303E0A06B40F08050A063A06B40B19D
:1033400040F2FF5021688863012084F834000AB0FD
:1033500070BD60680490A0680590E06806900795CD
:1033600060690890A069099007A807C88DE8070060
:10337000206804A90EC903F033F8012084F8340052
:103380000020E4E7704730B503460022586E020E75
:1033900090090870C2F38300487002F0030088703F
:1033A000586EC0F30742CA70B3F86400C0F3072236
:1033B0000A7193F864204A71986E020E4FF6FF70FE
:1033C00000EA0210C880986EC0F30742C88840EA3D
:1033D0001210C88002F00F0008726820C05AC0F3B3
:1033E0000722D0094872C2F380108872C2F34010DD
:1033F000C872C2F30010087300204873586C00288C
:103400003ED19007000D08616820C25C086940EA5F
:1034100082000861D86E020E086940EA92100861C5
:10342000C2F3C200087502F007004875D86EC0F3F9
:10343000074250098875C2F38200C8759007400F93
:1034400008766C20C05AC0F30722087E40EAD210EA
:1034500008760869401C58650C7E586DA41C01252F
:10346000A540684358650C7A0120A0409865D3E9CF
:103470001504640A6043D8654FF400741C6630E09C
:10348000586C012821D16820C25C9006800A08612E
:10349000D86E020E086940EA02200861D86EC0F3B7
:1034A00007420869104308616C20C05AC0F3072224
:1034B0000869441C4FF48060A4FB00045865D8657B
:1034C0004FF400749C651C660BE040F2FF501C68D2
:1034D000A063986B40F080509863012083F834001B
:1034E00030BDC2F3801001F8190F9006400E4870ED
:1034F0006C20C25C487840EAD210487002F07F002D
:103500008870186F020ED009C870C2F3411008719C
:10351000C2F3820048719007000F8871186FC0F3E2
:103520000742887940EA92108871C2F34010C8714E
:103530000020087202F0010048727020C05AC0F3E7
:103540000722D0098872C2F38010C872C2F34010FB
:103550000873C2F300104873C2F38100887302F04D
:103560000300C8737020C25C5008087401204874BE
:1035700019390020B4E70246506C0860906C48602E
:10358000D06C8860106DC860506D0861906D4861A6
:10359000D06D8861106EC86100207047F8B5044690
:1035A00004260025002000906946204603F0B9FD5E
:1035B000054615B1A06B2843A0630098C0F34326CD
:1035C0003046F8BD70B5044600252068406BC0F356
:1035D0000020002863D04FF4807021688863206841
:1035E000C06B40F23A3188432168C863206B00F019
:1035F000080048B3206B00F0020018B9206B00F0FF
:10360000200050B1206803F0B3F805462DB1A06B3F
:103610002843A0632046FFF7B5FE40F2FF50216823
:103620008863012084F83400206B00F0010018B991
:10363000206B00F0020018B1204600F099FABCE0BF
:10364000204600F09AFAB8E0206B00F080000028D5
:10365000F5D0206B00F0200050B1206803F088F80E
:1036600005462DB1A06B2843A0632046FFF78AFED4
:10367000206B00F001000028E1D1206B00F0020077
:103680000028DCD12068C06A20F008002168C862E8
:10369000012084F83400204600F06FFA8DE02068A5
:1036A000406BC0F3803038B14FF4804021688863AC
:1036B000204603F0B9FD80E02068406BC0F3C030C5
:1036C00038B14FF4004021688863204603F016FDAE
:1036D00073E02068406B40F23A21084008B10120B5
:1036E00000E00020002868D02068406BC0F3400054
:1036F00018B1A06B40F00200A0632068406BC0F3DB
:10370000C00018B1A06B40F00800A0632068406BB7
:10371000C0F3401018B1A06B40F02000A0632068F7
:10372000406BC0F3001018B1A06B40F01000A06314
:103730002068406BC0F3402018B1A06B40F0080037
:10374000A06340F2FF70216888632068C06B40F27C
:103750003A3188432168C863206B00F0800010B3C1
:10376000206C50B11548216C0865206CFDF708FCF1
:1037700010B1206C03F011FB1FE0E06B50B110485A
:10378000E16B0865E06BFDF7FBFBB0B1E06B03F0AC
:10379000D5FA12E00020A063012084F8340020460E
:1037A000FFF797FD09E0206B00F0080028B1012029
:1037B00084F834002046FFF7E5FD70BD9B6D0108DD
:1037C0003D6D010810B504460CB9012010BD94F8F8
:1037D000340020B900202077204600F051F8032063
:1037E00084F83400204600F009F80020A06320632C
:1037F000012084F834000020E8E7000030B589B0EB
:103800000446002500200390049005900690079040
:103810007620089006A807C88DE80700206803A94D
:103820000EC902F0DDFD002014490860206802F096
:10383000F1FD01201149A039C1F8A0000220FDF7D7
:1038400099FD204603F0E3FB054645B1012084F8CD
:103850003400A06B2843A063012009B030BD20468E
:1038600003F057FB05463DB1012084F83400A06BFE
:103870002843A0630120F0E70020EEE7A080254266
:1038800010B586B00446142101A8FCF791FD6749E4
:10389000206888427ED100BF002000906448006804
:1038A00040F40060624908600846006800F4006067
:1038B000009000BF00BF00BF002000905C4814389B
:1038C000006840F480005A491439086008460068CE
:1038D00000F48000009000BF00BF00BF00200090F7
:1038E0000846006840F0040008600846006800F0E0
:1038F0000400009000BF00BF00BF002000900846F9
:10390000006840F0080008600846006800F0080001
:10391000009000BF00BF4FF4F850019002200290C9
:1039200000200390032004900C20059001A9414839
:10393000FDF74CFD0420019002200290002003902E
:10394000032004900C20059001A93B48FDF73EFDA3
:103950003A483B4908604FF0006048600021384811
:103960008160C1604FF4806101618900416189001B
:1039700081612021C1610021016204214162032192
:1039800081624FF40001C16289100163FDF72CFCD4
:1039900018B100E048E0FDF7ADF800BF2848E0634B
:1039A000846300BF25484830264908604FF0006016
:1039B00048604021234881600021C1604FF480614C
:1039C000016189004161890081612021C16100217B
:1039D000016204214162032181624FF40001C1624E
:1039E00089100163FDF700FC08B1FDF783F800BF03
:1039F00014482064846300BF002206213120FEF7B2
:103A0000D8FD3120FEF7C8FD012206213B20FEF73C
:103A1000D0FD3B20FEF7C0FD012206214520FEF728
:103A2000C8FD4520FEF7B8FD06B010BD002C0140D2
:103A30004438024000080240000C02405864024032
:103A400044CE0020A4CE00202DE9F04186B00446EB
:103A5000884616461D460027B8F1000F07D1A06B17
:103A600040F00060A063012006B0BDE8F08194F84A
:103A70003400012873D10020A0637119E06D8142E8
:103A800005D9A06B40F00070A0630120ECE7032093
:103A900084F8340000202168C8622068C06B40F4BC
:103AA00095702168C8632F48E16BC8632E48E16BAD
:103AB000C8640020E16B08656A029308226802F17D
:103AC00080014246E06BFDF705FC012027490860B4
:103AD000606C012800D076024FF0FF300090680241
:103AE0000190902002900220039000200490012079
:103AF00005906946206802F041FC4FF4007120688F
:103B000002F0E6FC074657B140F2FF502168886397
:103B1000A06B3843A063012084F83400A4E7012D92
:103B200007D9822020633146206802F03DFD074618
:103B300006E0812020633146206802F052FD0746EE
:103B40005FB140F2FF5021688863A06B3843A063E7
:103B5000012084F8340087E701E0002084E7022098
:103B600082E70000F76C01089B6C01088C852542F8
:103B700000B50246FCF7ECFD00BD00B50246FCF7BF
:103B800081FE00BD2DE9F04186B004468846164608
:103B90001D460027B8F1000F07D1A06B40F0006070
:103BA000A063012006B0BDE8F08194F8340001283C
:103BB00072D10020A0637119E06D814205D9A06B1C
:103BC00040F00070A0630120ECE7032084F834008B
:103BD00000202168C8622068C06B40F01A0021688C
:103BE000C8632E48216CC8632D48216CC86400202E
:103BF000216C0865606C012800D076024FF40071DA
:103C0000206802F065FC074657B140F2FF5021687A
:103C10008863A06B3843A063012084F83400C1E7B7
:103C2000012D07D9A02020633146206802F0BEFD97
:103C3000074606E0902020633146206802F0D3FD5D
:103C4000074657B140F2FF5021688863A06B3843A4
:103C5000A063012084F83400A4E701201149086022
:103C600069028B08216801F180024146206CFDF752
:103C700031FB4FF0FF3000906802019090200290DD
:103C8000002003900490012005906946206802F00E
:103C900075FB002086E7FFE7022083E7896D0108B6
:103CA0009B6C01088C85254210B504460CB9012097
:103CB00010BD606A00B900BF0021A16294F85100F4
:103CC00028B9002084F85000204600F033F8022084
:103CD00084F851002068006820F0400021680860E6
:103CE000D4E901010843E168084321690843616997
:103CF0000843218B01F400710843E1690843216AFC
:103D00000843A16A0843216808600421A06901EA08
:103D10001040616A0843216848602068C06920F447
:103D200000602168C86100206065012084F85100AE
:103D30000020BDE710B586B00446142101A8FCF7A9
:103D400037FB37492068884230D100BF00200090FF
:103D50003448006840F400103249086008460068A2
:103D600000F40010009000BF00BF00BF00200090D2
:103D70002C481438006840F040002A491439086083
:103D80000846006800F04000009000BF00BF4FF4FC
:103D9000E040019002200290002003900320049054
:103DA0000520059001A92048FDF710FB1F49206858
:103DB000884232D100BF002000901A48001F0068DE
:103DC00040F480401749091F08600846006800F465
:103DD0008040009000BF00BF00BF0020009011484D
:103DE0001438006840F002000E4914390860084693
:103DF000006800F00200009000BF00BF4FF4604078
:103E000001900220029000200390032004900520DE
:103E1000059001A90648FDF7D9FA06B010BD0000CB
:103E2000005401404438024000180240003800406D
:103E3000000402402DE9FE4F04460D4616461F467B
:103E4000DDF830804FF0000A0020029081464FF0EC
:103E5000010B019000BF94F85000012802D102200C
:103E6000BDE8FE8F012084F8500000BFFDF7CAFBBB
:103E7000814694F851A060680290BAF1010F0BD00E
:103E80000298B0F5827F04D1A06810B9BAF1040F8E
:103E900002D002200190D2E00DB106B117B9012085
:103EA0000190CCE094F85100012802D1052084F85B
:103EB000510000206065A663E787A7872563E78632
:103EC000A786206460642068006800F040004028F5
:103ED00005D02068006840F0400021680860E06874
:103EE000B0F5006F43D1606810B1E08E012806D1B3
:103EF00028882168C860AD1CE08E401EE0862FE057
:103F0000BBF1000F10D0E08E70B12068806800F027
:103F10000200022808D128882168C860AD1CE08E04
:103F2000401EE0864FF0000BE08F68B1206880688B
:103F300000F0010040B12068C0683080B61CE08FFE
:103F4000401EE0874FF0010B08F1010040B1FDF782
:103F500059FBA0EB0900404502D3032001906EE01D
:103F6000E08E0028CCD1E08F0028C9D142E0606803
:103F700010B1E08E012806D12878216808736D1CE5
:103F8000E08E401EE0862FE0BBF1000F10D0E08EE7
:103F900070B12068806800F00200022808D115F88E
:103FA000010B21680873E08E401EE0864FF0000B85
:103FB000E08F68B12068806800F0010040B120689F
:103FC000C06806F8010BE08F401EE0874FF0010B40
:103FD00008F1010040B1FDF715FBA0EB09004045D9
:103FE00002D3032001902AE0E08E0028CCD1E08F9C
:103FF0000028C9D14346012202212046CDF8009075
:1040000003F0D2F910B10320019018E04A4641466E
:10401000204603F0B5F920B1012001902020606511
:104020000DE0A06850B900BF002000902068C06873
:10403000009020688068009000BF00BF00BF012092
:1040400084F8510000BF002084F8500000BF0198A0
:1040500006E770B504462546681EB0F1807F01D39F
:1040600001200FE0681E4FF0E02148610F214FF062
:10407000FF3002F06FF900204FF0E0218861072047
:104080000861002070BD70472DE9F04704462068A4
:1040900005682068C668206847694FF00008C14677
:1040A00005F00F08B8F1000F0AD105F0200038B173
:1040B00006F0200020B1204603F0CCFABDE8F087DE
:1040C000B8F1000F6DD007F0010018B906F4907038
:1040D000002866D005F0010030B106F4807018B1F8
:1040E000E06B40F00100E06305F0040030B107F040
:1040F000010018B1E06B40F00200E06305F002003F
:1041000030B107F0010018B1E06B40F00400E0634B
:1041100005F0080030B107F0010018B1E06B40F085
:104120000800E063E06B68B305F0200028B106F0FA
:10413000200010B1204603F08DFA20684069C0F3DA
:104140008019E06B00F0080010B9B9F1000F22D01F
:10415000204603F05FFA2068406900F04000B0B1EB
:104160002068406920F0400021684861606B50B1D0
:104170001748616B0865606BFCF702FF10B1606B5C
:10418000016D88470CE02046FFF77DFF08E02046E0
:10419000FFF779FF04E02046FFF775FF0020E0639A
:1041A0008CE705F0800030B106F0800018B12046A1
:1041B00003F052FC82E705F0400030B106F0400009
:1041C00018B1204603F036FA78E700BF76E7000022
:1041D0000176010810B504460CB9012010BDA06994
:1041E00000B100E000BF94F8390028B9002084F83D
:1041F0003800204600F028F8242084F83900206890
:10420000C06820F400502168C860204603F070FAAE
:104210002068006920F490402168086120684069A6
:1042200020F02A00216848612068C06840F40050EE
:104230002168C8600020E063202084F8390084F8F9
:104240003A000020CAE7000010B586B004461421E9
:1042500001A8FCF7ADF83D492068884231D100BF84
:10426000002000903A48006840F01000384908608B
:104270000846006800F01000009000BF00BF00BFBB
:104280000020009032481438006840F001003049A6
:10429000143908600846006800F00100009000BF73
:1042A00000BF4FF4C06001900220029001200390F3
:1042B000032004900720059001A92648FDF786F801
:1042C00041E02549206888423DD100BF0020009090
:1042D0001F48006840F020001D490860084600683B
:1042E00000F02000009000BF00BF00BF0020009041
:1042F00017481438006840F0040015491439086064
:104300000846006800F00400009000BF00BFC02015
:1043100001900220029001200390032004900820C5
:10432000059001A90D48FDF751F803220F21472000
:10433000FEF73FF94720FEF72FF92068C06840F0EC
:1043400020002168C86006B010BD000000100140C8
:1043500044380240000002400014014000080240BE
:1043600070472DE9F84304460D4616461F464FF0A8
:10437000000994F8390020285CD105B116B9012054
:10438000BDE8F88300BF94F83800012801D102206D
:10439000F6E7012084F8380000BF0020E063212008
:1043A00084F83900FDF72EF98146A684E6842BE0D7
:1043B000E08C401EE084A068B0F5805F16D14B46CB
:1043C000002280212046009703F07AFB08B10320E9
:1043D000D6E7A846B8F80000C0F308002168486096
:1043E000206908B9AD1C0FE06D1C0DE04B460022A2
:1043F00080212046009703F063FB08B10320BFE74C
:1044000015F8010B21684860E08C0028D0D14B469C
:10441000002240212046009703F052FB08B1032000
:10442000AEE7202084F8390000BF002084F838006F
:1044300000BFA5E70220A3E770470146086840696E
:10444000C0F3802088B16FF480600A685061042056
:10445000086400200863202081F83D0000BF002090
:1044600081F83C0000BF012070470020FCE70000FD
:104470002DE9F84304460D4690461E46E76A20683B
:10448000006840F4806021680860042F04D0012F88
:1044900002D017F5803F06D12068006840F4807094
:1044A0002168086008E0206B112805D120680068A9
:1044B00040F4807021680860434600224FF00111EB
:1044C0002046009600F013FA10B10320BDE8F883EF
:1044D0002069B0F5804F05D1E8B240F001002168B5
:1044E000086149E005F44070F02141EAE0102168DC
:1044F0000861334642462949204600F036FA30B179
:10450000206C042801D10120E0E70320DEE7E8B2B7
:1045100021680861334642462049891F204600F041
:1045200024FA30B1206C042801D10120CEE7032009
:10453000CCE700BF00200090206840690090206810
:104540008069009000BF00BF2068006840F4807060
:1045500021680860434600224FF001112046009672
:1045600000F0C5F908B10320B0E705F44070F1216F
:1045700041EAE01021680861334642460749891F35
:10458000204600F0F2F930B1206C042801D101205E
:104590009CE703209AE7002098E70000080001004C
:1045A0002DE9F84304460D4617469846E66A042E60
:1045B00004D0012E02D016F5803F06D12068006895
:1045C00040F480702168086008E0206B122805D153
:1045D0002068006840F48070216808603B46002233
:1045E0004FF001112046CDF8008000F080F910B1A5
:1045F0000320BDE8F8832069B0F5804F04D105F0B1
:10460000FE002168086117E005F44070F02141EADE
:10461000E0102168086143463A461049204600F000
:10462000A4F930B1206C042801D10120E1E7032076
:10463000DFE7E8B22168086143463A460749891F27
:10464000204600F092F930B1206C042801D10120FD
:10465000CFE70320CDE70020CBE7000008000100F2
:104660002DE9F84304460F4615469946DDE90886CC
:104670002068006840F48060216808602068006855
:1046800040F4807021680860434600224FF0011119
:104690002046009600F02BF910B10320BDE8F88306
:1046A00007F0FE0021680861334642464149204632
:1046B00000F05BF930B1206C042801D10120EDE756
:1046C0000320EBE700BF00200090206840690090C5
:1046D00020688069009000BF00BF324641462046F6
:1046E00000F0D0F960B1206C042807D12068006880
:1046F00040F40070216808600120CFE70320CDE777
:10470000B9F1010F03D1E8B22168086119E0C5F3DE
:1047100007202168086132464146204600F0B2F980
:1047200060B1206C042807D12068006840F4007054
:10473000216808600120B1E70320AFE7E8B22168F3
:10474000086132464146204600F09CF960B1206C79
:10475000042807D12068006840F4007021680860D0
:1047600001209BE7032099E72068006840F48070EF
:1047700021680860434600224FF001112046009650
:1047800000F0B5F808B1032088E7F8B240F0010066
:1047900021680861334642460649204600F0E5F8A4
:1047A00030B1206C042801D1012077E7032075E7A0
:1047B000002073E7020001002DE9F8430446884613
:1047C00015469946DDE908672068006840F4807066
:1047D00021680860334600224FF0011120460097FF
:1047E00000F085F810B10320BDE8F88308F0FE0062
:1047F000216808613B4632462649204600F0B5F85C
:1048000030B1206C042801D10120EDE70320EBE753
:1048100000BF0020009020684069009020688069F7
:10482000009000BF00BF3A463146204600F02AF90A
:1048300060B1206C042807D12068006840F4007043
:10484000216808600120CFE70320CDE7B9F1010F0F
:1048500003D1E8B22168086119E0C5F30720216897
:1048600008613A463146204600F00CF960B1206CF0
:10487000042807D12068006840F4007021680860AF
:104880000120B1E70320AFE7E8B22168086100200A
:10489000AAE700000200010070B504460D46164666
:1048A0001DE02046FFF7C9FD08B1012070BD681C5E
:1048B000A8B125B1FCF7A6FE801BA8420FD9206C39
:1048C00040F02000206400202063202084F83D0078
:1048D00000BF002084F83C0000BF0320E6E720680A
:1048E0004069C0F380000028DBD00020DEE72DE91E
:1048F000F04104460D4617461E46DDF8188017E0C5
:10490000701CA8B12EB1FCF77DFEA0EB0800B042F0
:104910000ED900202063202084F83D00002084F878
:104920003E0000BF84F83C0000BF0320BDE8F081DA
:10493000C5F3074001280AD120684069A9B20840A0
:10494000A9B2884201D101200BE0002009E02068D3
:104950008069A9B20840A9B2884201D1012000E0D3
:104960000020B842CCD00020E0E72DE9F041044619
:104970000D4616461F4631E020684069C0F380208E
:10498000C0B12068006840F40070216808606FF4CE
:10499000806021684861042020640020206320207A
:1049A00084F83D0000BF002084F83C0000BF0120D7
:1049B000BDE8F081701C88B126B1FCF723FEC01B56
:1049C000B0420BD900202063202084F83D0000BFB6
:1049D000002084F83C0000BF0320E9E7C5F307404E
:1049E00001280AD120684069A9B20840A9B28842CA
:1049F00001D101200BE0002009E020688069A9B204
:104A00000840A9B2884201D1012000E0002000281E
:104A1000B2D00020CCE770B504460D46164629E01A
:104A200020684069C0F3001080B16FF01000216869
:104A30004861002020642063202084F83D0000BFEE
:104A4000002084F83C0000BF012070BD25B1FCF7B8
:104A5000D9FD801BA8420DD9206C40F020002064B5
:104A6000202084F83D0000BF002084F83C0000BFF7
:104A70000320EAE720684069C0F380100028CFD007
:104A80000020E2E770B504460D4616461DE02046BC
:104A9000FFF7D3FC08B1012070BD681CA8B125B197
:104AA000FCF7B0FD801BA8420FD9206C40F020001D
:104AB000206400202063202084F83D0000BF0020F7
:104AC00084F83C0000BF0320E6E720684069C0F39B
:104AD000C0100028DBD00020DEE7000010B58021E8
:104AE0000348FCF781FD08B9002010BD0120FCE758
:104AF000000C02400120704710B504210348FCF768
:104B000073FD08B9002010BD0120FCE7001C024025
:104B100010B501210448FCF767FD012801D10020F0
:104B200010BD0120FCE700000000024000B587B086
:104B3000142102A8FBF73CFC00BF00200190FE48B6
:104B4000006840F00400FC4908600846006800F076
:104B50000400019000BF00BF00BF00200190084684
:104B6000006840F0010008600846006800F001009D
:104B7000019000BF00BF00BF002001900846006800
:104B800040F0020008600846006800F00200019052
:104B900000BF00BF802002900120039004900320FA
:104BA000059002A9E548FCF711FC3020029002A90B
:104BB000E348FCF70BFC0120029002A9E148FCF756
:104BC00005FC01228021DD48FCF716FD022004F0DF
:104BD0005DFA00228021D948FCF70EFD022004F086
:104BE00055FA01228021D548FCF706FD142004F077
:104BF0004DFA4FF4704002F0CFFF552002F0E8FF6D
:104C00004FF2010002F0C8FFAA2002F0E1FF4FF2CC
:104C1000020002F0C1FF522002F0DAFF4FF203005F
:104C200002F0BAFF082002F0D3FF4FF2040002F0B6
:104C3000B3FF012002F0CCFF4FF4304002F0ACFF94
:104C40000D2002F0C5FF4BF2010002F0A5FF0D2080
:104C500002F0BEFF4BF2020002F09EFF0D2002F0B8
:104C6000B7FF4FF4364002F097FF342002F0B0FF58
:104C70004BF2016002F090FF342002F0A9FF4BF2EA
:104C8000026002F089FF342002F0A2FF4FF43140AD
:104C900002F082FF0D2002F09BFF4BF2011002F0A8
:104CA0007BFF0D2002F094FF4BF2021002F074FF24
:104CB0000D2002F08DFF4FF4374002F06DFF3420DD
:104CC00002F086FF4BF2017002F066FF342002F022
:104CD0007FFF4BF2027002F05FFF342002F078FF9A
:104CE0004FF4324002F058FF002002F071FF4BF207
:104CF000012002F051FF002002F06AFF4BF2022077
:104D000002F04AFF002002F063FF4FF4384002F047
:104D100043FF242002F05CFF4BF6010002F03CFF51
:104D2000242002F055FF4BF6020002F035FF24204C
:104D300002F04EFF4FF43F4002F02EFF012002F040
:104D400047FF4FF4334002F027FF0F2002F040FFEF
:104D50004BF2013002F020FF0F2002F039FF4BF23E
:104D6000023002F019FF0F2002F032FF4FF43940F9
:104D700002F012FF342002F02BFF4BF6011002F07C
:104D80000BFF342002F024FF4BF6021002F004FF68
:104D9000342002F01DFF4FF4354002F0FDFE0820E4
:104DA00002F016FF4BF2015002F0F6FE082002F06E
:104DB0000FFF4BF2025002F0EFFE082002F008FF56
:104DC0004FF4424002F0E8FE032002F001FF4FF4EE
:104DD0003A4002F0E1FE242002F0FAFE4BF60120F8
:104DE00002F0DAFE242002F0F3FE4BF6022002F07D
:104DF000D3FE242002F0ECFE4FF43C4002F0CCFE47
:104E0000002002F0E5FE4BF6014002F0C5FE7820DE
:104E100002F0DEFE4BF6024002F0BEFE002002F081
:104E2000D7FE4FF43D4002F0B7FE002002F0D0FE66
:104E30004BF6015002F0B0FE782002F0C9FE4BF6AE
:104E4000025002F0A9FE002002F0C2FE4FF43E40E4
:104E500002F0A2FE002002F0BBFE4BF6016002F061
:104E60009BFE642002F0B4FE4FF4514002F094FE29
:104E7000002002F0ADFE4DF2011002F08DFE332055
:104E800002F0A6FE4DF2021002F086FE002002F0B3
:104E90009FFE4DF2031002F07FFE342002F098FED8
:104EA0004DF2041002F078FE002002F091FE4DF267
:104EB000051002F071FE3A2002F08AFE4DF2061053
:104EC00002F06AFE002002F083FE4DF2071002F0AD
:104ED00063FE4A2002F07CFE4DF2081002F05CFEF8
:104EE000002002F075FE4DF2091002F055FE5C2024
:104EF00002F06EFE4DF20A1002F04EFE002002F0AB
:104F000067FE4DF20B1002F047FE812002F060FEBA
:104F10004DF20C1002F040FE002002F059FE4DF25E
:104F20000D1002F039FEA62002F052FE4DF20E10D6
:104F300002F032FE002007E030380240000002405C
:104F4000000802400004024002F042FE4DF20F1041
:104F500002F022FEE52002F03BFE4DF2101002F0BE
:104F60001BFE012002F034FE4DF2111002F014FE7F
:104F7000132002F02DFE4DF2121002F00DFE012062
:104F800002F026FE4DF2131002F006FE542002F04D
:104F90001FFE4DF2141002F0FFFD012002F018FE7A
:104FA0004DF2151002F0F8FD822002F011FE4DF2D4
:104FB000161002F0F1FD012002F00AFE4DF217106A
:104FC00002F0EAFDCA2002F003FE4DF2181002F0D2
:104FD000E3FD022002F0FCFD4DF2191002F0DCFDB1
:104FE000002002F0F5FD4DF21A1002F0D5FD02206E
:104FF00002F0EEFD4DF21B1002F0CEFD012002F09A
:10500000E7FD4DF21C1002F0C7FD022002F0E0FDAA
:105010004DF21D1002F0C0FD342002F0D9FD4DF21A
:105020001E1002F0B9FD022002F0D2FD4DF21F1059
:1050300002F0B2FD672002F0CBFD4DF2201002F02D
:10504000ABFD022002F0C4FD4DF2211002F0A4FDE0
:10505000842002F0BDFD4DF2221002F09DFD0220E1
:1050600002F0B6FD4DF2231002F096FDA42002F0EE
:10507000AFFD4DF2241002F08FFD022002F0A8FDDA
:105080004DF2251002F088FDB72002F0A1FD4DF28F
:10509000261002F081FD022002F09AFD4DF2271049
:1050A00002F07AFDCF2002F093FD4DF2281002F0BD
:1050B00073FD022002F08CFD4DF2291002F06CFD10
:1050C000DE2002F085FD4DF22A1002F065FD02207F
:1050D00002F07EFD4DF22B1002F05EFDF22002F098
:1050E00077FD4DF22C1002F057FD022002F070FD0A
:1050F0004DF22D1002F050FDFE2002F069FD4DF240
:105100002E1002F049FD032002F062FD4DF22F1037
:1051100002F042FD102002F05BFD4DF2301002F073
:105120003BFD032002F054FD4DF2311002F034FD3E
:10513000332002F04DFD4DF2321002F02DFD032020
:1051400002F046FD4DF2331002F026FD6D2002F014
:105150003FFD4FF4524002F01FFD002002F038FDE9
:105160004DF2012002F018FD332002F031FD4DF226
:10517000022002F011FD002002F02AFD4DF2032072
:1051800002F00AFD342002F023FD4DF2042002F06B
:1051900003FD002002F01CFD4DF2052002F0FCFC96
:1051A0003A2002F015FD4DF2062002F0F5FC002039
:1051B00002F00EFD4DF2072002F0EEFC4A2002F054
:1051C00007FD4DF2082002F0E7FC002002F000FD90
:1051D0004DF2092002F0E0FC5C2002F0F9FC4DF2F7
:1051E0000A2002F0D9FC002002F0F2FC4DF20B2064
:1051F00002F0D2FC812002F0EBFC4DF20C2002F018
:10520000CBFC002002F0E4FC4DF20D2002F0C4FCC7
:10521000A62002F0DDFC4DF20E2002F0BDFC0020C5
:1052200002F0D6FC4DF20F2002F0B6FCE52002F0B1
:10523000CFFC4DF2102002F0AFFC012002F0C8FCC0
:105240004DF2112002F0A8FC132002F0C1FC4DF237
:10525000122002F0A1FC012002F0BAFC4DF2132052
:1052600002F09AFC542002F0B3FC4DF2142002F03C
:1052700093FC012002F0ACFC4DF2152002F08CFCF6
:10528000822002F0A5FC4DF2162002F085FC0120E0
:1052900002F09EFC4DF2172002F07EFCCA2002F0C4
:1052A00097FC4DF2182002F077FC022002F090FCEF
:1052B0004DF2192002F070FC002002F089FC4DF242
:1052C0001A2002F069FC022002F082FC4DF21B2041
:1052D00002F062FC012002F07BFC4DF21C2002F087
:1052E0005BFC022002F074FC4DF21D2002F054FC25
:1052F000342002F06DFC4DF21E2002F04DFC022025
:1053000002F066FC4DF21F2002F046FC672002F01E
:105310005FFC4DF2202002F03FFC022002F058FC1E
:105320004DF2212002F038FC842002F051FC4DF2B5
:10533000222002F031FC022002F04AFC4DF2232030
:1053400002F02AFCA42002F043FC4DF2242002F0DB
:1053500023FC022002F03CFC4DF2252002F01CFC54
:10536000B72002F035FC4DF2262002F015FC022099
:1053700002F02EFC4DF2272002F00EFCCF2002F0AE
:1053800027FC4DF2282002F007FC022002F020FC4E
:105390004DF2292002F000FCDE2002F019FC4DF253
:1053A0002A2002F0F9FB022002F012FC4DF22B2021
:1053B00002F0F2FBF22002F00BFC4DF22C2002F086
:1053C000EBFB022002F004FC4DF22D2002F0E4FB86
:1053D000FE2002F0FDFB4DF22E2002F0DDFB03204B
:1053E00002F0F6FB4DF22F2002F0D6FB102002F067
:1053F000EFFB4DF2302002F0CFFB032002F0E8FB80
:105400004DF2312002F0C8FB332002F0E1FB4DF2F7
:10541000322002F0C1FB032002F0DAFB4DF2332010
:1054200002F0BAFB6D2002F0D3FB4FF4534002F0C0
:10543000B3FB002002F0CCFB4DF2013002F0ACFBDC
:10544000332002F0C5FB4DF2023002F0A5FB002034
:1054500002F0BEFB4DF2033002F09EFB342002F05E
:10546000B7FB4DF2043002F097FB002002F0B0FBD6
:105470004DF2053002F090FB3A2002F0A9FB4DF20C
:10548000063002F089FB002002F0A2FB4DF207304B
:1054900002F082FB4A2002F09BFB4DF2083002F042
:1054A0007BFB002002F094FB4DF2093002F074FB0C
:1054B0005C2002F08DFB4DF20A3002F06DFB002003
:1054C00002F086FB4DF20B3002F066FB812002F009
:1054D0007FFB4DF20C3002F05FFB002002F078FB06
:1054E0004DF20D3002F058FBA62002F071FB4DF298
:1054F0000E3002F051FB002002F06AFB4DF20F303B
:1055000002F04AFBE52002F063FB4DF2103002F09E
:1055100043FB012002F05CFB4DF2113002F03CFB3A
:10552000132002F055FB4DF2123002F035FB012042
:1055300002F04EFB4DF2133002F02EFB542002F02D
:1055400047FB4DF2143002F027FB012002F040FB34
:105550004DF2153002F020FB822002F039FB4DF2B3
:10556000163002F019FB012002F032FB4DF2173029
:1055700002F012FBCA2002F02BFB4DF2183002F0B1
:105580000BFB022002F024FB4DF2193002F004FB69
:10559000002002F01DFB4DF21A3002F0FDFA02204D
:1055A00002F016FB4DF21B3002F0F6FA012002F079
:1055B0000FFB4DF21C3002F0EFFA022002F008FB64
:1055C0004DF21D3002F0E8FA342002F001FB4DF2FA
:1055D0001E3002F0E1FA022002F0FAFA4DF21F301A
:1055E00002F0DAFA672002F0F3FA4DF2203002F00E
:1055F000D3FA022002F0ECFA4DF2213002F0CCFA9C
:10560000842002F0E5FA4DF2223002F0C5FA0220C1
:1056100002F0DEFA4DF2233002F0BEFAA42002F0CE
:10562000D7FA4DF2243002F0B7FA022002F0D0FA95
:105630004DF2253002F0B0FAB72002F0C9FA4DF26F
:10564000263002F0A9FA022002F0C2FA4DF2273009
:1056500002F0A2FACF2002F0BBFA4DF2283002F09D
:105660009BFA022002F0B4FA4DF2293002F094FACB
:10567000DE2002F0ADFA4DF22A3002F08DFA02205F
:1056800002F0A6FA4DF22B3002F086FAF22002F078
:105690009FFA4DF22C3002F07FFA022002F098FAC5
:1056A0004DF22D3002F078FAFE2002F091FA4DF220
:1056B0002E3002F071FA032002F08AFA4DF22F30F8
:1056C00002F06AFA102002F083FA4DF2303002F054
:1056D00063FA032002F07CFA4DF2313002F05CFAFA
:1056E000332002F075FA4DF2323002F055FA032001
:1056F00002F06EFA4DF2333002F04EFA6D2002F0F5
:1057000067FA4FF4544002F047FA002002F060FAC2
:105710004DF2014002F040FA332002F059FA4DF206
:10572000024002F039FA002002F052FA4DF2034032
:1057300002F032FA342002F04BFA4DF2044002F04B
:105740002BFA002002F044FA4DF2054002F024FA50
:105750003A2002F03DFA4DF2064002F01DFA002018
:1057600002F036FA4DF2074002F016FA4A2002F033
:105770002FFA4DF2084002F00FFA002002F028FA4A
:105780004DF2094002F008FA5C2002F021FA4DF2D5
:105790000A4002F001FA002002F01AFA4DF20B4022
:1057A00002F0FAF9812002F013FA4DF20C4002F0F7
:1057B000F3F9002002F00CFA4DF20D4002F0ECF982
:1057C000A62002F005FA4DF20E4002F0E5F90020A5
:1057D00002F0FEF94DF20F4002F0DEF9E52002F092
:1057E000F7F94DF2104002F0D7F9012002F0F0F97C
:1057F0004DF2114002F0D0F9132002F0E9F94DF218
:10580000124002F0C9F9012002F0E2F94DF2134012
:1058100002F0C2F9542002F0DBF94DF2144002F01C
:10582000BBF9012002F0D4F94DF2154002F0B4F9B1
:10583000822002F0CDF94DF2164002F0ADF90120C0
:1058400002F0C6F94DF2174002F0A6F9CA2002F0A4
:10585000BFF94DF2184002F09FF9022002F0B8F9AA
:105860004DF2194002F098F9002002F0B1F94DF222
:105870001A4002F091F9022002F0AAF94DF21B4001
:1058800002F08AF9012002F0A3F94DF21C4002F067
:1058900083F9022002F09CF94DF21D4002F07CF9E0
:1058A000342002F095F94DF21E4002F075F9022005
:1058B00002F08EF94DF21F4002F06EF9672002F0FF
:1058C00087F94DF2204002F067F9022002F080F9DA
:1058D0004DF2214002F060F9842002F079F94DF296
:1058E000224002F059F9022002F072F94DF22340F1
:1058F00002F052F9A42002F06BF94DF2244002F0BC
:105900004BF9022002F064F94DF2254002F044F90F
:10591000B72002F05DF94DF2264002F03DF9022079
:1059200002F056F94DF2274002F036F9CF2002F08E
:105930004FF94DF2284002F02FF9022002F048F909
:105940004DF2294002F028F9DE2002F041F94DF233
:105950002A4002F021F9022002F03AF94DF22B40E0
:1059600002F01AF9F22002F033F94DF22C4002F065
:1059700013F9022002F02CF94DF22D4002F00CF93F
:10598000FE2002F025F94DF22E4002F005F9032029
:1059900002F01EF94DF22F4002F0FEF8102002F046
:1059A00017F94DF2304002F0F7F8032002F010F939
:1059B0004DF2314002F0F0F8332002F009F94DF2D7
:1059C000324002F0E9F8032002F002F94DF23340D0
:1059D00002F0E2F86D2002F0FBF84FF4554002F0BF
:1059E000DBF8002002F0F4F84DF2015002F0D4F898
:1059F000332002F0EDF84DF2025002F0CDF8002015
:105A000002F0E6F84DF2035002F0C6F8332002F03F
:105A1000DFF84DF2045002F0BFF8002002F0D8F891
:105A20004DF2055002F0B8F83A2002F0D1F84DF2EC
:105A3000065002F0B1F8002002F0CAF84DF207500B
:105A400002F0AAF84A2002F0C3F84DF2085002F022
:105A5000A3F8002002F0BCF84DF2095002F09CF8C7
:105A60005C2002F0B5F84DF20A5002F095F80020E3
:105A700002F0AEF84DF20B5002F08EF8812002F0E9
:105A8000A7F84DF20C5002F087F8002002F0A0F8C1
:105A90004DF20D5002F080F8A62002F099F84DF278
:105AA0000E5002F079F8002002F092F84DF20F50FB
:105AB00002F072F8E52002F08BF84DF2105002F07F
:105AC0006BF8012002F084F84DF2115002F064F8F6
:105AD000132002F07DF84DF2125002F05DF8012023
:105AE00002F076F84DF2135002F056F8542002F00E
:105AF0006FF84DF2145002F04FF8012002F068F8F0
:105B00004DF2155002F048F8822002F061F84DF293
:105B1000165002F041F8012002F05AF84DF21750E9
:105B200002F03AF8CA2002F053F84DF2185002F091
:105B300033F8022002F04CF84DF2195002F02CF824
:105B4000002002F045F84DF21A5002F025F802202C
:105B500002F03EF84DF21B5002F01EF8012002F058
:105B600037F84DF21C5002F017F8022002F030F81E
:105B70004DF21D5002F010F8342002F029F84DF2D9
:105B80001E5002F009F8022002F022F84DF21F50D8
:105B900002F002F8672002F01BF84DF2205001F0ED
:105BA000FBFF022002F014F84DF2215001F0F4FF47
:105BB000842002F00DF84DF2225001F0EDFF02209A
:105BC00002F006F84DF2235001F0E6FFA42001F0A8
:105BD000FFFF4DF2245001F0DFFF022001F0F8FF3B
:105BE0004DF2255001F0D8FFB72001F0F1FF4DF242
:105BF000265001F0D1FF022001F0EAFF4DF22750BC
:105C000001F0CAFFCF2001F0E3FF4DF2285001F070
:105C1000C3FF022001F0DCFF4DF2295001F0BCFF70
:105C2000DE2001F0D5FF4DF22A5001F0B5FF022031
:105C300001F0CEFF4DF22B5001F0AEFFF22001F04B
:105C4000C7FF4DF22C5001F0A7FF022001F0C0FF6A
:105C50004DF22D5001F0A0FFFE2001F0B9FF4DF2F2
:105C60002E5001F099FF032001F0B2FF4DF22F50AA
:105C700001F092FF102001F0ABFF4DF2305001F027
:105C80008BFF032001F0A4FF4DF2315001F084FF9F
:105C9000332001F09DFF4DF2325001F07DFF0320D3
:105CA00001F096FF4DF2335001F076FF6D2001F0C8
:105CB0008FFF4FF4564001F06FFF002001F088FF86
:105CC0004DF2016001F068FF332001F081FF4DF2D9
:105CD000026001F061FF002001F07AFF4DF20360E5
:105CE00001F05AFF342001F073FF4DF2046001F01F
:105CF00053FF002001F06CFF4DF2056001F04CFFF6
:105D00003A2001F065FF4DF2066001F045FF0020EA
:105D100001F05EFF4DF2076001F03EFF4A2001F006
:105D200057FF4DF2086001F037FF002001F050FFEF
:105D30004DF2096001F030FF5C2001F049FF4DF2A7
:105D40000A6001F029FF002001F042FF4DF20B60D4
:105D500001F022FF812001F03BFF4DF20C6001F0C9
:105D60001BFF002001F034FF4DF20D6001F014FF25
:105D7000A62001F02DFF4DF20E6001F00DFF002076
:105D800001F026FF4DF20F6001F006FFE52001F063
:105D90001FFF4DF2106001F0FFFE012001F018FF1F
:105DA0004DF2116001F0F8FE132001F011FF4DF2E9
:105DB000126001F0F1FE012001F00AFF4DF21360C4
:105DC00001F0EAFE542001F003FF4DF2146001F0EF
:105DD000E3FE012001F0FCFE4DF2156001F0DCFE57
:105DE000822001F0F5FE4DF2166001F0D5FE012093
:105DF00001F0EEFE4DF2176001F0CEFECA2001F078
:105E0000E7FE4DF2186001F0C7FE022001F0E0FE4F
:105E10004DF2196001F0C0FE002001F0D9FE4DF2F4
:105E20001A6001F0B9FE022001F0D2FE4DF21B60B3
:105E300001F0B2FE012001F0CBFE4DF21C6001F03A
:105E4000ABFE022001F0C4FE4DF21D6001F0A4FE85
:105E5000342001F0BDFE4DF21E6001F09DFE0220D7
:105E600001F0B6FE4DF21F6001F096FE672001F0D2
:105E7000AFFE4DF2206001F08FFE022001F0A8FE7F
:105E80004DF2216001F088FE842001F0A1FE4DF268
:105E9000226001F081FE022001F09AFE4DF22360A3
:105EA00001F07AFEA42001F093FE4DF2246001F08F
:105EB00073FE022001F08CFE4DF2256001F06CFEB5
:105EC000B72001F085FE4DF2266001F065FE02204C
:105ED00001F07EFE4DF2276001F05EFECF2001F062
:105EE00077FE4DF2286001F057FE022001F070FEAF
:105EF0004DF2296001F050FEDE2001F069FE4DF206
:105F00002A6001F049FE022001F062FE4DF22B6092
:105F100001F042FEF22001F05BFE4DF22C6001F038
:105F20003BFE022001F054FE4DF22D6001F034FEE4
:105F3000FE2001F04DFE4DF22E6001F02DFE0320FB
:105F400001F046FE4DF22F6001F026FE102001F018
:105F50003FFE4DF2306001F01FFE032001F038FEDD
:105F60004DF2316001F018FE332001F031FE4DF2A8
:105F7000326001F011FE032001F02AFE4DF2336081
:105F800001F00AFE6D2001F023FE4FF4704001F095
:105F900003FE552001F01CFE4FF2010001F0FCFD54
:105FA000AA2001F015FE4FF2020001F0F5FD52208B
:105FB00001F00EFE4FF2030001F0EEFD082001F0AB
:105FC00007FE4FF2040001F0E7FD002001F000FEA3
:105FD0004FF4334001F0E0FD002001F0F9FD4FF4F3
:105FE000354001F0D9FD502001F0F2FD4FF4314071
:105FF00001F0D2FDCC2001F0EBFD4BF2011001F0DD
:10600000CBFD002001F0E4FD4FF4364001F0C4FD6B
:10601000052001F0DDFD4FF4374001F0BDFD70209B
:1060200001F0D6FD4BF2017001F0B6FD702001F0D9
:10603000CFFD4FF4384001F0AFFD012001F0C8FD65
:106040004BF6010001F0A8FD032001F0C1FD4BF665
:10605000020001F0A1FD032001F0BAFD4BF60300A0
:1060600001F09AFD032001F0B3FD4FF43C4001F034
:1060700093FD022001F0ACFD4BF6014001F08CFDD8
:10608000002001F0A5FD4BF6024001F085FD002047
:1060900001F09EFD4FF4494001F07EFDD02001F05B
:1060A00097FD4CF6011001F077FD022001F090FD04
:1060B0004CF6021001F070FD502001F089FD4CF605
:1060C000031001F069FD502001F082FD4CF6041030
:1060D00001F062FD502001F07BFD4FF4585001F0BB
:1060E0005BFD002001F074FD4FF4545001F054FDAD
:1060F000002001F06DFD4FF4685001F04DFD55207A
:1061000001F066FD4FF4885001F046FD782002F062
:10611000BDFF4FF4245001F03FFD0A2002F0B6FF0E
:106120004FF4305001F038FD07B000BDF0B500234A
:10613000002400258E880768FF68C7F30B473E449C
:10614000330406688436802707FB0266766806F407
:106150007047066884364FF0800C0CFB026677604F
:106160000E680768FF68C7F30B473E44761C1E4362
:10617000076884370CFB02777E608E890768FF68AA
:10618000C7F30A073E44330406688436802707FBBA
:106190000266B66806F47047066884360CFB026631
:1061A000B7608E680768FF68C7F30A073E44761C2D
:1061B0001E43076884370CFB0277BE60066884368E
:1061C000802707FB0266366926F0070706688436D3
:1061D0000CFB026637610F69066884360CFB0266A9
:1061E00037613126765C33023226765C34040E7ECB
:1061F000350606688436802707FB0266B6690027E5
:10620000066884360CFB0266B76191F830601E4365
:1062100026432E43076884370CFB0277BE6106686D
:106220008436802707FB0266766926F0FF0706683A
:1062300084360CFB026677614F69066884360CFB76
:106240000266776106688436802707FB0266F76975
:1062500040F20776B743066884360CFB0266F761A6
:10626000D1E907673E43076884370CFB0277FE617C
:1062700006688436802707FB0266B66A0027066830
:1062800084360CFB0266B7624F6A066884360CFBE4
:106290000266B7620E690EB9042313E00E69012E7F
:1062A00001D103230EE00E69042E08D00E69022EE0
:1062B00005D00E69032E02D00E69072E01D10223EC
:1062C00000E0012306688436802707FB0266F66A31
:1062D00006F0E027066884364FF0800C0CFB02665F
:1062E000F762D1E90076F61B5E43F71C0E8D5E4324
:1062F00047EA0647066884360CFB0266F7620668C2
:106300008436802707FB0266366BF70AFF020668B1
:1063100084360CFB02663763CF6A066884360CFB52
:106320000266376306688436D701F65946F00107DE
:10633000066884364FEAC21C46F80C70F0BD00BFF8
:10634000FEE7704702480068C0F302207047000073
:106350000CED00E010B5002807DA0A07140E054A14
:1063600000F00F031B1FD45403E00A07130E024A68
:10637000135410BD18ED00E000E400E010B5024633
:1063800000230868506248689062D1E90204204303
:106390000C6920434C6920430343D06A20F0F70086
:1063A0001843D062002010BD01460869C0B2704792
:1063B0000146086800F00300704708B50246002057
:1063C000009002F11400084400900098006808BD95
:1063D00010B50248FDF7F6F810BD0000C0CD002052
:1063E0000FB410B504460021DDE903021043059AFD
:1063F0001043069A1043079A1043089A104301432A
:10640000606847F6FF62904308436060002010BC5C
:106410005DF814FB01460320086000207047014628
:10642000D1F88000704710B50246002308689060DC
:10643000D1E901042043CC6820430C692043034385
:10644000D0686FF30B001843D060002010BD0246E7
:106450000868C2F880000020704770B586B0054615
:106460000C46002601943720029040200390002023
:1064700004904FF48060059001A92846FFF7D3FFF0
:1064800041F288323721284600F0EAF906463046C4
:1064900006B070BD70B586B005460C4600260B48A8
:1064A0002043019029200290402003900020049076
:1064B0004FF48060059001A92846FFF7B4FF2846F5
:1064C00000F0CEFA0646304606B070BD00001080DF
:1064D00070B586B005460C46002601941020029047
:1064E00040200390002004904FF48060059001A9A3
:1064F0002846FFF798FF41F288321021284600F025
:10650000AFF90646304606B070BD70B586B0054698
:106510000C460026019406200290402003900020A3
:1065200004904FF48060059001A92846FFF77BFF97
:1065300041F288320621284600F092F9064630469C
:1065400006B070BD30B585B004460025002000902F
:106550000190029003904FF48060049069462046B9
:10656000FFF761FF204600F05BF90546284605B0BD
:1065700030BD30B585B0044600254FF4D57000908D
:106580000820019040200290002003904FF480608A
:10659000049069462046FFF746FF204600F0E0FAE7
:1065A0000546284605B030BD70B586B005460C4698
:1065B00000260194122002904020039000200490B5
:1065C0004FF48060059001A92846FFF72CFF41F2A7
:1065D00088321221284600F043F90646304606B0BC
:1065E00070BD70B586B005460C460026019411209A
:1065F000029040200390002004904FF480600590AA
:1066000001A92846FFF70FFF41F2883211212846E1
:1066100000F026F90646304606B070BDF0B585B0EC
:10662000064614461D46002700940720019040208E
:106630000290002003904FF4806004906946304639
:10664000FFF7F1FE41F288320721304600F008F9E9
:106650000746384605B0F0BD30B585B00446002584
:106660000020009002200190C020029000200390A2
:106670004FF48060049069462046FFF7D4FE204620
:1066800000F0C0F90546284605B030BD70B586B0AB
:1066900005460C460026019409200290C020039074
:1066A000002004904FF48060059001A92846FFF770
:1066B000BAFE284600F0A6F90646304606B070BD80
:1066C00030B585B0044600250020009033200190AD
:1066D00040200290002003904FF4806004906946AF
:1066E0002046FFF7A0FE41F288323321204600F019
:1066F000B7F80546284605B030BD70B586B00546EA
:106700000C46002601940D200290402003900020AA
:1067100004904FF48060059001A92846FFF783FE9E
:1067200041F288320D21284600F09AF8064630469C
:1067300006B070BD70B586B005460C460026002038
:1067400001900320029040200390002004904FF419
:106750008060059001A92846FFF765FE22460321C7
:10676000284600F0A5F90646304606B070BD000088
:1067700030B585B004460025002000900C20019023
:1067800040200290002003904FF4806004906946FE
:106790002046FFF748FE044A0C21204600F060F82E
:1067A0000546284605B030BD00E1F50570B586B058
:1067B00005460C46002601941920029040200390C3
:1067C000002004904FF48060059001A92846FFF74F
:1067D0002AFE41F288321921284600F041F8064687
:1067E000304606B070BD70B586B005460C46002632
:1067F00001941820029040200390002004904FF450
:106800008060059001A92846FFF70DFE41F288320D
:106810001821284600F024F80646304606B070BD20
:1068200001460E480068C0084FF47A73B0FBF3F0DD
:1068300041F2883300FB03F200BF101EA2F10102F7
:1068400002D14FF000407047486B00F080000028F4
:10685000F3D040F2FF5088630020F4E744000020AA
:106860002DE9F04105460E46174664480068C00809
:106870004FF47A71B0FBF1F000FB07F800BFB8F1FC
:106880000000A8F1010803D14FF00040BDE8F081FD
:10689000686B00F045000028F1D0686B00F0040040
:1068A00010B10420A863F1E7686B00F0010010B19B
:1068B0000120A863EAE72846FFF776FDB04201D041
:1068C0000120E3E740F2FF50A86300212846FFF7CC
:1068D00074FD04464A48204008B90020D6E704F079
:1068E0000040B0F1004F02D14FF00070CEE704F04D
:1068F0008040B0F1804F01D14020C7E704F0005044
:10690000B0F1005F01D18020C0E704F08050B0F109
:10691000805F02D14FF48070B8E704F00060B0F1FE
:10692000006F02D14FF40070B0E704F08060B0F166
:10693000806F02D14FF48060A8E704F08070B0F15E
:10694000807F02D14FF40060A0E704F40000B0F5AE
:10695000000F02D14FF4805098E704F48000B0F5A6
:10696000800F02D14FF4005090E704F40010B0F50E
:10697000001F02D14FF4804088E704F48010B0F586
:10698000801F02D14FF4004080E704F48020B0F56E
:10699000802F02D14FF4003078E704F40030B0F5D6
:1069A000003F02D14FF4802070E704F48030B0F54E
:1069B000803F02D14FF4002068E704F40040B0F5B6
:1069C000004F02D14FF4801060E704F48040B0F52E
:1069D000804F02D14FF4001058E704F40050B0F596
:1069E000005F02D14FF4800050E704F0080008284F
:1069F00001D100054AE74FF4803047E7440000200A
:106A000008E0FFFD014615480068C0084FF47A739E
:106A1000B0FBF3F041F2883300FB03F200BF101E1D
:106A2000A2F1010202D14FF000407047486B00F024
:106A300045000028F3D0486B00F0040010B104209A
:106A40008863F2E7486B00F0010010B10120886311
:106A5000EBE740F2FF5088630020E6E744000020A7
:106A6000014612480068C0084FF47A73B0FBF3F097
:106A700041F2883300FB03F200BF101EA2F10102B5
:106A800002D14FF000407047486B00F045000028ED
:106A9000F3D0486B00F0040010B104208863F2E7E3
:106AA00040F2FF5088630020EDE700004400002022
:106AB0002DE9F04104460E46174628480068C008F4
:106AC0004FF47A71B0FBF1F041F2883100FB01F82C
:106AD00000BFB8F10000A8F1010803D14FF0004059
:106AE000BDE8F081606B00F045000028F1D0606BDC
:106AF00000F0040010B10420A063F1E7606B00F027
:106B0000010010B10120A063EAE72046FFF74CFC2A
:106B1000B04201D00120E3E740F2FF50A063002122
:106B20002046FFF74AFC054605F4604018B9280CDA
:106B300038800020D4E705F48040B0F5804F02D1C2
:106B40004FF40050CCE705F40040B0F5004F02D1FF
:106B50004FF48050C4E74FF48030C1E74400002078
:106B6000014614480068C0084FF47A73B0FBF3F094
:106B700041F2883300FB03F200BF101EA2F10102B4
:106B800002D14FF000407047486B00F045000028EC
:106B9000F3D0486B00F0040018B140208863042053
:106BA000F1E7486B00F0400008B140208863002006
:106BB000E9E700004400002010B586B0044600203C
:106BC00005900120019010200290012003900020E8
:106BD00004904FF4805201A92046FCF75DFB64202D
:106BE000FAF7C8FB022001901020029001200390C8
:106BF000002004904FF4805201A92046FCF74CFB82
:106C0000032001901020029008200390002004909F
:106C10004FF4805201A92046FCF73EFB40F23120A0
:106C20000590042001901020029001200390059807
:106C300004904FF4805201A92046FCF72DFB40F24E
:106C4000AB212046FCF714FB06B010BD10B504467E
:106C5000012007490870F9F72FFD28B9044800788A
:106C600020F00100024908700148007810BD0000C2
:106C70006803002070B50446FAF7C4FC054604E03A
:106C8000F9F71AFD08B9002070BDFAF7BBFC401BEC
:106C9000A042F5D34FF0FF30F6E770B50646B46B6F
:106CA000E06B406D012803D0206C406D01281ED19F
:106CB00040F2FF50216888632068C06B20F49D700B
:106CC0002168C863A06B40F08040A0632046FCF7B9
:106CD00065FC0546062D01D0052D05D12068FFF77E
:106CE00047FDA16B0843A063012084F834002046CF
:106CF000FCF748FB70BD70B50546AC6B0026206BF9
:106D000082280AD12068FFF733FD06462EB1A06B1A
:106D10003043A0632046FCF735FB2068C06A20F0B2
:106D200008002168C86240F2FF5021688863012092
:106D300084F834002046FCF71BFF70BD70B5064692
:106D4000B46BE06B08B10020E063206CD8B920463A
:106D5000FCF724FC05460020A063012084F83400E1
:106D6000062D01D0052D0ED12068FFF701FDA16B86
:106D70000843A063A06B18B12046FCF7AAFA02E012
:106D80002046FCF7FFFA70BD0146886B0268D26BA3
:106D900042F480720368DA63704770B50646B46BDC
:106DA000206C08B100202064E06BD8B92046FCF7C5
:106DB000F5FB05460020A063012084F83400062D71
:106DC00001D0052D0ED12068FFF7D2FCA16B08433E
:106DD000A063A06B18B12046FCF77BFA02E02046C6
:106DE000FCF7D0FA70BD2DE9F04188B004460E469C
:106DF0000025FAF707FC804600270020009001904C
:106E000008212068FFF764FB05461DB1284608B03D
:106E1000BDE8F0815022125B11042068FFF71DFBD2
:106E200005460DB12846F2E74FF0FF3002900820EA
:106E3000039030200490022005900020069001204D
:106E4000079002A92068FFF799FA2068FFF738FC3D
:106E500005460DB12846DAE713E02068406B00F4E0
:106E6000001028B12068FFF7DAFA4DF827007F1CE0
:106E7000FAF7C8FBA0EB0800401C10B94FF0004027
:106E8000C5E72068406B40F22A4108400028E4D062
:106E90002068406B00F0080018B108202168886362
:106EA000B5E72068406B00F0020018B102202168AD
:106EB0008863ACE72068406B00F0200018B1202008
:106EC00021688863A3E740F2FF5021688863009837
:106ED0000006009901F47F4140EA0120009901F485
:106EE0007F0140EA1120009940EA1160706001982A
:106EF0000006019901F47F4140EA0120019901F463
:106F00007F0140EA1120019940EA116030600020C1
:106F10007DE730B58FB0044600250120039020683E
:106F2000FFF746FA18B94FF080600FB030BD606CC3
:106F300003281BD02068FFF78FFB05460DB12846BC
:106F4000F3E700212068FFF738FA60670421206822
:106F5000FFF733FAA06708212068FFF72EFAE067F1
:106F60000C212068FFF729FA80210851606C032862
:106F700007D003A92068FFF7DDFB05460DB12846C1
:106F8000D3E7606C032820D0BDF80C102165502297
:106F9000125B11042068FFF779FB05460DB1284606
:106FA000C3E700212068FFF708FA60660421206823
:106FB000FFF703FAA06608212068FFF7FEF9E066F4
:106FC0000C212068FFF7F9F9206704212068FFF7FA
:106FD000F4F9010DE16404A92046FCF7D4F950202E
:106FE000005B01040A4600232068FFF717FB0546F3
:106FF0000DB1284699E7D4E90412A069CDE9001241
:10700000029094E80F00FFF7EBF900208DE7F8B548
:107010000446002000900026002700252068FFF786
:1070200091FA05460DB12846F8BD2068FFF7A1FA90
:1070300005466DB30021A16425E00098411C009134
:107040004FF6FF71884202D14FF08070ECE70021CB
:107050002068FFF702FA054615B14FF08050E3E7CC
:1070600000212068FFF716FA054615B14FF0805051
:10707000DAE700212068FFF7A0F90646012080EA40
:10708000D67080F00107002FD7D00020606433E075
:107090000121A16424E00098411C00914FF6FF718A
:1070A000884202D14FF08070BEE700212068FFF7D0
:1070B000D4F905460DB12846B6E74FF08041206867
:1070C000FFF7E8F905460DB12846ADE70021206835
:1070D000FFF773F90646012080EAD67080F00107B9
:1070E000002FD8D006F08040B0F1804F02D10120AF
:1070F000606401E000206064002095E770B50446FC
:107100000025A66A00BF05E02068FFF788F946F869
:1071100025006D1C082DF7D3A06A2030A062002046
:1071200070BD70B504460D46002615B94FF00060DD
:1071300070BD5022125B11042068FFF7DEFA06468C
:107140000EB13046F4E700212068FFF736F92860D9
:107150000020EDE77CB5044600200090019000255A
:1071600000212068FFF729F900F00070B0F1007FDE
:1071700002D14FF400607CBD69462046FFF733FE24
:1071800005460DB12846F6E7019800F4803098B125
:107190005022125B11042068FFF75FF905460DB11C
:1071A0002846E8E700212068FFF7AFF905460DB152
:1071B0002846E0E70020DEE74FF08060DBE77CB5A3
:1071C0000446002000900190002500212068FFF770
:1071D000F4F800F00070B0F1007F02D14FF40060CD
:1071E0007CBD69462046FFF7FEFD05460DB12846E9
:1071F000F6E7019800F4802098B15022125B110448
:107200002068FFF72AF905460DB12846E8E7022174
:107210002068FFF77AF905460DB12846E0E700201F
:10722000DEE74FF08060DBE770B504460025266A94
:1072300000BF05E006EB85012068FFF708F96D1C2B
:10724000082DF7D3206A20302062002070BD000096
:1072500010B50446F9F73CFA20B92046FFF7F6FCD2
:10726000024908700148007810BD00006803002042
:10727000F0B589B007460D46144601261648007839
:1072800000F0010010B1032009B0F0BD35B1012DAF
:1072900006D0022D0BD0032D18D10FE0002617E0E9
:1072A00001A8F9F7FFF907982060002610E001A86F
:1072B000F9F7F8F908982080002609E001A8F9F705
:1072C000F1F90898400A2060002601E0042600BF7A
:1072D00000BF3046D8E70000680300202DE9F041E8
:1072E00080460C4615461E46012732462946204652
:1072F000F9F734FA07463846BDE8F08110B5044680
:107300002046FFF7A3FC10BD2DE9F04180460C4656
:1073100015461E460127324629462046F9F7B8FA97
:1073200007463846BDE8F08170B5044600222021AA
:107330001148FAF761F900251BE004F0800028B13C
:10734000012211460D48FAF757F904E00022012105
:107350000A48FAF751F9002220210748FAF74CF9B8
:10736000012220210448FAF747F96006040E681C40
:10737000C5B2082DE1DB70BD0008024000040240E8
:10738000F8B504460D4616462B46002280212046BD
:10739000009600F009F828B1606D40F020006065AB
:1073A0000320F8BD0020FCE72DE9F04104460E461D
:1073B00017461D46DDF818803FE0681CE0B32DB18C
:1073C000FAF720F9A0EB0800A84236D320684068FD
:1073D00020F0E000216848606068B0F5827F0DD140
:1073E000A068B0F5004F03D0A068B0F5806F05D15C
:1073F0002068006820F0400021680860A06AB0F5AD
:10740000005F0ED100BF206800684DF6FF71084094
:10741000216808602068006840F400502168086016
:1074200000BF012084F8510000BF002084F8500004
:1074300000BF0320BDE8F081FFE72068806830408E
:10744000B04201D1012000E00020B842B5D10020B7
:10745000F0E7704710B513F09BFAFAF7B5FE01207C
:1074600011F0CAFC14F02AFB13F0B0FA10BD0000B2
:1074700000B5ABB030211FA8F8F79AFF14211AA865
:10748000F8F796FF30210EA8F8F792FF302102A8F6
:10749000F8F78EFF00BF002001903448006840F0EC
:1074A0008050324908600846006800F08050019022
:1074B00000BF00BF00BF002001902D48006840F4CD
:1074C00040402B4908600846006800F440400190A5
:1074D00000BF00BF09201F904FF480302090012092
:1074E00021900220259041051FA8C1610F21016252
:1074F0004FF490714162022181620A21C162FBF75F
:107500009BFB08B1F9F7F6FAFBF7A6F808B1F9F713
:10751000F1FA0F201A9002201B9000201C904FF4CB
:10752000A0501D904FF480501E9005211AA8FBF723
:1075300045FA08B1F9F7DEFA08200E904E201290B5
:1075400002211491002017900EA8FBF7CBF808B188
:10755000F9F7D0FA2020029000010C9002A8FBF766
:10756000C1F808B1F9F7C6FA2BB000BD40380240A7
:10757000007000401448006840F470001249086030
:107580001248006840F001001049086000200F49CF
:10759000083108600D4800680D4908400B49086033
:1075A0000C48091D0860081F006820F48020091F8E
:1075B0000860002005490C3108604FF00060024966
:1075C000803908607047000088ED00E00038024014
:1075D000FFFFF6FE1030002410B50848006800F0E8
:1075E000010020B105F02AF908B105F03FF9034880
:1075F000006820F001000149086010BD100800403B
:1076000070B50546AC6B0020E085E0842046FCF7B1
:107610003AFD70BD0168C96821F490710268D160BB
:107620000168496921F0010102685161202180F857
:107630003A10704710B504462068C06820F040003A
:107640002168C860202084F839002046FCF7F4FE49
:10765000002010BD70B5044694F83A00222844D1A9
:10766000A068B0F5805F13D1A56A206940B9206891
:107670004068C0F308002880A06A801CA06219E05E
:1076800020684068C0B22880A06A401CA06211E057
:10769000206938B920684068C1B2A26A501CA06253
:1076A000117007E02068406800F07F01A26A501C5A
:1076B000A0621170E08D401E80B2E08598B920680C
:1076C000C06820F490702168C8602068406920F08C
:1076D000010021684861202084F83A002046FCF728
:1076E0003FFE002070BD0020FCE70220FAE700000A
:1076F0002DE9F041044600252068056925F4405530
:10770000E0680543206805612068C56849F20C609F
:1077100085432169A068084361690843E16908431A
:1077200005432068C5602068456925F44075A06957
:10773000054320684561E069B0F5004F7ED1C4493A
:107740002068884203D0C349206888425DD1FBF796
:107750000BFA00EBC00101EB001061684900B0FBBF
:10776000F1F06421B0FBF1F00601FBF7FDF900EB4D
:10777000C00101EB001061684900B0FBF1F7FBF7B5
:10778000F3F900EBC00101EB001061684900B0FBA8
:10779000F1F06421B0FBF1F000EBC00101EB00104F
:1077A000A7EB8000322101EBC0006421B0FBF1F0B7
:1077B00000F0F80006EB4006FBF7D6F900EBC0013D
:1077C00001EB001061684900B0FBF1F7FBF7CCF961
:1077D00000EBC00101EB001061684900B0FBF1F063
:1077E0006421B0FBF1F000EBC00101EB0010A7EB4E
:1077F0008000322101EBC0006421B0FBF1F000F009
:10780000070030442168886020E1FBF79DF900EB18
:10781000C00101EB001061684900B0FBF1F0642188
:10782000B0FBF1F00601FBF78FF900EBC00101EBB3
:10783000001061684900B0FBF1F700E045E0FBF79C
:1078400083F900EBC00101EB001061684900B0FB57
:10785000F1F06421B0FBF1F000EBC00101EB00108E
:10786000A7EB8000322101EBC0006421B0FBF1F0F6
:1078700000F0F80006EB4006FBF766F900EBC001EC
:1078800001EB001061684900B0FBF1F7FBF75CF910
:1078900000EBC00101EB001061684900B0FBF1F0A2
:1078A0006421B0FBF1F000EBC00101EB0010A7EB8D
:1078B0008000322101EBC0006421B0FBF1F000F048
:1078C0000700304421688860C0E061492068884230
:1078D00003D06049206888425CD1FBF745F900EB92
:1078E000C00101EB001061688900B0FBF1F6FBF705
:1078F0003BF900EBC00101EB001061688900B0FBAF
:10790000F1F06421B0FBF1F000EBC00101EB0010DD
:10791000A6EB8000322101EB00106421B0FBF1F0F6
:1079200000F0F006FBF720F900EBC00101EB0010BE
:1079300061688900B0FBF1F06421B0FBF1F006EB67
:107940000016FBF711F900EBC00101EB00106168B4
:107950008900B0FBF1F7FBF707F900EBC00101EB81
:10796000001061688900B0FBF1F06421B0FBF1F018
:1079700000EBC00101EB0010A7EB8000322101EB0E
:1079800000106421B0FBF1F000F00F0030442168DA
:1079900088605BE0FBF7D8F800EBC00101EB00105A
:1079A00061688900B0FBF1F6FBF7CEF800EBC0018F
:1079B00001EB001061688900B0FBF1F06421B0FBBD
:1079C000F1F000EBC00101EB0010A6EB80003221CA
:1079D00001EB00106421B0FBF1F000F0F006FBF7C2
:1079E000B3F800EBC00101EB001061688900B0FB47
:1079F000F1F06421B0FBF1F006EB0016FBF7A4F800
:107A000000EBC00101EB001061688900B0FBF1F7E9
:107A1000FBF79AF800EBC00101EB001061688900E8
:107A2000B0FBF1F06421B0FBF1F000EBC00101EB21
:107A30000010A7EB8000322101EB00106421B0FBA5
:107A4000F1F000F00F00304421688860BDE8F0815B
:107A50000010014000140140014691F8390021282E
:107A60002CD18868B0F5805F0FD10A6A1088C0F306
:107A700008000B685860086918B9086A801C086219
:107A800009E0086A401C086205E00B6A581C08629D
:107A900018780B685860C88C401E80B2C88458B9EA
:107AA0000868C06820F080000B68D8600868C0686B
:107AB00040F040000B68D860002070470220FCE7CF
:107AC0002DE9F04104460D4617469846069E21E0F2
:107AD000701CF8B12EB1F9F795FDA0EB0800B0428B
:107AE00018D92068C06820F4D0702168C860206868
:107AF000406920F0010021684861202084F83900A5
:107B000084F83A0000BF002084F8380000BF03204A
:107B1000BDE8F081206800682840A84201D101201A
:107B200000E00020B842D3D00020F1E710B512F0F9
:107B30002FFF034815F02CF812F048FF10BD00008D
:107B40005864022008B5114800680068C0F340106E
:107B500028B10F490968C8B215F0AAF812E00B481D
:107B600000680068C0F3001060B100BF0020009002
:107B7000064800680068009004480068406800906B
:107B800000BF00BF0148FCF77FFA08BDF8CB00201A
:107B90000414014000BFFEE710B504460022102186
:107BA0000A48F9F729FD2020FFF7BEFB2012FFF756
:107BB000BBFB0020FFF7B8FBE0B2FFF7B5FB0122EB
:107BC00010210248F9F718FD10BD0000000802401E
:107BD00010B50446002210210748F9F70DFD40209A
:107BE000FFF7A2FB2046FFF79FFB0122102102486E
:107BF000F9F702FD10BD0000000802400FB4054B6C
:107C000010B503A9044A029800F0ECFA10BC5DF824
:107C100014FB0000C9AA0108780300200FB4084B28
:107C200010B504A902AA039800F0DCFA044602A9E0
:107C3000002000F065FC204610BC5DF814FB00003D
:107C400001850108014609B900207047C8B220B17A
:107C5000C8B20E4A105C401CF7E701F47F4028B11F
:107C60000A48C1F30722805C0930EEE701F47F0087
:107C700028B10648C1F30742805C1130E5E70348AC
:107C800000EB116000781930DFE70000E2FB02082A
:107C900002E008C8121F08C1002AFAD170477047D5
:107CA000002001E001C1121F002AFBD17047000033
:107CB0002DE9F04782460C461E48408850B90821FD
:107CC000002000F025FA07461A48396801607968F3
:107CD000416000BF17484088A04203D31548008880
:107CE000A04202D90020BDE8F08712480088201A7F
:107CF000082101EB80060421304600F009FA054610
:107D00002868A0B12F680221384600F001FA8146A8
:107D100099F801000749097910FB01F84FEAE8706A
:107D200008EB5070C110B81C00F0F2F9DBE700203E
:107D3000D9E700005C0100202DE9F04782460C469F
:107D40001E48408850B90821002000F0E5F9074698
:107D50001A48396801607968416000BF1748408857
:107D6000A04203D315480088A04202D90020BDE8F4
:107D7000F08712480088201A082101EB80060421B0
:107D8000304600F0C9F905462868A0B12F680221E5
:107D9000384600F0C1F9814699F801000749097990
:107DA00010FB01F84FEAE87008EB5070C110B81CE6
:107DB00000F0B2F9DBE70020D9E7000078010020ED
:107DC0002DE9F04782460C461E48408850B90821EC
:107DD000002000F0A7F907461A4839680160796861
:107DE000416000BF17484088A04203D3154800886F
:107DF000A04202D90020BDE8F08712480088201A6E
:107E0000082101EB80060421304600F08BF905467D
:107E10002868A0B12F680221384600F083F9814616
:107E200099F801000749097910FB01F84FEAE87059
:107E300008EB5070C110B81C00F074F9DBE70020AB
:107E4000D9E70000940100202DE9F04782460C4656
:107E50001E48408850B90821002000F069F9074603
:107E60001A48396801607968416000BF1748408846
:107E7000A04203D315480088A04202D90020BDE8E3
:107E8000F08712480088201A082101EB800604219F
:107E9000304600F04DF905462868A0B12F68022150
:107EA000384600F045F9814699F8010007490979FB
:107EB00010FB01F84FEAE87008EB5070C110B81CD5
:107EC00000F036F9DBE70020D9E70000B001002020
:107ED0002DE9F04707460C4615469A461F4840884C
:107EE00060B90821002000F013F981461B48D9F839
:107EF00000100160D9F80410416000BF17484088A5
:107F0000A84203D315480088A84202D90020BDE842
:107F1000F08712480088281A082101EB8008042104
:107F2000404600F0F5F806463068A0B102213068FE
:107F300000F0EEF8814699F800002080387AE07071
:107F400099F80100A0700020207160710348007949
:107F5000A0710120DBE70020D9E700005C010020D0
:107F60002DE9F04707460C4615469A461F484088BB
:107F700060B90821002000F0CFF881461B48D9F8ED
:107F800000100160D9F80410416000BF1748408814
:107F9000A84203D315480088A84202D90020BDE8B2
:107FA000F08712480088281A082101EB8008042174
:107FB000404600F0B1F806463068A0B102213068B2
:107FC00000F0AAF8814699F800002080387AE07025
:107FD00099F80100A07000202071607103480079B9
:107FE000A0710120DBE70020D9E700007801002024
:107FF0002DE9F04707460C4615469A461F4840882B
:1080000060B90821002000F08DF881461B48D9F89E
:1080100000100160D9F80410416000BF1748408883
:10802000A84203D315480088A84202D90020BDE821
:10803000F08712480088281A082101EB80080421E3
:10804000404600F06FF806463068A0B10221306863
:1080500000F068F8814699F800002080387AE070D6
:1080600099F80100A0700020207160710348007928
:10807000A0710120DBE70020D9E700009401002077
:108080002DE9F04707460C4615469A461F4840889A
:1080900060B90821002000F04BF881461B48D9F850
:1080A00000100160D9F80410416000BF17484088F3
:1080B000A84203D315480088A84202D90020BDE891
:1080C000F08712480088281A082101EB8008042153
:1080D000404600F02DF806463068A0B10221306815
:1080E00000F026F8814699F800002080387AE07088
:1080F00099F80100A0700020207160710348007998
:10810000A0710120DBE70020D9E70000B0010020CA
:108110000246A2F17D507047024601481044704764
:108120008EDDCBC002460148104470475AA8E0C01B
:108130000246014810447047E8FA07C170B504468A
:1081400006480068FFF77EFD451E054850F83500DB
:10815000A0F120062560304670BD0000AC02002072
:10816000D462022003490868884201D00120704788
:108170000020FCE7BC0200202DE9F04389B0064650
:1081800088469146002400E0641C305D202804D01D
:10819000305D092801D04445F6D324B94FF0FF30B3
:1081A00009B0BDE8F0832146304611F0F9FA0546E2
:1081B00015B94FF0FF30F3E7202101A8F8F7F8F8E0
:1081C00001AA4146304611F055FB074617B94FF05A
:1081D000FF30E5E701A93846A847C9F800000020AC
:1081E000DEE700002DE9FF4F8BB09A460F460546AB
:1081F000002606E025280BD052460D9990476D1CAD
:10820000761C28780028F5D10FB03046BDE8F08FF5
:108210000024A0460122604900E0044315F8013F14
:10822000203B02FA03F00842F7D128782E2817D114
:1082300015F8010F44F004042A280ED06FF02F0225
:108240002878A0F1300109290AD808EB880102EB4F
:10825000410100EB01086D1CF2E757F8048B6D1C1F
:10826000287869283ED006DC0028CDD063280BD0C2
:10827000642804D136E0732810D075284BD05246BC
:108280000D999047761C85E017F8040B8DF80000D7
:1082900000208DF80100E946012003E057F8049B17
:1082A0004FF0FF3061074FF0000401D40AE0641C76
:1082B00044450DDA8442FADB19F804100029F6D19E
:1082C00006E0641C8442FCDB19F804100029F8D194
:1082D000264404E019F8010B52460D999047641E9C
:1082E000F8D257E001CF4FF00A0B002802DA4042E3
:1082F0002D2102E0210504D52B218DF82410012128
:1083000003E0E10705D02021F7E70DF120090891EE
:108310000CE00021F9E701CF4FF00A0BF9E75946CD
:10832000F8F796F801F1300209F8012D0028F6D18E
:10833000ADEB090000F1200B600701D44FF00108FC
:10834000D84502DDA8EB0B0000E0002080460024A9
:1083500006E009A85246005D0D999047641C761C02
:1083600008988442F5DB04E0302052460D9990478E
:10837000761CB8F10001A8F10108F5DC05E019F858
:10838000010B52460D999047761CBBF10001ABF1F1
:10839000010BF4DC6D1C34E7092801002DE9FC5FBA
:1083A00004468B4615461E46DDE90C9ADDE90E783B
:1083B00004F120004060006000BF28346560A660C2
:1083C000C4F80C90C4F810A02321D4E9030212F0E1
:1083D000BAFCD4E9033C63441A1F0F4BD4E90101F2
:1083E00012F0AEFA2060A77667760020E061C4F84C
:1083F0002880C4F82C8060612076A066E066283C66
:1084000000902346054A2146019004F1580013F0DC
:10841000D7FB0020BDE8FC9FA1B7020885BA02087F
:108420002DE9F04704460E4617469846DDF82090A1
:1084300084F81590607D20F001006075A662E76207
:1084400000206063C4F83080002506E004F12001BC
:1084500001EBC50012F04CFB6D1C012DF6DBBDE8F5
:10846000F08710B50246002001460EE002F120031D
:1084700003EBC100D0E900436360D0E9003423601E
:108480004060006000BF481C01460129EEDB10BDC2
:108490002DE9F04706460F461546A946B46D28E07B
:1084A000F7F7A0FE8246E088A188884205D1A0683F
:1084B00018B95046F7F79AFE1DE0E188206810F8D9
:1084C0000180E088401CE080E188706DC0F38F205F
:1084D000814201DB0020E080A068012801D100205A
:1084E000A0605046F7F782FE87F800807F1C6D1E63
:1084F00000BF002DD4D100BFA9EB0500BDE8F08777
:108500000A68531C0B601070704700001FB50020F4
:1085100000900190029003901548164908604FF4AE
:10852000803048600021134881600161017680F845
:108530002010C162104981620021C1600121C16126
:10854000002180F8301001214161F8F789FC08B161
:10855000F8F7D0FA06200090012001900320029045
:1085600069460448F8F7B2FB08B1F8F7C3FA1FBD33
:1085700000220140B4E300200100000F10B58AB0D2
:10858000044694F82400C0F3400020B994F8240075
:1085900000F0010070B194F82400C0F34000F0B97D
:1085A00094F8240000F00100C8B194F82400C0F34E
:1085B0008000A0B1282221466846F7F7DEFE21465A
:1085C00019480EF0C4F920460EF066FA012017494A
:1085D0000870039810B16846039988471FE0E08B44
:1085E000404200B2608394F8240000F00100B0B172
:1085F00094F82410C1F3800119B9A18B494209B242
:1086000061831034217D8908C943227D61F3820290
:1086100022752068616821606060103C00BF0348DB
:1086200000780AB010BD000044E70020CC00002014
:108630002DE9F04107462F480EF0A2F8044608E065
:10864000606A20F00800606221462A480EF09DF81A
:108650000446002CF4D12848006810F0AFFB064611
:1086600024480EF08DF804463CE0002023490870B1
:1086700094F82400C0F3C00038BB606A20F0080002
:1086800008306062608B304400B26083B4F91A0035
:1086900000281ADBB4F91A00218B884202DD208BF6
:1086A00000B260832046A16888470546606818B11B
:1086B00029B2D4E900029047B4F91A00218B88420C
:1086C00002DB2046FFF75AFF00BF0C48007820B1BC
:1086D00008480EF055F8044604E0214605480EF01F
:1086E00054F80446002CC0D110F076FB0249086013
:1086F000BDE8F08144E70020C8000020CC00002045
:1087000030B50346022B04D10E48405C50430012A2
:1087100030BD032B04D10C48405C50430012F7E7F6
:10872000042B04D10948405C50430012F0E7C1EB30
:10873000C105581EB5FBF0F0C4B20548005D5043BA
:10874000000AE5E7E6CD0208E8CD0208EBCD020815
:10875000EFCD020810B500F035F804F041FA14F03E
:10876000BDFA03F0EBFF00F0BDFC02F00DFE02F0DD
:108770004BFCFCF7DBF902F09DF806F05DFA13F014
:10878000BBFD13F085FC01F035FBFFF7BFFE0021B8
:108790004FF07F4006F0F2F9002206A1064801F0F2
:1087A000B5F8002205A1064801F0B0F811F0BAF9B9
:1087B00010BD0000303A0000C8640220313A0000C9
:1087C0002C85022010B51B48006840F004001949B0
:1087D000086019480068400842F21071B0FBF1F0DF
:1087E000164908606320091D0860144814380068A1
:1087F00040F00100114914390860081F006820F09A
:108800000100091F0860081F006840F00100091FEF
:1088100008600A482838006840F0010007492839F4
:10882000086000220F211E20F9F7C3FE1E20F9F771
:10883000B3FE10BD4038024044000020280800402C
:1088400010B520A012F01AF92148017821A012F0E9
:1088500015F91F48007800F0010010B123A012F0B4
:108860000DF91B48007800F0020010B122A012F0B0
:1088700005F91748007800F0040010B121A012F0AB
:10888000FDF81348007800F0080010B121A012F0A4
:10889000F5F80F48007800F0100010B120A012F099
:1088A000EDF80B48007800F0800030B108480F3038
:1088B00001681DA012F0E2F802E01FA012F0DEF83D
:1088C00010BD0000627573206661756C743A0A0011
:1088D00029ED00E05343425F434653525F42465303
:1088E000523A307825303258200000004942555322
:1088F0004552522000000000505245434953455212
:1089000052200000494D5052454349534552522090
:1089100000000000554E53544B45525220000000B9
:1089200053544B45525220005343422D3E42464140
:10893000523A253038580A000A00000010B50024C9
:1089400007E0204600F00BF808B160B210BD601CD3
:10895000C4B2022CF5DB4FF0FF30F7E77047014659
:108960000020704770B506460C46FFF7E7FF054646
:10897000002D04DB0120A07304490D7001E00020EC
:10898000A07302480078A060002070BD580100204C
:1089900070B504460D460020E070401E6063294615
:1089A000204610F05CFE08B1042070BD04F23620B1
:1089B00004F00FF94AF65521884201D00320F4E76C
:1089C00094F83800E92807D094F83800EB2817D13C
:1089D0003A20005D902813D104F16E0004F0EDF808
:1089E00020F07F400749884201D10020DDE704F1F3
:1089F0008A0004F0E2F80449884201D10020D4E75B
:108A00000220D2E74641540046415433024600E07A
:108A1000521C107810B110788842F9D11078704744
:108A2000F0B503460D461E68986A021DB089B5FB75
:108A3000F0F07789B0FBF7F400BF02CA09B9002053
:108A4000F0BD8C4200D202E0641A121DF5E700BFAF
:108A500010682044F4E70246891ED069801E8842CF
:108A600001D8002070475389106B01FB0300F9E720
:108A700070B504460D4605F02DFC002070BD70B5A4
:108A800004460D4605F0D8FE002070BD02460020C9
:108A9000704700002DE9F04780460C4604F11A00AB
:108AA00004F097F810B10020BDE8F087207800F0BE
:108AB0003F00401E00EB800101EBC0054FF00109B3
:108AC000002621E01849895D081904F082F807465C
:108AD000B9F1000F11D0FF2D0BD2384601F0E2F9A9
:108AE000824629466D1C38F8110001F0DBF98245F9
:108AF00001D00020D8E7B94605E04FF6FF70874265
:108B000001D00020D0E7761C0D2EDBD3207800F0BA
:108B1000400038B1B9F1000F04D038F8150008B1A1
:108B20000020C1E70120BFE7DCFE020838B52D4870
:108B30000068D0B911F062FC12F0BAFF05460DE0F2
:108B400028480068401C274908600020009002E087
:108B50000098401C009000986428F9D312F0A8FFF8
:108B6000401B0A28ECD311F059FC002412F0A0FF9E
:108B7000054609E0641C0020009002E00098401CBB
:108B8000009000986428F9D312F092FF401B0A2845
:108B9000F0D31448006884421BD212480068041BBA
:108BA000642060430F490968B0FBF1F00E4908707A
:108BB000642060430B490968B0FBF1F201FB12002D
:108BC0006421484307490968B0FBF1F00749087080
:108BD00006E0044804600020034908700349087057
:108BE00038BD00002C0000202800002029000020B3
:108BF00010B5024812F08EFE10BD00002D8B01084A
:108C00002DE9F04782468946DAF80040B9F1000FB5
:108C100006D1676917B1E069B84215D8012713E09A
:108C20004946504601F0ECFF0646022E02D20120D2
:108C3000BDE8F087701C08B93046F9E7E069B0423A
:108C400001D93046F4E74F463D4600BF6D1CE06950
:108C5000A84204D80225BD4201D90020E8E72946F0
:108C6000504601F0CDFF064606B909E0012E01D0BD
:108C7000701C08B93046DBE7BD42E7D10020D7E7DA
:108C800000BF4FF0FF322946204611F03BF88046E6
:108C9000B8F1000F08D1B9F1000F05D02A464946B6
:108CA000204611F02FF88046B8F1000F0DD1656114
:108CB000D4E90610801E814202D8A069401EA0613E
:108CC000207940F00100207107E0B8F1010F02D1D6
:108CD0004FF0FF3000E0012005462846A8E70000DD
:108CE0002DE9F04389B006460F4615469846002404
:108CF00000BF26E01C2102A8F7F75AFB00213846E6
:108D00000CF060FA814605EB8400B0F902200FA157
:108D100002A8FEF783FF02A948460DF0B6F805EB5E
:108D200084004088C0F11E0000B2009035F8240095
:108D30000A3803B20422314648460DF043FF601C56
:108D400084B24445D6DB09B0BDE8F0832564000059
:108D50002DE9F04F85B006460F461546984600248B
:108D60002C492D480FF0B0FB47F618412A48C18026
:108D70002A48006804902848BDF810104180274810
:108D8000001D006803902448BDF80C108180234822
:108D90000830006802902048BDF808104181012188
:108DA00081814C21C1731D480C30006801901A4824
:108DB000BDF8041001820121418200BF24E000219E
:108DC00038460DF053F981460E9802B201B248467A
:108DD0000EF058FFCA46DFF840B0594650460EF034
:108DE000A0FF00BF05EB84004088C0F1030000B283
:108DF000009035F82400C01E03B2042231464846D4
:108E00000DF0E0FE601C84B24445D8DB05B0BDE83F
:108E1000F08F0000A0E5002044600220D4FB02088F
:108E20002DE9F34F83B08146049800680190D9F88A
:108E30000000D0F810A000200646054600BF2846D6
:108E40006D1C01990C5C202C00DA41E02F2C01D024
:108E50005C2C0AD100E06D1C0198405D2F28FAD0EF
:108E60000198405D5C28F6D032E0FF2E03D3062047
:108E700005B0BDE8F08FE4B2812C13DBE0B2FE2830
:108E800010DC28466D1C01990F5C07EB042084B2AE
:108E9000402F01DB7E2F05DD802F01DBFE2F01DD62
:108EA0000620E5E70121204600F0BEFF04460CB98C
:108EB0000620DDE7802C06DA21466FA0FFF7A6FD2D
:108EC00008B10620D4E73046761C2AF81040B6E7F1
:108ED00000BF0198411904980160202C01DA042098
:108EE00000E00020804608E0701E3AF81040202C78
:108EF00002D02E2C00D002E0761E002EF4D100BF4E
:108F000000202AF816000EB90620B1E70B22202116
:108F100009F1200010F082FB002500E06D1C3AF8FA
:108F200015002028FAD03AF815002E28F6D00DB1F9
:108F300048F0030800E0761E26B1701E3AF81000D3
:108F40002E28F8D10020074602904FF0080B00BFF2
:108F500028466D1C3AF8104004B963E0202C03D079
:108F60002E2C04D1B54202D048F00308F0E7029855
:108F7000584501D2B54214D1BBF10B0F02D148F0D4
:108F800003084FE0B54201D048F00308B54200D9CC
:108F900048E03546082002904FF00B0BB806070E4C
:108FA000D6E7802C09DB204600F07CFF00210090F2
:108FB00000F03AFF044648F00208FF2C11DDABF147
:108FC00001000299884204D848F00308CDF808B09F
:108FD000BEE722120298411C029109F120010A54B5
:108FE00019E024B1214627A0FFF710FD18B15F2436
:108FF00048F003080FE0412C04DB5A2C02DC47F058
:10900000020708E0612C06DB7A2C04DC47F001073C
:10901000A4F1200084B20298411C029109F12001C0
:109020000C5495E700BF99F82000E52802D10520EF
:1090300089F82000BBF1080F01D1B806070E07F030
:109040000C000C2803D007F00300032801D148F0DE
:10905000020808F0020058B907F00300012801D106
:1090600048F0100807F00C00042801D148F0080867
:1090700089F82B800020FBE6222A3A3C3E3F7C7F89
:10908000000000002B2C3B3D5B5D0000134909688C
:1090900049084FF4FA62B1FBF2F1491E104A91629D
:1090A0001146496941F001015161002111614100FE
:1090B000D1621146096841F0080111601146096842
:1090C00041F00101116000BF0549096901F001018A
:1090D0000029F9D00021024A1161704744000020A4
:1090E000001000400348006840F01000014908608B
:1090F00070470000403802402DE9F04104460E461A
:10910000D4F800800021204600F0D2F90546EDB9E0
:10911000002700BF4046A16910F0A1FA054605B13D
:1091200013E0E0690078E52802D0E069007820B912
:10913000781C0746B04201D107E0002701212046F4
:1091400000F088F80546002DE4D000BF042D00D1C2
:1091500007252846BDE8F0812DE9F0470446D4F8FC
:1091600000A00021204600F0A3F9064616B13046C3
:10917000BDE8F0874FF0FF08C1464FF0FF30E062D6
:1091800000BF5046A16910F06AFA064606B15EE0DB
:10919000E06905780DB9042659E0E069C07A00F06D
:1091A0003F07A771E52D04D007F0080038B10F2F55
:1091B00005D04FF0FF084FF0FF30E06240E00F2F86
:1091C00022D12B20005D00F0400098BB05F040004C
:1091D00038B1E06990F80D9005F0BF05A846206908
:1091E000E06245450CD1E069407B484508D1E16922
:1091F000DAF81000FFF74EFC10B1A8F1010000E012
:10920000FF2000F0FF081BE0B8F1000F05D1E06976
:1092100013F031FB484500D119E02B20005D00F030
:10922000010040B90B2204F12001E06910F062F95D
:1092300008B90CE004E04FF0FF084FF0FF30E062A7
:109240000021204600F006F80646002E99D000BF07
:1092500030468DE72DE9F047054689462C68286998
:1092600000F12007A86910B1B7F5001F02D3042050
:10927000BDE8F087A089B7FBF0F100FB1170002872
:1092800069D1A869401CA861686938B92089B0EB28
:10929000571F60D80020A8610420E9E7A089B7FB28
:1092A000F0F06189491E0840002854D128466969B8
:1092B00001F0A6FC0646012E01D80220D8E7701C5A
:1092C00008B90120D4E7E069B0423ED8B9F1000FF7
:1092D00003D10020A8610420CAE728466969FFF786
:1092E0008FFC06460EB90720C2E7012E01D10220ED
:1092F000BEE7701C08B90120BAE7204613F0E0FB76
:1093000008B10120B4E7A289002104F1380010F06F
:1093100085F94FF0000831462046FFF79CFB60635B
:109320000CE00120E070204613F0CAFB08B10120D8
:109330009EE708F10108606B401C6063608940454E
:10934000EFD8606BA0EB080060636E613146204689
:10935000FFF781FBA8612F61A089B7FBF0F100FB4B
:10936000117104F138000844E861002080E72DE91C
:10937000FE4F044626682B20005D00F0A00010B1CF
:109380000620BDE8FE8F4FF0000901E009F1010958
:10939000306930F819000028F8D10C2204F12001BE
:1093A000684610F0B9F89DF80B0000F0010028B3F2
:1093B00040212B2001554FF001080EE0434669463D
:1093C00004F12000326901F0B5FB2046FFF7C4FE2E
:1093D000054605B104E008F10108B8F1640FEDD3CA
:1093E00000BFB8F1640F01D10720CAE7042D01D0F6
:1093F0002846C6E79DF80B102B2001559DF80B0061
:1094000000F0020030B109F10C000D21B0FBF1F0C9
:10941000401C00E00120074639462046FFF76CFE5D
:1094200005464DBB781E071E26D02069A0EB4711CC
:10943000204600F03DF80546F5B904F1200013F090
:109440001AFA824600BF3046A16910F008F90546B5
:1094500005B110E0FAB2E1695346306910F01AFD27
:109460000120F07000212046FFF7F4FE054615B9F3
:10947000781E071EE7D100BFC5B93046A16910F0BC
:10948000EEF8054695B920220021E06910F0C6F8F3
:109490000B2204F12001E06910F03EF82B20005D62
:1094A00000F01800E16908730120F070284668E7B1
:1094B0002DE9F04104460E462568B6F5001F02D29C
:1094C00006F01F0010B10220BDE8F0812661A768F8
:1094D0001FB92878032800DBEF6A47B92889B0EB69
:1094E000561F01D80220EFE7E86AA0611DE06889F5
:1094F000A98900FB01F811E03946204601F080FB04
:109500000746781C08B90120DEE7022F02D3E8697C
:10951000B84201D80220D7E7A6EB08064645EBD2B1
:1095200039462846FFF797FAA0616761A06908B934
:109530000220C9E7A889B6FBF0F0A1690844A06140
:10954000A889B6FBF0F100FB116105F13800084471
:10955000E0610020B8E7000070B504460025084827
:10956000005D58B901200649085501F10C02105D53
:109570000A1D52F82420116888470546284670BD08
:10958000B86402202DE9F04104460D46164606490E
:10959000085D083951F8241032460B69294698476E
:1095A00007463846BDE8F081C46402202DE9F04149
:1095B00004460D4616461F460749085D083951F80E
:1095C00024103B463246D1F808C02946E047804681
:1095D0004046BDE8F0810000C464022070B5044636
:1095E000044A105D083A52F824205168884705461D
:1095F000284670BDC46402202DE9F04104460D46A2
:1096000016461F460749085D083951F824103B46A5
:109610003246D1F80CC02946E04780464046BDE8B6
:10962000F0810000C46402202DE9F04106460C469A
:109630001546B4F90400B4F90010401A401CC0F5F6
:10964000F07087B200201F4908600846C560B4F971
:10965000000061884FF4F07212FB01011A48C06DDE
:10966000022202FB01001749C86300200861084676
:1096700007640220C861A0882188411A491CB4F9F6
:109680000600B4F90220801A401C61F31F400D4906
:1096900048640846006840F00100086005E0404664
:1096A00008F10108401C00B905E00648006800F018
:1096B00001000028F3D100BF304605F0C7FEBDE829
:1096C000F081000000B00240ACCC002070477CB5B7
:1096D00004460D4616464FF47A702B460122214669
:1096E000CDE90060A02001F0B3FE0520FFF7CEFC1D
:1096F0007CBD7CB504460D4616464FF47A702B4669
:1097000001222146CDE90060A02001F08DFE7CBD44
:109710002DE9F04705460F4614464FF00008C146B4
:10972000C24600262846E91705EB5171C910A5EB82
:10973000C10101F0FF0ACAF10800C6B22046E117D4
:1097400004EB5171C1F3C708E11704EB5171C91063
:10975000A4EBC10101F0FF09BAF1000F22D1B8F169
:10976000000F05D14A4639462846FFF7B0FF54E0BE
:1097700008E0082239462846FFF7A9FF05F108004E
:10978000C5B20837B8F10000A8F1010101F0FF08E7
:10979000EFD1B9F1000F40D04A4639462846FFF7CD
:1097A00096FF3AE0B8F1000F05D14A4639462846FF
:1097B000FFF78DFF31E0A01B84B22046E11704EBD8
:1097C0005171C1F3C708E11704EB5171C910A4EB43
:1097D000C10101F0FF093EB1324639462846FFF784
:1097E00076FFA819C5B2374408E008223946284652
:1097F000FFF76DFF05F10800C5B20837B8F10000AA
:10980000A8F1010101F0FF08EFD1B9F1000F04D078
:109810004A4639462846FFF75AFFBDE8F0877047A9
:1098200002460448008800B28881034800788873A3
:1098300000207047480100204C01002070B504460C
:109840000D460026207800F0010068B92068B5EBCD
:10985000500F09D82946204600F020F8206820F053
:109860000100401C2060261D304670BD10B5014629
:10987000002011B9084A10680CE00A1D0B6802EBC1
:109880005300031D044C246804F52004A34200D3B4
:10989000002000BF10BD0000DC00002030B501F04A
:1098A000030212B121F00301091D0A1D0368B2EB86
:1098B000530F01D1026851080268B1EB520F0ED06C
:1098C000031D5A18146824F0010414600468C1EBE5
:1098D0005404241F156864F35F05156000BF026817
:1098E00061F35F02026030BD38B50546284600F0DE
:1098F00031FA04463CB96946284613F023FA044677
:109900000CB900202860204638BD0000F7B582B0B1
:1099100016460398019001A801F04AFB0546002D68
:1099200002DA0B2005B0F0BD0E4850F825400CB10E
:1099300000202070029810B1002002990870094997
:10994000029841F82500029808B1012E01D00020AC
:10995000E8E7002202A903A800F0F6FA0746384615
:10996000E0E700003C0300202DE9F74FADF50E7D48
:109970000446164624B909200DF5117DBDE8F08F87
:1099800006F03F06324681A98FA800F0DDFA0546B1
:10999000002D73D1819882908199C1F810D082A84E
:1099A0008F9901F03AF805462DB99DF8330200F081
:1099B000800000B1062506F01C00002856D045B1F5
:1099C000042D03D182A8FFF7D2FC054646F0080615
:1099D0000AE09DF80E0200F0110008B1072503E02F
:1099E00006F0040000B10825002D51D106F0080052
:1099F00000284DD001F09EF98090899901F10E0068
:109A0000809912F035FE899901F11600809912F0C3
:109A10002FFE20208999C8728999819803F0BAF89D
:109A2000814600228999819812F010FE899901F1EE
:109A30001C00002112F01CFE01208199C870B9F1B0
:109A4000000F25D08198406B80900022494682A863
:109A500010F0A9FA0546DDB9809981980FF0FFFD55
:109A60000546A9F101008199486111E085B99DF889
:109A70000E0200F0100010B1042509E065E006F0C8
:109A8000020028B19DF80E0200F0010000B1072588
:109A90004DB906F0080008B146F040068198406BC9
:109AA000206289986062002D60D18999819803F0C5
:109AB00071F8A060899901F11C0003F07EF8E06064
:109AC0000020A062819820608198C088A0802674C0
:109AD00000206074E06160614FF48052002104F165
:109AE0002C000FF09BFD06F0200070B3E06860B31F
:109AF000E0686061819840898199898900FB01FA59
:109B0000A768D4F80C800CE03946204601F078F8BC
:109B10000746012F00D80225781C00B90125A8EBC3
:109B20000A080DB9D045EFD8A76175B98198808929
:109B3000B8FBF0F100FB118038B139468198FEF78F
:109B40008AFFB0F1000B01D102250FE081988089D6
:109B5000B8FBF0F05844E061E2698199487801234C
:109B600004F12C01FFF722FD00B101250DB1002009
:109B70002060284600E72DE9FF4F85B004461546D2
:109B80009A46DDF818B00020CAF8000003A9204664
:109B900013F0D8F80490049810B9607C049018B1C0
:109BA000049809B0BDE8F08F207C00F0010008B9EE
:109BB0000720F6E76169E068401A01900198854244
:109BC00000D9019DC1E0606903998989B0FBF1F278
:109BD00001FB120000287ED1606903998989B0FBDE
:109BE000F1F003994989491E00EA0109B9F1000F12
:109BF0001FD1606910B9A06802900CE0A06A28B17A
:109C000020466169FEF70CFF029004E02046A1693E
:109C100000F0F6FF02900298022802D2022060743F
:109C2000BFE70298401C10B901206074B9E70298A0
:109C3000A061A1690398FEF70EFF064616B902203F
:109C40006074AEE74E4403988089B5FBF0F8B8F134
:109C5000000F2DD009EB080003994989884203D9E8
:109C600003984089A0EB0908039948784346324697
:109C70005946FFF79BFC10B10120607491E7207CEE
:109C800000F0800078B1E069801B40450BD2E169AB
:109C9000891B039B9B8901FB03B003998A8904F10B
:109CA0002C010FF039FC0398808900FB08F742E093
:109CB000E069B04220D0207C00F0800080B1E269F1
:109CC00003994878012304F12C01FFF795FC18B1A2
:109CD0000120607465E710E0207C00F07F002074B4
:109CE000039948780123324604F12C01FFF75EFC0A
:109CF00010B10120607454E7E661606903998989B5
:109D0000B0FBF1F201FB1200039989890F1AAF42EF
:109D100000D92F46606903998989B0FBF1F201FBF4
:109D2000120104F12C0008443A46014600905846BE
:109D30000FF0F2FB00BFBB44606938446061DAF8A1
:109D400000003844CAF80000ED1B002D7FF43BAF43
:109D5000002026E7F8B504466946204612F0F2FFD7
:109D60000646002E44D1207C00F0400000283FD061
:109D7000207C00F0800070B1E269009948780123EE
:109D800004F12C01FFF738FC08B10120F8BD207C5C
:109D900000F07F00207400F0CDFF0746216A009894
:109DA0000FF05DFC06461EBB656AE87A40F02000B5
:109DB000E8722946A268206812F048FC05F11C00F0
:109DC000E16812F055FC394605F1160012F050FC1E
:109DD000002105F1120012F057FC01200099C87013
:109DE000009812F025FE0646207C00F0BF0020748B
:109DF0003046CBE710B506490648F6F77CFE064923
:109E0000087006490648F6F776FE0649087010BD48
:109E100047030020BCAA0508460300204C0300208D
:109E2000540300204B0300202DE9F04102460F4669
:109E3000802A01DA10462FE01FB1184B45F2205658
:109E400002E0174B45F220560025102416E0A6EB41
:109E5000050C0CEBDC7805EB68014FEA410C33F89C
:109E60001CC0944500D10BE04FEA410C33F81CC0F4
:109E7000944501DA0D4600E00E46641E002CE6D142
:109E800000BF34B14FF0010C0CEB410C33F81CC097
:109E900001E04FF0000C6046BDE8F0818A530408F1
:109EA00006FF020830B5B0F5805F01DA244D00E00E
:109EB000244D294600BF31F8022B0AB1904200DA46
:109EC0003CE031F8023B1C12DBB2D518854230DD94
:109ED000092C2CD2DFE804F005090F13171B1F23F0
:109EE0002700851A31F8150021E0851A05F00105D3
:109EF000451BA8B21BE0A0F11005A8B217E0A0F125
:109F00002005A8B213E0A0F13005A8B20FE0A0F13F
:109F10001A05A8B20BE000F10805A8B207E0A0F10D
:109F20005005A8B203E0A0F5E355A8B200BF00BFFA
:109F300004E0002CBFD101EB4301BCE700BF30BD02
:109F40000EA8050800AA05082DE9F74F8AB00021E0
:109F50000B9801600A9801F02BF8089008980028E7
:109F600003DA0B200DB0BDE8F08FC549089851F811
:109F700020400CB90C20F5E70B9804600C9800F019
:109F8000FE000C90207878B16078FFF727FB8146BF
:109F900009F0010040B90C9820B109F0040008B1A3
:109FA0000A20DFE70020DDE70020207008986070BD
:109FB0006078FFF7D1FA814609F0010008B103206B
:109FC000D0E70C9820B109F0040008B10A20C9E7D5
:109FD000607804F10C020221FFF7D4FA08B10120E5
:109FE000C0E7A089B0F5805F07DCA089B0F5007FED
:109FF00003DBA089411E084008B10120B2E7002719
:10A0000039462046FEF7C4FC0546022D01D02EDA63
:10A010002DE0002614E04FF4DF7000EB061104F190
:10A020003800084409900998007920B1099808304F
:10A0300002F0C3FD00E0002002A941F82600761CD2
:10A04000042EE8D3002606B1761E00BF02A850F801
:10A05000267027B139462046FEF79AFC00E003201F
:10A060000546022D03DB701C06460428EED3042DA2
:10A0700001D1012076E7022D01DB0D2072E704F10A
:10A08000430002F0A6FDA189884201D00D2069E7B6
:10A0900004F14E0002F09DFD8046B8F1000F04D19E
:10A0A00004F15C0002F089FD8046C4F8208048205D
:10A0B000005DA070A078012804D0A078022801D00B
:10A0C0000D204FE7A07808FB00F84520005D608177
:10A0D000608918B16089411E084008B10D2041E730
:10A0E00004F1490002F075FD2081A089C11700EB41
:10A0F000D1614911228992FBF1F301FB132109B1CE
:10A100000D202FE704F14B0002F063FD8246BAF107
:10A11000000F04D104F1580002F04FFD824604F113
:10A12000460002F056FD0190019808B90D2019E78C
:10A13000A089C11700EBD1614911228992FBF1F28C
:10A14000019941441144079107998A4501D20D2094
:10A1500008E70798AAEB00006189B0FBF1FBBBF1AF
:10A16000000F01D10D20FDE603254FF6F570834564
:10A1700000D8022540F6F570834500D801250BF183
:10A180000200E061676201983844A0620798384491
:10A190002063032D13D104F1620002F01AFD08B10F
:10A1A0000D20DFE6208908B10D20DBE604F1640014
:10A1B00002F003FDE062E0698000069014E020896F
:10A1C00008B90D20CEE6A06A4044E062022D02D11B
:10A1D000E069400007E0207F00F00100E16901EB49
:10A1E000410100EB51000690A089401E06990844E9
:10A1F000A189B0FBF1F0216A884201D90D20B1E6B6
:10A200004FF0FF30A061606180202071032D2CD1C0
:10A2100004F1680002F0DDFC012826D1791C2046FB
:10A220000FF01DFA08BB0020207104F2362002F066
:10A23000D0FC4AF65521884217D104F1380002F0CB
:10A24000BCFC1049884210D104F5077002F0B5FC3F
:10A250000D49884209D104F5087002F0AEFCA061F6
:10A2600004F5097002F0A9FC6061257007480088B8
:10A27000401C80B205490880E080002072E60000A2
:10A280003C0300205252614172724161440300203C
:10A2900010B51448006890F82D00C0F3400020B9B4
:10A2A000002011490870084610BD1048006838B1F8
:10A2B00080220E4801680C48F6F791F80A48F3E747
:10A2C0000FF0D6FA20B10AA10748F6F7A9F803E083
:10A2D00009A10548F6F7A4F809A10348F6F773F8B1
:10A2E0000148E1E7E0020020D4630220E4020020FC
:10A2F0006D7368200000000066696E7368200000BE
:10A300003E00000008B50020009005E04FF0FF314E
:10A310000848006810F0C6FE0649096801236A462D
:10A32000D1F88000991E10F009F80128EED19DF8AF
:10A33000000008BDE002002070B504460D46034849
:10A34000006810F092FE002070BD0000E0020020C6
:10A3500070B50546002428460FF068FF044624B96E
:10A3600029461EA010F08AFB70BD24480068D0F872
:10A370008000A04200D1F7E740F2431120460FF0E1
:10A380007FFF40BB1D480068D0F8800060B11B49CA
:10A390000968D1F880000FF02BFF18490968D1F83F
:10A3A0008000002110F005F85021144800682E307C
:10A3B000F5F7FEFF00201149096881F87E000F497A
:10A3C000096881F87F000D480068C0F880400C499A
:10A3D00020460FF0EEFF00BFC6E7000066696E730F
:10A3E000683A2063616E206E6F742066696E642027
:10A3F0006465766963653A2025730A00E0020020EF
:10A4000039A301080549096891F82D1060F341014D
:10A41000024A126882F82D1070470000E002002006
:10A42000024A1060024A116070470000E8020020F2
:10A43000EC0200207CB5002517491848FFF7F0FF13
:10A44000842101200FF014FE1549086008460068B9
:10A4500020B914A010F012FB681E7CBD0A20152143
:10A460004FF400730022CDE90010144914A011F03C
:10A4700068F9044600231A4613A10948006810F041
:10A48000E1FD0120FFF7BEFF1CB115B9204611F018
:10A49000BFFA0020E1E7000048AD050870AC0508F0
:10A4A000E00200206E6F206D656D6F727920666F1F
:10A4B00072207368656C6C0A00000000D1A401086A
:10A4C000747368656C6C000073687278000000003B
:10A4D000F048006890F82D0020F00100401CED4984
:10A4E000096881F82D00EB480068D0F8800038B981
:10A4F0000FF05EFE054615B12846FFF729FF00BFA5
:10A50000FFF7C6FE054610F0B9FAC2E1FFF7FAFE02
:10A510000446002C00DABCE11B2C05D10120DD49EA
:10A52000096881F82C00B4E1DA48006890F82C0042
:10A5300001280DD15B2C05D10220D649096881F88C
:10A540002C00A6E10020D349096881F82C0045E0E1
:10A55000D048006890F82C0002283FD10020CD4957
:10A56000096881F82C00412C00D192E1422C00D1E5
:10A570008FE1442C11D1C748006890F87F0058B192
:10A58000C5A010F07BFAC348006890F87F00401E19
:10A59000C049096881F87F007BE1432C1ED1BD488A
:10A5A000006890F87F00BB49096891F87E108842E6
:10A5B00013DAB848006890F87F20B64800682E305B
:10A5C000815CB6A010F05AFAB248006890F87F009B
:10A5D000401CB049096881F87F005AE10CB1FF2C9A
:10A5E00000D156E1092C1FD1002503E0AAA010F0EC
:10A5F00045FA6D1CA748006890F87F00A842F5DC7A
:10A60000A44800682E3011F0A7FFA24800682E3041
:10A61000F5F7F1FEC0B29F49096881F87E009D49B7
:10A62000096881F87F0034E17F2C01D0082C6FD1BC
:10A630009848006890F87F0000B92AE195480068C2
:10A6400090F87E00401E9349096881F87E00914889
:10A65000006890F87F00401E8E49096881F87F00ED
:10A660008C48006890F87E008A49096891F87F104C
:10A6700088423FDD874B1B6893F87E30854E3668F5
:10A6800096F87F609A1B834B1B6893F87F305B1CA6
:10A69000804E36682E3699197E4B1B6893F87F6082
:10A6A0007C4B1B682E33F01810F02CFB00217948EE
:10A6B000006890F87E20774800682E3081547548F5
:10A6C000006890F87F20734800682E30111874A03D
:10A6D00010F0D4F96F48006890F87F5003E06EA046
:10A6E00010F0CCF96D1C6B48006890F87E00A84211
:10A6F000F5DA0BE06CA010F0C1F9002165480068A4
:10A7000090F87E20634800682E308154C1E0FFE756
:10A710000D2C01D00A2C2BD10FF0AAF8012812D150
:10A720005C48006890F82D0000F0010010B15FA0B7
:10A7300010F0A4F95748006890F87E10554800685A
:10A740002E300EF0F7FFFFF7A3FD054610F096F947
:10A750005021504800682E30F5F72AFE00204D4960
:10A76000096881F87E004B49096881F87F0090E014
:10A770004848006890F87E00502804DB00204549D6
:10A78000096881F87E004348006890F87F004149DD
:10A79000096891F87E10884245DA3E4B1B6893F8B1
:10A7A0007E303C4E366896F87F609A1B394B1B68AA
:10A7B00093F87F60374B1B682E33F118354B1B68BD
:10A7C00093F87F305B1C334E36682E36981910F0A4
:10A7D00099FA3048006890F87F202E4800682E30A3
:10A7E00084542C48006890F82D0000F0010050B10E
:10A7F0002848006890F87F20264800682E301118FD
:10A800002BA010F03BF92348006890F87F5003E03C
:10A8100021A010F033F96D1C1E48006890F87E00EE
:10A82000A842F5DC12E01B48006890F87E20194829
:10A8300000682E3084541748006890F82D0000F00E
:10A84000010018B1214615A010F018F90024114894
:10A85000006890F87E00401C0E49096881F87E006F
:10A860000C48006890F87F00401C0A49096881F88C
:10A870007F000848006890F87E00502808DB002020
:10A880000449096881F87E000249096881F87F005F
:10A8900000BF3BE6E0020020080000002563000046
:10A8A0000825732020080000082008000A00000086
:10A8B0002573000000B587B01848194908600020CA
:10A8C00048600121164881600821C16010210161A2
:10A8D000402141614FF4C07181610021C1614FF499
:10A8E00000610162490041624900816202200090DA
:10A8F0000820019006200290039002200490059009
:10A90000069069460648F8F7BBFB08B1F6F7F2F87F
:10A910000348FCF751F907B000BD0000400100A05A
:10A9200078CC00202DE9F84F04468846914694F8EB
:10A930005C0000F0010008B1BDE8F88FE568002672
:10A940004FF0010A4FF0010B00BF8DB994F85C0085
:10A95000C0F3001000B956B9BBF1000F00D1EBE70E
:10A960002046C04705464FF0000AD34600E0E3E723
:10A9700016B92E4606B9DFE7BAF1000F06D0294610
:10A980002046C8470546B54200D1D5E74FF0010A39
:10A9900005B9DAE728680CF0CDFE00B900E0D4E78D
:10A9A00000BFE068A84200D1C6E7E068A8B1E1684E
:10A9B000086800221021C3699847E16800220868EE
:10A9C0000D2108F0B0FD00900098012800D0B3E7F9
:10A9D000E16808680CF034FF00BFE560E1680868D2
:10A9E00000220F21C3699847E168002208680C2102
:10A9F00008F099FD0746012F00D09DE7E16808683F
:10AA00000FF030F8E16808680CF01AFFA06910B187
:10AA10002046A169884700BF8EE72DE9F347044629
:10AA20002646D6F8008002E00198401C019001986B
:10AA300000782F28F8D0019800785C28F4D0002006
:10AA4000B06001980078202808D280212B20015581
:10AA500000212046FEF72CFD054632E000BF01A98B
:10AA60002046FEF7DDF9054605B129E02046FEF750
:10AA700073FB05462B20075D3DB1042D04D100BFBB
:10AA800007F0040000B905251AE007F0040000B142
:10AA900016E0B07900F0100008B9052510E0B8F80C
:10AAA0000C102069B0FBF1F201FB120108F1380033
:10AAB00001EB00094946404602F06CF8B060CEE771
:10AAC00000BF2846BDE8FC8713B50C464FF6FF7360
:10AAD000012269460248F9F744FC00981CBD0000B9
:10AAE000B8CB002010B5002821D0114B0022001F48
:10AAF000196803E0814203D80A4649680029F9D160
:10AB000052B11368841A9C4204D100681844106042
:10AB1000104602E0506000E0186039B102680B1A7C
:10AB2000934203D10B681A4402604968416010BD2A
:10AB30007C0300202DE9FF4F83B0074691461E4657
:10AB40000B22384604990EF0E7FC052E19D9B046C1
:10AB500012E039F802BB00250CE0584668F35F00AC
:10AB600080464FEA6B0B08F4803010B1234888EA26
:10AB700000086D1C102DF0D3B9F800000028E8D1B2
:10AB80004646072500BF06F00F0000F1300ABAF173
:10AB9000390F03DD0AF1070000F0FF0A28466D1E99
:10ABA00001A901F800A03609002EECD17E204855FD
:10ABB00000240BE0385D812807DB385DFE2804DCCB
:10ABC000681EA04200D106E0641C641CAC4202D2A4
:10ABD000385D2028EED100BF00BF082D04D22846E2
:10ABE0006D1C01A9095C00E020212046641C395439
:10ABF000082CF2D307B0BDE8F08F0000211001004F
:10AC00002DE9F05F81460D46D9F80040022D02D3B0
:10AC1000E069A84202D84FF0010887E04FF0FF3802
:10AC20002078012804D002283AD003287AD156E0AF
:10AC30002E4606EB5606A089B6FBF0F0A16A00EBA3
:10AC4000010A514620460EF00AFD00B16DE0304683
:10AC5000761CA189B0FBF1F201FB120104F138006E
:10AC6000475CA089B6FBF0F0A16A00EB010A5146EF
:10AC700020460EF0F4FC00B157E0A089B6FBF0F1DD
:10AC800000FB116104F13800405C47EA002705F041
:10AC9000010008B1380901E0C7F30B00804644E029
:10ACA000B4F80CA00AEBDA704010B5FBF0F0A16A22
:10ACB00000EB010B594620460EF0D1FC00B134E008
:10ACC0006800A189B0FBF1F201FB120104F1380028
:10ACD00001EB000A504601F07CFF804625E0B4F805
:10ACE0000CA04FEAEA700AEB90708010B5FBF0F010
:10ACF000A16A00EB010B594620460EF0B0FC00B1F2
:10AD000013E0A800A189B0FBF1F201FB120104F1EC
:10AD1000380001EB000A504601F04FFF20F0704868
:10AD200003E0FFE74FF0010800BF00BF4046BDE869
:10AD3000F09F000000487047A160104F2DE9FC47CC
:10AD400080460E4616B90020BDE8FC87D8F80C40B6
:10AD50006069B04201D1A069F6E70025AEE005EBDD
:10AD60008501A06850F82100301A019005EB85019B
:10AD7000A06800EB810080880199884200D29BE0A6
:10AD8000002705EB8501A06800EB8100807C00F0C6
:10AD9000030040B905EB8501A06800EB8100C08885
:10ADA0000199471884E005EB8501A06800EB81005C
:10ADB000807C00F0030001280FD105EB8502A1681B
:10ADC00001EB8201C86805EB8502A16801EB8201F5
:10ADD000C988019A825C8F186AE005EB8501A0683A
:10ADE00000EB8100807C00F00300022827D1394865
:10ADF000009005EB8503A06800EB8300028A05EB59
:10AE00008503A06800EB83000223816801A80EF08F
:10AE100003FB8146B9F1000F10D005EB8502A16854
:10AE200001EB82018968A9EB0100400805EB85026E
:10AE3000A16801EB8201C9880F1800BF38E005EB5B
:10AE40008501A06800EB8100807C00F003000328EE
:10AE50002ED12048009005EB8503A06800EB83000D
:10AE6000028A05EB8503A06800EB8300022381685A
:10AE700001A80EF0D1FA8146B9F1000F17D005EB09
:10AE80008503A26802EB83029268A9EB02004008E6
:10AE900005EB8503A26802EB8302D16805EB85030D
:10AEA000A26802EB8302D2880B5CD71800BF00BFF8
:10AEB0006661A761384647E7681C85B2608AC0F3BF
:10AEC0000900A8423FF74BAF66610020A06100BFB8
:10AED0003AE70000BDCB02082DE9FC5F80460D4635
:10AEE0001646D8F80C704FF0000A788AC0F340304C
:10AEF000002841D1FC68A068C0F30160D8B9D4F83B
:10AF0000009005EB062080B2019027480090A068D1
:10AF100020F07F420223494601A80EF07DFA8346C5
:10AF2000BBF1000F06D0ABEB09004008616811F9D6
:10AF300000A000BF1FE0A068C0F3016001281AD183
:10AF4000D4F8009005EB0620019018480090A06806
:10AF500020F07F420423494601A80EF05DFA8346A3
:10AF6000BBF1000F06D0ABEB09000009616811F9D5
:10AF700000A000BF00BF13E0F8684368595D436854
:10AF80009A5D00290BDD002A09DD531E4C1E90F846
:10AF90000DC004FB0C330468E35C4FFA83FA00BF76
:10AFA0005046BDE8FC9F00004FC601082FC60108AF
:10AFB00070B502464FF0FF301568E5B1116800E04A
:10AFC000491C0D78202D02D30D783A2DF8D10D783B
:10AFD0003A2D0FD1146814F8015BA5F130030A2B48
:10AFE00007D28C4205D1022B03D218464D1C2946AC
:10AFF000156070BD002000BFFBE700000020014984
:10B000000875704754CD002000B589B00020079026
:10B01000142102A8F5F7CCF900BF002001903848B0
:10B02000006840F00200364908600846006800F0F9
:10B030000200019000BF00BFC814029001200390DD
:10B0400004900220059002A92E48F6F7BFF94FF4AC
:10B0500080600290002003900220049002A92948F9
:10B06000F6F7B4F900224FF400612648F6F7C4FA67
:10B070001420FEF70BF80122D1022248F6F7BCFAA1
:10B080003220FEF703F8042208A948F2401000F02D
:10B0900043F802208DF82000012208A948F2400060
:10B0A00000F0BCF8012208A948F2470000F034F88B
:10B0B0000A20FDF7EBFF00208DF82000012208A9EF
:10B0C00048F2400000F0AAF8012207A948F24E1009
:10B0D00000F0A4F84FF4806002900B480390002029
:10B0E000049002A90748F6F771F9002202212820EE
:10B0F000F7F75FFA2820F7F74FFA09B000BD000014
:10B100003038024000040240000011100148007D68
:10B110007047000054CD0020F8B504460D46164691
:10B12000200A8DF80000E0B28DF801004FF47A7328
:10B1300002226946BB2000F065F908B10120F8BD84
:10B140004FF47A7332462946BB2000F049F9F6E7FE
:10B15000FEB50546002002900190002400900026D4
:10B16000012202A948F24E10FFF7D6FF9DF8080011
:10B1700000F0800058B19DF8080000F00F0006288C
:10B1800005DA012201A948F24E1000F047F89DF8B7
:10B19000080000F00F00D0B39DF8080000F00F0089
:10B1A000062834DA002429E01A4931F81400042270
:10B1B0006946FFF7B1FF9DF800009DF8011000EB14
:10B1C0000120154921F814009DF802009DF8031094
:10B1D00000EB012081B210480A3020F814100A3820
:10B1E00030F8140025F814000B480A3030F8141019
:10B1F00005F10A0020F81410601CC4B29DF8080084
:10B2000000F00F00A042CFDC012601202875304657
:10B21000FEBD00008ACD020854CD00202DE9F84F74
:10B2200004460F461646200A8DF80000E0B28DF85D
:10B230000100B01C00F0FF08C14648460EF024F99A
:10B240000546200A28706C7003E017F8011BB01C3B
:10B250002954301EA6F10101CEB2F6D14FF47A7313
:10B2600042462946BB2000F0CDF882462846FFF72B
:10B2700039FC5046BDE8F88F09F006FF0CF0AAFD36
:10B280000CF0E8FD03F006FE04E00DF097FC05204D
:10B2900010F07FFAF9E7000010B51448006800F0DC
:10B2A000020010B112A00FF0E9FB1048006800F096
:10B2B000804088B10D48C01E007808B1FDF7C0FA83
:10B2C0000A48001F007808B10EF034F90748801EC4
:10B2D000008808B111F078FC0448006800F00040D4
:10B2E00010B109A00FF0CAFB10BD00002CED00E06A
:10B2F0006661696C656420766563746F722066654B
:10B300007463680A000000006465627567206576F2
:10B31000656E740A0000000010B502A00FF0AEFBCD
:10B32000002010BD48656C6C6F2052542D5468721B
:10B33000656164210A00000001460020302905DB18
:10B34000392903DCA1F13002D0B21CE0612902DB13
:10B35000A1F12002D1B2A1F14102062A10D2DFE808
:10B3600002F0030507090B0D0A200BE00B2009E092
:10B370000C2007E00D2005E00E2003E00F2001E087
:10B38000002000BF00BF704710B512481249086086
:10B3900012484860002110488160C1604FF480412C
:10B3A0000161002141618161C1610162F6F77EF9AD
:10B3B00008B1F5F79FFB00210748F6F729F908B116
:10B3C000F5F798FB00210448F6F748F908B1F5F7BE
:10B3D00091FB10BD005C00406CCD0020A0860100F8
:10B3E000F8B504460D4616461F464FF47A703346AC
:10B3F0002A46214600900248F6F7ECF9F8BD000015
:10B400006CCD0020F8B504460D4616461F464FF495
:10B410007A7033462A46214600900248F6F76EFBC2
:10B42000F8BD00006CCD00202DE9FE4304460D461A
:10B4300016461F46DDE90A8933462A462146034857
:10B440008DE88003F6F724FCBDE8FE836CCD002078
:10B450002DE9FE4304460D4616461F46DDE90A89DE
:10B4600033462A46214603488DE88003F6F7A4FDBB
:10B47000BDE8FE836CCD002003E04FF4FA7010F0BD
:10B4800088F9FAE770B504460D46E06DA96830F812
:10B490002110A184E06DA96800EB81004188E1845E
:10B4A000B4F92810B4F9240081420DD1B4F92A105E
:10B4B000B4F92600814207D1A87B012804D104F108
:10B4C000200000F059FD03E004F1200000F004FF2B
:10B4D000A18C2185E18C618570BD00002DE9F04FC4
:10B4E00087B00446A569002703E028460CF03CF924
:10B4F000054628460CF004F908B1002DF5D115B920
:10B5000007B0BDE8F08F28460CF0EEF800B9F7E779
:10B5100028460CF0EFF80646218AA089084401B2BB
:10B520002182618AE089084401B2618294F8240092
:10B5300000F0010058BB06F0010070B1B4F9100032
:10B54000002802DDB4F9100002E0B4F91000404216
:10B5500067490968097E884211DA06F00200B0B135
:10B56000B4F91200002802DDB4F9120002E0B4F9C7
:10B57000120040425E490968097E884207DB94F860
:10B58000240020F00100401C84F82400012794F8D6
:10B59000240000F0010000287ED0A08910B9E089C5
:10B5A0000028F9D052490968086903F081FF8246F2
:10B5B000B5F910B0B5F91200069028460CF0D4F891
:10B5C00003900CF01DF9059028460CF0CDF803907F
:10B5D0000CF0A8F8049028460CF01AF9804628468A
:10B5E0000CF022F98146032E12D13FB1208A40444B
:10B5F0000FFA80F8608A48440FFA80F9E0894844DD
:10B6000002B2A089404401B228460CF0E8FA1CE0DE
:10B6100006F0010058B11FB1208A40440FFA80F8AB
:10B62000A089404401B228460CF086FB0DE006F0EC
:10B63000020050B11FB1608A48440FFA80F9E089D6
:10B64000484401B228460CF084FBB5F91000584577
:10B650002DD1B5F912100698814228D128460CF058
:10B6600083F801900CF0CCF8039028460CF07CF89D
:10B6700001900CF057F8029005990398884215D173
:10B6800004990298884211D119490968086903F0A0
:10B690000FFF0190019A00E027E0A2EB0A0291B2AD
:10B6A000134A1268106903F05BFF00BF1CE094F8B6
:10B6B000240020F00200801C84F82400A7B10C486C
:10B6C000EB690D21026828469847204600F064FF88
:10B6D00000B115E700220821284607F024FF204684
:10B6E00000F05AFF00B10BE700BF00BF08E7000001
:10B6F000480000202DE9FF41044694F82400C0F3DF
:10B70000400008B9BDE8FF81E56903E028460CF078
:10B710002BF8054628460BF0F3FF08B1002DF5D1B4
:10B7200005B9EFE728460BF0F1FFD8B994F82400EB
:10B7300020F0020184F824105948EB690E210268B8
:10B740002846984700220921284607F0ECFE2046AB
:10B7500000F022FF00B1D5E700220921284607F0BA
:10B76000E2FECFE728460BF0C5FF0646A08A4C490B
:10B770000968497EC1F1640110FB01F0642190FB6E
:10B78000F1F001B2A182E08A45490968497EC1F120
:10B79000640110FB01F0642190FBF1F001B2E18241
:10B7A000A08A10B9E08A00285DD002A928460BF0D3
:10B7B00061FF28460CF02CF8A18A08440FFA80F8A3
:10B7C00028460CF031F80146E08A084407B2032EFF
:10B7D00005D13A46414628460CF001FA0EE006F043
:10B7E000010020B1414628460CF0A6FA06E006F01A
:10B7F000020018B1394628460CF0ABFA69462846D3
:10B800000BF038FFBDF90800BDF90010884201D0E7
:10B81000A08A38BBBDF90A00BDF90210884201D0E8
:10B82000E08AF8B994F8240020F0020184F824108A
:10B830000021A181E181A182E1821948EB690E21F9
:10B84000026828469847204600F0A6FE00B159E756
:10B8500000220921284607F066FE204600F09CFEE3
:10B8600000B14FE71AE094F8240020F0020184F8B8
:10B8700024100B48EB690E210268284698472046A1
:10B8800000F08AFE00B13DE700220921284607F0BA
:10B890004AFE204600F080FE00B133E700BF31E7EA
:10B8A000480000202DE9F84304460D46A87B0128F6
:10B8B00006D194F85000C0F3C00008B1BDE8F88389
:10B8C00094F85000C0F3C00080B194F8500020F00C
:10B8D000080184F850100021A16494F8500020F071
:10B8E000010184F8501000212420015594F824808F
:10B8F000A97B242001556968A162A76D07B9DDE71E
:10B90000384608F0D7F8C54908600846006800B90D
:10B91000D4E7A87B002843D1384608F0C2F800B32A
:10B92000B5F90C0000280CDA002604E01421384692
:10B9300008F016F9761CB5F90C004042B042F5DC6F
:10B940000EE0B5F90C0000280ADD002604E0132102
:10B95000384608F005F9761CB5F90C00B042F6DC63
:10B960001EE0B5F90C0000280BDA002603E038468B
:10B9700008F082F8761CB5F90C004042B042F6DCC3
:10B980000DE0B5F90C00002809DD002603E038467B
:10B9900008F008F8761CB5F90C00B042F7DC00BFDF
:10B9A000384608F087F89D4908600846006800B9E5
:10B9B00084E7A87B012831D1B8F1000F2ED10020F7
:10B9C0000090964800686A461221C369934800684F
:10B9D00098470DF001FAA064384608F062F810B9F3
:10B9E0009DF80000C8B98D48006800220721C3698E
:10B9F0008A480068984704F1200000F0CDFD00B1AE
:10BA00005CE7002211468548006807F08CFD04F1D0
:10BA1000200000F0C1FD00B150E7F9E0A87B01284B
:10BA20004BD1B8F1010F48D194F8500000F001005B
:10BA30000028F2D1A06C0DF0C1F9618B8842ECD9DD
:10BA400000200090754800686A461221C369734857
:10BA5000006898479DF8000068B138460AF036FF44
:10BA600018BB384608F01DF880F00106314638460C
:10BA700008F095F819E06948006800220B21C369B5
:10BA800066480068984704F1200000F085FD00B189
:10BA900014E7002204216148006807F044FD04F126
:10BAA000200000F079FD00B108E794F8500020F084
:10BAB0000100401C84F85000AAE0A87B0028ACD10B
:10BAC000B8F1010FA9D10090544800686A461221CC
:10BAD000C3695248006898479DF80000B0BB4F48C2
:10BAE000006800220A21C3694C480068984704F1A5
:10BAF000200000F051FD00B1E0E694F8500000F0A5
:10BB0000010028B9002203214448006807F00BFD1A
:10BB100004F1200000F040FD00B1CFE60022062134
:10BB20003E48006807F0FFFC04F1200000F034FDFF
:10BB300000B1C3E6002207213848006807F0F3FC93
:10BB400004F1200000F028FDA8B3B7E6FFE797F85E
:10BB50005C00C0F3400078B394F8500000F001009E
:10BB600018B138460AF0B2FE28B32C48006800220B
:10BB70000A21C36929480068984704F1200000F0B1
:10BB80000BFD00B19AE6002203212448006807F06B
:10BB9000CAFC04F1200000F0FFFC00B18EE6002298
:10BBA00006211E48006807F0BEFC04F1200000F0EA
:10BBB000F3FC10B182E622E010E0002207211748D2
:10BBC000006807F0B0FC04F1200000F0E5FC00B1D3
:10BBD00074E60A21384607F0C3FF10E09DF8000024
:10BBE00068B197F85C00C0F3400040B994F8500089
:10BBF00000F0010018B90121384607F0D0FF0021FC
:10BC0000A16494F8500020F0010184F8501000BFA6
:10BC100000200249086000BF50E600004C000020F0
:10BC20002DE9F04104460D46A87B012806D194F881
:10BC30005000C0F3C00008B1BDE8F08194F8500096
:10BC4000C0F3C00080B194F8500020F0080184F8DF
:10BC500050100021A16494F8500020F0010184F8F4
:10BC60005010002124200155A76D07B9E4E738469C
:10BC700007F020FFA84908600846006800B9DBE724
:10BC8000D4F828806968A1622420065DA97B01554B
:10BC9000A87B012861D1002E5FD10DF09DF8A06432
:10BCA00068680A281ED10A21384607F059FF9A48C9
:10BCB000006800220721C36997480068984704F18B
:10BCC000200000F069FC00B1B6E70022114692485E
:10BCD000006807F028FC04F1200000F05DFC00285B
:10BCE0003AD0A9E768681B2810D11B21384607F015
:10BCF00037FF002212218848006807F014FC04F185
:10BD0000200000F049FC0028EAD095E7686809287F
:10BD10000DD10021384607F042FF384607F042FEB9
:10BD200004F1200000F038FC0028D9D084E76868CE
:10BD30000B280DD10021384607F031FF384607F0B7
:10BD40009BFE04F1200000F027FC0028C8D073E718
:10BD50003846696807F004FFD9E0A87B012872D152
:10BD6000012EFCD194F8500000F0010068BBA06CDB
:10BD70000DF024F8618B884227D994F8500020F008
:10BD80000100401C84F8500068680A28E4D10DF0D6
:10BD900023F8E0646048006800220B21C3695E4814
:10BDA0000068984704F1200000F0F6FB00B143E77B
:10BDB000002204215848006807F0B5FB04F1200078
:10BDC00000F0EAFB0028C7D036E794F8500000F0F6
:10BDD00001000028C0D0E06C0CF0F0FFA18B88427D
:10BDE000BAD90CF0F9FFE06468680A281AD14A4809
:10BDF000006800220C21C36947480068984704F195
:10BE0000200000F0C9FB00B116E7002205214248DE
:10BE1000006807F088FB04F1200000F0BDFB00285B
:10BE200075D009E7686809280ED10021384607F067
:10BE3000B6FE384607F0B6FD04F1200000F0ACFB7A
:10BE4000002864D0F8E619E068680B280CD10021BE
:10BE5000384607F0A4FE384607F00EFE04F1200035
:10BE600000F09AFB90B3E7E63846696807F078FE81
:10BE700004F1200000F090FB40B3DDE6A87B28BB76
:10BE8000012E44D1C5F8048068680A2837D12248B9
:10BE9000006800220A21C3691F480068984704F11E
:10BEA000200000F079FB00B1C6E694F8500000F0E5
:10BEB000010060B9002203211748006807F033FB36
:10BEC00004F1200000F068FB08B1B5E61FE0002295
:10BED00006211148006807F026FB04F1200000F05D
:10BEE0005BFB00B1A8E6002207210B48006807F0C1
:10BEF0001AFB04F1200000F04FFB00B19CE600218A
:10BF0000A16494F8500020F0010184F85010002042
:10BF10000149086000BF8FE64C00002070B5044660
:10BF20000D46606D90B1B4F92800B5F90010884253
:10BF300005D1B4F92A00B5F90210884206D0B5F946
:10BF40000220B5F90010606D0BF049FE2988A1842C
:10BF50006988E18494F82000012804D104F12000CC
:10BF600000F00AF803E004F1200000F0B5F9A18C1C
:10BF70002185E18C618570BD2DE9F0410446D449ED
:10BF8000A069086094F83000C0F3C00008B1BDE8B3
:10BF9000F081D04800680669CD48006820BB304673
:10BFA00003F08CFA05462946204600F005FBC849F7
:10BFB00008600846006848B9304603F08AFA05462A
:10BFC0002946204600F0F8FAC1490860C0480068D8
:10BFD000C8BB304603F088FA05462946204600F0E3
:10BFE000EBFABB4908602EE094F82400C0F340004F
:10BFF00048BB1021B64800680BF096FC18BB3046D1
:10C0000003F05CFA05462946204600F0D5FAB0490F
:10C0100008600846006848B9304603F05AFA0546F9
:10C020002946204600F0C8FAA9490860A8480068D7
:10C0300048B9304603F058FA05462946204600F034
:10C04000BBFAA3490860A249A069096888426CD07C
:10C05000A1882181E1886181A069B0B1A5699D486D
:10C06000EB690921026828469847204600F094FAB7
:10C0700000B18CE700220221284607F054FA20463E
:10C0800000F08AFA00B182E700BF91480168A1611F
:10C090000168E1610068002847D00CF09DFEA062B5
:10C0A00094F8300020F0010084F8300094F8240067
:10C0B00020F0010184F8241094F8240020F00201FB
:10C0C00084F82410002121826182A181E1818048CD
:10C0D0000568002709E095F83000C0F3401000B172
:10C0E0002F4628460BF040FB0546002DF3D117B133
:10C0F00038460BF0CFFC76480068C36975480721C5
:10C100000268734800689847204600F045FA00B17D
:10C110003DE7002211466E48006807F004FA204609
:10C1200000F03AFA00B132E700BFA1882089081A6E
:10C1300001B2A181E1886089081A01B2E181B4F9F4
:10C14000140000EB8000C010A082B4F9160000EBD0
:10C150008000C110E182B4F91400002804DAA08A3A
:10C16000401C01B2A18207E0B4F91400002803DDED
:10C17000A08A401E01B2A182B4F91600002804DA98
:10C18000E08A401C01B2E18207E0B4F91600002801
:10C1900003DDE08A401E01B2E182A18AB4F90C00FD
:10C1A000800001EBE00001B2A182E18AB4F90E0047
:10C1B000800001EBE00001B2E18245480068002800
:10C1C00075D043480068C369424808210268404866
:10C1D00000689847204600F0DFF900B1D7E600225A
:10C1E00001213B48006807F09EF9204600F0D4F991
:10C1F00000B1CCE62046FFF771F9204600F0CCF9FB
:10C2000000B1C4E694F82400C0F3400078BB94F871
:10C21000300000F0010050BBA06A0CF0CFFD2D49AA
:10C220000968498B884222D929480068C36929488E
:10C230000B210268264800689847204600F0ACF9B8
:10C2400000B1A4E6002204212148006807F06BF940
:10C25000204600F0A1F900B199E694F8300020F0F2
:10C260000100401C84F830000CF0B6FDE06294F848
:10C270002400C0F34000D0B994F8300000F0010071
:10C28000A8B1E06A0CF09AFD12490968898B8842CE
:10C290001CD90F480068C3690E480C2102680C487D
:10C2A00000689847204600F077F908B16FE60DE086
:10C2B000002205210648006807F035F9204600F005
:10C2C0006BF900B163E60CF087FDE06200BF5EE64B
:10C2D0004C000020480000202DE9F041044694F86D
:10C2E0003000C0F3C00058B10021A161E16100201D
:10C2F000A062E06294F8300020F0080084F830007A
:10C300008C49A069086008460068002874D0102194
:10C31000884800680BF008FB00283AD08548006880
:10C32000C36985480A210268824800689847204608
:10C3300000F032F908B1BDE8F08194F82400C0F3B0
:10C340004000D0B994F8300000F0010050B900224C
:10C3500003217848006807F0E6F8204600F01CF951
:10C3600000B1E8E7002206217248006807F0DBF818
:10C37000204600F011F900B1DDE7002207216D48E9
:10C38000006807F0D0F8204600F006F900283FD0FA
:10C39000D1E768480068C36967480A2102686548B0
:10C3A00000689847204600F0F7F800B1C3E794F81A
:10C3B000300000F0010078B994F82400C0F3400088
:10C3C00050B9002203215B48006807F0ACF8204612
:10C3D00000F0E2F800B1AEE794F82400C0F34000AA
:10C3E00058B9002206215348006807F09CF82046FF
:10C3F00000F0D2F808B19EE78AE0002207214D48FC
:10C40000006807F090F8204600F0C6F800B192E707
:10C41000204600F0C1F800B18DE74FF00008454814
:10C4200000680BF07CF905462021424800680BF0BB
:10C430007BFA10BB3F48076810E038460BF094F9D0
:10C44000074607B90CE0202138460BF06DFA08B119
:10C45000002705E038460BF062F90546002DECD0C8
:10C4600000BF4DB147B1284607F012FB20B14FF095
:10C470000108384607F0A2FA00BF2E49206A096871
:10C48000884219D0B8F1000F16D100220D21206A80
:10C4900007F049F8204600F07FF800B14BE7002292
:10C4A0000C21A06907F03FF8204600F075F800B1B4
:10C4B00041E7204801682162204600F06DF800B194
:10C4C00039E71C48066803E030460BF04DF9064694
:10C4D00030460BF015F908B1002EF5D196B1304673
:10C4E0000BF014F970B194F82400C0F3400048B187
:10C4F00000220A21304607F016F8204600F04CF8DA
:10C5000000B118E70021A1610020A062E06200BF35
:10C51000E06960B194F83000C0F3400038B92046BB
:10C52000FFF7E8F8204600F037F800B103E700BF56
:10C5300001E700004C0000204800002090F8501057
:10C54000C1F3400129B300228263C263026490F800
:10C55000441021F0010280F8442090F8441021F0AA
:10C56000020280F8442090F8501021F0010280F877
:10C57000502000228264C264028642868286C2867D
:10C5800090F8501021F0020280F850200021014A5A
:10C59000116070474C000020014691F83000C0F354
:10C5A000400010B10020034A106091F83000C0F341
:10C5B000400070474C0000202DE9F04107460C4632
:10C5C0000025391D04F1100002F046FD00282BD093
:10C5D000201D0AF0D5F880460BE041463846FFF7AB
:10C5E000EBFF054605B107E04146201D0AF0CDF8F6
:10C5F0008046B8F1000FF0D100BFA5B920460BF07E
:10C6000033F880B1264608E030460BF093F800B1CD
:10C6100005E030460BF0A8F80646002EF4D100BF26
:10C6200006B9254600BF00BF2846BDE8F08130B5F9
:10C63000024614460B4620881D88A84203D0208855
:10C640001D88401B30BD60885D88401BFAE730B50F
:10C65000024614460B4620781D78A84203D0207865
:10C660001D78401B30BD60785D78401BFAE7000004
:10C6700070B50546304800EB051420688047002857
:10C680003ED12079052802DA0520207153E0207977
:10C690000A2803DA2079401C20714CE0A07A38B9CE
:10C6A0000120A07205EB4501491CC8B200F0CCF88E
:10C6B000208900283FDDE088218988420DDAE08862
:10C6C000401CE080E0882189884234DB05EB45018D
:10C6D000C91CC8B200F0B8F82DE0E07A00282ADDC5
:10C6E000207B401C2073207BE17A884223DB0020E2
:10C6F000207305EB4501491CC8B200F0A5F81AE00B
:10C700002079052802DD0520207111E0207900281C
:10C7100003DD2079401E20710AE0A07A012807D1AC
:10C720000020A07205EB4501891CC8B200F08CF80E
:10C730000020E080207370BD38CC002010B500F0E0
:10C7400023F800F023F901200149087010BD000012
:10C75000360000200B4800790A4A5279904201D1F4
:10C7600000207047074802790079401C054B18717A
:10C770001846815C0079042802DB00201A461071FB
:10C780000846EEE73000002000B587B0142102A86B
:10C79000F3F70EFE00BF002001902448006840F02F
:10C7A0000100224908600846006800F0010001907D
:10C7B00000BF00BF00BF002001900846006840F0A5
:10C7C000080008600846006800F00800019000BFFB
:10C7D00000BF00BF002001900846006840F08000C4
:10C7E00008600846006800F08000019000BF00BFAC
:10C7F0008020029000200390049002A90C48F4F7D6
:10C80000E5FD0420029000200390049002A909484D
:10C81000F4F7DCFD0120029000200390049002A9AF
:10C820000548F4F7D3FD07B000BD000030380240E2
:10C83000000C0240001C0240000002400148007849
:10C84000704700003600002007494A794979491CA1
:10C85000054B5971194688544979042902DB002196
:10C860001A465171704700003000002010B50024B6
:10C8700000BF04E02046FFF7FBFE601CC4B2042C9E
:10C88000F8DB10BD34E0FFF765FF04460A2C2AD21E
:10C89000DFE804F02905090D1115191D212515A042
:10C8A0000EF0ECF820E017A00EF0E8F81CE019A05C
:10C8B0000EF0E4F818E01BA00EF0E0F814E01DA064
:10C8C0000EF0DCF810E01FA00EF0D8F80CE021A06C
:10C8D0000EF0D4F808E024A00EF0D0F804E026A072
:10C8E0000EF0CCF800E000BF00BF0A200EF051FFB0
:10C8F000C9E700004B45595F4C4546545F444F57CC
:10C900004E0D0A004B45595F4C4546545F55500D3E
:10C910000A0000004B45595F4C4546545F4C4F4E52
:10C92000470D0A004B45595F574B55505F444F57D1
:10C930004E0D0A004B45595F574B55505F55500DF2
:10C940000A0000004B45595F574B55505F4C4F4E06
:10C95000470D0A004B45595F52494748545F444FC1
:10C96000574E0D0A000000004B45595F5249474899
:10C97000545F55500D0A00004B45595F52494748D6
:10C98000545F4C4F4E470D0A00000000002000216C
:10C99000144A1171517100BF18E06421124A02EB70
:10C9A000001211810221104A02EB001211710021C4
:10C9B0000D4A02EB001291720B4A02EB0012D17287
:10C9C000094A02EB00121173411CC8B20428E4DBCF
:10C9D0000649054A11600649116106491162064976
:10C9E000116370473000002038CC0020DD4A010878
:10C9F000114B0108F94A0108F54A01080020704767
:10CA00007047000070B506460C46A11C20460CF08D
:10CA10000EFEFFF7F3FF0546B5B10120A073062D0A
:10CA20000ED2DFE805F00D030507090B092507E025
:10CA30000B2505E0142503E0132501E00A2500BFBE
:10CA400000BF0548056001E00020A07302480068AF
:10CA50006060002070BD00005401002040B94FF01C
:10CA60008041096821F001014FF080421160704758
:10CA70000A2800DC0A2000EE900AF8EE600A9FED1A
:10CA80000E1AC0EE811AB0EE610A60EE000AB0EE36
:10CA9000600A4FF08041C96A00EE901AF8EE600A11
:10CAA00060EE800AFCEEE00A10EE901A4FF0804231
:10CAB000916300BFDBE700000000C84200B587B00B
:10CAC000142102A8F3F774FC00BF002001902D4848
:10CAD000006840F001002B4908600846006800F03B
:10CAE0000100019000BF00BF0220029003900020CF
:10CAF0000490022005900120069002A92248F4F734
:10CB000065FC20481030006840F001001D491031DC
:10CB100008601E48006840081D49B0FBF1F0401E47
:10CB2000490688624FF4FA70C8620007406940F015
:10CB3000010048610846006920F0010008610846CC
:10CB4000806940F4C04088610846806940F4006014
:10CB500088610846006A40F0100008620846006AD2
:10CB600020F020000862002088630846006840F03A
:10CB7000800008600846006840F00100086007B0C7
:10CB800000BD000030380240000002404400002098
:10CB900020A1070070B505460C4604F11A0000F00C
:10CBA00018F806462878032805D104F1140000F08F
:10CBB00010F846EA0046304670BD0146C8788A78CB
:10CBC00042EA00204A7842EA00200A7842EA00203D
:10CBD0007047014648780A7842EA00207047000012
:10CBE00000B587B0142102A8F3F7E2FB00BF0020D4
:10CBF00001902F48006840F001002D490860084668
:10CC0000006800F00100019000BF00BF00BF0020DD
:10CC100001900846006840F0080008600846006877
:10CC200000F00800019000BF00BF00BF002001908D
:10CC30000846006840F0080008600846006800F0F8
:10CC40000800019000BF00BF4FF400400290012097
:10CC5000039004900220059002A91648F4F7B6FB51
:10CC6000082002900120039004900220059002A960
:10CC70001148F4F7ABFB10200290012003900490C0
:10CC80000220059002A90C48F4F7A0FB0122D10371
:10CC90000848F4F7B1FC012208210748F4F7ACFC7E
:10CCA000012210210448F4F7A7FC07B000BD0000E2
:10CCB0003038024000000240000C02402DE9F04FE5
:10CCC00085B00446894615461E46E88E401E07B2CA
:10CCD0004FEA670807F0010AFF2E02D13820405DB5
:10CCE00003E03820405D7043001283462088ADF891
:10CCF0000C00A088ADF810006088A0EB0800A0EB45
:10CD00000A0000B2ADF80E00E088404400B2ADF871
:10CD10001200BDF90C00BDF91010884202DABDF90D
:10CD20000C0001E0BDF91000ADF80400BDF90C00E5
:10CD3000BDF91010884202DDBDF90C0001E0BDF91B
:10CD40001000ADF80800BDF90E00BDF912108842C0
:10CD500002DABDF90E0001E0BDF91200ADF80600DF
:10CD6000BDF90E00BDF91210884202DDBDF90E00BA
:10CD700001E0BDF91200ADF80A00A88E5B4602463C
:10CD80004946009001A802F045FD05B0BDE8F08FCE
:10CD90000FB59DB02298FF2803D1209890F8380055
:10CDA00005E0209890F838002299484300121C9022
:10CDB0000BF0EEF90A9002F050FB1B901D98818851
:10CDC0000088081A00B2ADF868001D98C188408834
:10CDD000081A00B2ADF86A001D98007EF0B11D98E7
:10CDE000B0F90210B0F906201E98104481420ADA08
:10CDF000BDF86A00404200B2ADF86400BDF86800BA
:10CE0000ADF8660028E0BDF86A00ADF86400BDF832
:10CE10006800404200B2ADF866001DE01D98B0F910
:10CE20000010B0F904201E98104481420ADABDF8BF
:10CE30006A00ADF86400BDF86800404200B2ADF889
:10CE4000660009E0BDF86A00404200B2ADF8640037
:10CE5000BDF86800ADF86600BDF86400000100B2DE
:10CE6000ADF86400BDF86600000100B2ADF86600E0
:10CE70002098B0F9360018901898400000B217902A
:10CE8000179880000A9002F027FD16900020159058
:10CE9000189800283DD00020039019AA03A904A8DF
:10CEA00000F0F2FE1898404302900020159029E00F
:10CEB000BDF81820DDE9151020F82120BDF81A2052
:10CEC000DDE9151000EB81004280BDF8180010FB71
:10CED00000F1BDF81A2012FB02100190DDE90101FA
:10CEE000884208D3159818901B9818B11898401EBE
:10CEF00000B218900BE004A800F030FF1598401C19
:10CF000000B215901798401E15998842D0DC00BFDA
:10CF100000BF189813901B9828B1189808B90120E1
:10CF20001390002014900020129011901898B0B126
:10CF30001898401E169931F920000A9000EBD07025
:10CF4000401012901898401E169901EB8000B0F91D
:10CF500002000A9000EBD0704010119023E01D9861
:10CF6000007E70B11D98B0F90210B0F906201E982D
:10CF70001044814205DB16984088401E01B2169885
:10CF800041801D98007E70B91D98B0F90010B0F96D
:10CF900004201E981044814205DB16980088401E2C
:10CFA00001B2169801800020159077E1DDE9151097
:10CFB00030F821101298081A02B2DDE9151020F895
:10CFC0002120DDE9151000EB810041881198081A35
:10CFD00002B2DDE9151000EB810042801B980028A9
:10CFE0007ED015980028FBD01D98007E002878D0B0
:10CFF0001598401E169931F920200846159930F9E8
:10D0000021008242ECD0DDE9151000EB810042885E
:10D010001499169800EB81004088101A00B20A900B
:10D020001D98B0F91200002847DA1C98019020984A
:10D03000808EADF800001D9842881499169800EB78
:10D040008100408811180A980844401C00B20990D9
:10D050001D9802881499169830F821001044401E3B
:10D0600000B208901F9BDDE9091202F083FB1C98B7
:10D0700001902098808EADF800001D98C288149908
:10D08000169800EB8100408811180A980844401C4B
:10D0900000B209901D9882881499169830F82100E2
:10D0A0001044401C00B208900A98404202B21F9BF4
:10D0B000DDE9080102F05EFB41E01C980190209838
:10D0C000808EADF800001D9842881499169800EBE8
:10D0D00081004088104400B209901D98028801E048
:10D0E000BDE02FE0169830F821001044401E00B239
:10D0F00008901F9BDDE9091202F03CFB1C9801908F
:10D100002098808EADF800001D98C288149916985A
:10D1100000EB81004088104400B209901D9882887D
:10D12000169830F821001044401C00B208900A986C
:10D13000404202B21F9BDDE9080102F01BFB15987B
:10D140001490A7E01598401E169901EB8000B0F9E5
:10D1500002200846159900EB8100B0F902008242D6
:10D160007DD0DDE9151030F82120149930F8210028
:10D17000101A00B20A901D98B0F90E00002845DA86
:10D180001C9801902098808EADF800001D98428870
:10D190001499169800EB810040881044401E00B29C
:10D1A00009901D980288169830F8210011180A98E5
:10D1B0000844401C00B208901F9BDDE9091202F0F0
:10D1C000ABFA1C9801902098808EADF800001D9855
:10D1D000C2881499169800EB810040881044401CC6
:10D1E00000B209901D988288169830F82100111815
:10D1F0000A980844401C00B208900A98404202B2C3
:10D200001F9BDDE9080102F087FA40E01C980190BD
:10D210002098808EADF800001D98428814991698C9
:10D2200000EB810040881044401E00B209901D9818
:10D230000288169830F82100104400B208901F9B15
:10D24000DDE9091202F068FA1C9801902098808E9E
:10D25000ADF800001D98C2881499169800E019E0F6
:10D2600000EB810040881044401C00B209901D98DA
:10D270008288169830F82100104400B208900A986D
:10D28000404202B21F9BDDE9080102F045FA159801
:10D29000149000BF1598401C00B21590189915986D
:10D2A0008842FFF683AE189800287DD01B9800288E
:10D2B000FBD01D98007E002877D01398401E169949
:10D2C00001EB800042880846149900EB81004088F9
:10D2D000101A00B20A901D98B0F91200002851DA15
:10D2E0001C9801902098808EADF800001D9842880F
:10D2F0001499169800EB8100408811180A98084488
:10D3000000B208901D9802881499169830F82100F0
:10D310001044401E00B207901D98418A0A980844A4
:10D3200000B2099002461F9BDDE9070102F022FAD4
:10D330001C9801902098808EADF800001D98C2883E
:10D340001499169800EB8100408811180A98084437
:10D3500000B208901D9882881499169830F8210020
:10D360001044401C00B207901D98418A0A98084456
:10D37000404200B2099002461F9BDDE9070102F01E
:10D38000F9F94DE01C9801902098808EADF80000CE
:10D390001D9842881499169800EB8100408810442B
:10D3A00000B208901D9801E0E8E03AE00288169883
:10D3B00030F821001044401E00B207901D98418AA9
:10D3C0000A98084400B2099002461F9BDDE9070154
:10D3D00002F0D0F91C9801902098808EADF80000E2
:10D3E0001D98C2881499169800EB8100408810445B
:10D3F00000B208901D988288169830F821001044D9
:10D40000401C00B207901D98418A0A980844404287
:10D4100000B2099002461F9BDDE9070102F0AAF95C
:10D42000ACE01398401E169931F820200846149954
:10D4300030F82100101A00B20A901D98B0F90E00C1
:10D4400000284FDA1C9801902098808EADF80000DB
:10D450001D9842881499169800EB8100408810446A
:10D46000401E00B208901D980288169830F82100DE
:10D4700011180A98084400B207901D98C1890A98AB
:10D48000084400B2099002461F9BDDE9070102F043
:10D4900043F91C9801902098808EADF800001D98EB
:10D4A000C2881499169800EB810040881044401CF3
:10D4B00000B208901D988288169830F82100111843
:10D4C0000A98084400B207901D98C1890A98084438
:10D4D000404200B2099002461F9BDDE9070102F0BD
:10D4E0001BF94AE01C9801902098808EADF800004E
:10D4F0001D9842881499169800EB810040881044CA
:10D50000401E00B208901D980288169830F821003D
:10D51000104400B207901D98C1890A98084400B2CF
:10D52000099002461F9BDDE9070102F0F5F81C98FF
:10D5300001902098808EADF800001D98C288149943
:10D54000169800EB810040881044401C00B20890FF
:10D550001D988288169830F82100104400B2079078
:10D560001D98C1890A980844404200B209900246B9
:10D570001F9BDDE9070102F0CFF800BF00201090EB
:10D580000F901B9840B31D98007EB8B91D98B0F954
:10D590000E00002809DA4FF0FF301090189808B9F3
:10D5A000002000E010980F901FE001200F901898C5
:10D5B00008B9002000E00F98109016E01D98B0F90F
:10D5C0001200002809DA4FF0FF301090189808B9BF
:10D5D000002000E010980F9007E001200F901898AD
:10D5E00008B9002000E00F9810901D980088ADF851
:10D5F00038001D984088ADF83A0001200B901D9826
:10D60000007E00287ED0B5E00020159053E0BDF8E4
:10D610003820DDE9151030F82100104400B2ADF8D3
:10D620003000BDF83A20DDE9151000EB810040889C
:10D63000104400B2ADF83200BDF830101D980089DA
:10D640000844BDF83810401A401E00B2ADF834004E
:10D65000BDF83200ADF836002098808E0A90024660
:10D660000CA81C9B1F9902F0D5F81598F8B1DDE9BC
:10D67000151030F92120481E169931F920008242F8
:10D6800015D00B9898B91C980090BDF832101D98D1
:10D69000408A081A00B209902098808E0A90BDF93D
:10D6A00030000890DDE909131F9A03F0D6F81598A9
:10D6B000401C00B21590189915988842A7DB1B985A
:10D6C000F0B31C9801902098808EADF80000BDF852
:10D6D00038101D980089081A00B20A90BDF83A1057
:10D6E0001698408801441098081A00B20990BDF8B5
:10D6F000381016980088084400B208901F9BDDE996
:10D70000091200E0E7E002F007F81C980190209869
:10D71000808EADF800001D980189BDF83800081A08
:10D7200000B20A90BDF83A201398401E169901EBFA
:10D730008000408811180F98084400B2099000E05A
:10D740000EE0BDF838201398401E169931F82000DD
:10D75000104400B208901F9BDDE9091201F0DCFFC4
:10D7600000200B901D980089ADF838001D98408965
:10D77000ADF83A001D9800F036FB00287FF444AF66
:10D78000159052E0BDF83820DDE9151030F8210081
:10D79000104400B2ADF83000BDF83A20DDE91510B4
:10D7A00000EB81004088104400B2ADF83200BDF8B3
:10D7B00030101D9800890844BDF83810401A00B296
:10D7C000ADF83400BDF83200ADF836002098808EF8
:10D7D0000A9002460CA81C9B1F9902F01BF8159892
:10D7E000F8B1DDE9151030F92120481E169931F9FC
:10D7F0002000824215D00B9898B91C980090BDF873
:10D8000032101D98408A081A00B209902098808E24
:10D810000A90BDF930000890DDE909131F9A03F062
:10D820001CF81598401C00B215901899159888425C
:10D83000A8DB1B9800284DD01C9801902098808E62
:10D84000ADF800001D980089BDF83810401A401C42
:10D85000404200B20A90BDF83A1016984088014440
:10D860001098081A00B20990BDF838101698008870
:10D87000084400B208901F9BDDE9091201F04CFF3B
:10D880001C9801902098808EADF800001D980089AA
:10D89000BDF83810401A401C00B20A90BDF83A207A
:10D8A0001398401E169901EB8000408811180F98BC
:10D8B000084400B20990BDF838201398401E16990C
:10D8C00031F82000104400B208901F9BDDE90912D6
:10D8D00001F022FF6DE1B7E00020159058E0BDF89F
:10D8E0003820DDE9151030F82100104400B2ADF801
:10D8F0003000BDF83A20DDE9151000EB81004088CA
:10D90000104400B2ADF83200BDF83000ADF834007C
:10D91000BDF832101D9840890844BDF83A10401AED
:10D92000401E00B2ADF836002098808E0A90024664
:10D930000CA81C9B1F9901F06DFF159820B3DDE921
:10D94000151000EB8100B0F90220481E169901EB7A
:10D950008000B0F90200824216D00B98A0B91C9842
:10D960000090BDF830101D98C089081A00B20890C8
:10D970002098808E0A90BDF93200099001460A9BDA
:10D980001F9A089802F069FF1598401C00B2159084
:10D99000189915988842A2DB1B98E8B31C9801904F
:10D9A0002098808EADF80000BDF83A101D9840898F
:10D9B000081A00B20A90BDF83A1016984088084438
:10D9C00000B20990BDF838101698008801441098EC
:10D9D000081A00B208901F9BDDE9091201F0CAFE87
:10D9E0001C9801902098808EADF800001D98408909
:10D9F000BDF83A10401A00B20A90BDF83A201398C8
:10DA0000401E169901EB80004088104400B2099036
:10DA1000BDF83820139800E00CE0401E31F82000DB
:10DA200011180F98084400B208901F9BDDE90912F5
:10DA300001F0A0FE00200B901D980089ADF8380081
:10DA40001D984089ADF83A001D9800F0BBF90028F8
:10DA50007FF442AF159057E0BDF83820DDE915108E
:10DA600030F82100104400B2ADF83000BDF83A2083
:10DA7000DDE9151000EB81004088104400B2ADF8DC
:10DA80003200BDF83000ADF83400BDF832101D98FA
:10DA900040890844BDF83A10401A00B2ADF836008B
:10DAA0002098808E0A9002460CA81C9B1F9901F0BA
:10DAB000B1FE159820B3DDE9151000EB8100B0F937
:10DAC0000220481E169901EB8000B0F90200824244
:10DAD00016D00B98A0B91C980090BDF830101D9876
:10DAE000C089081A00B208902098808E0A90BDF96B
:10DAF0003200099001460A9B1F9A089802F0ADFE79
:10DB00001598401C00B21590189915988842A3DB0F
:10DB10001B98E8B31C9801902098808EADF8000007
:10DB20001D984089BDF83A10401A401C404200B28E
:10DB30000A90BDF83A1016984088084400B209903F
:10DB4000BDF838101698008801441098081A00B2E1
:10DB500008901F9BDDE9091201F00CFE1C98019052
:10DB60002098808EADF800001D984089BDF83A10CD
:10DB7000401A401C00B20A90BDF83A201398401E8B
:10DB8000169901EB80004088104400B2099000E033
:10DB90000FE0BDF838201398401E31F8200011180E
:10DBA0000F98084400B208901F9BDDE9091201F0AC
:10DBB000E1FD21B000BD2DE9F04F85B00446894656
:10DBC00015461E46E88E401E07B24FEA670807F06A
:10DBD000010AFF2E02D13820405D03E03820405D6D
:10DBE0007043001283462088A0EB080000B2ADF815
:10DBF0000C00A0884044504400B2ADF8100060888A
:10DC0000ADF80E00E088ADF81200BDF90C00BDF9CA
:10DC10001010884202DABDF90C0001E0BDF91000D5
:10DC2000ADF80400BDF90C00BDF91010884202DD0A
:10DC3000BDF90C0001E0BDF91000ADF80800BDF918
:10DC40000E00BDF91210884202DABDF90E0001E0A3
:10DC5000BDF91200ADF80600BDF90E00BDF91210B5
:10DC6000884202DDBDF90E0001E0BDF91200ADF8F9
:10DC70000A00A88E5B4602464946009001A801F0C2
:10DC8000C9FD05B0BDE8F08F30B50B8803804B8827
:10DC90004380138883805488C480B0F90430B0F97D
:10DCA00000401B1B002B05DDB0F90430B0F900402B
:10DCB0001B1B04E0B0F90030B0F904401B1B1BB281
:10DCC0008381B0F90030B0F90440A34201DA0123A6
:10DCD00001E04FF0FF33C381B0F90630B0F90240E4
:10DCE0001B1B002B05DDB0F90630B0F902401B1BF1
:10DCF00004E0B0F90240B0F90630E31A1BB2038227
:10DD0000B0F90240B0F906309C4201DA012301E08B
:10DD10004FF0FF334382B0F90C40B0F91050AC42E1
:10DD200002DDB0F90C4002E0B0F910406442234635
:10DD300004EBD374641024B284820023C382B0F94C
:10DD40000C30B0F91040A34201DD012300E00023B4
:10DD50000376038803814488448130BD0146B1F9CC
:10DD60000800B1F90420904207D1B1F90A20B1F9B5
:10DD70000600824201D100207047888AC882B1F92A
:10DD80001600B1F90C205242904209DD888A0A8AB5
:10DD9000801A00B288820889CA89104400B20881BA
:10DDA000B1F91600B1F91020904209DA888A8A89FF
:10DDB000104400B2888248894A8A104402B24A81DB
:10DDC0000120D9E770B50446B4F9085000BF2046D9
:10DDD000FFF7C4FF08B9002070BDB4F90800A842DD
:10DDE000F5D00120F8E770B50446B4F90A5000BF39
:10DDF0002046FFF7B3FF08B9002070BDB4F90A0050
:10DE0000A842F5D00120F8E710B50CA00CF036FEC2
:10DE10000F4804680CE002220EA12068F2F709FB0B
:10DE200000B904E00CA021680CF028FE00BF083403
:10DE30000A4800688442EED3002010BD2D2D46759F
:10DE40006E6374696F6E204C6973743A0A00000047
:10DE5000E80200205F5F000025730A00EC0200204A
:10DE60002DE9F04790B000270FF2A809082303AA74
:10DE700009210BA800F026F94FF014084A46414644
:10DE800026A00CF0FBFD40460BF002FE2DA00CF08E
:10DE9000F5FD00BF0BA9384600F029F9074600261A
:10DEA0002EE003A850F82600A0F11805F2F79AF921
:10DEB0008246287D20F080009DF83410884203D0EF
:10DEC0005046F2F793F91AE05046F2F78FF92C46D4
:10DED00094F8261094F82000132805DC94F820000C
:10DEE000214A52F8200001E01F48C06C234614224A
:10DEF000CDE9000141461DA00CF0C0FD00BF761C1D
:10DF00000F98B042CDDC002FC4D1002010B0BDE886
:10DF1000F08700006465766963650000252D2A2E70
:10DF2000732020202020202020207479706520205C
:10DF30002020202020202072656620636F756E747B
:10DF40000A000000202D2D2D2D2D2D2D2D2D2D2DB8
:10DF50002D2D2D2D2D2D2D2D2D202D2D2D2D2D2DFE
:10DF60002D2D2D2D0A00000018FE0208252D2A2E29
:10DF70002A7320252D32307320252D38640A0000A5
:10DF80002DE9F04F8FB000270FF2C009082302AA35
:10DF900004210AA800F096F84FF014084A464146BA
:10DFA0002CA00CF06BFD40460BF072FD32A00CF083
:10DFB00065FD00BF0AA9384600F099F8074600251C
:10DFC0003BE002A850F82500A0F11806F2F70AF984
:10DFD0008346307D20F080009DF83010884203D0C9
:10DFE0005846F2F703F927E05846F2F7FFF83446AF
:10DFF00004F120000CF0ABFDA8B904F120000CF0F6
:10E00000AEFD8246A06A234614224146CDE9000AAD
:10E0100021A00CF033FD04F120000EF0B9FA15A098
:10E020000CF02CFD07E0A06A234614224146009024
:10E030001FA00CF023FD00BF6D1C0E98A842C0DC91
:10E04000002FB7D100200FB0BDE8F08F6576656E68
:10E0500074000000252D2A2E7320202020202073FC
:10E0600065742020202073757370656E6420746859
:10E07000726561640A00000020202D2D2D2D2D2DAC
:10E080002D2D2D2D202D2D2D2D2D2D2D2D2D2D2DCD
:10E090002D2D2D0A00000000252D2A2E2A73202068
:10E0A00030782530387820253033643A000000007D
:10E0B000252D2A2E2A7320203078253038782030DC
:10E0C0000A0000002DE9F04704460D4616461F469B
:10E0D00028460CF0A7FE814609F10408C4F8008028
:10E0E00025726660E76000202061BDE8F0872DE9B9
:10E0F000F84F07460C464FF0000A00202061E06808
:10E1000008B1207A10B90020BDE8F88FD4F800805B
:10E110001FB945464FF0010A00E03D46F2F762F8AC
:10E120000090BAF1000F0ED1A5F1180B9BF8140066
:10E1300020F08000217A884204D00098F2F756F847
:10E140000020E1E700BF0026D4F804900BE02D6822
:10E15000454501D1002507E0761C49F8045BE068DD
:10E16000B04200D100E0F2E700BF0098F2F73EF8BD
:10E1700026612846C8E700002DE9F04F91B000273E
:10E180000FF2D409082304AA05210CA8FFF79AFF6F
:10E190004FF014084A46414631A00CF06FFC40464F
:10E1A0000BF076FC37A00CF069FC00BF0CA93846D8
:10E1B000FFF79DFF0746002545E004A850F825001D
:10E1C000A0F11806F2F70EF88346307D20F08000AB
:10E1D0009DF83810884203D05846F2F707F831E02E
:10E1E0005846F2F703F8344604F120000CF0AFFC77
:10E1F000B8B904F120000CF0B2FC8246A08DE18D8C
:10E2000023461422CDE9010A0091414624A00CF0D6
:10E2100035FC04F120000EF0BBF927A00CF02EFC19
:10E220000FE004F120000CF09AFC8246A08DE18DF5
:10E2300023461422CDE9010A009141461FA00CF0AB
:10E240001DFC00BF6D1C1098A842B6DC002FADD19C
:10E25000002011B0BDE8F08F6D61696C626F7800CD
:10E26000252D2A2E7320656E7472792073697A6564
:10E270002073757370656E64207468726561640ADA
:10E2800000000000202D2D2D2D20202D2D2D2D20A6
:10E290002D2D2D2D2D2D2D2D2D2D2D2D2D2D0A00FE
:10E2A000252D2A2E2A732025303464202025303451
:10E2B000642025643A0000000A000000252D2A2E63
:10E2C0002A732025303464202025303464202564CE
:10E2D0000A00000010B50848016808A00CF0CEFB49
:10E2E0000B4801680BA00CF0C9FB0F4801680FA098
:10E2F0000CF0C4FB10BD000010020020746F7461AC
:10E300006C206D656D6F72793A2025640A000000FB
:10E310001402002075736564206D656D6F7279203D
:10E320003A2025640A000000180200206D61786917
:10E330006D756D20616C6C6F6361746564206D65D3
:10E340006D6F72793A2025640A0000002DE9F047CC
:10E3500092B000270FF2C809082305AA19460DA894
:10E36000FFF7B0FE4FF014084A4641462EA00CF0CD
:10E3700085FB40460BF08CFB35A00CF07FFB00BF0B
:10E380000DA93846FFF7B3FE074600253EE005A875
:10E3900050F82500A0F11806F1F724FF8246307DE1
:10E3A00020F080009DF83C10884203D05046F1F7E1
:10E3B0001DFF2AE05046F1F719FF3446206CA8B142
:10E3C000D4E90C31A26A206CCDE90023CDE902101A
:10E3D00023461422414627A00CF050FB04F13800DC
:10E3E0000EF0D6F822A00CF049FB0DE0D4E90C3079
:10E3F000226CA16ACDE90013CDE902022346142262
:10E40000414623A00CF03AFB00BF6D1C1198A842B6
:10E41000BDDC002FB4D1002012B0BDE8F0870000B1
:10E420006D656D706F6F6C00252D2A2E7320626CE8
:10E430006F636B20746F74616C2066726565207306
:10E44000757370656E64207468726561640A00009B
:10E45000202D2D2D2D20202D2D2D2D20202D2D2D2D
:10E460002D202D2D2D2D2D2D2D2D2D2D2D2D2D2DE9
:10E470000A000000252D2A2E2A732025303464201E
:10E4800020253034642020253034642025643A006F
:10E49000252D2A2E2A73202530346420202530345F
:10E4A000642020253034642025640A002DE9F04FD3
:10E4B0008FB000270FF2CC09082302AA06210AA870
:10E4C000FFF700FE4FF014084A46414630A00CF01A
:10E4D000D5FA40460BF0DCFA34A00CF0CFFA00BFBE
:10E4E0000AA93846FFF703FE0746002541E002A8C7
:10E4F00050F82500A0F11806F1F774FE8346307D30
:10E5000020F080009DF83010884203D05846F1F783
:10E510006DFE2DE05846F1F769FE344604F1200007
:10E520000CF015FBA8B904F120000CF018FB824692
:10E53000208E234614224146CDE9000A21A00CF08A
:10E540009DFA04F120000EF023F823A00CF096FAB7
:10E550000DE004F120000CF002FB8246208E2346E1
:10E5600014224146CDE9000A1CA00CF087FA00BF36
:10E570006D1C0E98A842BADC002FB1D100200FB05C
:10E58000BDE8F08F6D7367717565756500000000FB
:10E59000252D2A2E7320656E747279207375737021
:10E5A000656E64207468726561640A00202D2D2DEB
:10E5B0002D20202D2D2D2D2D2D2D2D2D2D2D2D2DA5
:10E5C0002D0A0000252D2A2E2A73202530346420A0
:10E5D0002025643A000000000A000000252D2A2EA4
:10E5E0002A732025303464202025640A00000000AE
:10E5F0002DE9F04F91B000270FF2A009082304AADB
:10E6000003210CA8FFF75EFD4FF014084A4641466F
:10E6100024A00CF033FA40460BF03AFA2AA00CF092
:10E620002DFA00BF0CA93846FFF761FD074600260A
:10E630002AE004A850F82600A0F11804F1F7D2FD52
:10E640008346207D20F080009DF83810884203D05A
:10E650005846F1F7CBFD16E05846F1F7C7FD2546C1
:10E6600005F120000CF07BFA824695F82B0014226D
:10E67000E96A2B46CDE9020ACDE9002141461AA0FC
:10E680000CF0FCF900BF761C1098B042D1DC002FD2
:10E69000C8D1002011B0BDE8F08F00006D75746521
:10E6A00078000000252D2A2E732020206F776E65BC
:10E6B000722020686F6C642073757370656E6420BF
:10E6C0007468726561640A00202D2D2D2D2D2D2D6D
:10E6D0002D202D2D2D2D202D2D2D2D2D2D2D2D2D84
:10E6E0002D2D2D2D2D0A0000252D2A2E2A732025B3
:10E6F0002D382E2A7320253034642025640A00002A
:10E700002DE9F04F8FB000270FF2CC09082302AAA1
:10E7100002210AA8FFF7D6FC4FF014084A464146EA
:10E7200030A00CF0ABF940460BF0B2F934A00CF07D
:10E73000A5F900BF0AA93846FFF7D9FC074600250E
:10E7400041E002A850F82500A0F11806F1F74AFDB3
:10E750008346307D20F080009DF83010884203D041
:10E760005846F1F743FD2DE05846F1F73FFD34469A
:10E7700004F120000CF0EBF9A8B904F120000CF032
:10E78000EEF98246208D234614224146CDE9000A47
:10E7900021A00CF073F904F120000DF0F9FE17A090
:10E7A0000CF06CF90DE004F120000CF0D8F9824671
:10E7B000208D234614224146CDE9000A1AA00CF010
:10E7C0005DF900BF6D1C0E98A842BADC002FB1D1D4
:10E7D00000200FB0BDE8F08F73656D6170686F72D7
:10E7E00065000000252D2A2E7320762020207375C9
:10E7F0007370656E64207468726561640A0000005D
:10E80000202D2D2D202D2D2D2D2D2D2D2D2D2D2D52
:10E810002D2D2D0A00000000252D2A2E2A732025DB
:10E820003033642025643A00252D2A2E2A732025B2
:10E830003033642025640A002DE9F04FB7B04FF063
:10E8400000090FF21C1B082329AA012131A8FFF798
:10E8500039FC4FF0140A5A46514643480CF00EF961
:10E8600050460BF015F941A00CF008F900BF31A992
:10E870004846FFF73CFC81464FF0000865E029A8B8
:10E8800050F82800A0F11805F1F7ACFC3690287D6F
:10E8900020F080009DF8CC10884203D03698F1F724
:10E8A000A5FC50E09822294603A8F1F766FD3698AA
:10E8B000F1F79CFC2C4694F8410023461422514663
:10E8C00000903AA00CF0DAF894F8400000F00F063F
:10E8D000012E03D138A00CF0D1F815E0022E03D19F
:10E8E00038A00CF0CBF80FE01EB939A00CF0C6F838
:10E8F0000AE0042E03D139A00CF0C0F804E0032E86
:10E9000002D139A00CF0BAF8676B00E07F1C3878B0
:10E910002328FBD0D4E90D10791A401A642148430A
:10E92000A16BB0FBF1F00290E16B606DCDE90001ED
:10E93000A36A606BC01AA36BC1181A462DA0029B74
:10E940000CF09CF800BF08F101083598404596DCB2
:10E95000B9F1000F8BD1002037B0BDE8F08F000077
:10E960007468726561640000D8AA0508202D2D2DF9
:10E9700020202D2D2D2D2D2D2D202D2D2D2D2D2DEE
:10E980002D2D2D2D202D2D2D2D2D2D2D2D2D2D20D1
:10E99000202D2D2D2D2D2D20202D2D2D2D2D2D2DCE
:10E9A0002D2D2D202D2D2D0A00000000252D2A2E85
:10E9B0002A73202533642000207265616479202049
:10E9C000000000002073757370656E640000000025
:10E9D00020696E69742020200000000020636C6FA5
:10E9E00073652020000000002072756E6E696E67EE
:10E9F000000000002030782530387820307825302D
:10EA00003878202020202530326425252020203011
:10EA1000782530387820253033640A002DE9F04716
:10EA200090B000270FF2B409082303AA0A210BA80B
:10EA3000FFF748FB4FF014084A46414629A00CF066
:10EA40001DF840460BF024F830A00CF017F800BF7A
:10EA50000BA93846FFF74BFB074600262DE003A81D
:10EA600050F82600A0F11804F1F7BCFB8246207D87
:10EA700020F080009DF83410884203D05046F1F712
:10EA8000B5FB19E05046F1F7B1FB2546D5E90C017D
:10EA90002B461422CDE90001414625A00BF0EEFFE4
:10EAA000687D00F0010018B127A00BF0E7FF02E03D
:10EAB00028A00BF0E3FF00BF761C0F98B042CEDC1D
:10EAC000002FC5D10CF0F4FF0446214625A00BF021
:10EAD000D5FF002010B0BDE8F087000074696D65B7
:10EAE00072000000252D2A2E732020706572696F38
:10EAF00064696320202074696D656F75742020201F
:10EB000020202020666C61670A000000202D2D2D3A
:10EB10002D2D2D2D2D2D2D202D2D2D2D2D2D2D2D32
:10EB20002D2D202D2D2D2D2D2D2D2D2D2D2D0A0072
:10EB3000252D2A2E2A7320307825303878203078F9
:10EB4000253038782000000061637469766174654F
:10EB5000640A000064656163746976617465640ABF
:10EB60000000000063757272656E74207469636BD7
:10EB70003A3078253038780A0000000038B5002295
:10EB800000BF00230093294B1B6843F40003274C6C
:10EB9000236023461B6803F40003009300BF00BFFB
:10EBA000234B1B6823F00103214C23604FF44033B7
:10EBB0002360022363630023236401EB810303EBDF
:10EBC000C1041C4B03EB84035B6A194CE36301EB48
:10EBD000810303EBC104174B03EB8403DC6A01EBF5
:10EBE000810303EBC105134B03EB85031B8D44EA43
:10EBF00003430F4C6364234698631B6843F001038F
:10EC0000236004E0521CB2F5001F00D305E0084B5E
:10EC10005B6803F00203002BF4D000BF044B9B6839
:10EC200043F00203024CA36038BD000030380240BC
:10EC300000B00240E4CC002000B58DB0342168461D
:10EC4000F1F7B6FB404841490860002048600021C8
:10EC50003E488160C16001610921416181611D21DE
:10EC6000C1611321016240F2FD11416240F2333172
:10EC7000816240F22521C16240F2423101630021EC
:10EC800080F8341080F8351080F83610F3F71CFB4C
:10EC900008B1F1F72FFF002000904FF4F0700190C1
:10ECA000002002904FF44870039002200490FF204F
:10ECB0000590002006904FF4C06007900720089050
:10ECC000800709904FF4F0700A904FF448700B9051
:10ECD00000208DF8300000218DF831108DF83210B1
:10ECE000002269461948F3F7BFFA08B1F1F702FFAD
:10ECF000282000904FF4DC7001904FF49170029046
:10ED00004FF4FF70039002200490FF200590002034
:10ED100006904FF4C0600790072008900C480990B7
:10ED20004FF4C8700A90DC200B9000208DF8300062
:10ED300000218DF831108DF83210FDF7BFFE6420F0
:10ED4000FDF78CFE0DB000BD00680140ACCC00208A
:10ED5000000010C010B52821064807F030FD0AF069
:10ED60003BF805490860002303221E21034809F0EF
:10ED70006DFE10BD44E70020C80000203186010868
:10ED800070B50546686818B1D5E9000100F024F8AF
:10ED90000F4807F01FFD04460CB900BFFEE704B999
:10EDA00070BD95F8240020F0040085F82400282286
:10EDB00029462046F1F7E1FA606820B1238A19B2AA
:10EDC000D4E90002904701200249087000BFE7E73C
:10EDD00044E70020CC0000202DE9F04107460D4615
:10EDE0004FF00008104807F0CBFC044617E021461E
:10EDF0000D4807F0CAFC06462068B8420ED160688C
:10EE0000A84200D055B92146074807F0A0FD20468A
:10EE100007F042FE01200549087080463446002C68
:10EE2000E5D14046BDE8F08144E70020CC00002059
:10EE300010B50146088BB1F91A40A04202D14FF437
:10EE4000806205E0B1F91A0080020C8B90FBF4F2AD
:10EE5000D1E90440001B00FB02F39B120869034444
:10EE600018B210BD30B504460B46981A002801DDD3
:10EE7000981A00E0D01A05464FF47A70684390FB68
:10EE8000F4F1B1F5803F01D34FF6FF7101B9491C90
:10EE900088B230BD10B507F09FFD04F0A5FB08F067
:10EEA0004DFD10BD0A6802604A68426070470A68FA
:10EEB00002604A68426070470A6802604A684260BD
:10EEC00070470146C8884A88801A401C00B27047C3
:10EED0000146C8884A88801A401C00B27047014623
:10EEE000C8884A88801A401C00B2704710B5014695
:10EEF000B1F90420B1F90030D21A521CB1F9063030
:10EF0000B1F902401B1B5B1C02FB03F010BD014664
:10EF100088880A88801A401C00B270470146888899
:10EF20000A88801A401C00B27047014688880A8807
:10EF3000801A401C00B27047014688880A88801AEF
:10EF4000401C00B27047014688880A88801A401C1D
:10EF500000B27047014688880A88801A401C00B2B7
:10EF6000704730B50346B1F90040B2F90050AC42E9
:10EF700002DDB1F9004001E0B2F900401C80B1F9B6
:10EF80000240B2F90250AC4202DDB1F9024001E0A8
:10EF9000B2F902405C80B1F90440B2F90450AC42CD
:10EFA00002DAB1F9044001E0B2F904409C80B1F901
:10EFB0000640B2F90650AC4202DAB1F9064001E06F
:10EFC000B2F90640DC800120B3F90040B3F90450E7
:10EFD000AC4205DCB3F90240B3F90650AC4200DDA7
:10EFE000002030BD10B502460020B2F90030B1F962
:10EFF0000040A34212DBB2F90230B1F90240A34251
:10F000000CDBB2F90430B1F90440A34206DCB2F9DA
:10F010000630B1F90640A34200DC012010BD0246D3
:10F02000B2F90000B1F90430984213DCB2F90400DF
:10F03000B1F9003098420DDBB2F90200B1F90630A7
:10F04000984207DCB2F90600B1F90230984201DBC0
:10F05000012070470020FCE710B502460020B1F9FE
:10F060000030B2F90040A34212DBB1F90030B2F92E
:10F070000440A3420CDCB1F90230B2F90240A342D1
:10F0800006DBB1F90230B2F90640A34200DC0120F0
:10F0900010BD10B5B1F90030B2F90040A34202DA58
:10F0A000B1F9003001E0B2F900300380B1F902306B
:10F0B000B2F90240A34202DAB1F9023001E0B2F93A
:10F0C00002304380B1F90430B2F90440A34202DDBA
:10F0D000B1F9043001E0B2F904308380B1F90630AF
:10F0E000B2F90640A34202DDB1F9063001E0B2F9FF
:10F0F0000630C38010BD10B5029C01804280838021
:10F10000C48010BD42880A44521E12B2C2807047A9
:10F110000146B1F90200B1F90020904201DC012062
:10F1200070470020FCE7028000234380C2F1010306
:10F130001BB20B8070474288521C12B24280B1F958
:10F140000020002A07DC0B8842885200521C1A4417
:10F1500012B20A800CE00288521E12B2028042886B
:10F160000388D21A5200521C0B881A4412B20A8029
:10F17000704718B50346D408BDF8000064F30400D6
:10F1800000908C08BDF8000064F34A100090DC0881
:10F19000BDF8000064F3CF200090BDF80040204689
:10F1A00018BD07B581B0BDF80800C00AC2F1FF0163
:10F1B0004843BDF80410C90A01FB0200010ABDF86A
:10F1C000000061F3CF200090BDF80800C0F34510A7
:10F1D000C2F1FF014843BDF80410C1F3451101FB22
:10F1E0000200010ABDF8000061F34A100090BDF86A
:10F1F000080000F01F00C2F1FF014843BDF80410F1
:10F2000001F01F0101FB0200010ABDF8000061F3DB
:10F2100004000090BDF80010084604B000BD07B51A
:10F2200081B0BDF80800C00AC2F1FF014843BDF833
:10F230000410C90A01FB0200010ABDF8000061F3D5
:10F24000CF200090BDF80800C0F34510C2F1FF01C7
:10F250004843BDF80410C1F3451101FB0200010A47
:10F26000BDF8000061F34A100090BDF8080000F0FE
:10F270001F00C2F1FF014843BDF8041001F01F0157
:10F2800001FB0200010ABDF8000061F304000090D8
:10F29000BDF80010084604B000BD07B581B0BDF848
:10F2A0000800C00AC2F1FF014843BDF80410C90AB2
:10F2B00001FB0200010ABDF8000061F3CF200090BD
:10F2C000BDF80800C0F34510C2F1FF014843BDF886
:10F2D0000410C1F3451101FB0200010ABDF8000052
:10F2E00061F34A100090BDF8080000F01F00C2F161
:10F2F000FF014843BDF8041001F01F0101FB0200AB
:10F30000010ABDF8000061F304000090BDF8001090
:10F31000084604B000BD2DE9F04104460F461546ED
:10F320001E461C212046F1F743F8276065602068DF
:10F33000A060E660BDE8F08138B50446242120468F
:10F34000F1F736F80020E0604FF4F07020804FF4C1
:10F350004870608000206060A06820F00200A0601B
:10F36000074800680090BDF80000A083A06820F066
:10F370000100401CA06000202062606138BD0000D8
:10F38000B0FB020870B505462C4807F023FA044686
:10F3900024B90CB900BFFEE7002070BD2422294625
:10F3A0002046F0F7EAFF202104F5A070F1F700F8FD
:10F3B0004FF4807104F14000F0F7FAFF482104F1A6
:10F3C000280007F0FCF91E48006808B91C480460D2
:10F3D0001B48066804600020C4F86001002108464C
:10F3E00007F050FF60630021084607F04BFFA06361
:10F3F0000021084607F046FFE0631249A06B08F0C1
:10F4000090FC1049E06B08F08CFC606B08F018FA77
:10F410000B480660234603221E210B4809F016FB09
:10F420006062606A08B900BFFEE7606A08B9002040
:10F43000B3E7606A09F07CFC2046AEE714E70020E1
:10F44000BC00002038E4002085F501084168896986
:10F4500021F0010142689161704700B5014611B980
:10F4600000F00CF8014609B9002000BD087A00F050
:10F470000100FAE70146486870470000014800684B
:10F4800070470000BC00002000B5014611B9FFF72D
:10F49000F5FF014611B94FF4F07000BD087AC0F3D2
:10F4A000400010B9B1F90000F7E7B1F90200F4E744
:10F4B0000146B1F86001C0F30900704710B5044679
:10F4C00014B9FFF7DBFF04460CB9002010BDE06B58
:10F4D000FCE710B5044614B9FFF7D0FF04460CB999
:10F4E000002010BDA06BFCE710B5044614B9FFF76F
:10F4F000C5FF04460CB9002010BD606BFCE700B5E9
:10F50000014611B9FFF7BAFF014611B94FF448702F
:10F5100000BD087AC0F3400010B9B1F90200F7E766
:10F52000B1F90000F4E701464868006820B1486876
:10F53000406808B1012070470020FCE700B5024692
:10F540001088518810FB01F31046FFF7ECFF28B13B
:10F550005068C068984201D1012000BD0020FCE73E
:10F56000B0F86021C2F309028A4203DA0022C0F82F
:10F57000602106E0B0F86021C2F30902521AC0F817
:10F58000602170472DE9FC5F804609F025FC019061
:10F590005249D8F80C00086008F040FE08F0C6FD9B
:10F5A0004E480068B0F86001C0F3090000287DD023
:10F5B0004A480068FFF7C2FF002865D04748006846
:10F5C000FFF758FF054608F04DFF00BFA86900F09F
:10F5D00001000028FAD1D5F808902968A868884267
:10F5E00001D1686800E0286800903C480068FFF797
:10F5F0004BFF064600243EE03848006800F5A07046
:10F60000005DB0BB35480068403030F934103348F5
:10F610000068403000EBC400B0F9020006FB0010A7
:10F6200047002E490968403101EBC400FFF76FFC29
:10F630004FEA400B29480068403000EBC400B0F9A5
:10F6400002A00CE0009AD11909EB07005A46F0F726
:10F6500094FE07EB46070AF101000FFA80FA1F48F3
:10F660000068403000EBC400B0F906005045E9DA0C
:10F6700000BF601C84B219480068B0F86001C0F394
:10F680000900A042B8DC00BF4FF480711348006845
:10F690004030F0F78DFE20211048006800F5A07082
:10F6A000F0F786FE00200D49096800E012E0C1F87D
:10F6B00060010A480068806960B1019809F07EFB2A
:10F6C00004460648006883690548214602680348E5
:10F6D0000068984700F0EEF8BDE8FC9F600000204D
:10F6E0005C00002010B503460BB9002010BD082BAC
:10F6F00007DA581E074C54F82000405C5043000ABB
:10F70000F4E7012000EB410050435C0090FBF4F073
:10F71000C0B2EBE7680000202DE9F84F06468A46A4
:10F7200014461F46DDF82C804FF0000B002C03DA46
:10F730004FF0010B604204B2002517E04246294613
:10F740002046FFF7CFFF8146BBF1000F03D0A8EBA7
:10F75000090000F0FF09711908B2CDF800903A468F
:10F7600051460A9B01F079F8681C05B2A542E5DB19
:10F77000BDE8F88F2DE9F84F82460E4614461F4625
:10F78000DDF82C804FF0000B002C03DA4FF0010B5A
:10F79000604204B2002517E0424629462046FFF7A2
:10F7A000A1FF8146BBF1000F03D0A8EB090000F0D8
:10F7B000FF09701901B2CDF800903A4650460A9BF5
:10F7C00001F04BF8681C05B2A542E5DBBDE8F88FF7
:10F7D0002DE9F04104460D46164608F0D9FC804656
:10F7E000FFF73BFE0746B4EB650F04DBC5F34F04A0
:10F7F0000CB1601E84B2B4EB660F04DBC6F34F0499
:10F800000CB1601E84B2002C01DDE01B84B22046E6
:10F81000BDE8F0812DE9FF4F85B0804689461D4641
:10F82000102D02DA09B0BDE8F08FFB2D00DDFF25B9
:10F830004A46414603A8FFF794FB074607B9F1E79C
:10F8400008F0A6FC83465846FFF714FE0446BDF8B0
:10F850000C00218A401A00B2ADF80400BDF80E1069
:10F86000608A081A00B2ADF80600BDF81000218ABF
:10F87000401A00B2ADF80800BDF81210608A081AEC
:10F8800000B2ADF80A00D4F808A004F11000FFF7A8
:10F8900045FB0646BDF8060010FB06F00AEB400AE1
:10F8A0000095A06801AA3146079B0CF0F4FF00BF49
:10F8B000B8E7000010B50648006840B10448006889
:10F8C00007F0EAF80020024908600249086010BD0C
:10F8D000D80000206400002010B5044613480068DA
:10F8E000844202D81248006810BD104804601048D5
:10F8F000006860B9204607F0A9F80D49086008467D
:10F90000006808B900BFFEE709480068ECE7214637
:10F910000748006807F020F90549086008460068B4
:10F9200008B900BFFEE702480068DDE76400002078
:10F93000D80000202DE9F04387B006460F46154653
:10F940009846DDF83890C5B9FF231D4A3946304640
:10F9500000F0EEFF00204FF6FF71CDE90201CDE986
:10F96000041018A1FF23164ACDE90010394630468D
:10F9700000F02CF807B0BDE8F08343462A4639462C
:10F980003046CDF8009005F063F80446B4B9FF2383
:10F990000B4A3946304600F0CBFF00204FF6FF718E
:10F9A000CDE90201CDE9041006A1FF23044ACDE907
:10F9B00000103946304600F009F8DBE700BFD9E710
:10F9C000ECE400204E6F0A64617461002DE9FF4F82
:10F9D000A7B082461446DDF8E480DDE93476606A3B
:10F9E000269006F0020020B95046FFF7A5FA2590B0
:10F9F00010E047F61841B4F92A008DE84300B4F945
:10FA00002830394609A8626A09F094FABDF9240041
:10FA1000259000BF00BF2698007A618D084400B28F
:10FA2000249000202390BAF80000ADF88800BAF8BE
:10FA30000200ADF88A00002021902090369870B125
:10FA40003698B0F9000021903698B0F90200209065
:10FA5000BDF88A102098084400B2ADF88A0000254D
:10FA6000681E1F90B8F1000F24D0209810BBBAF97F
:10FA7000020000281EDABAF90210D8F80800401A6D
:10FA8000002805DDBAF90210D8F80800401A04E091
:10FA9000BAF90200D8F80810401A24994900C1F5B3
:10FAA0008061884203DD4FF0FF30C8F80000D8F8CD
:10FAB00000001F90B8F1000F0BD01F98002808DB42
:10FAC0001F9DBDF88A00B8F80410084400B2ADF8D4
:10FAD0008A000096B4F928207819DDE9253109F06B
:10FAE00099F900EB05092EE04D460096B4F928205F
:10FAF0007819DDE9253109F08DF98144BDF88A10C6
:10FB00002498084400B2ADF88A00B8F1000F15D06F
:10FB1000BDF98A0010F5806F10DBD8F800000028CE
:10FB20000CDAC8F80050BDF98A00BAF90210401A80
:10FB3000C8F80400BAF90200C8F80800785D10B9E6
:10FB40002BB0BDE8F08FBDF98A10249801442898A5
:10FB5000B0F902008142C7DB06F00400D0B1009684
:10FB6000B4F92830A9EB050291B27819269A09F068
:10FB700047FA23905046FFF7DFF92399A0EB010BDA
:10FB80000BEBDB70BDF8881001EB600000B2ADF844
:10FB9000880018E006F00800A8B10096B4F92830F3
:10FBA000A9EB050291B27819269A09F029FA239057
:10FBB0005046FFF7C1F92399401ABDF88810084450
:10FBC00000B2ADF888002A98FF2802D12C20005DF1
:10FBD00004E02C20005D2A99484300121E9000206A
:10FBE0001D901B90AF490AA808F06EFC608CADF820
:10FBF0002A000AA8BDF82A10ADF82C104BE136985F
:10FC000030B1BDF888102198084400B2ADF88800E2
:10FC100000201D901C95E5E01CA93846A24A1268F8
:10FC2000904709901C99781800219F4A12689047C4
:10FC3000089006F00100002877D09CA00178099870
:10FC4000814213D11D9828B91C9880B21B900120C5
:10FC50001D90C7E01D98012802D100201D9005E0ED
:10FC60001D98022802D100201D90BBE01D9801289C
:10FC70005BD10998202857D1DDE91B01081A072814
:10FC80004ED11B983844016805918088ADF8180062
:10FC900000208DF81A009DF81500FBF74DFB8346F8
:10FCA0009DF81400FBF748FB0BEB001004909DF847
:10FCB0001700FBF741FB83469DF81600FBF73CFB62
:10FCC0000BEB001003909DF81900FBF735FB834602
:10FCD0009DF81800FBF730FB0BEB00100290049B23
:10FCE000D8B2039BD9B2029BDAB24FEAD20CBDF86C
:10FCF00004306CF3040301934FEA910CBDF8043017
:10FD00006CF34A1301934FEAD00CBDF804306CF346
:10FD1000CF230193BDF804C063461A9302E004E0C8
:10FD2000208C1A9002201D905CE0206A07901D989C
:10FD3000022801D11A980790DDE90821269803F0DE
:10FD4000F6FC00B219904FF6FF713798884230D018
:10FD5000389888422DD03846554A1C9912689047E9
:10FD600083463798834523DD3898834520DCBDF8EA
:10FD70008800ADF81400BDF88A00ADF81600BDF893
:10FD8000881019980144208D0844401E00B2ADF837
:10FD90001800BDF88A1024980844401E00B2ADF83F
:10FDA0001A000AAA05A81E9B289900F0C1FD00BFF1
:10FDB00000BF1E980190BDF81C00ADF8000022A8FD
:10FDC000099B269A289900F075F81998002808DDF3
:10FDD000BDF88810228D19981044084400B2ADF87F
:10FDE000880000BF1C984845FFF416AF4D460096AA
:10FDF000B4F928207819DDE9253109F00BF88144A0
:10FE0000BAF80000ADF8880006F00400D0B1009602
:10FE1000B4F92830A9EB050291B27819269A09F0B5
:10FE2000EFF823905046FFF787F82399A0EB010BDA
:10FE30000BEBDB70BDF8881001EB600000B2ADF891
:10FE4000880018E006F00800A8B10096B4F9283040
:10FE5000A9EB050291B27819269A09F0D1F82390FE
:10FE60005046FFF769F82399401ABDF888100844F6
:10FE700000B2ADF88800BDF88A102498084400B29A
:10FE8000ADF88A00BDF98A102898B0F906008142C1
:10FE900000DD55E600BF785D00287FF4B0AE00BFFE
:10FEA0004EE6000028E500200401002023000000A9
:10FEB000100100202DE9FF4F9DB00C46D1A0006835
:10FEC0001C90D1A000681B90D0A30FCB17AD0FC51D
:10FED0002B98102802DA21B0BDE8F08F2B98FB2870
:10FEE00001DDFF202B901F9800B9F4E7002315A92E
:10FEF000DDE91F0203F0CAFB1490149800B9EAE789
:10FF00001D9800889DF95810084405B21F98017A81
:10FF1000407A091A1D98408808449DF85710401AE5
:10FF20009DF95910401A06B29DF85A00012806D0D2
:10FF3000022809D004280CD0082814D10EE00DF1B5
:10FF4000700B802013900FE00DF16C0BC02013900C
:10FF50000AE00DF15C0BF020139005E04FF0000B70
:10FF6000FF20139000E0B6E700BFDDE91F0103F0BA
:10FF700085FB8246BAF1000F00D1ACE79DF8560030
:10FF80002844B4F9001088420EDBB4F90400A842FA
:10FF90000ADB9DF857003044B4F90210884203DBB5
:10FFA000B4F90600B04200DA95E708F0F1F81190D4
:10FFB0001198FFF75FFA804608F11000FEF7AEFFD8
:10FFC0001090D8F808709DF85600C0100D909DF85C
:10FFD000560000F0070018B10D98401CC0B20D90FB
:10FFE0009DF856009DF85A1010FB01F00C90B4F9E2
:10FFF0000000A84201DC002002E0B4F90000401B30
:020000040802F0
:1000000000B20B909DF856002844B4F904108842C1
:1000100002DC9DF8560003E0B4F90400401B401CCC
:1000200000B20A90B4F90200B04201DC002002E004
:10003000B4F90200801B00B209909DF857003044CB
:10004000B4F90610884202DC9DF8570003E0B4F9C9
:100050000600801B401C00B20890B8F91200311A4B
:10006000109801FB0050B8F91010401A07EB400738
:10007000109A0B99099800FB021007EB40070C99A6
:10008000099848439DF85A200B9901FB02000790FC
:1000900007980AEBD00A079800F00709002004909F
:1000A00009980E90A7E0139840FA09F012900B9867
:1000B0000F9080E0C9F108009DF85A10421A9AF892
:1000C000000012990840104106900698D0B32B9872
:1000D000FF280AD19DF85A00082801D1069802E0AD
:1000E00006981BF8000005900FE09DF85A000828BC
:1000F00004D12B9906984843001205E006981BF896
:1001000000002B9948430012059011984069D0B126
:1001100005980290BDF8A800ADF804000E9881196A
:10012000B8F81200081A00B200900F982844B8F8E6
:100130001020801A03B2D8F808101198D0F814C013
:10014000109AE0471BE03888BDF8A810884216D006
:100150000598FB2803DDBDF8A80038800FE005985E
:1001600010280CDD049850B9388802900146059A91
:100170002A98FFF716F80390BDF80C003880BF1CD2
:100180009DF85A00C0F1080048450ADD9DF85A0064
:1001900048441FFA80F99DF85A10129808411290AD
:1001A00005E04FF00009139812900AF1010A0F9828
:1001B000401C00B20F900A990F988842FFF67AAF60
:1001C0009DF856100A98091A0B9808449DF85A1081
:1001D00000FB01901FFA80F90AEBE90A09F0070910
:1001E000DDE90A01411A1098401A07EB40070E9802
:1001F000401C00B20E9008990E988842FFF653AF4B
:1002000000BF68E600FF00000055AAFF001122337E
:10021000445566778899AABBCCDDEEFF2DE9F04FF7
:100220008BB004460D4617461E46DDF85080F08E12
:1002300010B90BB0BDE8F08FB4F90000B5F90010AB
:10024000884206D1B4F90200B5F90210884200D103
:10025000EFE7B7F90010B6F93600081AB4F9001044
:10026000884209DDB7F90010B6F93600081AB5F969
:100270000010884200DDDCE7B7F90410B6F936005B
:100280000844B4F90010884209DAB7F90410B6F945
:1002900036000844B5F90010884200DAC9E7B7F91A
:1002A0000210B6F93600081AB4F90210884209DDC6
:1002B000B7F90210B6F93600081AB5F902108842EB
:1002C00000DDB6E7B7F90610B6F936000844B4F910
:1002D0000210884209DAB7F90610B6F93600084468
:1002E000B5F90210884200DAA3E7B4F90000B5F9C5
:1002F0000010401A002805DDB4F90000B5F900101F
:10030000401A04E0B5F90000B4F90010401AB4F93D
:100310000210B5F90220891A002905DDB4F902108E
:10032000B5F90220891A04E0B5F90210B4F90220E7
:10033000891A88421FDDB4F90000B5F9001088421F
:100340000CDA2088ADF80C006088ADF80E00288823
:10035000ADF808006888ADF80A002BE02888ADF8F1
:100360000C006888ADF80E002088ADF808006088A1
:10037000ADF80A001EE0B4F90200B5F90210884297
:100380000CDA2088ADF80C006088ADF80E002888E3
:10039000ADF808006888ADF80A000BE02888ADF8D1
:1003A0000C006888ADF80E002088ADF80800608861
:1003B000ADF80A0002AA03A904A8FDF765FCBDF97F
:1003C0001210BDF91600814206D143463246394625
:1003D00004A8FCF773FCBCE0BDF91000BDF91410D3
:1003E000884206D143463246394604A8FDF7E3FB6E
:1003F000AFE04FF0000907F0CBFE8346FFF72DF882
:100400008246BAF1000F74D09DF82800F0B3BDF910
:100410001210BDF9160081421EDA4FF00109BDF835
:100420001400ADF80400BDF81600401E00B2ADF88F
:10043000060001AA03A904A8FDF726FCBDF92200C5
:10044000002802DDBDF9220002E0BDF92200404291
:1004500000B2ADF8220072E0BDF91210BDF916002D
:1004600081426CDD4FF00009BDF81400ADF80400C6
:10047000BDF81600401C00B2ADF8060001AA03A9A1
:1004800004A8FDF701FCBDF9220000E00CE0002803
:1004900002DDBDF9220002E0BDF9220040424042E7
:1004A00000B2ADF822004AE0BDF91000BDF9141009
:1004B00088421FDA4FF00109BDF81400401E00B257
:1004C000ADF80400BDF81600ADF8060001AA03A9B6
:1004D00004A8FDF7D9FBBDF91E00002802DDBDF917
:1004E0001E0002E0BDF91E00404200B2ADF81E0041
:1004F00025E025E0BDF91000BDF9141088421EDD8D
:100500004FF00009BDF81400401C00B2ADF8040023
:10051000BDF81600ADF8060001AA03A904A8FDF76E
:10052000B3FBBDF91E00002802DDBDF91E0002E08C
:10053000BDF91E004042404200B2ADF81E0000BFAF
:1005400033463A46494604A8CDF80080FCF720FC23
:1005500000BF00BF6DE62DE9FF4F8FB090461298A7
:10056000102802DA13B0BDE8F08F1298FB2801DDE5
:10057000FF2012900DA8DDE90F12FEF7F2FC0C909F
:100580000C9800B9EEE71D9808B1032000E00220A6
:1005900082460F98FEF7C2FC0B900F98B0F902004C
:1005A000BDF93610884209DABDF936100F98B0F956
:1005B0000200081A0B99484300FB0A880F98B0F90B
:1005C0000000BDF93410884207DABDF934100F98E5
:1005D000B0F90000081A00FB0A8807F0D9FD81462F
:1005E0004846FEF747FF0746BDF83400398A401AEF
:1005F00000B2ADF83400BDF83610788A081A00B29F
:10060000ADF83600BDF83800398A401A00B2ADF8AE
:100610003800BDF83A10788A081A00B2ADF83A00EE
:1006200007F11000FEF77AFC0A90BD68BDF836109D
:100630000A9811FB00F005EB4005BDF9340005EB0D
:1006400040050DA8FEF76AFC0990002008901C9850
:1006500000284AD11D98002847D11298FF2844D17C
:100660001F98002841D1D9F8140040B3BDF9364095
:1006700020E0002616E006FB0A800088079012980A
:100680000290BDF81C00ADF804000094BDF83400E1
:10069000304403B2B968D9F814C048460A9AE04712
:1006A000701C06B209988642E5DB0B9800FB0A88AD
:1006B000601C04B2BDF93A00A042DADACBE0BDF921
:1006C00036400DE041462846129B099A0CF087F906
:1006D0000B9800FB0A880A9805EB4005601C04B2E1
:1006E000BDF93A00A042EDDAB5E000200790079886
:1006F0000690DDE91E020699FEF753FD0590BDF94F
:100700003640A2E0002694E0DDF848B006FB0A80FF
:1007100004901D9888B104990A78497802EB012168
:1007200089B203910499887800B980E0FF2803D04A
:1007300000FB0BF14FEA112B02E0049800880390B4
:100740001C9830B1BDF80C00B9F81C10884200D1DB
:100750006DE01F98D0B3BDF81800BDF80C108842AA
:1007600007D003980690DDE91E020699FEF719FDF1
:100770000590D9F8140088B1CDF808B0BDF8140080
:10078000ADF804000094BDF83400304403B2B968F9
:10079000D9F814C048460A9AE04747E0BBF1FF0F7A
:1007A00004D1BDF8140025F816003FE005EB460023
:1007B00000885A46014601900598FEF7F2FC029027
:1007C00005EB4600BDF8081001802FE0FFE7D9F8DF
:1007D000140088B1CDF808B0BDF80C00ADF80400E5
:1007E0000094BDF83400304403B2B968D9F814C09D
:1007F00048460A9AE04719E0BBF1FF0F05D105EB27
:100800004600BDF80C10018010E0089870B905EBA7
:10081000460000885A46014601900398FEF7C1FC45
:10082000029005EB4600BDF80810018000BF701C67
:1008300006B209988642FFF667AF0B9800FB0A885C
:100840000A9805EB4005601C04B2BDF93A00A042CD
:10085000BFF658AF00BF00BF84E62DE9FF4F83B05D
:1008600004460D461746DDF84080B8F1100F02DA55
:1008700007B0BDE8F08FB8F1FB0F01DD4FF0FF08C6
:10088000B7F90000A0420BDCB7F90400A04207DB77
:10089000B7F90200A84203DCB7F90600A84200DA63
:1008A000E6E707F075FC81464846FEF7E3FD06469D
:1008B00006F11000FEF732FB8246308A201A04B29D
:1008C000708A281A05B2D9F8140078B1CDF80880DA
:1008D000BDF81800ADF804000095B16823460FFA82
:1008E0008AF24846D9F814C0E0471FE00020029081
:1008F000D6F808B005FB0A400BEB400B0298A0B9F4
:10090000B8F1FF0F04D1BDF81800ABF800000CE0FF
:10091000BBF800004246014600900698FEF741FCF5
:100920000190BDF80400ABF8000000BF00BF9FE7D6
:100930002DE9F04105460E4614461F462846FEF7AF
:10094000C7FA012804DB2846FEF7FDFA012801DA80
:10095000BDE8F081608A28B13B46224631462846F0
:1009600002F085F931462846FEF759FB00B9EFE75A
:10097000207A10280DDD3B4622463146284602F0FB
:10098000C4F8E08828B13B4622463146284601F0AB
:10099000A8FAA08990B1A07B80B1E07B10280DDB84
:1009A0003B4622463146284601F062F8E08828B1ED
:1009B0003B4622463146284600F002F800BFC7E712
:1009C0000FB5A3B02598C08880B2229007F0E0FB55
:1009D0000790FEF742FD21902598B0F90C00209079
:1009E000259840891F902598807B1E902698FF2887
:1009F00002D12598C07B04E02598C07B2699484306
:100A000000121D902098401E00B22090219818B12D
:100A10002098401E00B220902398FEF794FA1C9074
:100A20002398FEF755FA1B90DDE91B212298FEF76B
:100A3000CFFE2290239801882298014421980844EF
:100A400000B2ADF8680023984188229801442198AB
:100A5000084400B2ADF86A00239801882298014446
:100A60002198084400B2ADF864002398C188229808
:100A7000091A2198081A00B2ADF8660023988188F7
:100A80002298091A2198081A00B2ADF8600023983C
:100A90004188229801442198084400B2ADF86200D0
:100AA000239881882298091A2198081A00B2ADF873
:100AB0005C002398C1882298091A2198081A00B26C
:100AC000ADF85E00229802B215A916A8FEF72BFB1E
:100AD00020992298401A00B212901298002801DA48
:100AE0000020129013A914A8129AFEF71CFB0020F4
:100AF0000D900C90229800B20B9000200A90099063
:100B000020992298401A00B20890FCE3BDF95200E7
:100B1000BDF95010884209DABDF85800BDF85010F0
:100B2000401A00B20F900F980E900AE0BDF85800DE
:100B3000BDF85A10401A00B20F900F98401E00B234
:100B40000E90219800287DD0BDF958100B98814255
:100B500079D0BDF95A000C90DDE90C01401A00B2C1
:100B600007900B98ADF818000D98ADF81A0000200A
:100B7000059027E10798012806DD1D9A0599079839
:100B8000F7F7BEFD049008E01D9A05990798FEF757
:100B9000A9FD1D99081AC0B204901E9800F001002A
:100BA000D8B31E9800F00800B8B304980090BDF8C0
:100BB0005E00BDF81A1001440598084400B2029086
:100BC000BDF85C00BDF818100844401C00B201904C
:100BD0002598408903460390249ADDE90101FFF737
:100BE0003CFE04980090BDF85E00BDF81810084463
:100BF000401C00B20290BDF85C00BDF81A10014420
:100C00000598084400B20190259840890346039056
:100C1000249ADDE90101FFF720FE1E9800F0010093
:100C2000E8B31E9800F00400C8B304980090BDF823
:100C30006600BDF818100844401C00B20290BDF8D0
:100C4000640001E04CE1C8E0BDF81A1049420144DB
:100C50000598081A00B20190259840890346039030
:100C6000249ADDE90101FFF7F8FD04980090BDF832
:100C70006600BDF81A1001440598084400B20290BD
:100C8000BDF86400BDF8181049420844401E00B287
:100C900001902598408903460390249A00E003E0E0
:100CA000DDE90101FFF7D9FD1E9800F00200E0B375
:100CB0001E9800F00400C0B304980090BDF86A00CC
:100CC000BDF81A10494201440598081A00B2029072
:100CD000BDF86800BDF8181049420844401E00B233
:100CE00001902598408903460390249ADDE901018B
:100CF000FFF7B3FD04980090BDF86A00BDF8181026
:100D000049420844401E00B20290BDF86800BDF898
:100D10001A10494201440598081A00B2019025981A
:100D2000408903460390249A00E003E0DDE90101D5
:100D3000FFF793FD1E9800F00200E0B31E9800F04C
:100D40000800C0B304980090BDF86200BDF8181008
:100D500049420844401E00B20290BDF86000BDF850
:100D60001A1001440598084400B201902598408962
:100D700003460390249ADDE90101FFF76EFD049814
:100D80000090BDF86200BDF81A1049420144059870
:100D9000081A00B20290BDF86000BDF818100844AF
:100DA000401C00B201902598408903460390249A84
:100DB000DDE9010100E001E0FFF74FFD0598401C6F
:100DC00000B20590079905988842FFF6D3AEBDF9A9
:100DD00058000B900C980D9000BFBDF9501008986A
:100DE00081427DD0BDF95A000990DDE90901401A20
:100DF00000B207900898ADF818000A98ADF81A00EC
:100E0000002005904BE10798012809DD1D9A0599FE
:100E10000798F7F775FC1D99081AC0B2049005E011
:100E20001D9A05990798FEF75DFC04901E9800F046
:100E30000100F8B11E9800F00800D8B104980090A5
:100E4000BDF85E00BDF81A1001440598084400B2D0
:100E50000290BDF85C00BDF818100844401E00B2B6
:100E600001902598408903460390249ADDE9010109
:100E7000FFF7F3FC1E9800F0010000B31E9800F08D
:100E80000400E0B104980090BDF86600BDF81810A9
:100E90000844401E00B20290BDF86400BDF81A106C
:100EA000494201440598081A00B2019025984089EA
:100EB00003460390249ADDE90101FFF7CEFC1E985A
:100EC00000F0020018B31E9800F00400F8B1049876
:100ED0000090BDF86A00BDF81A104942014400E0D4
:100EE000E8E00598081A00B20290BDF86800BDF865
:100EF000181049420844401C00B2019025984089CE
:100F000003460390249ADDE90101FFF7A6FC1E9831
:100F100000F0020000B31E9800F00800E0B1049851
:100F20000090BDF86200BDF8181049420844401C0A
:100F300000B20290BDF86000BDF81A100144059897
:100F4000084400B201902598408903460390249AF2
:100F5000DDE90101FFF781FCBDF91800401EBDF974
:100F60001A200599114488427ED01E9800F0010095
:100F7000F8B11E9800F00800D8B104980090BDF8B0
:100F80005E00BDF818100844401E00B20290BDF883
:100F90005C00BDF81A1001440598084400B20190A5
:100FA0002598408903460390249ADDE90101FFF763
:100FB00054FC1E9800F0010000B31E9800F00400DD
:100FC000E0B104980090BDF86600BDF81A10014425
:100FD0000598084400B20290BDF86400BDF81810EE
:100FE00049420844401C00B20190259840890346BC
:100FF0000390249ADDE90101FFF72FFC1E9800F011
:10100000020008B31E9800F00400E8B104980090B4
:10101000BDF86A00BDF8181049420844401C00B2EF
:101020000290BDF86800BDF81A10494201440598C5
:10103000081A00B201902598408903460390249A2B
:10104000DDE90101FFF709FC1E9800F0020058B12C
:101050001E9800F0080038B104980090BDF86200B6
:10106000BDF81A10494200E015E001440598081A3D
:1010700000B20290BDF86000BDF818100844401E90
:1010800000B201902598408903460390249ADDE937
:101090000101FFF7E2FB0598401C00B2059007999B
:1010A00005988842FFF6AFAEBDF950000890099848
:1010B0000A9000BF1E9800F00100E0B31E9800F0F7
:1010C0000800C0B3BDF85C00BDF8581001440E988C
:1010D000081A00B2ADF84000BDF85C00BDF8581029
:1010E000084400B2ADF84400BDF85E00BDF85A10E7
:1010F000084400B2ADF84200BDF85E00BDF85A10D9
:10110000084400B2ADF8460010A81D9B1F9A249910
:10111000FEF780FBBDF85C00BDF85A10084400B231
:10112000ADF84000BDF85C00BDF85A10084400B2AC
:10113000ADF8440000E017E0BDF85E00BDF85810BF
:1011400001440F98081A00B2ADF84200BDF85E00E5
:10115000BDF85810084400B2ADF8460010A81D9B19
:101160001F9A2499FEF756FB1E9800F00100E8B381
:101170001E9800F00400C8B3BDF86400BDF85A1012
:101180004942084400B2ADF84000BDF86400BDF823
:101190005A104942084400B2ADF84400BDF8660058
:1011A000BDF8581001440E98081A00B2ADF842007C
:1011B000BDF86600BDF85810084400B2ADF846000E
:1011C00010A81D9B1F9A2499FEF724FBBDF864000C
:1011D000BDF858104942084400B2ADF84000BDF8CF
:1011E0006400BDF858104942014400E01AE00F982D
:1011F000084400B2ADF84400BDF86600BDF85A10CE
:10120000084400B2ADF84200BDF86600BDF85A10BF
:10121000084400B2ADF8460010A81D9B1F9A2499FF
:10122000FEF7F8FA1E9800F00200E8B31E9800F0EE
:101230000400C8B3BDF96600BDF95A100844BDF9F1
:101240006A10BDF95A205242114488422BDDBDF884
:101250006800BDF858104942084400B2ADF840009B
:10126000BDF86800BDF85810494201440E98084482
:1012700000B2ADF84400BDF86A00BDF85A1049420A
:10128000084400B2ADF84200BDF86A00BDF85A103B
:101290004942084400B2ADF8460010A81D9B1F9AB1
:1012A0002499FEF7B7FA00E02BE0BDF86800BDF81E
:1012B0005A104942084400B2ADF84000BDF8680039
:1012C000BDF85A104942084400B2ADF84400BDF8D8
:1012D0006A00BDF858104942084400B2ADF8420017
:1012E000BDF86A00BDF85810494201440F980844FF
:1012F00000B2ADF8460010A81D9B1F9A2499FEF776
:1013000089FA1E9800E077E000F00200E8B31E982A
:1013100000F00800C8B3BDF86000BDF85A100844DA
:1013200000B2ADF84000BDF86000BDF85A100844A6
:1013300000B2ADF84400BDF86200BDF85810494253
:10134000084400B2ADF84200BDF86200BDF8581084
:10135000494201440E98084400B2ADF8460010A876
:101360001D9B1F9A2499FEF755FABDF95E00BDF941
:101370005A100844BDF96210BDF95A205242114476
:1013800088422BDDBDF8600000E027E0BDF8581072
:1013900001440F98081A00B2ADF84000BDF8600093
:1013A000BDF85810084400B2ADF84400BDF8620022
:1013B000BDF85A104942084400B2ADF84200BDF8E9
:1013C0006200BDF85A104942084400B2ADF8460028
:1013D00010A81D9B1F9A2499FEF71CFA15A916A8A0
:1013E000FDF7A9FEBDF95200BDF95010884203DA9D
:1013F00013A914A8FDF79FFEBDF95A00BDF95810B6
:1014000088427FF783AB219800287DD0BDF95A0030
:101410000C90DDE90C01401A00B207900B98ADF872
:1014200018000D98ADF81A00002005901CE11D9AD7
:1014300005990798FEF756F91D99081AC0B204904D
:101440001E9800F00100D8B31E9800F00800B8B351
:1014500004980090BDF85E00BDF81A10014405988C
:10146000084400B20290BDF85C00BDF818100844B2
:10147000401C00B201902598408903460390249AAD
:10148000DDE90101FFF7E9F904980090BDF85E007D
:10149000BDF818100844401C00B20290BDF85C0072
:1014A000BDF81A1001440598084400B2019025982F
:1014B000408903460390249ADDE90101FFF7CDF945
:1014C0001E9800F00100E0B31E9800F00400C0B3C5
:1014D00004980090BDF86600BDF818100844401C40
:1014E00000B20290BDF86400BDF81A1049420144F0
:1014F0000598081A00B20190259840890346039088
:10150000249ADDE9010100E0B0E2FFF7A6F90498B2
:101510000090BDF86600BDF81A1001440598084413
:1015200000B20290BDF86400BDF8181049420844AA
:10153000401E00B201902598408903460390249AEA
:1015400000E003E0DDE90101FFF787F91E9800F0F4
:101550000200E0B31E9800F00400C0B304980090AD
:10156000BDF86A00BDF81A10494201440598081AEE
:1015700000B20290BDF86800BDF818104942084456
:10158000401E00B201902598408903460390249A9A
:10159000DDE90101FFF761F904980090BDF86A00E8
:1015A000BDF8181049420844401E00B20290BDF830
:1015B0006800BDF81A10494201440598081A00B2A3
:1015C00001902598408903460390249A00E003E0A7
:1015D000DDE90101FFF741F91E9800F00200E0B3D8
:1015E0001E9800F00800C0B304980090BDF8620097
:1015F000BDF8181049420844401E00B20290BDF8E0
:101600006000BDF81A1001440598084400B201902A
:101610002598408903460390249ADDE90101FFF7EC
:101620001CF904980090BDF86200BDF81A104942F8
:1016300001440598081A00B20290BDF86000BDF898
:1016400018100844401C00B20190259840890346B8
:101650000390249ADDE9010100E001E0FFF7FDF8C5
:101660000598401C00B20590079905988842FFF63E
:10167000DEAEBDF91800BDF91A10401A002805DDCC
:10168000BDF91800BDF91A10401A04E0BDF91A009E
:10169000BDF91810401A079988427DD10B98ADF812
:1016A00018000B98ADF81A001D98401004901E9871
:1016B00000F00100E0B11E9800F00800C0B10498ED
:1016C0000090BDF85E00BDF81810084400B202900A
:1016D000BDF85C00BDF81A10084400B201902598CE
:1016E000408903460390249ADDE90101FFF7B5F82C
:1016F0001E9800F00100E8B11E9800F00400C8B187
:1017000004980090BDF86600BDF81A10084400B2B5
:101710000290BDF86400BDF818104942084400B2B8
:1017200001902598408903460390249ADDE9010140
:10173000FFF793F81E9800F00200F0B11E9800F039
:101740000400D0B104980090BDF86A00BDF81810EC
:101750004942084400B20290BDF86800BDF81A1072
:101760004942084400B201902598408903460390FD
:10177000249ADDE90101FFF770F81E9800F00200DD
:10178000F8B11E9800F00800D8B104980090BDF898
:101790006200BDF81A1000E014E04942084400B2AB
:1017A0000290BDF86000BDF81810084400B2019026
:1017B0002598408903460390249ADDE90101FFF74B
:1017C0004CF800BFBDF9520009900898ADF8180018
:1017D0000A98ADF81A00DDE90901401A00B2079035
:1017E000002005903CE11D9A05990798FDF77AFFC6
:1017F00004901E9800F00100F8B11E9800F0080057
:10180000D8B104980090BDF85E00BDF81A100144EC
:101810000598084400B20290BDF85C00BDF81810AD
:101820000844401E00B20190259840890346039069
:10183000249ADDE90101FFF710F81E9800F001007D
:1018400000B31E9800F00400E0B104980090BDF8C9
:101850006600BDF818100844401E00B20290BDF8A2
:101860006400BDF81A10494201440598081A00B2F4
:1018700001902598408903460390249ADDE90101EF
:10188000FEF7EBFF1E9800F0020008B31E9800F070
:101890000400E8B104980090BDF86A00BDF81A1081
:1018A000494201440598081A00B20290BDF8680048
:1018B000BDF8181049420844401C00B20190259818
:1018C000408903460390249ADDE90101FEF7C5FF34
:1018D0001E9800F0020000B31E9800F00800E0B16E
:1018E00004980090BDF86200BDF818104942084401
:1018F000401C00B20290BDF86000BDF81A1001440F
:101900000598084400B20190259840890346039049
:10191000249ADDE90101FEF7A0FFBDF91800401E81
:10192000BDF91A200599114488427DD01E9800F017
:101930000100F8B11E9800F00800D8B1049800909A
:10194000BDF85E00BDF818100844401E00B20290B9
:10195000BDF85C00BDF81A1001440598084400B2B7
:1019600001902598408903460390249ADDE90101FE
:10197000FEF773FF1E9800F0010000B31E9800F000
:101980000400E0B104980090BDF86600BDF81A109C
:1019900001440598084400B20290BDF86400BDF807
:1019A000181049420844401C00B201902598408913
:1019B00003460390249ADDE90101FEF74EFF1E98CD
:1019C00000F0020008B31E9800F00400E8B104988B
:1019D0000090BDF86A00BDF8181049420844401C48
:1019E00000B20290BDF86800BDF81A1049420144E7
:1019F0000598081A00B20190259840890346039083
:101A0000249ADDE90101FEF728FF1E9800F002008C
:101A100050B11E9800F0080030B104980090BDF855
:101A20006200BDF81A1000E016E049420144059832
:101A3000081A00B20290BDF86000BDF81810084402
:101A4000401E00B201902598408903460390249AD5
:101A5000DDE90101FEF701FF0598401C00B2059089
:101A6000079905988842FFF6BEAE00BF27B000BDBB
:101A70002DE9FF4F87B004469146B9F806001FFADA
:101A800080F806F085FB0090FDF7E7FC074620464E
:101A9000FDF759FA06902046FDF71AFA0590B9F9B4
:101AA0000C600A98FF2802D199F80F0004E099F819
:101AB0000F000A9948430012049099F80E50B9F8A3
:101AC0000A0003904FF0000BDA46701E06B2404643
:101AD000DDE90521FDF77CFE8046B04506DAA6EB80
:101AE0000800C01B0FFA80FBB24603E008EB0700BA
:101AF0000FFA80FAB9F8060000287DD105F002003F
:101B000098B12088ADF80400A088ADF8080060887E
:101B1000ADF806006088304400B2ADF80A0001A8B4
:101B2000DDE903230899FDF775FE05F0080028B3E9
:101B3000A088801B00B2ADF80400A088ADF80800B2
:101B4000B4F9021005F0020008B1701C00E000209A
:101B5000084400B2ADF80600B4F9061005F0010023
:101B600008B1701C00E00020081A00B2ADF80A00AD
:101B700001A8DDE903230899FDF74CFE05F00400F8
:101B800028B32088ADF804002088304400B2ADF8B6
:101B90000800B4F9021005F0020008B1701C00E062
:101BA0000020084400B2ADF80600B4F9061005F0B4
:101BB000010008B1701C00E00020081A00B2ADF866
:101BC0000A0001A8DDE903230899FDF723FE05F0CB
:101BD0000100A8B12088ADF80400A088ADF8080085
:101BE000E088801B00B2ADF80600E088ADF80A007E
:101BF00001A8DDE9032300E005E00899FDF70AFEEE
